:100000000C9467000C948F000C948F000C948F005C
:100010000C948F000C948F000C948F000C948F0024
:100020000C948F000C948F000C948F000C948F0014
:100030000C948F000C948F000C948F000C948F0004
:100040000C94400D0C948F000C94AE0F0C94E00FA8
:100050000C948F000C948F000C948F000C948F00E4
:100060000C948F000C948F00230828082D08320868
:1000700037083C084108450800000008000201005C
:100080000003040700000000000000000102040853
:1000900010204080010204081020010204081020F2
:1000A000040404040404040402020202020203031E
:1000B0000303030300000000250028002B000000BC
:1000C0000000240027002A00BC011010E0011124C8
:1000D0001FBECFEFD8E0DEBFCDBF13E0A0E0B1E0A0
:1000E000EEE3F3E302C005900D92A23CB107D9F70D
:1000F00024E0A2ECB3E001C01D92A039B207E1F701
:1001000010E0CCECD0E004C02297FE010E9428163B
:10011000C83CD107C9F70E9454100C9492190C9452
:100120000000AF92BF92CF92DF92EF92FF920F93B7
:10013000CF93DF93CDB7DEB7C154D1090FB6F89492
:10014000DEBF0FBECDBF26E040E052EC61E070E0C4
:100150008FEE93E00E944C0F6AE071E08FEE93E027
:100160000E94C71060E070E08BED93E00E94BB033B
:100170008091090161E470E0992787FD90950E94C4
:1001800046165C019093DA038093D903C09008016E
:10019000DD24C7FCD0946EE070E0C6010E944616D4
:1001A000FC0130910601A09107011082318380E3A8
:1001B00091E0938382834CED52E05583448348EE73
:1001C00053E060E070E04683578360877187538710
:1001D000428721E02487B2E0B58726873787918B55
:1001E000808B81E891E0938B828B48EC50E060E05B
:1001F00070E0448B558B668B778B88E59BE1918F04
:10020000808F228FB38F7F0106E026E048E0632FC6
:100210007A2FCE0101960E94350A81E4FE013196C3
:10022000D50101900D928A95E1F7CE0101960E94C9
:100230002F0A8091D9039091DA030E94D50A0E9477
:1002400042028091D9039091DA030E94D50A0E945C
:100250008C026091D9037091DA038091C40390916C
:10026000C503FB019183808340910901CE01019672
:100270000E94C1098DE0FE013196ACECB3E0019023
:100280000D928A95E1F7CE0101960E94BD09E09199
:10029000C603F091C703F093CD03E093CC038091A4
:1002A000C4039091C50395838483CF5BDF4F0FB662
:1002B000F894DEBF0FBECDBFDF91CF910F91FF90BD
:1002C000EF90DF90CF90BF90AF9008958BED93E0CB
:1002D0000E94CB039091E2038091E3039923C9F13B
:1002E000882361F061E088E00E94330E6CE871E0E1
:1002F0008FEE93E00E94C7101092E3030E948A0DD4
:10030000AB01BC018CEC93E00E94120AAC0160E0EE
:1003100070E04093C8035093C9036093CA0370937D
:10032000CB038CEC93E00E94D70965EB71E08FEE74
:1003300093E00E94AF104091C8035091C9036091AF
:10034000CA037091CB032AE030E08FEE93E00C9467
:100350003F11882361F060E088E00E94330E68EC72
:1003600071E08FEE93E00E94C7101092E3030895AE
:100370008BED93E00C94DF03CF93DF938BED93E051
:100380000E94B7038CEC93E00E94B209C09109016E
:10039000DD27C7FDD09566E070E0CE010E944616CD
:1003A0009093C7038093C60362E170E0CE010E9480
:1003B00046169093C5038093C403DF91CF910895AF
:1003C0008CEC93E00E94BD098BED93E00C94A2129B
:1003D0008EBD00000DB407FEFDCF8EB508950895C3
:1003E0000E94F60C8CB58C7F8CBD8DB581608DBD67
:1003F0008CB58F7D8CBD8CB5837F8CBD0895CF93DC
:10040000DF93EC0161E08A810E94FA0D61E08B814B
:100410000E94FA0D4A8150E0FA01E056FF4FE49144
:10042000F0E0EE0FFF1FEC54FF4FA591B491BD8794
:10043000AC872B8130E0F901E056FF4F849190E0CA
:10044000880F991F8C549F4FFC01859194919F8731
:100450008E87FA01E457FF4F44914A87F901E45728
:10046000FF4F24912B878C919A85909589238C93AB
:10047000EE85FF8590818B85809589238083DF9130
:10048000CF910895FC0122812F3F11F40C94F001CB
:100490000C94FF01CF93DF93EC0160E08A810E940E
:1004A000FA0D60E08B81DF91CF910C94FA0DCF9320
:1004B000DF93EC018D819E81009711F00E94FA1666
:1004C0008A818F3F21F4DF91CF910C942C0DCE01C6
:1004D000DF91CF910C944A02FC0199E09150D9F040
:1004E000A485B58582852C9167FF03C0282B2C93AA
:1004F00003C0809582238C93A685B7858C91238534
:10050000822B8C93A685B7852C9183858095822339
:100510008C93660FE3CF0895BF92CF92DF92EF9254
:10052000FF920F931F93CF93DF93EC01ED80FE803A
:10053000E114F10409F488C008811981BC808A8122
:100540008F3F09F041C080E00E94E80180E00E94F6
:10055000E80180E00E94E8011EBC3FEF0DB407FEF9
:10056000FDCF3EBDF70123E08C81882331F08081EF
:100570008B9DC0011124892F01C080810DB407FE1D
:10058000FDCF8EBD215031962111EECF83E0E80ED4
:10059000F11C0150110911F70DB407FEFDCF8FEFCB
:1005A0000E94E8018FEF0E94E8018FEF0E94E801AE
:1005B0008FEFDF91CF911F910F91FF90EF90DF9020
:1005C000CF90BF900C94E80174E0D72E60E0CE018C
:1005D0000E946C02DA94D1F78C81882331F16FEF9D
:1005E000CE010E946C026701E3E0CE0ED11CF70140
:1005F00081917F018B9DC0011124692FCE010E9442
:100600006C02EC14FD0499F70150110941F714E054
:1006100015C0F70161917F01CE010E946C02EC14BC
:10062000FD04B9F70150110991F36FEFCE010E945B
:100630006C026701F3E0CF0ED11CEBCF6FEFCE0160
:100640000E946C021150D1F7DF91CF911F910F9151
:10065000FF90EF90DF90CF90BF900895FC0137811D
:10066000208580819181AC01321307C04D5F5F4FBF
:10067000569547955695479502C0440F551F480F0C
:10068000591F60E070E0858196810C94AE180F933D
:100690001F93CF93DF93EC018B018D819E81009797
:1006A00011F00E94FA169F818885981307C0C8012F
:1006B0000396969587959695879503C0C801880FF0
:1006C000991F800F911F0E9462169E838D83892B34
:1006D00049F019830883CE01DF91CF911F910F91CB
:1006E0000C942E0319821882DF91CF911F910F91E4
:1006F00008950F931F93FC01428323831482168273
:100700001582802F8370878310E0C80195958795A7
:10071000959587958370808734E0159507953A9570
:10072000E1F703700187CF011F910F910C944703EC
:10073000FC018081918168177907C0F4DB01AA0F61
:10074000BB1FA60FB71F858196818A0F9B1F5781FC
:10075000DC01A50FB11D4C934085DC01A40FB11D38
:100760003C933185FC01E30FF11D2083089564EB78
:1007700073E00C941013672B59F461E08EE00E9433
:10078000FA0D61E08EE00E94330E80E090E0089563
:100790008FEF9FEF0895CF93DF93EC018E81882335
:1007A00059F0BE018FEE93E00E94B51064EB73E048
:1007B000CE010E9468131E82DF91CF910895AF92FF
:1007C000BF92DF92EF92FF920F931F93CF93DF932D
:1007D000CDB7DEB7AE970FB6F894DEBF0FBECDBF74
:1007E0008C0164EB73E0CE0189960E94101362EFD6
:1007F00071E08FEE93E00E94C71081E0F8018683DC
:10080000E12CF12CD12C8FEE93E00E94690E892B04
:1008100009F48AC1D11064C04AE06FEE73E0CE01E2
:1008200001960E947A12BE016F5F7F4FCE018996BA
:100830000E945C13CE0101960E94A212CE018996FD
:100840000E94781468E172E0CE0101960E941013B4
:10085000BE01675D7F4FCE0101960E94021463EBDB
:1008600073E00E941514BC01C8010E94D813CE0188
:1008700001960E94A2126DE272E0CE0189960E945A
:100880002F14882341F061E372E0C8010E94DF1356
:10089000E12CF12C22C064E472E0CE0189960E9422
:1008A0002F14882349F06DE472E0C8010E94DF1321
:1008B000EE24E394F12C11C065E672E0CE01899636
:1008C0000E942F14882309F49ECF61E772E0C801CB
:1008D0000E94DF1382E0E82EF12CDD24D39493CF25
:1008E00064EB73E0CE0183960E9410136CE872E013
:1008F000C8010E94DF13F1E0EF16F10409F442C0D1
:1009000082E0E816F10409F4B7C0E114F10409F03B
:10091000FCC041E060E070E08FEE93E00E94F011D7
:100920005B014AE0CE0147960E9480136CEA72E0B8
:10093000CE0101960E941013BE01695E7F4FCE0169
:1009400001960E94021463EB73E00E941514BC012F
:10095000C8010E94D813CE0101960E94A212CE01B6
:1009600047960E94A21261E088E0AB2821F40E9421
:10097000FA0D60E003C00E94FA0D61E088E00E9479
:10098000330EC3C04AE06FEE73E0CE0101960E94C1
:100990007A12BE016F5F7F4FCE0183960E945C1377
:1009A000CE0101960E94A2124FA158A54F5F5F4F42
:1009B00020E030E0BE016F5F7F4FCE0183960E9442
:1009C0004E144AE06FEE73E0CE0147960E947A1211
:1009D000BE01695E7F4FCE0183960E945C13CE01FB
:1009E00047960E94A212CE0183960E94D7147E8B56
:1009F0006D8BBE016F5F7F4FCE014D960E9410132D
:100A00006AEC72E0CE0147960E941013BE01635E4D
:100A10007F4FCE0147960E9402146BED72E00E9458
:100A20001514BC01C8010E94D813CE0147960E943C
:100A3000A212CE014D960E94A2126D897E894AE0D3
:100A4000CE014D960E9480136EED72E0CE01479666
:100A50000E941013BE01635E7F4FCE0147960E9435
:100A60000214BC01C8010E94D813CE0147960E940F
:100A7000A212CE014D9647C041E060E070E08FEEDB
:100A800093E00E94F01121E0F801208761307105A8
:100A900081F06230710599F0672BB9F527834AE040
:100AA00060E070E0CE0147960E9480136DEE72E028
:100AB00011C0F80117824AE061E070E005C0F8015A
:100AC00017824AE062E070E0CE0147960E948013F0
:100AD0006DE273E0CE0101960E941013BE01695EC3
:100AE0007F4FCE0101960E94021463EB73E00E94D7
:100AF0001514BC01C8010E94D813CE0101960E94B2
:100B0000A212CE0147960E94A2126FEE73E0CE01B0
:100B100001960E946012CE0101960E94A212CE019F
:100B200083960E94A2126FCECE0189960E94A212D5
:100B3000AE960FB6F894DEBF0FBECDBFDF91CF915A
:100B40001F910F91FF90EF90DF90BF90AF900895AD
:100B5000EF92FF920F931F93CF93DF938C01009737
:100B600009F447C06115710509F443C08EE0849F04
:100B7000F001859FF00D1124E60FF71FC281D3818C
:100B8000FE0101900020E9F7CF0161E070E08C1BCD
:100B90009D0B0E9446167C01FE0101900020E9F7A2
:100BA000AF01415051094C1B5D0BBE010E94C5189D
:100BB0006EE673E0C7010E94A0180097D1F00E9472
:100BC000531820E030E0A901BC01C8010E9498033D
:100BD0006EE673E080E090E00E94A018009779F73D
:100BE000C801DF91CF911F910F91FF90EF900C946E
:100BF0008C02DF91CF911F910F91FF90EF9008959C
:100C00002F923F924F925F926F927F928F929F921C
:100C1000AF92BF92CF92DF92EF92FF920F931F930A
:100C2000CF93DF93CDB7DEB73C01F90124012D88C6
:100C30003E88AF89B88D009709F427C16115710509
:100C400009F423C10D90BC91A02D51961C92808176
:100C5000918197FF1FC00196918380838FEF9FEF53
:100C6000D8018D939C93D7011D921C9281E090E056
:100C7000D6018D939C9382E090E0D5018D939C9357
:100C800083E090E0D4018D939C9384E090E0D101C7
:100C90008D939C938EE0849F4001859F900C11243E
:100CA000860E971ED40111968C9190E0D8012D915B
:100CB0003C9111972817390704F1808191810196A1
:100CC000918380831D921C9281E090E0D7018D93E7
:100CD0009C9382E090E0D6018D939C9383E090E01A
:100CE000D5018D939C9384E090E0D2018D939C93E9
:100CF00085E090E0D1018D939C93D4011D968C9159
:100D000090E020813181821793070CF4A9C0F8018B
:100D100060817181CB0101969183808320E030E076
:100D2000A901C3010E949803D7016D917C9111978D
:100D3000CB0101968D939C9320E030E04FEF50E083
:100D4000C3010E949803F60160817181CB01019675
:100D50009183808320E035EA4FEF50E0C3010E9489
:100D60009803D5016D917C911197CB0101968D93DC
:100D70009C9320E03FEF4FEF50E0C3010E949803A7
:100D8000F20160817181CB0101969183808320E023
:100D90003FEF40E050E0C3010E949803D1016D9104
:100DA0007C911197CB0101968D939C932FEF30E0AE
:100DB00040E050E0C3010E949803F7016081718117
:100DC0006250710920E030E0A901C3010E9498033C
:100DD000D40111968C9190E0F8012081318128177F
:100DE000390714F011821082D40111968C9190E091
:100DF000F701208131812817390714F01182108200
:100E0000D40111968C9190E0F60120813181281750
:100E1000390714F011821082D40111968C9190E060
:100E2000F501208131812817390714F011821082D1
:100E3000D40111968C9190E0F20120813181281724
:100E4000390714F011821082D40111968C9190E030
:100E5000F101208131812817390714F011821082A5
:100E6000C301DF91CF911F910F91FF90EF90DF9021
:100E7000CF90BF90AF909F908F907F906F905F903A
:100E80004F903F902F900C948C02DF91CF911F9147
:100E90000F91FF90EF90DF90CF90BF90AF909F9019
:100EA0008F907F906F905F904F903F902F9008951C
:100EB0002F923F924F925F926F927F928F929F926A
:100EC000AF92BF92CF92DF92EF92FF920F931F9358
:100ED000CF93DF9300D000D000D0CDB7DEB75C0158
:100EE0004B012901302E2E2C009709F40EC16115FB
:100EF000710509F40AC18EE0849F8001859F100D61
:100F00001124060F171FD8011296ED91FC9113972B
:100F1000DF010D900020E9F7CD0161E070E08E1B4C
:100F20009F0B4D835E830E9446163C01D8011496A8
:100F3000ED91FC911597DF010D900020E9F7CD01AF
:100F400061E070E08E1B9F0B0E9446167C019601AB
:100F50004D815E81B401C5010E94A805F80162813E
:100F60007381DB010D900020E9F7AD01415051097B
:100F7000461B570BC3010E94C518F8016481758197
:100F8000DB010D900020E9F7AD0141505109461BEE
:100F9000570BC7010E94C518AE014D5F5F4F6EE64B
:100FA00073E0C3010E94D4188C01AE014F5F5F4F04
:100FB0006EE673E0C7010E94D4187C01011511058B
:100FC00021F00097C9F4C80102C0009711F00E94F7
:100FD000FA168B819C81009711F00E94FA16898184
:100FE0009A81009711F00E94FA1660E773E08FEE85
:100FF00093E00E94C71089C0332071F0C8010E949D
:101000005318B20161507109680F791F20E030E078
:10101000A901C5010E949803C8010E9453186C01E0
:10102000C40CD51CC7010E9453189C01442737FDEE
:101030004095542FFC013197E830F10550F5EC5CF8
:10104000FF4F0C9426162FEF3FEF4FEF50E021C0DB
:1010500020E030E04FEF50E01CC020E03FEF40E0E8
:1010600050E017C02FEF30E040E050E012C020E029
:101070003FEF4FEF50E00DC02FEF3FEF40E050E06B
:1010800008C02FEF30E0A90104C020E035EA4FEF9F
:1010900050E0B601C5010E949803AE014D5F5F4F5D
:1010A0006EE673E080E090E00E94D4188C01AE01FF
:1010B0004F5F5F4F6EE673E080E090E00E94D418CF
:1010C0007C010115110509F0A7CF222049F0B601D6
:1010D0006F5F7F4F20E030E0A901C5010E949803B7
:1010E000C5010E948C02E114F10419F0C7010E94AD
:1010F000FA168B819C81009711F00E94FA16898163
:101100009A81009711F00E94FA1626960FB6F8946D
:10111000DEBF0FBECDBFDF91CF911F910F91FF902A
:10112000EF90DF90CF90BF90AF909F908F907F9087
:101130006F905F904F903F902F9008952F923F9225
:101140004F925F926F927F928F929F92AF92BF92D7
:10115000CF92DF92EF92FF920F931F93CF93DF9383
:1011600000D000D000D0CDB7DEB72C013B011A0172
:101170003E832D83FA82E982DC82CB82AF8DB8A1D7
:10118000ED91FC9111978FEF818B4114510409F47B
:10119000D0C06115710509F4CCC0ED91FC91119797
:1011A000118AED91FC91D9018C9190E0A0E0B0E022
:1011B00081839283A383B483D7018D919C91AA27C5
:1011C00097FDA095BA2F85839683A783B087D50115
:1011D0008D919C91AA2797FDA095BA2F8587968718
:1011E000A787B08BD6018C918083F90180818823F9
:1011F00071F1CF8CD8A0E12C00E020E030E0C201FA
:101200000E945807AD81BE811C928EE0829DF00144
:10121000839DF00D1124E60DF71D848590E0F40107
:1012200091838083A981BA811D921C928B8D9C8DA4
:10123000F501918380838D8D9E8DAB81BC818D93D3
:101240009C93AF8DB8A1ED91FC9181E071C0F40148
:1012500080819181892B09F463C0D8012C91E981A7
:10126000FA8180819181222369F1019691838083A3
:10127000D5018D919C911197019611969C938E9317
:10128000EB81FC81808191810196918380838EE046
:10129000849FF001859FF00D1124E60FF71F8181D7
:1012A00090E02D913C91281739074CF4A981BA811F
:1012B0002D913C91CF8CD8A0E12C01E021C0F80108
:1012C000108227C00197E981FA8191838083D5013B
:1012D0008D919C91119701978D939C93EB81FC814B
:1012E0008081918101979183808397FD0FC0A981AF
:1012F000BA812D913C91CF8CD8A0EE24E39400E0EC
:10130000A101B301C2010E9458070AC081E0F8019F
:101310008083D4018D919C91119701968D939C931C
:10132000C2010E948C02AF8DB8A1ED91FC9182E0C8
:10133000818B26960FB6F894DEBF0FBECDBFDF912E
:10134000CF911F910F91FF90EF90DF90CF90BF90C2
:10135000AF909F908F907F906F905F904F903F9055
:101360002F900895FC011182108212821482138240
:1013700011861286138614860895FC011482138246
:1013800008950F931F93FC0111821082748363836D
:1013900015821682178210860FEF1FEF98010187C2
:1013A00012872387348742831F910F910895EF920C
:1013B000FF920F931F93CF93DF93EC010D811E815A
:1013C0002F813885400F511F621F731F4D835E832D
:1013D0006F837887E881F9814083518362837383C7
:1013E000E12CF12C00E010E08A81992787FD90958F
:1013F0000817190784F44D815E816F8178858B8190
:101400009C818E0D9F1D0E94A60B0F5F1F4F81E4D4
:10141000E80EF11CE9CFDF91CF911F910F91FF9062
:10142000EF9008950F931F93FC010185128523858A
:1014300034850F3F1F4F2F4F3F4F21F44187528775
:1014400063877487818592859A01281B390BC901AE
:1014500041875287638774871F910F910895FC011C
:10146000138A128A02960C9457028F929F92AF921F
:10147000BF92CF92DF92EF92FF920F93CF93DF93C1
:10148000CDB7DEB764970FB6F894DEBF0FBECDBF01
:101490005C014C0182E0880E911CC4012C8B4B8BAB
:1014A000698B7A8B0E94EF01D50153961C921E9294
:1014B000529754961C92549781E055968C93559769
:1014C00056968C93F501178A108E118E128E8FEF1F
:1014D0009FEFDC01838F948FA58FB68FD501178E78
:1014E00010A211A212A294A383A396A385A390A7EE
:1014F00087A312A611A681E090E094A783A782E0BB
:1015000090E096A785A783E090E090AB87A7E4E002
:10151000F0E0D296FC93EE93D197D4961C921E9253
:10152000D397D6969C938E93D597D8961C921E925D
:10153000D797DA961C921E92D997DC961C921E922F
:10154000DB97DE961C921E92DD97F501FF961182C5
:10155000108206E02C894B8969897A89CE0101962F
:101560000E94790380E1FE013196D40101900D9231
:101570008A95E1F7CE0101960E945702F501F38AA0
:10158000E28AD2AEC1AE64960FB6F894DEBF0FBE4B
:10159000CDBFDF91CF910F91FF90EF90DF90CF9073
:1015A000BF90AF909F908F900895029608950F93EB
:1015B0001F93CF93DF93DC01D7964D915C91D89721
:1015C0006EE0649F9001659F300D11245296ED915D
:1015D000FC915397E20FF31FC281D381FE0101906A
:1015E0000020E9F7CF0161E070E08C1B9D0B0E94A9
:1015F00046168C01DE010D900020E9F7AD01415047
:1016000051094C1B5D0BBE010E94C5186EE673E0CC
:10161000C8010E94A018009779F00E945318D82F93
:10162000C92F6EE673E080E090E00E94A01800975A
:10163000A1F78D2F9C2F02C08FEF9FEFDF91CF91ED
:101640001F910F9108950F931F93CF93DF93DC01A8
:10165000D7964D915C91D8976EE0649F9001659FFD
:10166000300D11245296ED91FC915397E20FF31F28
:10167000C281D381FE0101900020E9F7CF0161E032
:1016800070E08C1B9D0B0E9446168C01DE010D90B4
:101690000020E9F7AD01415051094C1B5D0BBE0123
:1016A0000E94C5186EE673E0C8010E94A018EC0104
:1016B000009741F00E9453188C01CE010E94FA1647
:1016C000C80102C08FEF9FEFDF91CF911F910F9163
:1016D0000895FC0112AE11AE178A108E118E128E73
:1016E0004FEF5FEFBA01438F548F658F768F178E60
:1016F00010A211A212A2148A81E0858B868B14AEEF
:1017000013AE16AE15AE8FEF9FEF94A383A396A3EF
:1017100085A390A787A312A611A681E090E094A7C5
:1017200083A782E090E096A785A783E090E090AB46
:1017300087A784E090E092AB81AB14AA13AA16AA03
:1017400015AAFF961182108281E008953F924F9270
:101750005F926F927F928F929F92AF92BF92CF9241
:10176000DF92EF92FF920F931F93CF93DF93EC01E1
:101770008F8D98A1A9A1BAA1481B590B6A0B7B0BAD
:101780004F8B588F698F7A8FEFA8F8AC29AD3AAD9F
:10179000E216F30698F08C89811116C1A701415019
:1017A00051096A897B899E01CE0102960E94A80593
:1017B000CE010E94690B81E08C8B06C11C8A2EE051
:1017C0002E9D80012F9D100D11242A893B89200F09
:1017D000311FF9010285138520E030E00417150759
:1017E00026073707B8F4800F911FA21FB31F8F8FF2
:1017F00098A3A9A3BAA3F7013196F8AFEFAB1F8A5C
:10180000188E198E1A8E8FEF9FEFDC018B8F9C8FB5
:10181000AD8FBE8FE881F9818FEF80836F89788DDE
:10182000898D9A8D0E94761520E030E048E453E4DB
:101830000E94E2140E944A159B01AC01A8ECB0E0A2
:101840000E942C160B8D1C8D2D8D3E8D0F3FFFEFB2
:101850001F072F073F0729F06017710782079307BB
:1018600031F021E02C8B6B8F7C8F8D8F9E8F6F8B57
:10187000788F898F9A8F6A887B884FA858AC2EE022
:10188000249D8001259D100D1124060D171DF801C2
:1018900026813781408551850E940416672B682B6D
:1018A000692B09F091C08C89882309F48DC0F80157
:1018B0003080F2E03F1609F441C0F31560F13320A7
:1018C00091F121E032127FC0DF93CF93CE01C19618
:1018D0009F938F934E012FE2820E911C5E014DE289
:1018E000A40EB11C6E018BE2C80ED11C7E01E9E290
:1018F000EE0EF11C8E01095D1F4F9E012D5D3F4FC5
:10190000A201B301CE0102960E9400060F900F9033
:101910000F900F9058C043E03416E1F084E0381681
:1019200009F44EC050C09E01A201B301CE0102963F
:101930000E94A805E881F981108245C06E01E12C62
:1019400000E020E030E0A201B301CE0102960E9447
:10195000580736C0CE010E94D70A182F092FCE0192
:101960000E94230B4FA958AD6A897B89DF93CF93DF
:101970009F938F930F931F934E018FE3880E911CBB
:101980005E01E5E3AE0EB11C6E01F3E3CF0ED11C98
:101990007E0123E2E20EF11C8E010A5E1F4F9E01C2
:1019A0002B5E3F4FCE0102960E949E08E881F9818E
:1019B00030820F900F900F900F900F900F9003C0F8
:1019C000E881F98130821C8ADF91CF911F910F91BC
:1019D000FF90EF90DF90CF90BF90AF909F908F904F
:1019E0007F906F905F904F903F900895CF93CFB7C7
:1019F000F8948091E503811127C0EAEAF0E0849130
:101A0000E6E9F0E09491E82FF0E0EE0FFF1FE254DA
:101A1000FF4FA591B4918C91892321F461E08AE074
:101A20000E94330E61E08AE00E94FA0D8CB580615D
:101A30008CBD8CB580648CBD61E08DE00E94FA0D98
:101A400061E08BE00E94FA0D8091E5038F5F809347
:101A5000E503CFBFCF9108959FB7F8948091E50338
:101A6000882319F081508093E5038091E50381116B
:101A700005C08CB58F7B8CBD1092E4039FBF089589
:101A80001F920F920FB60F9211242F933F938F93B3
:101A90009F93AF93BF938091E7039091E803A09148
:101AA000E903B091EA033091E60323E0230F2D37D9
:101AB00020F40196A11DB11D05C026E8230F029652
:101AC000A11DB11D2093E6038093E7039093E803E3
:101AD000A093E903B093EA038091EB039091EC03A8
:101AE000A091ED03B091EE030196A11DB11D80936D
:101AF000EB039093EC03A093ED03B093EE03BF913F
:101B0000AF919F918F913F912F910F900FBE0F90AA
:101B10001F9018952FB7F8946091E7037091E80330
:101B20008091E9039091EA032FBF0895789484B5DA
:101B3000826084BD84B5816084BD85B5826085BDC9
:101B400085B5816085BDEEE6F0E0808181608083AF
:101B5000E1E8F0E010828081826080838081816092
:101B60008083E0E8F0E0808181608083E1EBF0E059
:101B7000808184608083E0EBF0E0808181608083FD
:101B8000EAE7F0E0808184608083808182608083E6
:101B90008081816080838081806880831092C10011
:101BA0000895833081F028F4813099F08230A1F0DB
:101BB00008958730A9F08830B9F08430D1F480914D
:101BC00080008F7D03C0809180008F77809380009C
:101BD000089584B58F7702C084B58F7D84BD089544
:101BE0008091B0008F7703C08091B0008F7D80938B
:101BF000B0000895CF93DF9390E0FC01E457FF4FCE
:101C00002491FC01E056FF4F8491882349F190E034
:101C1000880F991FFC01E254FF4FA591B4918C5499
:101C20009F4FFC01C591D4919FB7611108C0F894F2
:101C30008C91209582238C93888182230AC0623004
:101C400051F4F8948C91322F309583238C938881B2
:101C5000822B888304C0F8948C91822B8C939FBF35
:101C6000DF91CF9108950F931F93CF93DF931F922E
:101C7000CDB7DEB7282F30E0F901E858FF4F849147
:101C8000F901E457FF4F1491F901E056FF4F049119
:101C90000023C9F0882321F069830E94D10D698156
:101CA000E02FF0E0EE0FFF1FEC54FF4FA591B49131
:101CB0009FB7F8948C91611103C01095812301C0E6
:101CC000812B8C939FBF0F90DF91CF911F910F912C
:101CD0000895FC01818D228D90E0805C9F4F821BD6
:101CE00091098F7399270895FC01918D828D981722
:101CF00031F0828DE80FF11D858D90E008958FEF12
:101D00009FEF0895FC01918D828D981761F0828D6F
:101D1000DF01A80FB11D5D968C91928D9F5F9F731F
:101D2000928F90E008958FEF9FEF089586E090E105
:101D3000892B49F088EB91E0892B29F00E9406104D
:101D400081110C94B8010895FC01848DDF01A80F66
:101D5000B11DA35ABF4F2C91848D90E001968F73D3
:101D60009927848FA689B7892C93A089B1898C91F2
:101D700080648C93938D848D981306C00288F389B8
:101D8000E02D80818F7D80830895CF93DF93EC01D8
:101D9000888D8823C9F0EA89FB89808185FD05C08B
:101DA000A889B9898C9186FD0FC00FB607FCF5CFC5
:101DB000808185FFF2CFA889B9898C9185FFEDCF0D
:101DC000CE010E94A40EE7CFDF91CF910895CF926C
:101DD000DF92FF920F931F93CF93DF931F92CDB7A4
:101DE000DEB76C0181E0D60158968C9358975B96CC
:101DF0009C915B975C968C915C97981307C050966A
:101E0000ED91FC915197808185FD2EC0F601038DE7
:101E100010E00F5F1F4F0F731127F02EF601848D16
:101E2000F81211C00FB607FCF9CFD6015096ED910C
:101E3000FC915197808185FFF1CFC60169830E9493
:101E4000A40E6981EBCF838DE80FF11DE35AFF4F9C
:101E50006083D6015B960C935B975296ED91FC9153
:101E60005397808180620CC0D6015696ED91FC910B
:101E7000579760835096ED91FC91519780818064D3
:101E8000808381E090E00F90DF91CF911F910F91BF
:101E9000FF90DF90CF900895BF92CF92DF92EF92A4
:101EA000FF92CF93DF93EC016A017B01B22EE889A8
:101EB000F98982E08083411581EE5807610571053B
:101EC000A1F060E079E08DE390E0A70196010E9427
:101ED0000416215031094109510956954795379506
:101EE0002795211580E1380798F0E889F989108253
:101EF00060E874E88EE190E0A70196010E94041664
:101F00002150310941095109569547953795279533
:101F1000EC85FD853083EE85FF852083188EEC8966
:101F2000FD89B082EA89FB89808180618083EA89AA
:101F3000FB89808188608083EA89FB898081806851
:101F40008083EA89FB8980818F7D8083DF91CF91B7
:101F5000FF90EF90DF90CF90BF9008951F920F9267
:101F60000FB60F9211242F938F939F93EF93FF93AC
:101F7000E091FF03F09100048081E0910504F0916D
:101F8000060482FD12C09081809108048F5F8F73D8
:101F900020910904821751F0E0910804F0E0E1512A
:101FA000FC4F958F8093080401C08081FF91EF91D1
:101FB0009F918F912F910F900FBE0F901F901895AA
:101FC0001F920F920FB60F9211242F933F934F93AE
:101FD0005F936F937F938F939F93AF93BF93EF9391
:101FE000FF938FEE93E00E94A40EFF91EF91BF91BB
:101FF000AF919F918F917F916F915F914F913F91A1
:102000002F910F900FBE0F901F9018958FEE93E0B9
:102010000E94690E21E0892B09F420E0822F0895A7
:102020001092F2031092F10388EE93E0A0E0B0E08A
:102030008093F3039093F403A093F503B093F60316
:1020400086EA93E09093F0038093EF0385EC90E0B1
:102050009093FC038093FB0384EC90E09093FE0349
:102060008093FD0380EC90E0909300048093FF0345
:1020700081EC90E0909302048093010482EC90E064
:10208000909304048093030486EC90E090930604FC
:1020900080930504109208041092090410920A0417
:1020A00010920B04089508950E94960D0E945310FB
:1020B0000E949100C6E9DEE00E9466012097E1F3EC
:1020C0000E94960EF9CFCF92DF92EF92FF920F937C
:1020D0001F93CF93DF937C016A01EB0100E010E0D6
:1020E0000C151D0571F06991D701ED91FC910190DE
:1020F000F081E02DC7010995892B19F00F5F1F4F63
:10210000EFCFC801DF91CF911F910F91FF90EF901A
:10211000DF90CF9008956115710581F0DB010D907E
:102120000020E9F7AD0141505109461B570BDC0176
:10213000ED91FC910280F381E02D099480E090E024
:102140000895DC01ED91FC91DB0114964D915C91B9
:1021500015976D917C910280F381E02D09940C9488
:102160008B1062EB73E00C948B100F931F93CF9343
:10217000DF93EC010E94A1108C01CE010E94B110EE
:10218000800F911FDF91CF911F910F9108950F93B1
:102190001F93CF93DF93EC010E948B108C01CE0133
:1021A0000E94B110800F911FDF91CF911F910F916D
:1021B00008958F929F92AF92BF92CF92DF92EF924B
:1021C000FF920F931F93CF93DF93CDB7DEB7A19705
:1021D0000FB6F894DEBF0FBECDBF7C01C42EE52F35
:1021E000CB01D22E19A221E02D1510F02AE0D22E1B
:1021F0008E010F5D1F4F8D2C912CA12CB12C6C2DBD
:102200007E2FA50194010E9404168C2DD29E801968
:102210001124015011098A3014F4805D01C0895CD9
:10222000F8018083211531054105510521F0C22EA9
:10223000E32FCA01E4CFB801C7010E948B10A19619
:102240000FB6F894DEBF0FBECDBFDF91CF911F91C7
:102250000F91FF90EF90DF90CF90BF90AF909F9045
:102260008F9008952115310541F4DC01ED91FC9129
:102270000190F081E02D642F09940C94D9100F93F4
:102280001F93CF93DF93EC010E9432118C01CE019A
:102290000E94B110800F911FDF91CF911F910F917C
:1022A00008950F931F93CF93DF93EC010E948A0D43
:1022B000688779878A879B87E881F9810680F7811B
:1022C000E02DCE01099597FF15C00E948A0D088563
:1022D00019852A853B85601B710B820B930B0C8142
:1022E0001D812E813F81601771078207930720F3BC
:1022F0008FEF9FEFDF91CF911F910F9108950F9373
:102300001F93CF93DF93EC010E948A0D6887798732
:102310008A879B87E881F9810084F185E02DCE01D1
:10232000099597FF15C00E948A0D088519852A8591
:102330003B85601B710B820B930B0C811D812E81E1
:102340003F81601771078207930720F38FEF9FEF9C
:10235000DF91CF911F910F910895FF920F931F93DB
:10236000CF93DF93EC018B01F42ECE010E947F11FD
:102370009C0197FD28C08D32910519F1C0970A97ED
:1023800010F1FF2019F02E323105F9F0013011055E
:10239000F9F00230110569F42D30310551F034F4B3
:1023A000295031092230310520F012C02032310588
:1023B00079F4E881F9810680F781E02DCE01099555
:1023C000D4CF8DE203C0C90105C08EE290E002C007
:1023D0008FEF9FEFDF91CF911F910F91FF900895A5
:1023E000CF92DF92FF920F931F93CF93DF9300D092
:1023F00000D0CDB7DEB76C01042F40E00E94AD11D4
:10240000FC0197FD4BC020E030E0A901F12C112721
:1024100007FD1095E017F107E9F0ED32F105C1F085
:10242000CF01C0970A97B0F4AAE0B0E00E942C1642
:102430009B01AC01CF01AA2797FDA095BA2F280FC9
:10244000391F4A1F5B1F205331094109510902C03E
:10245000FF24F394D601ED91FC910680F781E02DE5
:10246000C60129833A834B835C830995C6010E9488
:102470007F11FC01C09729813A814B815C810A97C9
:1024800048F2E017F10731F2FF2061F06627772765
:10249000CB01621B730B840B950B06C060E070E0F0
:1024A000CB0102C0CA01B9010F900F900F900F909D
:1024B000DF91CF911F910F91FF90DF90CF90089502
:1024C0000F931F93CF93DF93EC018B0164EB73E0C9
:1024D0000E941013C8010E94511197FD05C0682F7A
:1024E000CE010E94EF13F6CFCE01DF91CF911F9165
:1024F0000F910895EF92FF920F931F93CF93DF9365
:10250000EC018B01E42E64EB73E00E941013C80110
:102510000E945111FF24E7FCF09497FD0BC08E152B
:102520009F0541F0682FCE010E94EF13C8010E9461
:102530005111F3CFCE01DF91CF911F910F91FF90F9
:10254000EF900895FC01808191810C94FA16CF934D
:10255000DF93EC0188819981009711F00E94FA16AF
:10256000198218821D821C821B821A82DF91CF91F0
:1025700008950F931F93CF93DF93EC018B016F5F4F
:102580007F4F888199810E948917009731F0998344
:1025900088831B830A8381E001C080E0DF91CF91B3
:1025A0001F910F910895CF93DF93EC01888199815A
:1025B000892B29F08A819B818617970760F4CE01C9
:1025C0000E94B912882341F08C819D81892B19F4D6
:1025D000E881F981108281E0DF91CF910895EF9237
:1025E000FF920F931F93CF93DF93EC017B018A013E
:1025F000BA010E94D312811104C0CE010E94A71219
:1026000007C01D830C83B701888199810E94BE1881
:10261000CE01DF91CF911F910F91FF90EF90089520
:10262000FC011182108213821282158214826115BC
:10263000710559F0FB0101900020E9F7AF0141500D
:102640005109461B570B0C94EF1208950F931F93DB
:10265000CF93DF938C01EB01FC0180819181009786
:1026600099F0428153812C813D814217530750F0EC
:10267000688179810E94BE188C819D81F8019583C3
:10268000848313C00E94FA1688819981F80191838E
:1026900080838A819B81938382838C819D819583B2
:1026A0008483198218821B821A821D821C82DF9108
:1026B000CF911F910F910895CF93DF93EC0186176F
:1026C000970711F00E942613CE01DF91CF91089554
:1026D000CF93DF93EC016115710561F0FB0101906F
:1026E0000020E9F7AF0141505109461B570B0E94EA
:1026F000EF1202C00E94A712CE01DF91CF91089580
:102700000F931F93CF93DF93CDB7DEB762970FB6CA
:10271000F894DEBF0FBECDBF8C01CB01F801118252
:102720001082138212821582148250E0BE016F5F04
:102730007F4F0E94FB18BE016F5F7F4FC8010E9450
:10274000681362960FB6F894DEBF0FBECDBFDF915F
:10275000CF911F910F910895EF92FF920F931F93C6
:10276000CF93DF93EC017B010C811D816115710515
:1027700011F480E016C04115510591F0040F151FAA
:10278000B8010E94D3128823A1F3288139818C815A
:102790009D81B701820F931F0E94BE181D830C8379
:1027A00081E0DF91CF911F910F91FF90EF900895FD
:1027B000FB0144815581608171810C94AC136115DA
:1027C000710559F0FB0101900020E9F7AF0141507C
:1027D0005109461B570B0C94AC1380E00895CF931E
:1027E000DF9300D0CDB7DEB769831A8241E050E0B5
:1027F000BE016F5F7F4F0E94AC130F900F90DF916F
:10280000CF910895CF93DF93EC01FB014481558173
:10281000608171810E94AC13811103C0CE010E94BE
:10282000A712CE01DF91CF910895CF93DF93EC01F2
:102830006115710569F0FB0101900020E9F7AF0116
:1028400041505109461B570B0E94AC13811103C024
:10285000CE010E94A712CE01DF91CF910895FC0115
:1028600024813581232B31F421E061157105A1F01C
:10287000FB0108C0FC01808191816115710531F473
:1028800021E0FC018081882339F005C00E94B51841
:1028900021E0892B09F020E0822F08950F931F93E8
:1028A000CF93DF93EB0141155105E9F02097D9F063
:1028B000FC016481758126173707A0F4621B730B36
:1028C0008A01015011096017710708F48B01FC019E
:1028D00060817181620F731FA801CE010E94C5182B
:1028E000C00FD11F1882DF91CF911F910F910895D2
:1028F000AF92BF92CF92DF92EF92FF920F931F930E
:10290000CF93DF937C01DC01CD90DC901197C11453
:10291000D10409F441C01496CD91DC91159720970C
:10292000D9F156018501BFEFAB1ABB0AF8018081CE
:10293000992787FD90950E949818892B99F72197E0
:10294000CC0DDD1D8881992787FD90950E949818F0
:10295000892B91F4AE014F5F5F4F401B510BD701A4
:1029600015965C934E931497C016D10650F4B80197
:10297000C6010E94A51805C0C017D10758F32197BA
:10298000E1CFD701ED91FC91119714968D919C9117
:102990001597E80FF91F1082DF91CF911F910F91CA
:1029A000FF90EF90DF90CF90BF90AF900895FC0123
:1029B00080819181009711F00C94711860E070E0B3
:1029C000CB0108950CD0E6C0DED040F0D5D030F079
:1029D00021F45F3F19F0C7C0511110C1CAC0EBD03C
:1029E00098F39923C9F35523B1F3951B550BBB27D6
:1029F000AA2762177307840738F09F5F5F4F220F83
:102A0000331F441FAA1FA9F333D00E2E3AF0E0E87B
:102A100030D091505040E695001CCAF729D0FE2FC7
:102A200027D0660F771F881FBB1F26173707480759
:102A3000AB07B0E809F0BB0B802DBF01FF2793580F
:102A40005F4F2AF09E3F510568F08DC0D7C05F3FB1
:102A5000ECF3983EDCF3869577956795B795F795F7
:102A60009F5FC9F7880F911D9695879597F90895EF
:102A7000E1E0660F771F881FBB1F6217730784078B
:102A8000BA0720F0621B730B840BBA0BEE1F88F79A
:102A9000E095089598D088F09F5790F0B92F992726
:102AA000B751A0F0D1F0660F771F881F991F1AF059
:102AB000BA95C9F712C0B13081F09FD0B1E0089546
:102AC0009CC0672F782F8827B85F39F0B93FCCF3C7
:102AD000869577956795B395D9F73EF4909580954F
:102AE000709561957F4F8F4F9F4F0895E89409C06F
:102AF00097FB3EF490958095709561957F4F8F4F31
:102B00009F4F9923A9F0F92F96E9BB279395F69546
:102B1000879577956795B795F111F8CFFAF4BB0FC4
:102B200011F460FF1BC06F5F7F4F8F4F9F4F16C028
:102B3000882311F096E911C0772321F09EE8872FB2
:102B4000762F05C0662371F096E8862F70E060E06E
:102B50002AF09A95660F771F881FDAF7880F9695E7
:102B6000879597F9089597F99F6780E870E060E08E
:102B700008959FEF80EC089500240A941616170616
:102B800018060906089500240A941216130614065E
:102B900005060895092E0394000C11F4882352F0C1
:102BA000BB0F40F4BF2B11F460FF04C06F5F7F4F79
:102BB0008F4F9F4F089557FD9058440F551F59F060
:102BC0005F3F71F04795880F97FB991F61F09F3F1A
:102BD00079F087950895121613061406551FF2CF43
:102BE0004695F1DF08C0161617061806991FF1CF93
:102BF00086957105610508940895E894BB276627BA
:102C00007727CB0197F90895A1E21A2EAA1BBB1BC7
:102C1000FD010DC0AA1FBB1FEE1FFF1FA217B307A8
:102C2000E407F50720F0A21BB30BE40BF50B661FBE
:102C3000771F881F991F1A9469F760957095809582
:102C400090959B01AC01BD01CF010895EE0FFF1FD0
:102C50000590F491E02D09940E943716A59F900DE0
:102C6000B49F900DA49F800D911D11240895A29FE3
:102C7000B001B39FC001A39F700D811D1124911D50
:102C8000B29F700D811D1124911D08950F931F9304
:102C9000CF93DF93869F8001879F100D969F100D25
:102CA0001124C8010E946216EC01009729F0A801C6
:102CB00060E070E00E94AE18CE01DF91CF911F91CD
:102CC0000F910895CF93DF938230910510F482E045
:102CD00090E0E0918E04F0918F0420E030E0A0E0DD
:102CE000B0E0309739F14081518148175907B8F069
:102CF0004817590771F482819381109729F0139630
:102D00009C938E9312972CC090938F0480938E0483
:102D100027C02115310531F04217530718F0A901DA
:102D2000DB0101C0EF019A01BD01DF010280F381E7
:102D3000E02DD7CF21153105F9F0281B390B2430B0
:102D4000310580F48A819B816115710521F0FB01B9
:102D50009383828304C090938F0480938E04FE013A
:102D6000329644C0FE01E20FF31F819391932250EB
:102D70003109398328833AC020918C0430918D0425
:102D8000232B41F4209102013091030130938D04F3
:102D900020938C042091000130910101211531050F
:102DA00041F42DB73EB74091040150910501241B19
:102DB000350BE0918C04F0918D04E217F307A0F439
:102DC0002E1B3F0B2817390778F0AC014E5F5F4F81
:102DD0002417350748F04E0F5F1F50938D04409322
:102DE0008C048193919302C0E0E0F0E0CF01DF9189
:102DF000CF910895CF93DF93009709F487C0FC012A
:102E0000329713821282C0918E04D0918F04209742
:102E100081F420813181280F391F80918C04909199
:102E20008D048217930779F5F0938D04E0938C0459
:102E30006DC0DE0120E030E0AE17BF0750F41296FF
:102E40004D915C9113979D014115510509F1DA01EE
:102E5000F3CFB383A28340815181840F951F8A17DA
:102E60009B0771F48D919C911197840F951F029689
:102E70009183808312968D919C9113979383828383
:102E80002115310529F4F0938F04E0938E043EC0A0
:102E9000D9011396FC93EE9312974D915D91A40F77
:102EA000B51FEA17FB0779F480819181840F951F84
:102EB0000296D90111969C938E93828193811396E9
:102EC0009C938E931297E0E0F0E08A819B810097BB
:102ED00019F0FE01EC01F9CFCE010296288139816B
:102EE000820F931F20918C0430918D04281739078D
:102EF00069F4309729F410928F0410928E0402C066
:102F000013821282D0938D04C0938C04DF91CF91F1
:102F10000895A0E0B0E0EFE8F7E10C945F19EC0150
:102F2000CB01209719F40E946216B8C0FE01E60F8B
:102F3000F71F9E0122503109E217F30708F4ACC0D5
:102F4000D9010D911C91119706171707B8F005309C
:102F5000110508F49FC0A8014450510946175707AE
:102F600008F498C002501109061B170B0193119326
:102F70006D937C93CF010E94FA168CC05B01A01A5E
:102F8000B10A4E01800E911EA0918E04B0918F0463
:102F9000612C712C60E070E0109709F449C0A8150D
:102FA000B905C9F5ED90FC901197670142E0C40E98
:102FB000D11CCA14DB0478F147018A189B0864010C
:102FC00042E0C40ED11C1296BC9012971396AC919D
:102FD000B5E0CB16D10440F0B282A3839182808207
:102FE000D9018D939C9309C00E5F1F4F0E0D1F1DBD
:102FF000F90111830083EB2DFA2F6115710531F072
:10300000DB011396FC93EE93129744C0F0938F0468
:10301000E0938E043FC06D917C9111976616770600
:1030200008F43B01BD0112960D90BC91A02DB4CFC8
:1030300060918C0470918D0468157905E9F4681627
:103040007906D0F4409100015091010141155105DC
:1030500041F44DB75EB76091040170910501461BC4
:10306000570BE417F507C0F4F0938D04E0938C043C
:10307000F901918380830EC00E9462167C01009743
:1030800059F0A801BE010E94A518CE010E94FA16AF
:10309000C70104C0CE0102C080E090E0CDB7DEB72A
:1030A000EEE00C947B19FC0188279927E894219184
:1030B0002032E9F3293010F02E30C8F32B3241F0E2
:1030C0002D3239F4689404C00E942619820F911D94
:1030D000219120532A30C0F31EF4909581959F4F83
:1030E00008951F93FC0199278827BC01E89411914A
:1030F0001032E9F3193010F01E30C8F31B3251F0D2
:103100001D3249F4689406C00E941119610F711DA7
:10311000811D911D119110531A30B0F33EF490951A
:103120008095709561957F4F8F4F9F4F1F910895A8
:103130009111AEC0803219F089508550D0F70895B2
:1031400042EC53E00E94D4180895FB01DC0102C058
:1031500001900D9241505040D8F70895DC0101C014
:103160006D9341505040E0F70895FB01DC018D91D3
:10317000019080190110D9F3990B0895FB01DC012E
:1031800001900D920020E1F70895FB01DC01415010
:10319000504048F001900D920020C9F701C01D92E7
:1031A00041505040E0F70895FA01A191B081009795
:1031B00019F41097E1F0CD01DC01CD010D90002054
:1031C00011F4C00113C0FB012191222319F0201535
:1031D000D9F7F3CFFB012191201519F41E92119616
:1031E00006C02223C1F70D900020A1F7D001FA01FB
:1031F000A193B08308954532510520F4423010F078
:103200000C940619FB011082CB010895BB274A30AC
:1032100031F4992322F4BDE2909581959F4F0C944F
:103220002F19592F482F372F262F660F771F881FEA
:10323000991F660F771F881F991F620F731F841FC6
:10324000951F660F771F881F991F08957AE0979F33
:10325000902D879F802D910D11240895BB27FB0190
:103260005527AA27880F991FAA1FA41710F0A41B7F
:1032700083955051B9F7A05DAA3308F0A95DA193D9
:10328000009779F7B111B1931192CB010C944B19BE
:10329000992788270895DC01FC01672F7191772316
:1032A000E1F7329704C07C916D9370836291AE1701
:1032B000BF07C8F308952F923F924F925F926F928B
:1032C0007F928F929F92AF92BF92CF92DF92EF92B6
:1032D000FF920F931F93CF93DF93CDB7DEB7CA1B37
:1032E000DB0B0FB6F894DEBF0FBECDBF09942A8862
:1032F000398848885F846E847D848C849B84AA840A
:10330000B984C884DF80EE80FD800C811B81AA8196
:10331000B981CE0FD11D0FB6F894DEBF0FBECDBF61
:10332000ED01089510E0CCECD0E004C0FE010E9455
:0E33300028162296CE3CD107C9F7F894FFCF9D
:10333E000000900480001E000201436170747572DB
:10334E00696E672073657269616C206F7574707534
:10335E0074206F6E2050726F5472696E6B657400BC
:10336E00302C312C322C332C342C352C362C372C53
:10337E00382C392C31302C31312C31322C31332C3C
:10338E0031342C31352C31362C31372C31382C311F
:10339E00392C32302C32312C32322C32332C323416
:1033AE002C32352C32362C32372C32382C32392006
:1033BE0000312C322C332C342C35200054686520EF
:1033CE0076616C7565206F6620626567696E536500
:1033DE0071206973207472756520696E206C6F6F31
:1033EE00702E2E2E00456C61707365642074696DAD
:1033FE0065206973203A20005468652076616C75EB
:10340E0065206F6620626567696E5365712069730A
:10341E002066616C736520696E206C6F6F702E2E46
:10342E002E0049206D61646520697420696E746F89
:10343E0020525848616E646C657220696E746572B4
:10344E00727570742E2E2E0054686520726561643C
:10345E0020737472696E672077617320004C454447
:10346E00004C454420737472696E6720666F756EEA
:10347E0064210A0055534552494E464F0055534557
:10348E0052494E464F20737472696E6720666F758F
:10349E006E64210A00494E49544C454453455153DC
:1034AE0000494E49544C4544534551532073747250
:1034BE00696E6720666F756E64210A0049276D205C
:1034CE00696E20746865206D65746820666F756E10
:1034DE006420706F7274696F6E210A0054686520E3
:1034EE0073746174652077696C6C20626520636803
:1034FE00616E67656420746F200054686520757373
:10350E0065726E616D6520697320002C2000546811
:10351E0065206E756D626572206973200054686552
:10352E0020626567696E53657173207761732073CE
:10353E00657420746F207472756520616E642074DA
:10354E0068652073746174652077696C6C206265A0
:10355E00206368616E67656420746F20005468652F
:10356E0020626567696E536571732077617320738E
:10357E00657420746F2066616C736520616E6420C3
:10358E007468652073746174652077696C6C206251
:10359E0065206368616E67656420746F20002C007F
:1035AE0045786974696E67207072656D61747572A5
:1035BE00656C7920622F6320706978656C206F725C
:1035CE0020636F6C6F72206973206E756C6C2E2E7B
:1035DE002E0000000000E70E6310690E820E740EBE
:1035EE00C50E0D0A006E616E00696E66006F76661E
:0235FE000000CB
:00000001FF
