:100000000C9455000C947D000C947D000C947D00A4
:100010000C947D000C947D000C947D000C947D006C
:100020000C947D000C947D000C947D000C947D005C
:100030000C947D000C947D000C947D000C947D004C
:100040000C9443080C947D000C94520A0C94840A7E
:100050000C947D000C947D000C947D000C947D002C
:100060000C947D000C947D00010204081020408057
:1000700001020408102001020408102004040404F2
:100080000404040402020202020203030303030342
:1000900000000000250028002B00000000002400C4
:1000A00027002A00CE03B40AEE0311241FBECFEFAF
:1000B000D8E0DEBFCDBF12E0A0E0B1E0EAEBFEE1A8
:1000C00002C005900D92AE31B107D9F722E0AEE142
:1000D000B2E001C01D92A63EB207E1F710E0C8EA07
:1000E000D0E004C02297FE010E94A60DC43AD107B9
:1000F000C9F70E94F80A0C94500F0C9400008EBDB2
:1001000000000DB407FEFDCF8EB508950895CF937E
:10011000DF93EC0160E08A810E94D40860E08B816B
:10012000DF91CF910C94D408CF93DF93EC018D81B4
:100130009E81009711F00E946D0E8A818F3F21F4FD
:10014000DF91CF910C94F401CE01DF91CF910C940B
:100150008700FC0199E09150D9F0A485B58582858E
:100160002C9167FF03C0282B2C9303C0809582231A
:100170008C93A685B7858C912385822B8C93A6853D
:10018000B7852C918385809582238C93660FE3CF6E
:100190000895BF92CF92DF92EF92FF920F931F9339
:1001A000CF93DF93EC01ED80FE80E114F10409F4BC
:1001B00088C008811981BC808A818F3F09F041C0C5
:1001C00080E00E947F0080E00E947F0080E00E942B
:1001D0007F001EBC3FEF0DB407FEFDCF3EBDF70113
:1001E00023E08C81882331F080818B9DC001112414
:1001F000892F01C080810DB407FEFDCF8EBD215037
:1002000031962111EECF83E0E80EF11C0150110967
:1002100011F70DB407FEFDCF8FEF0E947F008FEF27
:100220000E947F008FEF0E947F008FEFDF91CF91C0
:100230001F910F91FF90EF90DF90CF90BF900C94A3
:100240007F0074E0D72E60E0CE010E94A900DA940E
:10025000D1F78C81882331F16FEFCE010E94A90084
:100260006701E3E0CE0ED11CF70181917F018B9DE8
:10027000C0011124692FCE010E94A900EC14FD04D5
:1002800099F70150110941F714E015C0F701619188
:100290007F01CE010E94A900EC14FD04B9F70150C2
:1002A000110991F36FEFCE010E94A9006701F3E0FD
:1002B000CF0ED11CEBCF6FEFCE010E94A9001150E1
:1002C000D1F7DF91CF911F910F91FF90EF90DF90C9
:1002D000CF90BF900895FC01378120858081918166
:1002E000AC01321307C04D5F5F4F56954795569549
:1002F000479502C0440F551F480F591F60E070E03A
:10030000858196810C941A0F0F931F93CF93DF93DF
:10031000EC018B018D819E81009711F00E946D0E82
:100320009F818885981307C0C80103969695879585
:100330009695879503C0C801880F991F800F911F5C
:100340000E94D50D9E838D83892B49F019830883E4
:10035000CE01DF91CF911F910F910C946B01198207
:100360001882DF91CF911F910F9108950F931F93E2
:10037000FC0142832383148216821582802F8370AE
:10038000878310E0C801959587959595879583702B
:10039000808734E0159507953A95E1F7037001875A
:1003A000CF011F910F910C948401FC0180819181F8
:1003B00068177907C0F4DB01AA0FBB1FA60FB71F90
:1003C000858196818A0F9B1F5781DC01A50FB11D86
:1003D0004C934085DC01A40FB11D3C933185FC0199
:1003E000E30FF11D208308959FB7F89480911F02B9
:1003F000882319F0815080931F0280911F02811180
:1004000005C08CB58F7B8CBD10921E029FBF0895D6
:10041000AF92BF92CF92DF92EF92FF920F93CF9362
:10042000DF93CDB7DEB7E9970FB6F894DEBF0FBE06
:10043000CDBF26E040E052EC61E070E085E492E060
:100440000E94F00963E971E085E492E00E94520B9A
:1004500069E370E082E090E00E94B90D5C01909346
:100460003B0280933A026EE070E085E090E00E94EB
:10047000B90D2EE0E7E0F1E0DC0101900D922A9544
:10048000E1F72EE0E5E1F1E0DC011E9601900D922E
:100490002A95E1F72EE0E3E2F1E0DC015C960190C1
:1004A0000D922A95E1F72EE0E1E3F1E0DC019A9666
:1004B00001900D922A95E1F72EE0EFE3F1E0DC01E7
:1004C000D89601900D922A95E1F725E0C22ED12C05
:1004D0007C0106E025E044E06EE170E0CE0101968B
:1004E0000E944F0689E3FE013196D50101900D92DD
:1004F0008A95E1F7CE0101960E944906A0903A0242
:10050000B0903B028091210290912202F5019183EB
:1005100080836EE070E085E090E00E94B90D2EE0EF
:10052000EDE4F1E0DC0101900D922A95E1F72EE077
:10053000EBE5F1E0DC011E9601900D922A95E1F7C2
:100540002EE0E9E6F1E0DC015C9601900D922A953F
:10055000E1F72EE0E7E7F1E0DC019A9601900D92D9
:100560002A95E1F72EE0E5E8F1E0DC01D89601906C
:100570000D922A95E1F77C0126E048E06EE170E0FB
:10058000CE0101960E944F0689E3FE013196D50106
:10059000D99601900D928A95E1F7CE0101960E94BD
:1005A000490660913A0270913B028091210290913C
:1005B00022020F96FB0192AF81AF40910601CE015E
:1005C00001960E94D7058DE0FE013196ADE2B2E0C2
:1005D00001900D928A95E1F7CE0101960E94D30514
:1005E000E0912302F0912402F0932E02E0932D0279
:1005F000809121029091220295838483E9960FB61F
:10060000F894DEBF0FBECDBFDF91CF910F91FF9069
:10061000EF90DF90CF90BF90AF900895DF92EF9270
:10062000FF920F931F93CF93DF930E948D08AB012E
:10063000BC018DE292E00E942806AC0160E070E00F
:100640004093290250932A0260932B0270932C024C
:100650000091250210912602209127023091280254
:100660000F5F1F4F2F4F3F4F00932502109326021D
:1006700020932702309328028DE292E00E94ED053C
:100680006DEC71E085E492E00E94450B40912902F7
:1006900050912A0260912B0270912C022AE030E0E6
:1006A00085E492E00E94430C809123029091240201
:1006B000892BC9F4E0912D02F0912E0240815181E5
:1006C000628173812AE030E085E492E00E94430C6D
:1006D00085E492E0DF91CF911F910F91FF90EF9011
:1006E000DF900C944E0B00E010E060E070E0DD2441
:1006F000D39480912F02992787FD909568177907E9
:10070000CCF6E0912D02F0912E0284819581EB01CF
:100710002196892BC9F18DE292E00E944506800F57
:10072000911F0E94E7067C018DE292E00E9445063F
:10073000800F911F0E94EB06E816F90618F0D09280
:10074000200228C060EE71E085E492E00E94450B33
:100750004AE050E0BE0185E492E00E94070C67EE9B
:1007600071E085E492E00E94450BE0912D02F0914A
:100770002E020480F581E02D4AE050E0608185E49E
:1007800092E00E942C0C06C065EF71E085E492E0D7
:100790000E94520BBE01075C1F4FABCFCF93DF937C
:1007A0008DE292E00E94C405C0910601DD27C7FDDD
:1007B000D09566E070E0CE010E94B90D90932402BE
:1007C000809323026FE070E0CE010E94B90D9093F8
:1007D000220280932102DF91CF9108958DE292E071
:1007E0000C94D3050F931F93CF93DF9300D0CDB715
:1007F000DEB78C01009731F06115710581F141156B
:10080000510569F1FA01808191812EE0289FF00164
:10081000299FF00D1124E60FF71FAE014F5F5F4FC8
:100820006AEF71E0828193810E94210F0097B9F0F5
:100830000E94FC0E20E030E0A901BC01C8010E942A
:10084000D501AE014F5F5F4F6AEF71E080E090E04D
:100850000E94210F009761F7C8010E94C9000F9004
:100860000F90DF91CF911F910F9108952F923F929A
:100870004F925F926F927F928F929F92AF92BF92B0
:10088000CF92DF92EF92FF920F931F93CF93DF935C
:10089000CDB7DEB72C013B011A01F80160817181EF
:1008A000FA01808191814EE0489FF001499FF00D4F
:1008B0001124E60DF71D818190E06817790710F08B
:1008C0002E5F3F4F458550E0F901808191814817A7
:1008D000590708F4C3C020E030E0A901C2010E941A
:1008E000D501F7016081718120E030E04FEF50E0E9
:1008F000C2010E94D501F6016081718120E035EAD4
:100900004FEF50E0C2010E94D501F5016081718175
:1009100020E03FEF4FEF50E0C2010E94D501F4010B
:100920006081718120E03FEF40E050E0C2010E9411
:10093000D501ED89FE89608171812FEF30E040E0C3
:1009400050E0C2010E94D501F701628173816250BB
:10095000710920E030E0A901C2010E94D501F10136
:10096000808191812EE0289FF001299FF00D1124B4
:10097000E60DF71D818190E0F8012281338128176F
:10098000390711F413821282F101808191812EE0E6
:10099000289FF001299FF00D1124E60DF71D81819C
:1009A00090E0F701228133812817390711F413826F
:1009B0001282F101808191812EE0289FF001299F10
:1009C000F00D1124E60DF71D818190E0F6012281E2
:1009D00033812817390711F413821282F1018081C3
:1009E00091812EE0289FF001299FF00D1124E60D42
:1009F000F71D818190E0F5012281338128173907A5
:100A000011F413821282F101808191812EE0289FDE
:100A1000F001299FF00D1124E60DF71D818190E072
:100A2000F401228133812817390711F413821282CD
:100A3000F101808191812EE0289FF001299FF00D26
:100A40001124E60DF71D818190E0ED89FE89228158
:100A500033812817390711F413821282DF91CF9165
:100A60001F910F91FF90EF90DF90CF90BF90AF90CC
:100A70009F908F907F906F905F904F903F902F90BE
:100A800008959F92AF92BF92CF92DF92EF92FF9222
:100A90000F931F93CF93DF9300D000D0CDB7DEB775
:100AA0007C016B015A01009741F06115710509F451
:100AB0005BC04115510509F457C0F5018081918152
:100AC0002EE0922E989EF001999EF00D1124EC0DCF
:100AD000FD1DAE014D5F5F4F6AEF71E08281938132
:100AE0000E94210F8C01F50180819181989EF00177
:100AF000999EF00D1124EC0DFD1DAE014F5F5F4F6F
:100B00006AEF71E0848195810E94210F0115110522
:100B100059F1009749F10E94FC0E6C01C8010E9436
:100B2000FC0E9601442737FD4095542FBC01C701A8
:100B30000E94D501AE014D5F5F4F6AEF71E080E02A
:100B400090E00E94210F8C01009759F0AE014F5F99
:100B50005F4F6AEF71E080E090E00E94210F009704
:100B6000D1F6C7010E94C9000F900F900F900F900F
:100B7000DF91CF911F910F91FF90EF90DF90CF9079
:100B8000BF90AF909F900895FC0111821082128255
:100B9000148213821582168217821086118612869D
:100BA000138614860895FC011482138208950F930E
:100BB0001F93FC0111821082158216821782108603
:100BC000748363830FEF1FEF9801018712872387D8
:100BD000348742831F910F910895EF92FF920F93F4
:100BE0001F93CF93DF93EC010D811E812F813885F8
:100BF000400F511F621F731F4D835E836F83788781
:100C0000E881F9814083518362837383E12CF12C65
:100C100000E010E08A81992787FD90950817190751
:100C200084F44D815E816F8178858B819C818E0DEE
:100C30009F1D0E9422070F5F1F4F89E3E80EF11CE2
:100C4000E9CFDF91CF911F910F91FF90EF90089521
:100C50000F931F93FC0101851285238534850F3F77
:100C60001F4F2F4F3F4F21F441875287638774876F
:100C7000818592859A01281B390BC90141875287CA
:100C8000638774871F910F910895FC01838194817C
:100C90000895FC01138A128A02960C9494008F9294
:100CA0009F92AF92BF92CF92DF92EF92FF920F93FB
:100CB000CF93DF93CDB7DEB764970FB6F894DEBF5E
:100CC0000FBECDBF5C014C0182E0880E911CC401B7
:100CD0002C8B4B8B698B7A8B0E948600D5015396A7
:100CE0001C921E92529755961C921E92549757969C
:100CF0001C921E92569758961C925897F501118E89
:100D0000128E138E148E5D961D921D921D921C9252
:100D1000909711A212A213A214A216A215A210A6B5
:100D200017A2EFEFFFEF9A96FC93EE9399979C969C
:100D3000FC93EE939B979E96FC93EE939D97D09693
:100D40001C921E929F9781E090E0D2969C938E9386
:100D5000D19782E090E0D4969C938E93D39783E0D2
:100D600090E0D6969C938E93D59784E090E0D896A9
:100D70009C938E93D79702E12C894B8969897A8954
:100D8000CE0101960E94B60180E1FE013196D401A8
:100D900001900D928A95E1F7CE0101960E94940090
:100DA000F501F38AE28AD78AC68A64960FB6F89468
:100DB000DEBF0FBECDBFDF91CF910F91FF90EF90BF
:100DC000DF90CF90BF90AF909F908F900895FC01DF
:100DD000848995890895FC01868997890895FC0185
:100DE000178A168A118E128E138E148E4FEF5FEFB4
:100DF000BA01458F568F678F70A311A212A213A25A
:100E000014A2108E16A215A210A617A28FEF9FEFA4
:100E100092A781A794A783A796A785A710AA17A62C
:100E200081E090E092AB81AB82E090E094AB83AB49
:100E300083E090E096AB85AB84E090E090AF87AB29
:100E400081E008955F926F927F928F929F92AF920E
:100E5000BF92CF92DF92EF92FF920F931F93CF93A7
:100E6000DF93EC0189A19AA1ABA1BCA16A017B012E
:100E7000C81AD90AEA0AFB0AC98EDA8EEB8EFC8EF2
:100E800008811981F801C382D482E582F6822C8917
:100E90003D893283218347835087618772878387A7
:100EA0009487A587B6874E895F896A897B892417CD
:100EB0003507A0F0AE014C5E5F4FCE0102960E9456
:100EC000F203888D8111CFC0CE010E94EF06E88128
:100ED000F9818FEF808381E0888FC5C0188E4EE046
:100EE000429FF001439FF00D1124E60FF71F42854A
:100EF000538560E070E04C155D056E057F05B8F424
:100F0000840F951FA61FB71F89A39AA3ABA3BCA3E9
:100F10002F5F3F4F3D8B2C8B198E1A8E1B8E1C8E94
:100F20008FEF9FEFDC018D8F9E8FAF8FB8A3698D00
:100F30007A8D8B8D9C8D0E94E90C20E030E04AE791
:100F400054E40E94550C0E94BD0C9B01AC01A8EE1C
:100F5000B3E00E94990D9B01AC018D8D9E8DAF8DEC
:100F6000B8A18F3FFFEF9F07AF07BF0729F02817F2
:100F700039074A075B0731F081E0888F2D8F3E8F5C
:100F80004F8F58A38FEFF80180836A887B888C8904
:100F90009D896EE0689F8001699F100D1124060DE8
:100FA000171DF80166817781808591850E94770DF4
:100FB000672B682B692B09F056C0888D882309F4AC
:100FC00052C0F8015080F2E05F1609F441C0F515F7
:100FD00060F1552089F161E0561245C04E01F5E3FC
:100FE0008F0E911C5E0163E3A60EB11C6E0181E3BE
:100FF000C80ED11C7E01EFE2EE0EF11C8E01035DE6
:101000001F4F9E01275D3F4FAE014C5E5F4FCE01EB
:10101000C7969F938F93B301C5970E943604E881CA
:10102000F98150820F900F901EC083E05816C1F0D6
:10103000E4E05E16A9F017C0AE014C5E5F4FB3014D
:10104000CE0102960E94F203E881F98110820BC062
:10105000AE014C5E5F4FB301CE0102960E94410586
:10106000E881F9815082DF91CF911F910F91FF901C
:10107000EF90DF90CF90BF90AF909F908F907F9038
:101080006F905F9008951F920F920FB60F921124E8
:101090002F933F938F939F93AF93BF9380913D0284
:1010A00090913E02A0913F02B091400230913C02EB
:1010B00023E0230F2D3720F40196A11DB11D05C09B
:1010C00026E8230F0296A11DB11D20933C028093B8
:1010D0003D0290933E02A0933F02B0934002809164
:1010E000410290914202A0914302B09144020196C4
:1010F000A11DB11D8093410290934202A09343022F
:10110000B0934402BF91AF919F918F913F912F91E6
:101110000F900FBE0F901F9018952FB7F894609105
:101120003D0270913E0280913F02909140022FBF9C
:101130000895789484B5826084BD84B5816084BD4F
:1011400085B5826085BD85B5816085BDEEE6F0E040
:10115000808181608083E1E8F0E01082808182609C
:101160008083808181608083E0E8F0E0808181601D
:101170008083E1EBF0E0808184608083E0EBF0E04D
:10118000808181608083EAE7F0E0808184608083F1
:10119000808182608083808181608083808180689B
:1011A00080831092C1000895CF93DF9390E0FC01FB
:1011B000E859FF4F2491FC01E458FF4F84918823A4
:1011C00049F190E0880F991FFC01E656FF4FA59169
:1011D000B49180579F4FFC01C591D4919FB7611185
:1011E00008C0F8948C91209582238C938881822367
:1011F0000AC0623051F4F8948C91322F30958323D9
:101200008C938881822B888304C0F8948C91822BE4
:101210008C939FBFDF91CF910895FC01818D228D2A
:1012200090E0805C9F4F821B91098F7399270895EE
:10123000FC01918D828D981731F0828DE80FF11DA0
:10124000858D90E008958FEF9FEF0895FC01918DBB
:10125000828D981761F0828DDF01A80FB11D5D9618
:101260008C91928D9F5F9F73928F90E008958FEF86
:101270009FEF08958AEA9AE0892B49F080E090E098
:10128000892B29F00E94AA0A81110C94000008956C
:10129000FC01848DDF01A80FB11DA35ABF4F2C9113
:1012A000848D90E001968F739927848FA689B789E2
:1012B0002C93A089B1898C9180648C93938D848DBB
:1012C000981306C00288F389E02D80818F7D80838A
:1012D0000895CF93DF93EC01888D8823C9F0EA89C4
:1012E000FB89808185FD05C0A889B9898C9186FD1F
:1012F0000FC00FB607FCF5CF808185FFF2CFA8891C
:10130000B9898C9185FFEDCFCE010E944809E7CFC6
:10131000DF91CF910895CF92DF92FF920F931F93A9
:10132000CF93DF931F92CDB7DEB76C0181E0D6017A
:1013300058968C9358975B969C915B975C968C9192
:101340005C97981307C05096ED91FC91519780815E
:1013500085FD2EC0F601038D10E00F5F1F4F0F7348
:101360001127F02EF601848DF81211C00FB607FC7C
:10137000F9CFD6015096ED91FC915197808185FF70
:10138000F1CFC60169830E9448096981EBCF838D43
:10139000E80FF11DE35AFF4F6083D6015B960C9373
:1013A0005B975296ED91FC915397808180620CC0BF
:1013B000D6015696ED91FC91579760835096ED912A
:1013C000FC91519780818064808381E090E00F9050
:1013D000DF91CF911F910F91FF90DF90CF900895F3
:1013E000BF92CF92DF92EF92FF92CF93DF93EC0107
:1013F0006A017B01B22EE889F98982E08083411578
:1014000081EE580761057105A1F060E079E08DE398
:1014100090E0A70196010E94770D21503109410902
:1014200051095695479537952795211580E138073D
:1014300098F0E889F989108260E874E88EE190E01C
:10144000A70196010E94770D2150310941095109E8
:101450005695479537952795EC85FD853083EE8524
:10146000FF852083188EEC89FD89B082EA89FB898B
:10147000808180618083EA89FB89808188608083A4
:10148000EA89FB89808180688083EA89FB89808181
:101490008F7D8083DF91CF91FF90EF90DF90CF9091
:1014A000BF9008951F920F920FB60F9211242F93A1
:1014B0008F939F93EF93FF93E0915502F091560223
:1014C0008081E0915B02F0915C0282FD12C090810C
:1014D00080915E028F5F8F7320915F02821751F0BF
:1014E000E0915E02F0E0EB5BFD4F958F80935E0232
:1014F00001C08081FF91EF919F918F912F910F906B
:101500000FBE0F901F9018951F920F920FB60F925B
:1015100011242F933F934F935F936F937F938F93F8
:101520009F93AF93BF93EF93FF9385E492E00E9464
:101530004809FF91EF91BF91AF919F918F917F915A
:101540006F915F914F913F912F910F900FBE0F9030
:101550001F90189585E492E00E940D0921E0892BE7
:1015600009F420E0822F0895109248021092470259
:1015700088EE93E0A0E0B0E08093490290934A02A5
:10158000A0934B02B0934C0280E092E0909346020D
:101590008093450285EC90E0909352028093510233
:1015A00084EC90E0909354028093530280EC90E09E
:1015B000909356028093550281EC90E090935802EC
:1015C0008093570282EC90E090935A0280935902E4
:1015D00086EC90E090935C0280935B0210925E0236
:1015E00010925F02109260021092610208950895B5
:1015F0000E9499080E94F70A0E940802CAE3D9E0F3
:101600000E940E032097E1F30E943A09F9CFCF928E
:10161000DF92EF92FF920F931F93CF93DF937C01A2
:101620006A01EB0100E010E00C151D0571F06991F5
:10163000D701ED91FC910190F081E02DC701099552
:10164000892B19F00F5F1F4FEFCFC801DF91CF91AA
:101650001F910F91FF90EF90DF90CF90089561154B
:10166000710581F0DB010D900020E9F7AD014150DB
:101670005109461B570BDC01ED91FC910280F3816F
:10168000E02D099480E090E008950C942F0BDC018C
:10169000ED91FC910190F081E02D09946CE072E0F5
:1016A0000C942F0B0F931F93CF93DF93EC010E94A9
:1016B0002F0B8C01CE010E944E0B800F911FDF91EA
:1016C000CF911F910F9108958F929F92AF92BF92E9
:1016D000CF92DF92EF92FF920F931F93CF93DF93FE
:1016E000CDB7DEB7A1970FB6F894DEBF0FBECDBF62
:1016F0007C01C42EE52FCB01D22E19A221E02D159D
:1017000010F02AE0D22E8E010F5D1F4F8D2C912CF0
:10171000A12CB12C6C2D7E2FA50194010E94770D78
:101720008C2DD29E80191124015011098A3014F495
:10173000805D01C0895CF801808321153105410578
:10174000510521F0C22EE32FCA01E4CFB801C70131
:101750000E942F0BA1960FB6F894DEBF0FBECDBF2F
:10176000DF91CF911F910F91FF90EF90DF90CF907D
:10177000BF90AF909F908F900895CF92DF92EF929D
:10178000FF920F931F93CF93DF93EC016A017B01CC
:101790002115310579F4E881F9810190F081E02D7E
:1017A000642FDF91CF911F910F91FF90EF90DF9009
:1017B000CF9009942A303105E9F477FF1AC06DE221
:1017C0000E94470B8C0144275527BA014C195D092B
:1017D0006E097F092AE0CE010E94640B800F911FE1
:1017E000DF91CF911F910F91FF90EF90DF90CF90FD
:1017F00008952AE0B701A601CE01DF91CF911F9194
:101800000F91FF90EF90DF90CF900C94640B0F93AB
:101810001F93CF93DF93EC019A01AB01662757FD2D
:101820006095762F0E94BD0B8C01CE010E944E0B5D
:10183000800F911FDF91CF911F910F910895211576
:10184000310541F4DC01ED91FC910190F081E02D36
:10185000642F09940C94640B0F931F93CF93DF9321
:10186000EC019A01462F50E060E070E00E941F0CEE
:101870008C01CE010E944E0B800F911FDF91CF9102
:101880001F910F9108950F931F93CF93DF93EC0156
:101890000E941F0C8C01CE010E944E0B800F911FE5
:1018A000DF91CF911F910F9108950CD0E6C0DED04B
:1018B00040F0D5D030F021F45F3F19F0C7C051118E
:1018C00010C1CAC0EBD098F39923C9F35523B1F3E3
:1018D000951B550BBB27AA2762177307840738F09F
:1018E0009F5F5F4F220F331F441FAA1FA9F333D0FE
:1018F0000E2E3AF0E0E830D091505040E695001CB2
:10190000CAF729D0FE2F27D0660F771F881FBB1F6D
:10191000261737074807AB07B0E809F0BB0B802D47
:10192000BF01FF2793585F4F2AF09E3F510568F093
:101930008DC0D7C05F3FECF3983EDCF3869577957A
:101940006795B795F7959F5FC9F7880F911D969595
:10195000879597F90895E1E0660F771F881FBB1FF1
:10196000621773078407BA0720F0621B730B840B9E
:10197000BA0BEE1F88F7E095089598D088F09F572E
:1019800090F0B92F9927B751A0F0D1F0660F771FCB
:10199000881F991F1AF0BA95C9F712C0B13081F0AB
:1019A0009FD0B1E008959CC0672F782F8827B85F3B
:1019B00039F0B93FCCF3869577956795B395D9F70C
:1019C0003EF490958095709561957F4F8F4F9F4F16
:1019D0000895E89409C097FB3EF490958095709522
:1019E00061957F4F8F4F9F4F9923A9F0F92F96E96B
:1019F000BB279395F695879577956795B795F111E0
:101A0000F8CFFAF4BB0F11F460FF1BC06F5F7F4F7C
:101A10008F4F9F4F16C0882311F096E911C077238E
:101A200021F09EE8872F762F05C0662371F096E897
:101A3000862F70E060E02AF09A95660F771F881F66
:101A4000DAF7880F9695879597F9089597F99F6724
:101A500080E870E060E008959FEF80EC0895002436
:101A60000A941616170618060906089500240A9403
:101A700012161306140605060895092E0394000C89
:101A800011F4882352F0BB0F40F4BF2B11F460FF18
:101A900004C06F5F7F4F8F4F9F4F089557FD905841
:101AA000440F551F59F05F3F71F04795880F97FB22
:101AB000991F61F09F3F79F08795089512161306DC
:101AC0001406551FF2CF4695F1DF08C0161617060B
:101AD0001806991FF1CF8695710561050894089540
:101AE000E894BB2766277727CB0197F90895A1E2F1
:101AF0001A2EAA1BBB1BFD010DC0AA1FBB1FEE1F88
:101B0000FF1FA217B307E407F50720F0A21BB30BD2
:101B1000E40BF50B661F771F881F991F1A9469F74E
:101B200060957095809590959B01AC01BD01CF01AA
:101B300008950E94AA0DA59F900DB49F900DA49F9B
:101B4000800D911D11240895EE0FFF1F0590F49153
:101B5000E02D0994A29FB001B39FC001A39F700D17
:101B6000811D1124911DB29F700D811D1124911DA5
:101B700008950F931F93CF93DF93869F8001879FD4
:101B8000100D969F100D1124C8010E94D50DEC0177
:101B9000009729F0A80160E070E00E941A0FCE01C2
:101BA000DF91CF911F910F910895CF93DF938230F2
:101BB000910510F482E090E0E091E402F091E502FA
:101BC00020E030E0A0E0B0E0309739F14081518171
:101BD00048175907B8F04817590771F48281938163
:101BE000109729F013969C938E9312972CC0909384
:101BF000E5028093E40227C02115310531F0421738
:101C0000530718F0A901DB0101C0EF019A01BD01E2
:101C1000DF010280F381E02DD7CF21153105F9F0E6
:101C2000281B390B2430310580F48A819B81611592
:101C3000710521F0FB019383828304C09093E50238
:101C40008093E402FE01329644C0FE01E20FF31FCE
:101C50008193919322503109398328833AC020918E
:101C6000E2023091E302232B41F4209102013091F2
:101C700003013093E3022093E202209100013091AE
:101C800001012115310541F42DB73EB74091040102
:101C900050910501241B350BE091E202F091E30223
:101CA000E217F307A0F42E1B3F0B2817390778F033
:101CB000AC014E5F5F4F2417350748F04E0F5F1F92
:101CC0005093E3024093E2028193919302C0E0E0DB
:101CD000F0E0CF01DF91CF910895CF93DF9300978C
:101CE00009F487C0FC01329713821282C091E4028A
:101CF000D091E502209781F420813181280F391F8E
:101D00008091E2029091E3028217930779F5F093B4
:101D1000E302E093E2026DC0DE0120E030E0AE17A6
:101D2000BF0750F412964D915C9113979D01411598
:101D3000510509F1DA01F3CFB383A28340815181C8
:101D4000840F951F8A179B0771F48D919C911197B1
:101D5000840F951F02969183808312968D919C919A
:101D60001397938382832115310529F4F093E502BB
:101D7000E093E4023EC0D9011396FC93EE931297D0
:101D80004D915D91A40FB51FEA17FB0779F480818F
:101D90009181840F951F0296D90111969C938E9381
:101DA0008281938113969C938E931297E0E0F0E0EA
:101DB0008A819B81009719F0FE01EC01F9CFCE01D9
:101DC000029628813981820F931F2091E20230917F
:101DD000E3022817390769F4309729F41092E502D5
:101DE0001092E40202C013821282D093E302C093E5
:101DF000E202DF91CF910895FC0188279927E894AA
:101E000021912032E9F3293010F02E30C8F32B3223
:101E100041F02D3239F4689404C00E94480F820FBB
:101E2000911D219120532A30C0F31EF49095819585
:101E30009F4F0895DC0101C06D9341505040E0F781
:101E40000895FA01A191B081009719F41097E1F07B
:101E5000CD01DC01CD010D90002011F4C00113C0B3
:101E6000FB012191222319F02015D9F7F3CFFB01B3
:101E70002191201519F41E92119606C02223C1F754
:101E80000D900020A1F7D001FA01A193B08308952D
:101E90007AE0979F902D879F802D910D11240895B2
:101EA00010E0C8EAD0E004C0FE010E94A60D229610
:0A1EB000CA3AD107C9F7F894FFCF32
:101EBA000000E6028000020205B901B90100000033
:101ECA0000A00F00000405B901B90100000000A03C
:101EDA000F000200050E020E0200000000040000BE
:101EEA00000305B901B901A00F0000E803000201CF
:101EFA0005B901B901A00F0000881301020205B952
:101F0A0001C30100000000881300000405B901C3E1
:101F1A0001A00F00008813000200050E020E020045
:101F2A00000000000000000305B901C301A00F0072
:101F3A0000D00700020105B901C301A00F0000701B
:101F4A00170102436170747572696E672073657256
:101F5A0069616C206F7574707574206F6E20507291
:101F6A006F5472696E6B657400312C322C332C34C9
:101F7A002C3500352C342C332C322C3100456C6135
:101F8A00707365642074696D65206973203A200056
:101F9A00537472697020004566666563744E756D88
:101FAA0020697320004E554C4C002C0000000000A4
:101FBA008B09070B0D092609180969090D0A006E14
:0E1FCA00616E00696E66006F7666002E000084
:00000001FF
