:100000000C9467000C948F000C948F000C948F005C
:100010000C948F000C948F000C948F000C948F0024
:100020000C948F000C948F000C948F000C948F0014
:100030000C948F000C948F000C948F000C948F0004
:100040000C94C10C0C948F000C942F0F0C94610F26
:100050000C948F000C948F000C948F000C948F00E4
:100060000C948F000C948F00D907DE07E307E80794
:10007000ED07F207F707FB07000000080002010088
:100080000003040700000000000000000102040853
:1000900010204080010204081020010204081020F2
:1000A000040404040404040402020202020203031E
:1000B0000303030300000000250028002B000000BC
:1000C0000000240027002A002E05910F4E05112460
:1000D0001FBECFEFD8E0DEBFCDBF12E0A0E0B1E0A1
:1000E000E2E9F8E202C005900D92A633B107D9F714
:1000F00022E0A6E3B2E001C01D92AC3FB207E1F7F7
:1001000010E0CCECD0E004C02297FE010E947312F4
:10011000C83CD107C9F70E94D50F0C943C140C942D
:1001200000008EBD00000DB407FEFDCF8EB5089512
:1001300008950E9460028CB58C7F8CBD8DB5816066
:100140008DBD8CB58F7D8CBD8CB5837F8CBD0895A6
:10015000CF93DF93EC0161E08A810E947B0D61E027
:100160008B810E947B0D4A8150E0FA01E056FF4FDF
:10017000E491F0E0EE0FFF1FEC54FF4FA591B49116
:10018000BD87AC872B8130E0F901E056FF4F8491A9
:1001900090E0880F991F8C549F4FFC01859194919A
:1001A0009F878E87FA01E457FF4F44914A87F901F0
:1001B000E457FF4F24912B878C919A859095892342
:1001C0008C93EE85FF8590818B8580958923808334
:1001D000DF91CF910895FC0122812F3F11F40C94FF
:1001E00099000C94A800CF93DF93EC0160E08A8122
:1001F0000E947B0D60E08B81DF91CF910C947B0D91
:10020000CF93DF93EC018D819E81009711F00E94C6
:1002100045138A818F3F21F4DF91CF910C94960290
:10022000CE01DF91CF910C94F300FC0199E0915045
:10023000D9F0A485B58582852C9167FF03C0282B52
:100240002C9303C0809582238C93A685B7858C91CF
:100250002385822B8C93A685B7852C9183858095E9
:1002600082238C93660FE3CF0895BF92CF92DF92E3
:10027000EF92FF920F931F93CF93DF93EC01ED80EA
:10028000FE80E114F10409F488C008811981BC8062
:100290008A818F3F09F041C080E00E94910080E098
:1002A0000E94910080E00E9491001EBC3FEF0DB4BF
:1002B00007FEFDCF3EBDF70123E08C81882331F09E
:1002C00080818B9DC0011124892F01C080810DB4D4
:1002D00007FEFDCF8EBD215031962111EECF83E078
:1002E000E80EF11C0150110911F70DB407FEFDCF06
:1002F0008FEF0E9491008FEF0E9491008FEF0E947C
:1003000091008FEFDF91CF911F910F91FF90EF90B0
:10031000DF90CF90BF900C94910074E0D72E60E0F6
:10032000CE010E941501DA94D1F78C81882331F136
:100330006FEFCE010E9415016701E3E0CE0ED11CE4
:10034000F70181917F018B9DC0011124692FCE019E
:100350000E941501EC14FD0499F70150110941F7B1
:1003600014E015C0F70161917F01CE010E941501D3
:10037000EC14FD04B9F70150110991F36FEFCE01B0
:100380000E9415016701F3E0CF0ED11CEBCF6FEF98
:10039000CE010E9415011150D1F7DF91CF911F912D
:1003A0000F91FF90EF90DF90CF90BF900895FC01E8
:1003B0003781208580819181AC01321307C04D5F68
:1003C0005F4F569547955695479502C0440F551F68
:1003D000480F591F60E070E0858196810C94F713F7
:1003E0000F931F93CF93DF93EC018B018D819E813F
:1003F000009711F00E9445139F818885981307C0CC
:10040000C8010396969587959695879503C0C80170
:10041000880F991F800F911F0E94AD129E838D83BC
:10042000892B49F019830883CE01DF91CF911F9169
:100430000F910C94D70119821882DF91CF911F91EF
:100440000F9108950F931F93FC014283238314821D
:1004500016821582802F8370878310E0C8019595DE
:100460008795959587958370808734E015950795D6
:100470003A95E1F703700187CF011F910F910C941A
:10048000F001FC018081918168177907C0F4DB01DC
:10049000AA0FBB1FA60FB71F858196818A0F9B1FCE
:1004A0005781DC01A50FB11D4C934085DC01A40FE1
:1004B000B11D3C933185FC01E30FF11D20830895AC
:1004C000CF93CFB7F89480913902811127C0EAEA1F
:1004D000F0E08491E6E9F0E09491E82FF0E0EE0F8F
:1004E000FF1FE254FF4FA591B4918C91892321F411
:1004F00061E08AE00E94B40D61E08AE00E947B0D19
:100500008CB580618CBD8CB580648CBD61E08DE064
:100510000E947B0D61E08BE00E947B0D809139028F
:100520008F5F80933902CFBFCF9108959FB7F89422
:1005300080913902882319F081508093390280918B
:100540003902811105C08CB58F7B8CBD10923802A9
:100550009FBF08954F925F926F927F929F92AF924A
:10056000BF92CF92DF92EF92FF920F931F93CF93A0
:10057000DF93CDB7DEB7C154D1090FB6F894DEBF13
:100580000FBECDBF26E040E052EC61E070E08BE5AD
:1005900092E00E94CD0E6AE071E08BE592E00E944D
:1005A0002F108091090161E470E0992787FD9095F3
:1005B0000E9491125C019093510280935002C0906E
:1005C0000801DD24C7FCD0946EE070E0C6010E94F3
:1005D0009112FC01109106019090070102E0008346
:1005E000118380E391E0938382832BE331E03583B1
:1005F000248348EE53E060E070E0468357836087D1
:10060000718728EE33E0338722871486158623E02E
:100610002687178726E431E0318B208B2BE431E0ED
:10062000338B228B28EC422E512C612C712C448A66
:10063000558A668A778A20EA3FE0318F208F028FC1
:10064000038F61E0648F158F978F868F40E551E0AF
:1006500051A340A342A253A264A275A248E55BE164
:1006600057A346A360A701A762A713A795A784A7CE
:100670004BE551E057A746A740AA51AA62AA73AA20
:1006800035AB24AB66AB07AB00AF11AF93AF82AF16
:1006900046E651E055AF44AFDF01DE9640EA5FE049
:1006A00060E070E04D935D936D937C931397149687
:1006B00011963C932E9312961C9211961C921196B1
:1006C0000C9311961C93119713969C938E931297EB
:1006D0000F2EF1E7EF2EF1E0FF2EF02D1596FC9294
:1006E000EE92149716964D935D936D937C931997A4
:1006F0001B963C932E931A971C961C921C971D9642
:100700001C921D971E960C9311961C93119713968D
:100710009C938E9312978CE791E015969C938E9301
:10072000149716964D935D936D937C9319971B9632
:100730003C932E931A971C961C921C971D961C9204
:100740007F0106E026E048E0612F792DCE01019679
:100750000E94F80981E4FE013196D50101900D92C5
:100760008A95E1F7CE0101960E94F209809150022C
:10077000909151020E94980A0E94EB0080915002D1
:10078000909151020E94980A0E9435016091500296
:100790007091510280913B0290913C02FB01918348
:1007A000808340910901CE0101960E9480098DE06D
:1007B000FE013196A3E4B2E001900D928A95E1F733
:1007C000CE0101960E947C09E0913D02F0913E022B
:1007D000F0934402E093430280913B0290913C02EB
:1007E00095838483CF5BDF4F0FB6F894DEBF0FBED7
:1007F000CDBFDF91CF911F910F91FF90EF90DF90D0
:10080000CF90BF90AF909F907F906F905F904F90F0
:100810000895AF92BF92DF92EF92FF920F931F93D2
:10082000CF93DF930E940B0DAB01BC0183E492E0F8
:100830000E94D109AC0160E070E040933F02509308
:100840004002609341027093420283E492E00E946E
:10085000960967E871E08BE592E00E9422104091D2
:100860003F025091400260914102709142022AE0A1
:1008700030E08BE592E00E941B1180913D02909147
:100880003E02892BD9F4E0914302F0914402408169
:100890005181628173812AE030E08BE592E00E9411
:1008A0001B118BE592E0DF91CF911F910F91FF908B
:1008B000EF90DF90BF90AF900C942B1000E010E011
:1008C000C0E0D0E020E030E0DD24D3948091450208
:1008D000992787FD909528173907ACF6E0914302D8
:1008E000F0914402848195818C0F9D1FA9014F5F77
:1008F0005F4F7A01892B09F4A6C083E492E00E943D
:10090000EE09800F911F0E949A0A5C0183E492E035
:100910000E94EE09800F911F0E949E0AA816B90638
:1009200018F0D0923A0295C06AE971E08BE592E046
:100930000E9422104AE050E0B7018BE592E00E944D
:10094000E41061EA71E08BE592E00E942210E091F0
:100950004302F09144020480F581E02DEC0FFD1F6D
:1009600041815281638174812AE030E08BE592E01D
:100970000E94FC1069EA71E08BE592E00E9422106F
:10098000E0914302F09144020480F581E02DEC0FE8
:10099000FD1F45815681678170852AE030E08BE537
:1009A00092E00E94FC106CEB71E08BE592E00E94FB
:1009B0002210E0914302F09144020480F581E02D81
:1009C000EC0FFD1F45855685678570892AE030E06C
:1009D0008BE592E00E94FC1064EC71E08BE592E004
:1009E0000E942210E0914302F09144020480F581BC
:1009F000E02DEC0FFD1F6081772767FD70954AE0C1
:100A000050E08BE592E00E94E4106CEC71E08BE525
:100A100092E00E942210E0914302F091440204808F
:100A2000F581E02DEC0FFD1F6189772767FD70953B
:100A30004AE050E08BE592E00E94E4108BE592E002
:100A40000E942B1006C06EED71E08BE592E00E94D3
:100A50002F10970162960F5B1F4F38CFCF93DF9314
:100A600083E492E00E946D09C0910901DD27C7FD72
:100A7000D09566E070E0CE010E94911290933E0204
:100A800080933D0262E170E0CE010E94911290934A
:100A90003C0280933B02DF91CF91089583E492E082
:100AA0000C947C09EF92FF920F931F93CF93DF93E7
:100AB0008C01009709F447C06115710509F443C022
:100AC0008EE0849FF001859FF00D1124E60FF71F43
:100AD000C281D381FE0101900020E9F7CF0161E0DE
:100AE00070E08C1B9D0B0E9491127C01FE01019015
:100AF0000020E9F7AF01415051094C1B5D0BBE01CD
:100B00000E94FE1363EE71E0C7010E94F21300978A
:100B1000D1F00E94D41320E030E0A901BC01C8014B
:100B20000E94410263EE71E080E090E00E94F213C7
:100B3000009779F7C801DF91CF911F910F91FF9036
:100B4000EF900C943501DF91CF911F910F91FF90A1
:100B5000EF9008952F923F924F925F926F927F9203
:100B60008F929F92AF92BF92CF92DF92EF92FF92BD
:100B70000F931F93CF93DF93CDB7DEB73C01F901FD
:100B800024012D883E88AF89B88D009709F433C1C0
:100B90006115710509F42FC10D90BC91A02D5196DE
:100BA0001C928081918197FF1FC001969183808361
:100BB0008FEF9FEFD8018D939C93D7011D921C92CC
:100BC00081E090E0D6018D939C9382E090E0D50186
:100BD0008D939C9383E090E0D4018D939C9384E06B
:100BE00090E0D1018D939C938EE0849F4001859F7E
:100BF000900C1124860E971ED40111968C9190E0D2
:100C0000D8012D913C9111972817390704F1808163
:100C100091810196918380838FEF9FEF8D939C93B9
:100C2000D7011D921C9281E090E0D6018D939C9398
:100C300082E090E0D5018D939C9383E090E0D20117
:100C40008D939C9384E090E0D1018D939C93D4018B
:100C50001D968C9190E020813181821793070CF4CE
:100C6000B5C0F80180819181019691838083D7017D
:100C70008D919C91119701968D939C93F6018081A3
:100C80009181019691838083D5018D919C911197DB
:100C900001968D939C93F2018081918101969183BD
:100CA0008083D1018D919C91119701968D939C9396
:100CB000F8016081718120E030E0A901C3010E9448
:100CC0004102D7016D917C9120E030E04FEF50E080
:100CD000C3010E944102F6016081718120E035EA82
:100CE0004FEF50E0C3010E944102D5016D917C910C
:100CF00020E03FEF4FEF50E0C3010E944102F201BC
:100D00006081718120E03FEF40E050E0C3010E942C
:100D10004102D1016D917C912FEF30E040E050E035
:100D2000C3010E944102F701608171816250710923
:100D300020E030E0A901C3010E944102D4011196D4
:100D40008C9190E0F801208131812817390711F446
:100D500011821082D40111968C9190E0F7012081CC
:100D600031812817390711F411821082D4011196AC
:100D70008C9190E0F601208131812817390711F418
:100D800011821082D40111968C9190E0F50120819E
:100D900031812817390711F411821082D40111967C
:100DA0008C9190E0F201208131812817390711F4EC
:100DB00011821082D40111968C9190E0F101208172
:100DC00031812817390711F411821082C301DF9194
:100DD000CF911F910F91FF90EF90DF90CF90BF9038
:100DE000AF909F908F907F906F905F904F903F90CB
:100DF0002F900C943501DF91CF911F910F91FF90AF
:100E0000EF90DF90CF90BF90AF909F908F907F90AA
:100E10006F905F904F903F902F9008952F923F9248
:100E20004F925F926F927F928F929F92AF92BF92FA
:100E3000CF92DF92EF92FF920F931F93CF93DF93A6
:100E400000D000D000D0CDB7DEB75C014B01290146
:100E5000302E2E2C009709F40EC16115710509F48E
:100E60000AC18EE0849F8001859F100D1124060F1A
:100E7000171FD8011296ED91FC911397DF010D9089
:100E80000020E9F7CD0161E070E08E1B9F0B4D83E0
:100E90005E830E9491123C01D8011496ED91FC9161
:100EA0001597DF010D900020E9F7CD0161E070E0BA
:100EB0008E1B9F0B0E9491127C0196014D815E81D9
:100EC000B401C5010E945205F80162817381DB0102
:100ED0000D900020E9F7AD0141505109461B570B19
:100EE000C3010E94FE13F80164817581DB010D903E
:100EF0000020E9F7AD0141505109461B570BC701CE
:100F00000E94FE13AE014D5F5F4F63EE71E0C301BF
:100F10000E940D148C01AE014F5F5F4F63EE71E0D4
:100F2000C7010E940D147C010115110521F00097E5
:100F3000C9F4C80102C0009711F00E9445138B81CB
:100F40009C81009711F00E94451389819A81009736
:100F500011F00E94451365EE71E08BE592E00E946E
:100F60002F1089C0332071F0C8010E94D413B20140
:100F700061507109680F791F20E030E0A901C501B7
:100F80000E944102C8010E94D4136C01C40CD51CFC
:100F9000C7010E94D4139C01442737FD4095542F6C
:100FA000FC013197E830F10550F5EC5CFF4F0C94F3
:100FB00071122FEF3FEF4FEF50E021C020E030E003
:100FC0004FEF50E01CC020E03FEF40E050E017C082
:100FD0002FEF30E040E050E012C020E03FEF4FEF55
:100FE00050E00DC02FEF3FEF40E050E008C02FEF82
:100FF00030E0A90104C020E035EA4FEF50E0B6012F
:10100000C5010E944102AE014D5F5F4F63EE71E08A
:1010100080E090E00E940D148C01AE014F5F5F4FA5
:1010200063EE71E080E090E00E940D147C010115F8
:10103000110509F0A7CF222049F0B6016F5F7F4F5D
:1010400020E030E0A901C5010E944102C5010E94D3
:101050003501E114F10419F0C7010E9445138B8199
:101060009C81009711F00E94451389819A81009715
:1010700011F00E94451326960FB6F894DEBF0FBEFE
:10108000CDBFDF91CF911F910F91FF90EF90DF9037
:10109000CF90BF90AF909F908F907F906F905F9018
:1010A0004F903F902F9008952F923F924F925F92D2
:1010B0006F927F928F929F92AF92BF92CF92DF9268
:1010C000EF92FF920F931F93CF93DF9300D000D046
:1010D00000D0CDB7DEB72C013B011A013E832D8332
:1010E000FA82E982DC82CB82AF8DB8A1ED91FC91CE
:1010F00011978FEF818B4114510409F4D5C061150C
:10110000710509F4D1C0ED91FC911197118AED910F
:10111000FC91D9018C9190E0A0E0B0E081839283B2
:10112000A383B483D7018D919C91AA2797FDA095A5
:10113000BA2F85839683A783B087D5018D919C9123
:10114000AA2797FDA095BA2F85879687A787B08B8A
:10115000D6018C918083F9018081882371F1CF8C35
:10116000D8A0E12C00E020E030E0C2010E940E0790
:10117000AD81BE811C928EE0829DF001839DF00DB9
:101180001124E60DF71D848590E0F401918380839E
:10119000A981BA811D921C928B8D9C8DF501918342
:1011A00080838D8D9E8DAB81BC818D939C93AF8D03
:1011B000B8A1ED91FC9181E076C0F401808191812C
:1011C000892B09F468C0D8012C91E981FA818081CA
:1011D0009181222391F1019691838083D5018D9194
:1011E0009C911197019611969C938E93EB81FC81B3
:1011F000808191810196918380838EE0849FF001AC
:10120000859FF00D1124E60FF71F818190E02D914D
:101210003C91281739074CF4A981BA812D913C9152
:10122000CF8CD8A0E12C01E026C0F8011082D401B7
:101230008D919C91119701962CC00197E981FA81BB
:1012400091838083D5018D919C91119701978D9306
:101250009C93EB81FC8180819181019791838083B4
:1012600097FD0FC0A981BA812D913C91CF8CD8A058
:10127000EE24E39400E0A101B301C2010E940E0735
:101280000AC081E0F8018083D4018D919C9111976F
:1012900001978D939C93C2010E943501AF8DB8A137
:1012A000ED91FC9182E0818B26960FB6F894DEBF1B
:1012B0000FBECDBFDF91CF911F910F91FF90EF90A7
:1012C000DF90CF90BF90AF909F908F907F906F9066
:1012D0005F904F903F902F900895FC0111821082F3
:1012E000128214821382158216821782108611864A
:1012F0001286138614860895FC01148213820895C1
:101300000F931F93FC01118210821582168217829F
:101310001086748363830FEF1FEF98010187128794
:101320002387348742831F910F910895EF92FF9294
:101330000F931F93CF93DF93EC010D811E812F81BB
:101340003885400F511F621F731F4D835E836F836B
:101350007887E881F9814083518362837383E12C2C
:10136000F12C00E010E08A81992787FD90950817FD
:10137000190784F44D815E816F8178858B819C8112
:101380008E0D9F1D0E94710B0F5F1F4F81E4E80EB1
:10139000F11CE9CFDF91CF911F910F91FF90EF905A
:1013A00008950F931F93FC010185128523853485D1
:1013B0000F3F1F4F2F4F3F4F21F4418752876387C5
:1013C0007487818592859A01281B390BC901418751
:1013D0005287638774871F910F910895FC01838161
:1013E00094810895FC01138A128A02960C940001DC
:1013F0008F929F92AF92BF92CF92DF92EF92FF9225
:101400000F93CF93DF93CDB7DEB764970FB6F89401
:10141000DEBF0FBECDBF5C014C0182E0880E911C87
:10142000C4012C8B4B8B698B7A8B0E949800D50161
:1014300053961C921E92529755961C921E92549748
:1014400057961C921E92569758961C92589781E078
:1014500059968C9359975A968C93F501138E148E46
:10146000158E168E8FEF9FEFDC01878F90A3A1A3BF
:10147000B2A3D50113A214A215A216A290A787A306
:1014800092A781A794A783A716A615A681E090E04E
:1014900090AB87A782E090E092AB81AB83E090E0D5
:1014A00094AB83ABE4E0F0E0D696FC93EE93D59753
:1014B000D8961C921E92D797DA969C938E93D997C2
:1014C000DC961C921E92DB97DE961C921E92DD9794
:1014D000F501FF961182108206E02C894B896989FB
:1014E0007A89CE0101960E94220280E1FE013196A6
:1014F000D40101900D928A95E1F7CE0101960E94E8
:101500000001F501F38AE28AD78AC68A64960FB68B
:10151000F894DEBF0FBECDBFDF91CF910F91FF904A
:10152000EF90DF90CF90BF90AF909F908F900895F5
:1015300002960895FC01848995890895FC018689A5
:10154000978908950F931F93CF93DF93DC015496EF
:101550004D915C9155976EE0649F9001659F300DB1
:1015600011245296ED91FC915397E20FF31FC28123
:10157000D381FE0101900020E9F7CF0161E070E026
:101580008C1B9D0B0E9491128C01DE010D9000209E
:10159000E9F7AD01415051094C1B5D0BBE010E94A2
:1015A000FE1363EE71E0C8010E94F213009779F018
:1015B0000E94D413D82FC92F63EE71E080E090E031
:1015C0000E94F2130097A1F78D2F9C2F02C08FEF7E
:1015D0009FEFDF91CF911F910F9108950F931F936C
:1015E000CF93DF93DC0154964D915C9155976EE05B
:1015F000649F9001659F300D11245296ED91FC91EE
:101600005397E20FF31FC281D381FE0101900020A6
:10161000E9F7CF0161E070E08C1B9D0B0E949112F5
:101620008C01DE010D900020E9F7AD014150510918
:101630004C1B5D0BBE010E94FE1363EE71E0C801FE
:101640000E94F213EC01009741F00E94D4138C0128
:10165000CE010E944513C80102C08FEF9FEFDF91BA
:10166000CF911F910F910895FC01178A168A138E4E
:10167000148E158E168E4FEF5FEFBA01478F50A371
:1016800061A372A313A214A215A216A2108E81E068
:10169000818F828F14AE13AE16AE15AE8FEF9FEF13
:1016A00090A787A392A781A794A783A716A615A69C
:1016B00081E090E090AB87A782E090E092AB81ABB5
:1016C00083E090E094AB83AB84E090E096AB85AB95
:1016D00010AE17AA12AE11AEFF961182108281E0F1
:1016E00008953F924F925F926F927F928F929F9256
:1016F000AF92BF92CF92DF92EF92FF920F931F9320
:10170000CF93DF93EC018BA19CA1ADA1BEA1481B9F
:10171000590B6A0B7B0B4B8F5C8F6D8F7E8FEC8828
:10172000FD882E893F89E216F30698F0888D811195
:1017300016C1A701415051096A897B899E01CE01DA
:1017400002960E945205CE010E94340B81E0888FE0
:1017500006C1188E2EE02E9D80012F9D100D1124A4
:101760002A893B89200F311FF9010285138520E06A
:1017700030E00417150726073707B8F4800F911FCC
:10178000A21FB31F8BA39CA3ADA3BEA3F7013196E9
:10179000FD8BEC8B1B8E1C8E1D8E1E8E8FEF9FEF94
:1017A000DC018F8F98A3A9A3BAA3E881F9818FEFF9
:1017B00080836B8D7C8D8D8D9E8D0E94C11120E06C
:1017C00030E048E453E40E942D110E9495119B01E2
:1017D000AC01A8ECB0E00E9477120F8D18A129A1EE
:1017E0003AA10F3FFFEF1F072F073F0729F06017B0
:1017F00071078207930731F021E0288F6F8F78A35C
:1018000089A39AA36B8F7C8F8D8F9E8F6A887B882C
:101810004C885D882EE0249D8001259D100D1124AB
:10182000060D171DF80126813781408551850E94DC
:101830004F12672B682B692B09F091C0888D882384
:1018400009F48DC0F8013080F2E03F1609F441C080
:10185000F31560F1332091F121E032127FC0DF9364
:10186000CF93CE01C5969F938F934E0123E3820EB3
:10187000911C5E0141E3A40EB11C6E018FE2C80E03
:10188000D11C7E01EDE2EE0EF11C8E01055D1F4FB5
:101890009E01295D3F4FA201B301CE0102960E9435
:1018A000AA050F900F900F900F9058C043E0341688
:1018B000E1F084E0381609F44EC050C09E01A20148
:1018C000B301CE0102960E945205E881F98110828F
:1018D00045C06E01E12C00E020E030E0A201B30140
:1018E000CE0102960E940E0736C0CE010E94A20AC7
:1018F000182F092FCE010E94EE0A4C895D896A8952
:101900007B89DF93CF939F938F930F931F934E0108
:101910008FE3880E911C5E01E9E3AE0EB11C6E01EF
:10192000F7E3CF0ED11C7E0127E2E20EF11C8E01FF
:10193000065E1F4F9E01275E3F4FCE0102960E941A
:101940005408E881F98130820F900F900F900F902A
:101950000F900F9003C0E881F9813082188EDF91DB
:10196000CF911F910F91FF90EF90DF90CF90BF909C
:10197000AF909F908F907F906F905F904F903F902F
:1019800008951F920F920FB60F9211242F933F9339
:101990008F939F93AF93BF93809153029091540282
:1019A000A0915502B09156023091520223E0230FCC
:1019B0002D3720F40196A11DB11D05C026E8230F87
:1019C0000296A11DB11D2093520280935302909361
:1019D0005402A0935502B093560280915702909101
:1019E0005802A0915902B0915A020196A11DB11D51
:1019F0008093570290935802A0935902B0935A02D1
:101A0000BF91AF919F918F913F912F910F900FBEFA
:101A10000F901F9018952FB7F89460915302709112
:101A2000540280915502909156022FBF08957894E8
:101A300084B5826084BD84B5816084BD85B58260D3
:101A400085BD85B5816085BDEEE6F0E08081816071
:101A50008083E1E8F0E01082808182608083808171
:101A600081608083E0E8F0E0808181608083E1EB49
:101A7000F0E0808184608083E0EBF0E08081816031
:101A80008083EAE7F0E080818460808380818260E7
:101A900080838081816080838081806880831092D0
:101AA000C1000895833081F028F4813099F08230AC
:101AB000A1F008958730A9F08830B9F08430D1F4CE
:101AC000809180008F7D03C0809180008F7780930C
:101AD0008000089584B58F7702C084B58F7D84BD62
:101AE00008958091B0008F7703C08091B0008F7D02
:101AF0008093B0000895CF93DF9390E0FC01E4570A
:101B0000FF4F2491FC01E056FF4F8491882349F157
:101B100090E0880F991FFC01E254FF4FA591B4910A
:101B20008C549F4FFC01C591D4919FB7611108C09F
:101B3000F8948C91209582238C93888182230AC00B
:101B4000623051F4F8948C91322F309583238C932A
:101B50008881822B888304C0F8948C91822B8C938B
:101B60009FBFDF91CF9108950F931F93CF93DF9382
:101B70001F92CDB7DEB7282F30E0F901E858FF4FAC
:101B80008491F901E457FF4F1491F901E056FF4F9A
:101B900004910023C9F0882321F069830E94520D2B
:101BA0006981E02FF0E0EE0FFF1FEC54FF4FA5918D
:101BB000B4919FB7F8948C91611103C01095812363
:101BC00001C0812B8C939FBF0F90DF91CF911F910C
:101BD0000F910895FC01818D228D90E0805C9F4FD4
:101BE000821B91098F7399270895FC01918D828D35
:101BF000981731F0828DE80FF11D858D90E00895E2
:101C00008FEF9FEF0895FC01918D828D981761F001
:101C1000828DDF01A80FB11D5D968C91928D9F5F23
:101C20009F73928F90E008958FEF9FEF089587E85C
:101C30009FE0892B49F080E090E0892B29F00E94F9
:101C4000870F81110C9400000895FC01848DDF0141
:101C5000A80FB11DA35ABF4F2C91848D90E001961F
:101C60008F739927848FA689B7892C93A089B1890E
:101C70008C9180648C93938D848D981306C0028818
:101C8000F389E02D80818F7D80830895CF93DF934A
:101C9000EC01888D8823C9F0EA89FB89808185FD64
:101CA00005C0A889B9898C9186FD0FC00FB607FCC5
:101CB000F5CF808185FFF2CFA889B9898C9185FF06
:101CC000EDCFCE010E94250EE7CFDF91CF91089591
:101CD000CF92DF92FF920F931F93CF93DF931F92C8
:101CE000CDB7DEB76C0181E0D60158968C9358973A
:101CF0005B969C915B975C968C915C97981307C060
:101D00005096ED91FC915197808185FD2EC0F60192
:101D1000038D10E00F5F1F4F0F731127F02EF60198
:101D2000848DF81211C00FB607FCF9CFD60150967A
:101D3000ED91FC915197808185FFF1CFC6016983B8
:101D40000E94250E6981EBCF838DE80FF11DE35AC8
:101D5000FF4F6083D6015B960C935B975296ED9193
:101D6000FC915397808180620CC0D6015696ED910C
:101D7000FC91579760835096ED91FC91519780812B
:101D80008064808381E090E00F90DF91CF911F917C
:101D90000F91FF90DF90CF900895BF92CF92DF9286
:101DA000EF92FF92CF93DF93EC016A017B01B22E99
:101DB000E889F98982E08083411581EE5807610541
:101DC0007105A1F060E079E08DE390E0A701960154
:101DD0000E944F12215031094109510956954795EA
:101DE00037952795211580E1380798F0E889F9891A
:101DF000108260E874E88EE190E0A70196010E94ED
:101E00004F1221503109410951095695479537958F
:101E10002795EC85FD853083EE85FF852083188E20
:101E2000EC89FD89B082EA89FB89808180618083A9
:101E3000EA89FB89808188608083EA89FB898081C7
:101E400080688083EA89FB8980818F7D8083DF9130
:101E5000CF91FF90EF90DF90CF90BF9008951F92A9
:101E60000F920FB60F9211242F938F939F93EF939E
:101E7000FF93E0916B02F0916C028081E09171021E
:101E8000F091720282FD12C09081809174028F5F86
:101E90008F7320917502821751F0E0917402F0E087
:101EA000E55AFD4F958F8093740201C08081FF91A8
:101EB000EF919F918F912F910F900FBE0F901F90D8
:101EC00018951F920F920FB60F9211242F933F93E4
:101ED0004F935F936F937F938F939F93AF93BF9332
:101EE000EF93FF938BE592E00E94250EFF91EF9117
:101EF000BF91AF919F918F917F916F915F914F9122
:101F00003F912F910F900FBE0F901F9018958BE56A
:101F100092E00E94EA0D21E0892B09F420E0822F53
:101F2000089510925E0210925D0288EE93E0A0E0A8
:101F3000B0E080935F0290936002A0936102B0933F
:101F400062028BE192E090935C0280935B0285ECED
:101F500090E0909368028093670284EC90E0909305
:101F60006A028093690280EC90E090936C02809307
:101F70006B0281EC90E090936E0280936D0282EC94
:101F800090E09093700280936F0286EC90E09093C3
:101F90007202809371021092740210927502109274
:101FA000760210927702089508950E94170D0E94FC
:101FB000D40F0E94AA02C7E1DEE00E940904209724
:101FC000E1F30E94170EF9CFCF92DF92EF92FF92CA
:101FD0000F931F93CF93DF937C016A01EB0100E025
:101FE00010E00C151D0571F06991D701ED91FC9180
:101FF0000190F081E02DC7010995892B19F00F5F41
:102000001F4FEFCFC801DF91CF911F910F91FF902C
:10201000EF90DF90CF9008956115710581F0DB019D
:102020000D900020E9F7AD0141505109461B570BB7
:10203000DC01ED91FC910280F381E02D099480E0B8
:1020400090E008950C940C10DC01ED91FC9101904E
:10205000F081E02D099467E272E00C940C100F936C
:102060001F93CF93DF93EC010E940C108C01CE01E3
:102070000E942B10800F911FDF91CF911F910F9124
:1020800008958F929F92AF92BF92CF92DF92EF927C
:10209000FF920F931F93CF93DF93CDB7DEB7A19736
:1020A0000FB6F894DEBF0FBECDBF7C01C42EE52F66
:1020B000CB01D22E19A221E02D1510F02AE0D22E4C
:1020C0008E010F5D1F4F8D2C912CA12CB12C6C2DEE
:1020D0007E2FA50194010E944F128C2DD29E801953
:1020E0001124015011098A3014F4805D01C0895C0B
:1020F000F8018083211531054105510521F0C22EDB
:10210000E32FCA01E4CFB801C7010E940C10A196C9
:102110000FB6F894DEBF0FBECDBFDF91CF911F91F8
:102120000F91FF90EF90DF90CF90BF90AF909F9076
:102130008F900895CF92DF92EF92FF920F931F93AB
:10214000CF93DF93EC016A017B012115310579F40E
:10215000E881F9810190F081E02D642FDF91CF912A
:102160001F910F91FF90EF90DF90CF9009942A304C
:102170003105E9F477FF1AC06DE20E9424108C014A
:1021800044275527BA014C195D096E097F092AE0D9
:10219000CE010E944110800F911FDF91CF911F91BE
:1021A0000F91FF90EF90DF90CF9008952AE0B70154
:1021B000A601CE01DF91CF911F910F91FF90EF907B
:1021C000DF90CF900C9441100F931F93CF93DF9328
:1021D000EC019A01AB01662757FD6095762F0E94AE
:1021E0009A108C01CE010E942B10800F911FDF915D
:1021F000CF911F910F9108950F931F93CF93DF936A
:10220000EC010E949A108C01CE010E942B10800FCD
:10221000911FDF91CF911F910F91089521153105E5
:1022200041F4DC01ED91FC910190F081E02D642FEF
:1022300009940C9441100F931F93CF93DF93EC01FB
:102240000E940E118C01CE010E942B10800F911F55
:10225000DF91CF911F910F9108950CD0E6C0DED091
:1022600040F0D5D030F021F45F3F19F0C7C05111D4
:1022700010C1CAC0EBD098F39923C9F35523B1F329
:10228000951B550BBB27AA2762177307840738F0E5
:102290009F5F5F4F220F331F441FAA1FA9F333D044
:1022A0000E2E3AF0E0E830D091505040E695001CF8
:1022B000CAF729D0FE2F27D0660F771F881FBB1FB4
:1022C000261737074807AB07B0E809F0BB0B802D8E
:1022D000BF01FF2793585F4F2AF09E3F510568F0DA
:1022E0008DC0D7C05F3FECF3983EDCF386957795C1
:1022F0006795B795F7959F5FC9F7880F911D9695DC
:10230000879597F90895E1E0660F771F881FBB1F37
:10231000621773078407BA0720F0621B730B840BE4
:10232000BA0BEE1F88F7E095089598D088F09F5774
:1023300090F0B92F9927B751A0F0D1F0660F771F11
:10234000881F991F1AF0BA95C9F712C0B13081F0F1
:102350009FD0B1E008959CC0672F782F8827B85F81
:1023600039F0B93FCCF3869577956795B395D9F752
:102370003EF490958095709561957F4F8F4F9F4F5C
:102380000895E89409C097FB3EF490958095709568
:1023900061957F4F8F4F9F4F9923A9F0F92F96E9B1
:1023A000BB279395F695879577956795B795F11126
:1023B000F8CFFAF4BB0F11F460FF1BC06F5F7F4FC3
:1023C0008F4F9F4F16C0882311F096E911C07723D5
:1023D00021F09EE8872F762F05C0662371F096E8DE
:1023E000862F70E060E02AF09A95660F771F881FAD
:1023F000DAF7880F9695879597F9089597F99F676B
:1024000080E870E060E008959FEF80EC089500247C
:102410000A941616170618060906089500240A9449
:1024200012161306140605060895092E0394000CCF
:1024300011F4882352F0BB0F40F4BF2B11F460FF5E
:1024400004C06F5F7F4F8F4F9F4F089557FD905887
:10245000440F551F59F05F3F71F04795880F97FB68
:10246000991F61F09F3F79F0879508951216130622
:102470001406551FF2CF4695F1DF08C01616170651
:102480001806991FF1CF8695710561050894089586
:10249000E894BB2766277727CB0197F90895A1E237
:1024A0001A2EAA1BBB1BFD010DC0AA1FBB1FEE1FCE
:1024B000FF1FA217B307E407F50720F0A21BB30B19
:1024C000E40BF50B661F771F881F991F1A9469F795
:1024D00060957095809590959B01AC01BD01CF01F1
:1024E0000895EE0FFF1F0590F491E02D09940E94CE
:1024F0008212A59F900DB49F900DA49F800D911DF9
:1025000011240895A29FB001B39FC001A39F700D35
:10251000811D1124911DB29F700D811D1124911DEB
:1025200008950F931F93CF93DF93869F8001879F1A
:10253000100D969F100D1124C8010E94AD12EC01E0
:10254000009729F0A80160E070E00E94F713CE0127
:10255000DF91CF911F910F910895CF93DF93823038
:10256000910510F482E090E0E091FA02F091FB0214
:1025700020E030E0A0E0B0E0309739F140815181B7
:1025800048175907B8F04817590771F482819381A9
:10259000109729F013969C938E9312972CC09093CA
:1025A000FB028093FA0227C02115310531F0421752
:1025B000530718F0A901DB0101C0EF019A01BD0129
:1025C000DF010280F381E02DD7CF21153105F9F02D
:1025D000281B390B2430310580F48A819B816115D9
:1025E000710521F0FB019383828304C09093FB0269
:1025F0008093FA02FE01329644C0FE01E20FF31FFF
:102600008193919322503109398328833AC02091D4
:10261000F8023091F902232B41F42091020130910C
:1026200003013093F9022093F802209100013091C8
:1026300001012115310541F42DB73EB74091040148
:1026400050910501241B350BE091F802F091F9023D
:10265000E217F307A0F42E1B3F0B2817390778F079
:10266000AC014E5F5F4F2417350748F04E0F5F1FD8
:102670005093F9024093F8028193919302C0E0E0F5
:10268000F0E0CF01DF91CF910895CF93DF930097D2
:1026900009F487C0FC01329713821282C091FA02BA
:1026A000D091FB02209781F420813181280F391FBE
:1026B0008091F8029091F9028217930779F5F093CF
:1026C000F902E093F8026DC0DE0120E030E0AE17C1
:1026D000BF0750F412964D915C9113979D014115DF
:1026E000510509F1DA01F3CFB383A283408151810F
:1026F000840F951F8A179B0771F48D919C911197F8
:10270000840F951F02969183808312968D919C91E0
:102710001397938382832115310529F4F093FB02EB
:10272000E093FA023EC0D9011396FC93EE93129700
:102730004D915D91A40FB51FEA17FB0779F48081D5
:102740009181840F951F0296D90111969C938E93C7
:102750008281938113969C938E931297E0E0F0E030
:102760008A819B81009719F0FE01EC01F9CFCE011F
:10277000029628813981820F931F2091F8023091AF
:10278000F9022817390769F4309729F41092FB02EF
:102790001092FA0202C013821282D093F902C093FF
:1027A000F802DF91CF910895FC0188279927E894DA
:1027B00021912032E9F3293010F02E30C8F32B326A
:1027C00041F02D3239F4689404C00E943414820F11
:1027D000911D219120532A30C0F31EF490958195CC
:1027E0009F4F089546E352E00E940D140895DC01C6
:1027F00001C06D9341505040E0F70895FB01DC01AA
:102800004150504048F001900D920020C9F701C09E
:102810001D9241505040E0F70895FA01A191B08116
:10282000009719F41097E1F0CD01DC01CD010D9076
:10283000002011F4C00113C0FB012191222319F0E3
:102840002015D9F7F3CFFB012191201519F41E9221
:10285000119606C02223C1F70D900020A1F7D001E8
:10286000FA01A193B08308957AE0979F902D879FF6
:10287000802D910D1124089510E0CCECD0E004C01F
:10288000FE010E9473122296CE3CD107C9F7F8943C
:02289000FFCF78
:102892000000FC028000050007014361707475723C
:1028A200696E672073657269616C206F75747075EB
:1028B20074206F6E2050726F5472696E6B65740073
:1028C200302C312C322C332C342000302C302C3054
:1028D2002C302C302000302C312000312C322000C2
:1028E200312C322C332C342C352000322C322C302B
:1028F2002C322C322000302C332C332C332C302031
:1029020000342C342C302C342C342000352C352C33
:10291200352C352C352000456C617073656420744C
:10292200696D65206973203A2000537472697020C2
:1029320000496E6974203D20005368696674205016
:102942006978656C73204279203D20004865616496
:10295200203D20005461696C203D2000456666657B
:1029620063742073756363657373203D20004E5555
:102972004C4C002C0045786974696E672070726552
:102982006D61747572656C7920622F63207069784D
:10299200656C206F7220636F6C6F72206973206E9A
:1029A200756C6C2E2E2E0000000000680EE40FEAFB
:1029B2000D030EF50D460E0D0A006E616E00696E76
:0629C20066006F7666005E
:00000001FF
