:100000000C9467000C948F000C948F000C948F005C
:100010000C948F000C948F000C948F000C948F0024
:100020000C948F000C948F000C948F000C948F0014
:100030000C948F000C948F000C948F000C948F0004
:100040000C947C0B0C948F000C94EA0D0C941C0EF9
:100050000C948F000C948F000C948F000C948F00E4
:100060000C948F000C948F00FF06040709070E07FD
:10007000130718071D0721070000000800020100F0
:100080000003040700000000000000000102040853
:1000900010204080010204081020010204081020F2
:1000A000040404040404040402020202020203031E
:1000B0000303030300000000250028002B000000BC
:1000C0000000240027002A0096044C0EB6041124D8
:1000D0001FBECFEFD8E0DEBFCDBF11E0A0E0B1E0A2
:1000E000E4EEF5E202C005900D92A03FB107D9F70A
:1000F00022E0A0EFB1E001C01D92A63BB207E1F7FC
:1001000010E0CCECD0E004C02297FE010E941C114C
:10011000C83CD107C9F70E94900E0C94E5120C94CC
:1001200000008EBD00000DB407FEFDCF8EB5089512
:1001300008950E9460028CB58C7F8CBD8DB5816066
:100140008DBD8CB58F7D8CBD8CB5837F8CBD0895A6
:10015000CF93DF93EC0161E08A810E94360C61E06D
:100160008B810E94360C4A8150E0FA01E056FF4F25
:10017000E491F0E0EE0FFF1FEC54FF4FA591B49116
:10018000BD87AC872B8130E0F901E056FF4F8491A9
:1001900090E0880F991F8C549F4FFC01859194919A
:1001A0009F878E87FA01E457FF4F44914A87F901F0
:1001B000E457FF4F24912B878C919A859095892342
:1001C0008C93EE85FF8590818B8580958923808334
:1001D000DF91CF910895FC0122812F3F11F40C94FF
:1001E00099000C94A800CF93DF93EC0160E08A8122
:1001F0000E94360C60E08B81DF91CF910C94360C1D
:10020000CF93DF93EC018D819E81009711F00E94C6
:10021000EE118A818F3F21F4DF91CF910C949602E9
:10022000CE01DF91CF910C94F300FC0199E0915045
:10023000D9F0A485B58582852C9167FF03C0282B52
:100240002C9303C0809582238C93A685B7858C91CF
:100250002385822B8C93A685B7852C9183858095E9
:1002600082238C93660FE3CF0895BF92CF92DF92E3
:10027000EF92FF920F931F93CF93DF93EC01ED80EA
:10028000FE80E114F10409F488C008811981BC8062
:100290008A818F3F09F041C080E00E94910080E098
:1002A0000E94910080E00E9491001EBC3FEF0DB4BF
:1002B00007FEFDCF3EBDF70123E08C81882331F09E
:1002C00080818B9DC0011124892F01C080810DB4D4
:1002D00007FEFDCF8EBD215031962111EECF83E078
:1002E000E80EF11C0150110911F70DB407FEFDCF06
:1002F0008FEF0E9491008FEF0E9491008FEF0E947C
:1003000091008FEFDF91CF911F910F91FF90EF90B0
:10031000DF90CF90BF900C94910074E0D72E60E0F6
:10032000CE010E941501DA94D1F78C81882331F136
:100330006FEFCE010E9415016701E3E0CE0ED11CE4
:10034000F70181917F018B9DC0011124692FCE019E
:100350000E941501EC14FD0499F70150110941F7B1
:1003600014E015C0F70161917F01CE010E941501D3
:10037000EC14FD04B9F70150110991F36FEFCE01B0
:100380000E9415016701F3E0CF0ED11CEBCF6FEF98
:10039000CE010E9415011150D1F7DF91CF911F912D
:1003A0000F91FF90EF90DF90CF90BF900895FC01E8
:1003B0003781208580819181AC01321307C04D5F68
:1003C0005F4F569547955695479502C0440F551F68
:1003D000480F591F60E070E0858196810C94A0124F
:1003E0000F931F93CF93DF93EC018B018D819E813F
:1003F000009711F00E94EE119F818885981307C025
:10040000C8010396969587959695879503C0C80170
:10041000880F991F800F911F0E9456119E838D8314
:10042000892B49F019830883CE01DF91CF911F9169
:100430000F910C94D70119821882DF91CF911F91EF
:100440000F9108950F931F93FC014283238314821D
:1004500016821582802F8370878310E0C8019595DE
:100460008795959587958370808734E015950795D6
:100470003A95E1F703700187CF011F910F910C941A
:10048000F001FC018081918168177907C0F4DB01DC
:10049000AA0FBB1FA60FB71F858196818A0F9B1FCE
:1004A0005781DC01A50FB11D4C934085DC01A40FE1
:1004B000B11D3C933185FC01E30FF11D20830895AC
:1004C000CF93CFB7F8948091F301811127C0EAEA66
:1004D000F0E08491E6E9F0E09491E82FF0E0EE0F8F
:1004E000FF1FE254FF4FA591B4918C91892321F411
:1004F00061E08AE00E946F0C61E08AE00E94360CA5
:100500008CB580618CBD8CB580648CBD61E08DE064
:100510000E94360C61E08BE00E94360C8091F30162
:100520008F5F8093F301CFBFCF9108959FB7F89469
:100530008091F301882319F081508093F301809119
:10054000F301811105C08CB58F7B8CBD1092F20137
:100550009FBF08959F92AF92BF92CF92DF92EF928A
:10056000FF920F931F93CF93DF93CDB7DEB7C154A4
:10057000D1090FB6F894DEBF0FBECDBF26E040E034
:1005800052EC61E070E085E192E00E94880D6AE043
:1005900071E085E192E00E94EA0E8091090161E438
:1005A00070E0992787FD90950E943A115C01909325
:1005B0000B0280930A02C0900801DD24C7FCD0948E
:1005C0006EE070E0C6010E943A11FC011091060134
:1005D000909007011082118380E391E093838283DE
:1005E0002BE331E03583248316821782108611862F
:1005F000138612861486158602E006871787918B6C
:10060000808B338B228B40EA5FE060E070E0448BAC
:10061000558B668B778B20EA3FE0318F208F128ECF
:10062000138E048F158F978F868FA6E4B1E0B1A348
:10063000A0A342A353A364A375A337A326A310A624
:1006400011A602A713A795A784A7A1E5B1E0B7A7B4
:10065000A6A740AB51AB62AB73AB35AB24AB16AACC
:1006600017AA00AF11AF93AF82AFACE5B1E0B5AF61
:10067000A4AFDF01DE964D935D936D937C9313974A
:10068000149611963C932E9312961C9211961C92DE
:1006900011960C9311961C93119713969C938E931D
:1006A00012970F2EF7E6EF2EF1E0FF2EF02D1596A4
:1006B000FC92EE92149716964D935D936D937C93F6
:1006C00019971B963C932E931A971C961C921C9775
:1006D0001D961C921D971E960C9311961C931197B4
:1006E00013969C938E93129782E791E015969C93B4
:1006F0008E93149716964D935D936D937C931997F3
:100700001B963C932E931A971C961C921C971D9631
:100710001C927F0106E026E048E0612F792DCE0192
:1007200001960E94C20881E4FE013196D501019034
:100730000D928A95E1F7CE0101960E94BC08809146
:100740000A0290910B020E944A090E94EB008091DC
:100750000A0290910B020E944A090E9435016091A1
:100760000A0270910B028091F5019091F601FB0154
:100770009183808340910901CE0101960E944A082D
:100780008DE0FE013196ADEFB1E001900D928A95BA
:10079000E1F7CE0101960E944608E091F701F09141
:1007A000F801F093FE01E093FD018091F501909135
:1007B000F60195838483CF5BDF4F0FB6F894DEBFDD
:1007C0000FBECDBFDF91CF911F910F91FF90EF90A2
:1007D000DF90CF90BF90AF909F900895BF92CF923F
:1007E000DF92EF92FF920F931F93CF93DF930E94BC
:1007F000C60BAB01BC018DEF91E00E949B08AC01E0
:1008000060E070E04093F9015093FA016093FB01BE
:100810007093FC018DEF91E00E9460086DE771E03C
:1008200085E192E00E94DD0E4091F9015091FA01BC
:100830006091FB017091FC012AE030E085E192E0DB
:100840000E94C40F8091F7019091F801892BD9F48F
:10085000E091FD01F091FE0140815181628173813F
:100860002AE030E085E192E00E94C40F85E192E049
:10087000DF91CF911F910F91FF90EF90DF90CF907C
:10088000BF900C94E60E00E010E0C0E0D0E060E025
:1008900070E0BB24B3948091FF01992787FD909568
:1008A00068177907ACF6E091FD01F091FE018481B3
:1008B0009581800F911F9B012F5F3F4F7901892BFD
:1008C00049F18DEF91E00E94B8088C0F9D1F0E94A6
:1008D0004C096C018DEF91E00E94B8088C0F9D1FB0
:1008E0000E945009C816D90618F0B092F40118C039
:1008F00060E971E085E192E00E94DD0E4AE050E09F
:10090000B70185E192E00E949F0F85E192E00E948D
:10091000E60E06C067E971E085E192E00E94EA0E0A
:10092000B701CF5BDF4F0E5E1F4FB5CFCF93DF9385
:100930008DEF91E00E943708C0910901DD27C7FDC6
:10094000D09566E070E0CE010E943A119093F801D4
:100950008093F70162E170E0CE010E943A1190931A
:10096000F6018093F501DF91CF9108958DEF91E02D
:100970000C944608EF92FF920F931F93CF93DF934F
:100980008C01009709F447C06115710509F443C053
:100990008EE0849FF001859FF00D1124E60FF71F74
:1009A000C281D381FE0101900020E9F7CF0161E00F
:1009B00070E08C1B9D0B0E943A117C01FE0101909E
:1009C0000020E9F7AF01415051094C1B5D0BBE01FE
:1009D0000E94A7126CE971E0C7010E949B12009768
:1009E000D1F00E947D1220E030E0A901BC01C801D5
:1009F0000E9441026CE971E080E090E00E949B124D
:100A0000009779F7C801DF91CF911F910F91FF9067
:100A1000EF900C943501DF91CF911F910F91FF90D2
:100A2000EF9008952F923F924F925F926F927F9234
:100A30008F929F92AF92BF92CF92DF92EF92FF92EE
:100A40000F931F93CF93DF93CDB7DEB73C01240103
:100A50002D883E88AF89B88DED91FC9111978FEF6D
:100A6000818B6114710409F4ECC06115710509F4FE
:100A7000E8C0ED91FC91118A8EE0849F4001859F32
:100A8000900C1124860E971EF401818190E0D8010C
:100A90004D915C91119748175907E8F02E5F3F4F31
:100AA0008FEF9FEF8D939C93F7011182108281E06D
:100AB00090E0D6018D939C9382E090E0F5019183C4
:100AC000808383E090E0D2018D939C9384E090E05A
:100AD000F10191838083D4011D968C9190E0F901FE
:100AE000208131818217930708F4A2C0D8016D914B
:100AF0007C9120E030E0A901C3010E944102F7018E
:100B00006081718120E030E04FEF50E0C3010E942E
:100B10004102D6016D917C9120E035EA4FEF50E023
:100B2000C3010E944102F5016081718120E03FEF25
:100B30004FEF50E0C3010E944102D2016D917C91C0
:100B400020E03FEF40E050E0C3010E944102F1018C
:100B5000608171812FEF30E040E050E0C3010E94DE
:100B60004102D70112966D917C91139762507109E1
:100B700020E030E0A901C3010E944102F40181811B
:100B800090E0D80112962D913C91139728173907C0
:100B900021F413961C921E921297F401818190E029
:100BA000D70112962D913C9113972817390721F4FC
:100BB00013961C921E921297F401818190E0D60147
:100BC00012962D913C9113972817390721F413960B
:100BD0001C921E921297F401818190E0D501129629
:100BE0002D913C9113972817390721F413961C92E5
:100BF0001E921297F401818190E0D20112962D91FC
:100C00003C9113972817390721F413961C921E92D2
:100C10001297F401818190E0D10112962D913C91BF
:100C200013972817390721F413961C921E921297D6
:100C3000C3010E943501AF89B88DED91FC9181E02F
:100C4000818BDF91CF911F910F91FF90EF90DF90FB
:100C5000CF90BF90AF909F908F907F906F905F905C
:100C60004F903F902F9008952F923F924F925F9216
:100C70006F927F928F929F92AF92BF92CF92DF92AC
:100C8000EF92FF920F931F93CF93DF9300D000D08A
:100C900000D0CDB7DEB75C014B012901302E2E2CE0
:100CA000009709F40EC16115710509F40AC18EE0BF
:100CB000849F8001859F100D1124060F171FD801F6
:100CC0001296ED91FC911397DF010D900020E9F74A
:100CD000CD0161E070E08E1B9F0B4D835E830E940F
:100CE0003A113C01D8011496ED91FC911597DF0162
:100CF0000D900020E9F7CD0161E070E08E1B9F0BA5
:100D00000E943A117C0196014D815E81B401C501BA
:100D10000E94BA04F80162817381DB010D9000200A
:100D2000E9F7AD0141505109461B570BC3010E9421
:100D3000A712F80164817581DB010D900020E9F7AD
:100D4000AD0141505109461B570BC7010E94A71224
:100D5000AE014D5F5F4F6CE971E0C3010E94B612B6
:100D60008C01AE014F5F5F4F6CE971E0C7010E94DB
:100D7000B6127C010115110521F00097C9F4C801D4
:100D800002C0009711F00E94EE118B819C810097A8
:100D900011F00E94EE1189819A81009711F00E9452
:100DA000EE116EE971E085E192E00E94EA0E89C0E1
:100DB000332071F0C8010E947D12B20161507109A7
:100DC000680F791F20E030E0A901C5010E944102AF
:100DD000C8010E947D126C01C40CD51CC7010E9481
:100DE0007D129C01442737FD4095542FFC0131971B
:100DF000E830F10550F5EC5CFF4F0C941A112FEF21
:100E00003FEF4FEF50E021C020E030E04FEF50E0E7
:100E10001CC020E03FEF40E050E017C02FEF30E073
:100E200040E050E012C020E03FEF4FEF50E00DC037
:100E30002FEF3FEF40E050E008C02FEF30E0A90176
:100E400004C020E035EA4FEF50E0B601C5010E9432
:100E50004102AE014D5F5F4F6CE971E080E090E0D0
:100E60000E94B6128C01AE014F5F5F4F6CE971E0DA
:100E700080E090E00E94B6127C010115110509F096
:100E8000A7CF222049F0B6016F5F7F4F20E030E00E
:100E9000A901C5010E944102C5010E943501E1146A
:100EA000F10419F0C7010E94EE118B819C8100971B
:100EB00011F00E94EE1189819A81009711F00E9431
:100EC000EE1126960FB6F894DEBF0FBECDBFDF91B0
:100ED000CF911F910F91FF90EF90DF90CF90BF9037
:100EE000AF909F908F907F906F905F904F903F90CA
:100EF0002F9008952F923F924F925F926F927F9220
:100F00008F929F92AF92BF92CF92DF92EF92FF9219
:100F10000F931F93CF93DF93CDB7DEB728970FB60C
:100F2000F894DEBF0FBECDBF3C012B011A013C83FC
:100F30002B83D801FA82E982D886CF82BE82AD8225
:100F4000A9A0BAA0F501208131818FEFF901818B31
:100F50006114710409F472C06115710509F46EC061
:100F6000F50180819181FC01118AEB81FC818081F6
:100F7000882349F16501E12C00E020E030E0C30165
:100F80000E943406AB81BC811C928EE0829DF001F0
:100F9000839DF00D1124E40DF51D848590E0F4018E
:100FA000918380838D8D9E8DAD81BE818D939C9329
:100FB0008F8D98A1EF81F88591838083A981BA8173
:100FC0001D921C9233C0F40180819181892B71F1B3
:100FD0008C918823E9F08EE0849FF001859FF00DCD
:100FE0001124E60FF71F818190E0ED81FE812281BF
:100FF00033812817390750F4A981BA8112962D91AF
:101000003C9113976501E12C01E00BC01C920EC0CE
:10101000E981FA813297208131816501EE24E394E0
:1010200000E0A101B201C3010E943406C3010E9485
:101030003501D501ED91FC9181E0818B28960FB6A9
:10104000F894DEBF0FBECDBFDF91CF911F910F91FE
:10105000FF90EF90DF90CF90BF90AF909F908F90D8
:101060007F906F905F904F903F902F900895FC017C
:1010700011821082128214821382158216821782C4
:10108000108611861286138614860895FC01148238
:10109000138208950F931F93FC0111821082158211
:1010A000168217821086748363830FEF1FEF9801F7
:1010B000018712872387348742831F910F910895F8
:1010C000EF92FF920F931F93CF93DF93EC010D816B
:1010D0001E812F813885400F511F621F731F4D8362
:1010E0005E836F837887E881F981408351836283CF
:1010F0007383E12CF12C00E010E08A81992787FDB1
:1011000090950817190784F44D815E816F81788569
:101110008B819C818E0D9F1D0E94F8090F5F1F4FD0
:1011200081E4E80EF11CE9CFDF91CF911F910F917F
:10113000FF90EF9008950F931F93FC010185128596
:10114000238534850F3F1F4F2F4F3F4F21F4418799
:10115000528763877487818592859A01281B390B92
:10116000C90141875287638774871F910F91089542
:10117000FC01838194810895FC01138A128A0296EE
:101180000C9400018F929F92AF92BF92CF92DF9208
:10119000EF92FF920F93CF93DF93CDB7DEB76497B3
:1011A0000FB6F894DEBF0FBECDBF5C014C0182E0EC
:1011B000880E911CC4012C8B4B8B698B7A8B0E94FF
:1011C0009800F501138A128A158A148A178A168ADA
:1011D000108E81E0818F828F138E148E158E168E65
:1011E0008FEF9FEFDC01878F90A3A1A3B2A313A27F
:1011F00014A215A216A210A617A212A611A694A7B1
:1012000083A796A785A790AB87A712AA11AA81E00A
:1012100090E094AB83AB82E090E096AB85AB83E04B
:1012200090E090AF87AB84E090E092AF81AF14AED6
:1012300013AE16AE15AEFF961182108206E02C8911
:101240004B8969897A89CE0101960E94220280E148
:10125000FE013196D40101900D928A95E1F7CE01FD
:1012600001960E940001F501F38AE28AD78AC68AB4
:1012700064960FB6F894DEBF0FBECDBFDF91CF915D
:101280000F91FF90EF90DF90CF90BF90AF909F9025
:101290008F90089502960895FC0184899589089598
:1012A000FC018689978908950F931F93CF93DF934D
:1012B00000D0CDB7DEB7DC0154964D915C915597C7
:1012C0006EE0649F9001659F300D11245296ED9160
:1012D000FC915397E20FF31FAE014F5F5F4F6CE934
:1012E00071E0828193810E94B612009781F00E9482
:1012F0007D128C01AE014F5F5F4F6CE971E080E0C1
:1013000090E00E94B612009791F7C80102C08FEFDB
:101310009FEF0F900F90DF91CF911F910F91089544
:10132000CF93DF9300D0CDB7DEB7DC0154964D915B
:101330005C9155976EE0649F9001659F300D11247C
:101340005296ED91FC915397E20FF31FAE014F5F60
:101350005F4F6CE971E0828193810E94B612009721
:1013600019F00E947D1202C08FEF9FEF0F900F9037
:10137000DF91CF910895FC01178A168A138E148E7F
:10138000158E168E4FEF5FEFBA01478F50A361A302
:1013900072A313A214A215A216A2108E81E0818F4F
:1013A000828F10A617A212A611A68FEF9FEF94A707
:1013B00083A796A785A790AB87A712AA11AA81E059
:1013C00090E094AB83AB82E090E096AB85AB83E09A
:1013D00090E090AF87AB84E090E092AF81AF14AE25
:1013E00013AE16AE15AEFF961182108281E00895FD
:1013F0003F924F925F926F927F928F929F92AF92A5
:10140000BF92CF92DF92EF92FF920F931F93CF93F1
:10141000DF93EC018BA19CA1ADA1BEA18A019B0130
:10142000081B190B2A0B3B0B0B8F1C8F2D8F3E8F2C
:1014300088809980F4010583168327833087AC88E0
:10144000BD886501E12CF12CC182D282E382F48255
:10145000418752876387748785879687A787B08B74
:101460004E895F89A416B506B8F0888D811132C106
:10147000A501415051096A897B899E01CE010296DE
:101480000E94BA04CE010E94BB09E881F9818FEF66
:10149000808381E0888F1EC1188E4EE04A9D7001C6
:1014A0004B9DF00C11244A895B894E0D5F1DFA019A
:1014B00042845384612C712C4016510662067306D7
:1014C000C0F4840D951DA61DB71D8BA39CA3ADA3D1
:1014D000BEA3B5016F5F7F4F7D8B6C8B1B8E1C8E07
:1014E0001D8E1E8E8FEF9FEFDC018F8F98A3A9A317
:1014F000BAA38FEFD4018C936B8D7C8D8D8D9E8DD7
:101500000E946A1020E030E048E453E40E94D60FC5
:101510000E943E109B01AC01A8ECB0E00E9420119B
:101520000F8D18A129A13AA1E881F9810F3FBFEFE2
:101530001B072B073B0729F06017710782079307EA
:1015400041F021E0288F6F8F78A389A39AA32BE223
:1015500020836B8F7C8F8D8F9E8FE881F9816583CF
:101560007683878390872BEF218B6A887B884C88D2
:101570005D882EE0249D8001259D100D1124060D0F
:10158000171DF80126813781408551850E94F8108A
:10159000672B682B692B09F09DC0888D882309F47F
:1015A00099C0E881F98187EE93E0A0E0B0E0818303
:1015B0009283A383B483D8013C90B2E03B1609F434
:1015C00043C0B31570F13320A1F1E1E03E1281C0B8
:1015D000DF93CF93CE01C9969F938F934E01B7E3CC
:1015E0008B0E911C5E01E5E3AE0EB11C6E01F3E3C0
:1015F000CF0ED11C7E0121E3E20EF11C8E01015DB4
:101600001F4F9E01255D3F4FA201B301C7970E9466
:101610001205E881F98130820F900F900F900F90A2
:1016200058C023E03216F1F044E0341609F450C0FB
:1016300050C09E01A201B301CE0102960E94BA04DD
:10164000E881F981108245C06E01E12C00E020E0C4
:1016500030E0A201B301CE0102960E943406E88177
:10166000F98136C0CE010E949009182F092FCE01B2
:101670000E9454094C895D896A897B89DF93CF93E5
:101680000F931F939F938F934E01EFE38E0E911C48
:101690005E01FDE3AF0EB11C6E012BE3C20ED11C47
:1016A0007E018BE2E80EF11C8E01065E1F4F9E014B
:1016B000275E3F4FCE0102960E947A07E881F981AA
:1016C00030820F900F900F900F900F900F9001C0ED
:1016D0003082188EDF91CF911F910F91FF90EF9084
:1016E000DF90CF90BF90AF909F908F907F906F9042
:1016F0005F904F903F9008951F920F920FB60F92F8
:1017000011242F933F938F939F93AF93BF93809117
:101710000D0290910E02A0910F02B0911002309133
:101720000C0223E0230F2D3720F40196A11DB11DDB
:1017300005C026E8230F0296A11DB11D20930C02BF
:1017400080930D0290930E02A0930F02B0931002AB
:101750008091110290911202A0911302B091140293
:101760000196A11DB11D8093110290931202A093C6
:101770001302B0931402BF91AF919F918F913F914B
:101780002F910F900FBE0F901F9018952FB7F894C0
:1017900060910D0270910E0280910F0290911002E3
:1017A0002FBF0895789484B5826084BD84B581602C
:1017B00084BD85B5826085BD85B5816085BDEEE659
:1017C000F0E0808181608083E1E8F0E01082808138
:1017D00082608083808181608083E0E8F0E08081A6
:1017E00081608083E1EBF0E0808184608083E0EBC6
:1017F000F0E0808181608083EAE7F0E080818460AE
:101800008083808182608083808181608083808109
:10181000806880831092C1000895833081F028F49D
:10182000813099F08230A1F008958730A9F0883096
:10183000B9F08430D1F4809180008F7D03C0809115
:1018400080008F7780938000089584B58F7702C0E1
:1018500084B58F7D84BD08958091B0008F7703C0DB
:101860008091B0008F7D8093B0000895CF93DF9377
:1018700090E0FC01E457FF4F2491FC01E056FF4F3C
:101880008491882349F190E0880F991FFC01E2546C
:10189000FF4FA591B4918C549F4FFC01C591D491F9
:1018A0009FB7611108C0F8948C91209582238C9386
:1018B000888182230AC0623051F4F8948C91322FCF
:1018C000309583238C938881822B888304C0F8947D
:1018D0008C91822B8C939FBFDF91CF9108950F93B2
:1018E0001F93CF93DF931F92CDB7DEB7282F30E041
:1018F000F901E858FF4F8491F901E457FF4F149123
:10190000F901E056FF4F04910023C9F0882321F02C
:1019100069830E940D0C6981E02FF0E0EE0FFF1F3C
:10192000EC54FF4FA591B4919FB7F8948C9161113D
:1019300003C01095812301C0812B8C939FBF0F9012
:10194000DF91CF911F910F910895FC01818D228D20
:1019500090E0805C9F4F821B91098F7399270895B7
:10196000FC01918D828D981731F0828DE80FF11D69
:10197000858D90E008958FEF9FEF0895FC01918D84
:10198000828D981761F0828DDF01A80FB11D5D96E1
:101990008C91928D9F5F9F73928F90E008958FEF4F
:1019A0009FEF089582E49EE0892B49F080E090E06B
:1019B000892B29F00E94420E81110C940000089599
:1019C000FC01848DDF01A80FB11DA35ABF4F2C91DC
:1019D000848D90E001968F739927848FA689B789AB
:1019E0002C93A089B1898C9180648C93938D848D84
:1019F000981306C00288F389E02D80818F7D808353
:101A00000895CF93DF93EC01888D8823C9F0EA898C
:101A1000FB89808185FD05C0A889B9898C9186FDE7
:101A20000FC00FB607FCF5CF808185FFF2CFA889E4
:101A3000B9898C9185FFEDCFCE010E94E00CE7CFF4
:101A4000DF91CF910895CF92DF92FF920F931F9372
:101A5000CF93DF931F92CDB7DEB76C0181E0D60143
:101A600058968C9358975B969C915B975C968C915B
:101A70005C97981307C05096ED91FC915197808127
:101A800085FD2EC0F601038D10E00F5F1F4F0F7311
:101A90001127F02EF601848DF81211C00FB607FC45
:101AA000F9CFD6015096ED91FC915197808185FF39
:101AB000F1CFC60169830E94E00C6981EBCF838D71
:101AC000E80FF11DE35AFF4F6083D6015B960C933C
:101AD0005B975296ED91FC915397808180620CC088
:101AE000D6015696ED91FC91579760835096ED91F3
:101AF000FC91519780818064808381E090E00F9019
:101B0000DF91CF911F910F91FF90DF90CF900895BB
:101B1000BF92CF92DF92EF92FF92CF93DF93EC01CF
:101B20006A017B01B22EE889F98982E08083411540
:101B300081EE580761057105A1F060E079E08DE361
:101B400090E0A70196010E94F81021503109410947
:101B500051095695479537952795211580E1380706
:101B600098F0E889F989108260E874E88EE190E0E5
:101B7000A70196010E94F81021503109410951092D
:101B80005695479537952795EC85FD853083EE85ED
:101B9000FF852083188EEC89FD89B082EA89FB8954
:101BA000808180618083EA89FB898081886080836D
:101BB000EA89FB89808180688083EA89FB8980814A
:101BC0008F7D8083DF91CF91FF90EF90DF90CF905A
:101BD000BF9008951F920F920FB60F9211242F936A
:101BE0008F939F93EF93FF93E0912502F09126024C
:101BF0008081E0912B02F0912C0282FD12C0908135
:101C000080912E028F5F8F7320912F02821751F0E7
:101C1000E0912E02F0E0EB5EFD4F958F80932E0257
:101C200001C08081FF91EF919F918F912F910F9033
:101C30000FBE0F901F9018951F920F920FB60F9224
:101C400011242F933F934F935F936F937F938F93C1
:101C50009F93AF93BF93EF93FF9385E192E00E9430
:101C6000E00CFF91EF91BF91AF919F918F917F9188
:101C70006F915F914F913F912F910F900FBE0F90F9
:101C80001F90189585E192E00E94A50C21E0892B18
:101C900009F420E0822F0895109218021092170282
:101CA00088EE93E0A0E0B0E08093190290931A02CE
:101CB000A0931B02B0931C0284ED91E09093160256
:101CC0008093150285EC90E090932202809321028C
:101CD00084EC90E0909324028093230280EC90E0C7
:101CE000909326028093250281EC90E09093280245
:101CF0008093270282EC90E090932A02809329023D
:101D000086EC90E090932C0280932B0210922E028E
:101D100010922F021092300210923102089508950D
:101D20000E94D20B0E948F0E0E94AA02C2EDDCE03C
:101D30000E94EE032097E1F30E94D20CF9CFCF92DC
:101D4000DF92EF92FF920F931F93CF93DF937C016B
:101D50006A01EB0100E010E00C151D0571F06991BE
:101D6000D701ED91FC910190F081E02DC70109951B
:101D7000892B19F00F5F1F4FEFCFC801DF91CF9173
:101D80001F910F91FF90EF90DF90CF900895611514
:101D9000710581F0DB010D900020E9F7AD014150A4
:101DA0005109461B570BDC01ED91FC910280F38138
:101DB000E02D099480E090E008950C94C70EDC01BA
:101DC000ED91FC910190F081E02D099460EE71E0BD
:101DD0000C94C70E0F931F93CF93DF93EC010E94D7
:101DE000C70E8C01CE010E94E60E800F911FDF917D
:101DF000CF911F910F9108958F929F92AF92BF92B2
:101E0000CF92DF92EF92FF920F931F93CF93DF93C6
:101E1000CDB7DEB7A1970FB6F894DEBF0FBECDBF2A
:101E20007C01C42EE52FCB01D22E19A221E02D1565
:101E300010F02AE0D22E8E010F5D1F4F8D2C912CB9
:101E4000A12CB12C6C2D7E2FA50194010E94F810BD
:101E50008C2DD29E80191124015011098A3014F45E
:101E6000805D01C0895CF801808321153105410541
:101E7000510521F0C22EE32FCA01E4CFB801C701FA
:101E80000E94C70EA1960FB6F894DEBF0FBECDBF5D
:101E9000DF91CF911F910F91FF90EF90DF90CF9046
:101EA000BF90AF909F908F900895CF92DF92EF9266
:101EB000FF920F931F93CF93DF93EC016A017B0195
:101EC0002115310579F4E881F9810190F081E02D47
:101ED000642FDF91CF911F910F91FF90EF90DF90D2
:101EE000CF9009942A303105E9F477FF1AC06DE2EA
:101EF0000E94DF0E8C0144275527BA014C195D0959
:101F00006E097F092AE0CE010E94FC0E800F911F0E
:101F1000DF91CF911F910F91FF90EF90DF90CF90C5
:101F200008952AE0B701A601CE01DF91CF911F915C
:101F30000F91FF90EF90DF90CF900C94FC0E0F93D9
:101F40001F93CF93DF93EC019A01AB01662757FDF6
:101F50006095762F0E94550F8C01CE010E94E60EEF
:101F6000800F911FDF91CF911F910F91089521153F
:101F7000310541F4DC01ED91FC910190F081E02DFF
:101F8000642F09940C94FC0E0F931F93CF93DF934F
:101F9000EC010E94B70F8C01CE010E94E60E800F6B
:101FA000911FDF91CF911F910F9108950CD0E6C042
:101FB000DED040F0D5D030F021F45F3F19F0C7C03B
:101FC000511110C1CAC0EBD098F39923C9F355231E
:101FD000B1F3951B550BBB27AA276217730784071C
:101FE00038F09F5F5F4F220F331F441FAA1FA9F3D2
:101FF00033D00E2E3AF0E0E830D091505040E695C4
:10200000001CCAF729D0FE2F27D0660F771F881F24
:10201000BB1F261737074807AB07B0E809F0BB0B13
:10202000802DBF01FF2793585F4F2AF09E3F510537
:1020300068F08DC0D7C05F3FECF3983EDCF3869527
:1020400077956795B795F7959F5FC9F7880F911DAD
:102050009695879597F90895E1E0660F771F881F99
:10206000BB1F621773078407BA0720F0621B730B4C
:10207000840BBA0BEE1F88F7E095089598D088F08E
:102080009F5790F0B92F9927B751A0F0D1F0660F64
:10209000771F881F991F1AF0BA95C9F712C0B1307F
:1020A00081F09FD0B1E008959CC0672F782F8827DA
:1020B000B85F39F0B93FCCF3869577956795B395BE
:1020C000D9F73EF490958095709561957F4F8F4F2D
:1020D0009F4F0895E89409C097FB3EF49095809532
:1020E000709561957F4F8F4F9F4F9923A9F0F92FDE
:1020F00096E9BB279395F695879577956795B7955C
:10210000F111F8CFFAF4BB0F11F460FF1BC06F5F41
:102110007F4F8F4F9F4F16C0882311F096E911C053
:10212000772321F09EE8872F762F05C0662371F074
:1021300096E8862F70E060E02AF09A95660F771F88
:10214000881FDAF7880F9695879597F9089597F97C
:102150009F6780E870E060E008959FEF80EC08954D
:1021600000240A9416161706180609060895002476
:102170000A9412161306140605060895092E0394F0
:10218000000C11F4882352F0BB0F40F4BF2B11F464
:1021900060FF04C06F5F7F4F8F4F9F4F089557FDC3
:1021A0009058440F551F59F05F3F71F04795880FC5
:1021B00097FB991F61F09F3F79F08795089512165C
:1021C00013061406551FF2CF4695F1DF08C0161608
:1021D00017061806991FF1CF8695710561050894B9
:1021E0000895E894BB2766277727CB0197F90895D0
:1021F000A1E21A2EAA1BBB1BFD010DC0AA1FBB1F0B
:10220000EE1FFF1FA217B307E407F50720F0A21B7C
:10221000B30BE40BF50B661F771F881F991F1A94E9
:1022200069F760957095809590959B01AC01BD0113
:10223000CF010895EE0FFF1F0590F491E02D099452
:102240000E942B11A59F900DB49F900DA49F800D0F
:10225000911D11240895A29FB001B39FC001A39FB7
:10226000700D811D1124911DB29F700D811D1124CF
:10227000911D08950F931F93CF93DF93869F800145
:10228000879F100D969F100D1124C8010E945611B2
:10229000EC01009729F0A80160E070E00E94A01214
:1022A000CE01DF91CF911F910F910895CF93DF93CE
:1022B0008230910510F482E090E0E091B402F09158
:1022C000B50220E030E0A0E0B0E0309739F1408185
:1022D000518148175907B8F04817590771F482819E
:1022E0009381109729F013969C938E9312972CC08C
:1022F0009093B5028093B40227C02115310531F0C7
:102300004217530718F0A901DB0101C0EF019A0140
:10231000BD01DF010280F381E02DD7CF211531050A
:10232000F9F0281B390B2430310580F48A819B8118
:102330006115710521F0FB019383828304C09093A2
:10234000B5028093B402FE01329644C0FE01E20F52
:10235000F31F8193919322503109398328833AC026
:102360002091B2023091B302232B41F4209102015B
:10237000309103013093B3022093B2022091000107
:10238000309101012115310541F42DB73EB740913F
:10239000040150910501241B350BE091B202F0912C
:1023A000B302E217F307A0F42E1B3F0B28173907DF
:1023B00078F0AC014E5F5F4F2417350748F04E0FA1
:1023C0005F1F5093B3024093B2028193919302C076
:1023D000E0E0F0E0CF01DF91CF910895CF93DF935C
:1023E000009709F487C0FC01329713821282C091D2
:1023F000B402D091B502209781F420813181280F59
:10240000391F8091B2029091B3028217930779F538
:10241000F093B302E093B2026DC0DE0120E030E041
:10242000AE17BF0750F412964D915C9113979D0122
:102430004115510509F1DA01F3CFB383A28340813D
:102440005181840F951F8A179B0771F48D919C9180
:102450001197840F951F02969183808312968D9118
:102460009C911397938382832115310529F4F0936E
:10247000B502E093B4023EC0D9011396FC93EE93EB
:1024800012974D915D91A40FB51FEA17FB0779F4E0
:1024900080819181840F951F0296D90111969C939A
:1024A0008E938281938113969C938E931297E0E092
:1024B000F0E08A819B81009719F0FE01EC01F9CFD1
:1024C000CE01029628813981820F931F2091B2029A
:1024D0003091B3022817390769F4309729F4109224
:1024E000B5021092B40202C013821282D093B302DA
:1024F000C093B202DF91CF910895FC0188279927FC
:10250000E89421912032E9F3293010F02E30C8F3FD
:102510002B3241F02D3239F4689404C00E94DD1250
:10252000820F911D219120532A30C0F31EF4909503
:1025300081959F4F089540EF51E00E94B612089593
:10254000DC0101C06D9341505040E0F70895FB015C
:10255000DC014150504048F001900D920020C9F735
:1025600001C01D9241505040E0F70895FA01A19139
:10257000B081009719F41097E1F0CD01DC01CD0195
:102580000D90002011F4C00113C0FB012191222302
:1025900019F02015D9F7F3CFFB012191201519F47B
:1025A0001E92119606C02223C1F70D900020A1F7BC
:1025B000D001FA01A193B08308957AE0979F902DFE
:1025C000879F802D910D1124089510E0CCECD0E070
:1025D00004C0FE010E941C112296CE3CD107C9F70F
:0425E000F894FFCF9D
:1025E4000000B60280000500070143617074757233
:1025F400696E672073657269616C206F757470759C
:1026040074206F6E2050726F5472696E6B65740023
:10261400302C312C322C332C342000302C302C3004
:102624002C302C302000312C312C312C312C312009
:1026340000322C302C322C302C322000302C332C15
:10264400332C332C302000342C342C302C342C34C8
:102654002000352C352C352C352C352000456C616B
:10266400707365642074696D65206973203A200075
:10267400537472697020004E554C4C002C00457800
:102684006974696E67207072656D61747572656CCA
:102694007920622F6320706978656C206F722063E3
:1026A4006F6C6F72206973206E756C6C2E2E2E0009
:1026B40000000000230D9F0EA50CBE0CB00C010DF4
:1026C4000D0A006E616E00696E66006F766600002A
:00000001FF
