:100000000C9455000C947D000C947D000C947D00A4
:100010000C947D000C947D000C947D000C947D006C
:100020000C947D000C947D000C947D000C947D005C
:100030000C947D000C947D000C947D000C947D004C
:100040000C94300A0C947D000C943F0C0C94710CB1
:100050000C947D000C947D000C947D000C947D002C
:100060000C947D000C947D00010204081020408057
:1000700001020408102001020408102004040404F2
:100080000404040402020202020203030303030342
:1000900000000000250028002B00000000002400C4
:1000A00027002A00D303A10CF30311241FBECFEFB6
:1000B000D8E0DEBFCDBF12E0A0E0B1E0E4E9F2E2BB
:1000C00002C005900D92A032B107D9F722E0A0E25C
:1000D000B2E001C01D92A83EB207E1F710E0C8EA05
:1000E000D0E004C02297FE010E94930FC43AD107CA
:1000F000C9F70E94E50C0C943D110C9400008EBDD4
:1001000000000DB407FEFDCF8EB508950895CF937E
:10011000DF93EC0160E08A810E94C10A60E08B817C
:10012000DF91CF910C94C10ACF93DF93EC018D81C5
:100130009E81009711F00E945A108A818F3F21F40E
:10014000DF91CF910C94F401CE01DF91CF910C940B
:100150008700FC0199E09150D9F0A485B58582858E
:100160002C9167FF03C0282B2C9303C0809582231A
:100170008C93A685B7858C912385822B8C93A6853D
:10018000B7852C918385809582238C93660FE3CF6E
:100190000895BF92CF92DF92EF92FF920F931F9339
:1001A000CF93DF93EC01ED80FE80E114F10409F4BC
:1001B00088C008811981BC808A818F3F09F041C0C5
:1001C00080E00E947F0080E00E947F0080E00E942B
:1001D0007F001EBC3FEF0DB407FEFDCF3EBDF70113
:1001E00023E08C81882331F080818B9DC001112414
:1001F000892F01C080810DB407FEFDCF8EBD215037
:1002000031962111EECF83E0E80EF11C0150110967
:1002100011F70DB407FEFDCF8FEF0E947F008FEF27
:100220000E947F008FEF0E947F008FEFDF91CF91C0
:100230001F910F91FF90EF90DF90CF90BF900C94A3
:100240007F0074E0D72E60E0CE010E94A900DA940E
:10025000D1F78C81882331F16FEFCE010E94A90084
:100260006701E3E0CE0ED11CF70181917F018B9DE8
:10027000C0011124692FCE010E94A900EC14FD04D5
:1002800099F70150110941F714E015C0F701619188
:100290007F01CE010E94A900EC14FD04B9F70150C2
:1002A000110991F36FEFCE010E94A9006701F3E0FD
:1002B000CF0ED11CEBCF6FEFCE010E94A9001150E1
:1002C000D1F7DF91CF911F910F91FF90EF90DF90C9
:1002D000CF90BF900895FC01378120858081918166
:1002E000AC01321307C04D5F5F4F56954795569549
:1002F000479502C0440F551F480F591F60E070E03A
:10030000858196810C9407110F931F93CF93DF93F0
:10031000EC018B018D819E81009711F00E945A1093
:100320009F818885981307C0C80103969695879585
:100330009695879503C0C801880F991F800F911F5C
:100340000E94C20F9E838D83892B49F019830883F5
:10035000CE01DF91CF911F910F910C946B01198207
:100360001882DF91CF911F910F9108950F931F93E2
:10037000FC0142832383148216821582802F8370AE
:10038000878310E0C801959587959595879583702B
:10039000808734E0159507953A95E1F7037001875A
:1003A000CF011F910F910C948401FC0180819181F8
:1003B00068177907C0F4DB01AA0FBB1FA60FB71F90
:1003C000858196818A0F9B1F5781DC01A50FB11D86
:1003D0004C934085DC01A40FB11D3C933185FC0199
:1003E000E30FF11D208308959FB7F89480912102B7
:1003F000882319F08150809321028091210281117C
:1004000005C08CB58F7B8CBD109220029FBF0895D4
:10041000AF92BF92CF92DF92EF92FF920F93CF9362
:10042000DF93CDB7DEB7C154D1090FB6F894DEBF64
:100430000FBECDBF26E040E052EC61E070E087E403
:1004400092E00E94DD0B63E971E087E492E00E9494
:100450003F0D61E470E082E090E00E94A60F5C0135
:1004600090933D0280933C026EE070E085E090E066
:100470000E94A60F2EE0E7E0F1E0DC0101900D9272
:100480002A95E1F72EE0E5E1F1E0DC011E9601900E
:100490000D922A95E1F72EE0E3E2F1E0DC015C96B3
:1004A00001900D922A95E1F72EE0E1E3F1E0DC0105
:1004B0009A9601900D922A95E1F72EE0EFE3F1E094
:1004C000DC01D89601900D922A95E1F725E0C22E25
:1004D000D12C7C0106E025E044E06EE170E0CE0125
:1004E00001960E947F0781E4FE013196D5010190BB
:1004F0000D928A95E1F7CE0101960E947907A090AE
:100500003C02B0903D028091230290912402F501BB
:10051000918380836EE070E085E090E00E94A60FFA
:100520002EE0EDE4F1E0DC0101900D922A95E1F777
:100530002EE0EBE5F1E0DC011E9601900D922A958C
:10054000E1F72EE0E9E6F1E0DC015C9601900D9226
:100550002A95E1F72EE0E7E7F1E0DC019A960190B9
:100560000D922A95E1F72EE0E5E8F1E0DC01D8965E
:1005700001900D922A95E1F77C0126E048E06EE1BA
:1005800070E0CE0101960E947F07D501AF5BBF4F9F
:1005900081E4FE01319601900D928A95E1F7CE013A
:1005A00001960E94790760913C0270913D02FB0127
:1005B000EF5BFF4F80912302909124020F9691836D
:1005C000808340910601CE0101960E9407078DE0CD
:1005D000FE013196AFE2B2E001900D928A95E1F70B
:1005E000CE0101960E940307E0912502F0912602B8
:1005F000F0933002E0932F02809123029091240225
:1006000095838483CF5BDF4F0FB6F894DEBF0FBEB8
:10061000CDBFDF91CF910F91FF90EF90DF90CF9002
:10062000BF90AF900895DF92EF92FF920F931F93C8
:10063000CF93DF930E947A0AAB01BC018FE292E074
:100640000E945807AC0160E070E040932B02509389
:100650002C0260932D0270932E02009127021091BC
:1006600028022091290230912A020F5F1F4F2F4F3D
:100670003F4F0093270210932802209329023093C2
:100680002A028FE292E00E941D076FEC71E087E47E
:1006900092E00E94320D40912B0250912C02609109
:1006A0002D0270912E022AE030E087E492E00E9451
:1006B000300E8091250290912602892BC9F4E09199
:1006C0002F02F091300240815181628173812AE0D2
:1006D00030E087E492E00E94300E87E492E0DF9100
:1006E000CF911F910F91FF90EF90DF900C943B0DF5
:1006F00000E010E060E070E0DD24D39480913102EE
:10070000992787FD909568177907CCF6E0912F021D
:10071000F091300284819581EB012196892BC9F1FA
:100720008FE292E00E947507800F911F0E942A08B5
:100730007C018FE292E00E947507800F911F0E945A
:100740002E08E816F90618F0D092220228C062EEB0
:1007500071E087E492E00E94320D4AE050E0BE0171
:1007600087E492E00E94F40D69EE71E087E492E084
:100770000E94320DE0912F02F09130020480F58149
:10078000E02D4AE050E0608187E492E00E94190E7B
:1007900006C067EF71E087E492E00E943F0DBE0162
:1007A0000F5B1F4FABCFCF93DF938FE292E00E949E
:1007B000F406C0910601DD27C7FDD09566E070E024
:1007C000CE010E94A60F90932602809325026FE02F
:1007D00070E0CE010E94A60F909324028093230222
:1007E000DF91CF9108958FE292E00C9403070F936D
:1007F0001F93CF93DF9300D0CDB7DEB78C01009766
:1008000031F06115710581F14115510569F1FA0168
:10081000808191812EE0289FF001299FF00D112405
:10082000E60FF71FAE014F5F5F4F6CEF71E0828103
:1008300093810E940E110097B9F00E94E91020E008
:1008400030E0A901BC01C8010E94D501AE014F5F93
:100850005F4F6CEF71E080E090E00E940E11009716
:1008600061F7C8010E94C9000F900F90DF91CF91EE
:100870001F910F9108952F923F924F925F926F9226
:100880007F928F929F92AF92BF92CF92DF92EF9220
:10089000FF920F931F93CF93DF93CDB7DEB72C0159
:1008A0003B011A01009741F06115710509F40FC170
:1008B0004115510509F40BC1F101808191814EE090
:1008C000489FF001499FF00D1124E60DF71D81812D
:1008D00090E0F8014081518148175907F0F02E5FF0
:1008E0003F4F8FEF9FEF91838083F701118210823A
:1008F00081E090E0F6019183808382E090E0F50151
:100900009183808383E090E0F4019183808384E08D
:1009100090E0ED89FE8991838083F101808191814E
:100920004EE0489FF001499FF00D1124E60DF71DA0
:10093000858590E0F901208131818217930708F4C1
:10094000C6C0F8016081718120E030E0A901C201D8
:100950000E94D501F7016081718120E030E04FEF06
:1009600050E0C2010E94D501F6016081718120E052
:1009700035EA4FEF50E0C2010E94D501F5016081D8
:10098000718120E03FEF4FEF50E0C2010E94D5019E
:10099000F4016081718120E03FEF40E050E0C2014E
:1009A0000E94D501ED89FE89608171812FEF30E0D1
:1009B00040E050E0C2010E94D501F70162817381DD
:1009C0006250710920E030E0A901C2010E94D50106
:1009D000F101808191812EE0289FF001299FF00D87
:1009E0001124E60DF71D818190E0F8012281338109
:1009F0002817390711F413821282F1018081918145
:100A00002EE0289FF001299FF00D1124E60DF71D1F
:100A1000818190E0F701228133812817390711F491
:100A200013821282F101808191812EE0289FF001D2
:100A3000299FF00D1124E60DF71D818190E0F6014C
:100A4000228133812817390711F413821282F101B0
:100A5000808191812EE0289FF001299FF00D1124C3
:100A6000E60DF71D818190E0F50122813381281781
:100A7000390711F413821282F101808191812EE0F5
:100A8000289FF001299FF00D1124E60DF71D8181AB
:100A900090E0F401228133812817390711F4138281
:100AA0001282F101808191812EE0289FF001299F1F
:100AB000F00D1124E60DF71D818190E0ED89FE898E
:100AC000228133812817390711F413821282DF91B2
:100AD000CF911F910F91FF90EF90DF90CF90BF903B
:100AE000AF909F908F907F906F905F904F903F90CE
:100AF0002F9008954F925F926F927F928F929F9264
:100B0000AF92BF92CF92DF92EF920F931F93CF934A
:100B1000DF9300D000D0CDB7DEB76C014B012A01C6
:100B20003901009741F06115710509F480C0411544
:100B3000510509F47CC0F201808191811EE0189F6B
:100B4000F001199FF00D1124E80DF91DAE014D5F64
:100B50005F4F6CEF71E0828193810E940E115C0106
:100B6000F20180819181189FF001199FF00D1124ED
:100B7000E80DF91DAE014F5F5F4F6CEF71E08481AE
:100B800095810E940E114C01A114B10409F44FC0CB
:100B9000009709F44CC0002381F0C5010E94E910C0
:100BA000F3016081718161507109680F791F20E044
:100BB00030E0A901C6010E94D501C5010E94E910DB
:100BC000F30100811181080F191FC4010E94E9106F
:100BD0009C01442737FD4095542FB801C6010E945F
:100BE000D501AE014D5F5F4F6CEF71E080E090E0AA
:100BF0000E940E115C01009761F0AE014F5F5F4FE4
:100C00006CEF71E080E090E00E940E114C010097C3
:100C1000A1F6EE2049F0B8016F5F7F4F20E030E091
:100C2000A901C6010E94D501C6010E94C9000F900A
:100C30000F900F900F90DF91CF911F910F91EF9038
:100C4000DF90CF90BF90AF909F908F907F906F90EC
:100C50005F904F9008952F923F924F925F926F92C4
:100C60007F928F929F92AF92BF92CF92DF92EF923C
:100C7000FF920F931F93CF93DF93CDB7DEB72897E3
:100C80000FB6F894DEBF0FBECDBF3C011B012A0199
:100C90003C832B83D801FA82E9828D8D9E8D9E83C1
:100CA0008D83EF8DF8A1F887EF836114710441F013
:100CB0006115710509F47FC04115510509F47BC028
:100CC000EB81FC818081882359F1E12C00E020E058
:100CD00030E0A201B101C3010E947A05EB81FC81E1
:100CE0001082F201808191812EE0289FF001299FDE
:100CF000F00D1124E20DF31D848590E0F401918341
:100D000080838D819E81F501918380838F81988579
:100D1000F60191838083E981FA811182108230C0CB
:100D2000F40180819181892B59F18C918823E1F024
:100D3000F201808191812EE0289FF001299FF00D22
:100D40001124E20DF31D818190E0F50122813381B0
:100D50002817390738F429813A812E5F3F4FE12C5B
:100D600001E009C01C920CC029813A81225031094E
:100D7000EE24E39400E0A201B101C3010E947A05D0
:100D8000C30128960FB6F894DEBF0FBECDBFDF912A
:100D9000CF911F910F91FF90EF90DF90CF90BF9078
:100DA000AF909F908F907F906F905F904F903F900B
:100DB0002F900C94C90028960FB6F894DEBF0FBE92
:100DC000CDBFDF91CF911F910F91FF90EF90DF90FA
:100DD000CF90BF90AF909F908F907F906F905F90DB
:100DE0004F903F902F900895FC0111821082128243
:100DF000148213821582168217821086118612863B
:100E0000138614860895FC011482138208950F93AB
:100E10001F93FC01118210821582168217821086A0
:100E2000748363830FEF1FEF980101871287238775
:100E3000348742831F910F910895EF92FF920F9391
:100E40001F93CF93DF93EC010D811E812F81388595
:100E5000400F511F621F731F4D835E836F8378871E
:100E6000E881F9814083518362837383E12CF12C03
:100E700000E010E08A81992787FD909508171907EF
:100E800084F44D815E816F8178858B819C818E0D8C
:100E90009F1D0E94D6080F5F1F4F81E4E80EF11CD2
:100EA000E9CFDF91CF911F910F91FF90EF900895BF
:100EB0000F931F93FC0101851285238534850F3F15
:100EC0001F4F2F4F3F4F21F441875287638774870D
:100ED000818592859A01281B390BC9014187528768
:100EE000638774871F910F910895FC01838194811A
:100EF0000895FC01138A128A02960C9494008F9232
:100F00009F92AF92BF92CF92DF92EF92FF920F9398
:100F1000CF93DF93CDB7DEB764970FB6F894DEBFFB
:100F20000FBECDBF5C014C0182E0880E911CC40154
:100F30002C8B4B8B698B7A8B0E948600D501539644
:100F40001C921E92529755961C921E925497579639
:100F50001C921E92569758961C92589781E059966B
:100F60008C9359975A968C935A97F501138E148E39
:100F7000158E168E5F961D921D921D921C92929751
:100F800013A214A215A216A210A617A212A611A6A9
:100F9000EFEFFFEF9C96FC93EE939B979E96FC934E
:100FA000EE939D97D096FC93EE939F97D2961C92CA
:100FB0001E92D19781E090E0D4969C938E93D39724
:100FC00082E090E0D6969C938E93D59783E090E054
:100FD000D8969C938E93D79784E090E0DA969C9372
:100FE0008E93D997DC961C921E92DB97DE961C920C
:100FF0001E92DD97F501FF961182108202E12C8985
:101000004B8969897A89CE0101960E94B60180E1F7
:10101000FE013196D40101900D928A95E1F7CE013F
:1010200001960E949400F501F38AE28AD78AC68A63
:1010300064960FB6F894DEBF0FBECDBFDF91CF919F
:101040000F91FF90EF90DF90CF90BF90AF909F9067
:101050008F900895FC01848995890895FC01868903
:10106000978908950F931F93CF93DF9300D0CDB747
:10107000DEB7DC0154964D915C9155976EE0649F0C
:101080009001659F300D11245296ED91FC9153977C
:10109000E20FF31FAE014F5F5F4F6CEF71E0828193
:1010A00093810E940E11009781F00E94E9108C013B
:1010B000AE014F5F5F4F6CEF71E080E090E00E9407
:1010C0000E11009791F7C80102C08FEF9FEF0F90AC
:1010D0000F90DF91CF911F910F910895CF93DF93E0
:1010E00000D0CDB7DEB7DC0154964D915C91559799
:1010F0006EE0649F9001659F300D11245296ED9132
:10110000FC915397E20FF31FAE014F5F5F4F6CEFFF
:1011100071E0828193810E940E11009719F00E9464
:10112000E91002C08FEF9FEF0F900F90DF91CF91EA
:101130000895FC01178A168A138E148E158E168E4A
:101140004FEF5FEFBA01478F50A361A372A313A2C1
:1011500014A215A216A2108E81E0818F828F10A694
:1011600017A212A611A68FEF9FEF94A783A796A7A9
:1011700085A790AB87A712AA11AA81E090E094AB53
:1011800083AB82E090E096AB85AB83E090E090AFDC
:1011900087AB84E090E092AF81AF14AE13AE16AE91
:1011A00015AEFF961182108281E008955F926F92D2
:1011B0007F928F929F92AF92BF92CF92DF92EF92E7
:1011C000FF920F931F93CF93DF93EC018BA19CA110
:1011D000ADA1BEA16A017B01C81AD90AEA0AFB0ABD
:1011E000CB8EDC8EED8EFE8E08811981F801C382D4
:1011F000D482E582F6822C893D893283218347831C
:1012000050876187728783879487A587B6874E89C1
:101210005F896A897B8924173507A0F0AE014C5E8F
:101220005F4FCE0102960E94F703888D811108C19D
:10123000CE010E949908E881F9818FEF808381E0D7
:10124000888FFEC0188E4EE0429FF001439FF00D44
:101250001124E60FF71F4285538560E070E04C15BE
:101260005D056E057F05B8F4840F951FA61FB71F97
:101270008BA39CA3ADA3BEA32F5F3F4F3D8B2C8BB5
:101280001B8E1C8E1D8E1E8E8FEF9FEFDC018F8FAD
:1012900098A3A9A3BAA36B8D7C8D8D8D9E8D0E9482
:1012A000D60E20E030E04AE754E40E94420E0E944D
:1012B000AA0E9B01AC01A8EEB3E00E94860F9B0131
:1012C000AC018F8D98A1A9A1BAA18F3FFFEF9F0715
:1012D000AF07BF0729F0281739074A075B0731F026
:1012E00081E0888F2F8F38A349A35AA38FEFF8018D
:1012F00080836A887B888C899D896EE0689F8001E5
:10130000699F100D1124060D171DF8016681778164
:10131000808591850E94640F672B682B692B09F0EB
:101320008FC0888D882309F48BC0F8015080F2E0CB
:101330005F1609F442C0F51560F1552091F121E0E6
:1013400052127EC04E01E7E38E0E911C5E01F5E362
:10135000AF0EB11C6E0123E3C20ED11C7E0161E30E
:10136000E60EF11C8E01015D1F4F9E01255D3F4F72
:10137000AE014C5E5F4FCE01C9969F938F93B30130
:10138000C7970E943B04E881F98150820F900F902B
:1013900057C063E05616F1F084E0581609F44DC0CA
:1013A0004FC0AE014C5E5F4FB301CE0102960E946A
:1013B000F703E881F981108243C0AE014C5E5F4FB4
:1013C000E12C00E020E030E0B301CE0102960E9463
:1013D0007A0533C0CE010E946E08782E692ECE01A8
:1013E0000E9432084E01EFE38E0E911C5E01FDE378
:1013F000AF0EB11C6E012BE3C20ED11C7E016BE25D
:10140000E60EF11C8E01065E1F4F9E01275E3F4FC8
:10141000AE014C5E5F4F6A897B896F927F929F938A
:101420008F93CE0102960E942B06E881F9815082AB
:101430000F900F900F900F9003C0E881F9815082B8
:10144000DF91CF911F910F91FF90EF90DF90CF90A0
:10145000BF90AF909F908F907F906F905F90089516
:101460001F920F920FB60F9211242F933F938F93D9
:101470009F93AF93BF9380913F0290914002A091C0
:101480004102B091420230913E0223E0230F2D37FA
:1014900020F40196A11DB11D05C026E8230F029678
:1014A000A11DB11D20933E0280933F029093400204
:1014B000A0934102B0934202809143029091440272
:1014C000A0914502B09146020196A11DB11D8093E5
:1014D000430290934402A0934502B0934602BF9109
:1014E000AF919F918F913F912F910F900FBE0F90D1
:1014F0001F9018952FB7F89460913F0270914002A9
:1015000080914102909142022FBF0895789484B552
:10151000826084BD84B5816084BD85B5826085BDEF
:1015200085B5816085BDEEE6F0E0808181608083D5
:10153000E1E8F0E0108280818260808380818160B8
:101540008083E0E8F0E0808181608083E1EBF0E07F
:10155000808184608083E0EBF0E080818160808323
:10156000EAE7F0E08081846080838081826080830C
:101570008081816080838081806880831092C10037
:101580000895CF93DF9390E0FC01E859FF4F249139
:10159000FC01E458FF4F8491882349F190E0880FC3
:1015A000991FFC01E656FF4FA591B49180579F4FBC
:1015B000FC01C591D4919FB7611108C0F8948C913A
:1015C000209582238C93888182230AC0623051F453
:1015D000F8948C91322F309583238C938881822BC1
:1015E000888304C0F8948C91822B8C939FBFDF91E9
:1015F000CF910895FC01818D228D90E0805C9F4FFA
:10160000821B91098F7399270895FC01918D828D1A
:10161000981731F0828DE80FF11D858D90E00895C7
:101620008FEF9FEF0895FC01918D828D981761F0E7
:10163000828DDF01A80FB11D5D968C91928D9F5F09
:101640009F73928F90E008958FEF9FEF089587E941
:101650009CE0892B49F080E090E0892B29F00E94E2
:10166000970C81110C9400000895FC01848DDF011A
:10167000A80FB11DA35ABF4F2C91848D90E0019605
:101680008F739927848FA689B7892C93A089B189F4
:101690008C9180648C93938D848D981306C00288FE
:1016A000F389E02D80818F7D80830895CF93DF9330
:1016B000EC01888D8823C9F0EA89FB89808185FD4A
:1016C00005C0A889B9898C9186FD0FC00FB607FCAB
:1016D000F5CF808185FFF2CFA889B9898C9185FFEC
:1016E000EDCFCE010E94350BE7CFDF91CF9108956A
:1016F000CF92DF92FF920F931F93CF93DF931F92AE
:10170000CDB7DEB76C0181E0D60158968C9358971F
:101710005B969C915B975C968C915C97981307C045
:101720005096ED91FC915197808185FD2EC0F60178
:10173000038D10E00F5F1F4F0F731127F02EF6017E
:10174000848DF81211C00FB607FCF9CFD601509660
:10175000ED91FC915197808185FFF1CFC60169839E
:101760000E94350B6981EBCF838DE80FF11DE35AA1
:10177000FF4F6083D6015B960C935B975296ED9179
:10178000FC915397808180620CC0D6015696ED91F2
:10179000FC91579760835096ED91FC915197808111
:1017A0008064808381E090E00F90DF91CF911F9162
:1017B0000F91FF90DF90CF900895BF92CF92DF926C
:1017C000EF92FF92CF93DF93EC016A017B01B22E7F
:1017D000E889F98982E08083411581EE5807610527
:1017E0007105A1F060E079E08DE390E0A70196013A
:1017F0000E94640F215031094109510956954795BE
:1018000037952795211580E1380798F0E889F989FF
:10181000108260E874E88EE190E0A70196010E94D2
:10182000640F215031094109510956954795379563
:101830002795EC85FD853083EE85FF852083188E06
:10184000EC89FD89B082EA89FB898081806180838F
:10185000EA89FB89808188608083EA89FB898081AD
:1018600080688083EA89FB8980818F7D8083DF9116
:10187000CF91FF90EF90DF90CF90BF9008951F928F
:101880000F920FB60F9211242F938F939F93EF9384
:10189000FF93E0915702F09158028081E0915D0240
:1018A000F0915E0282FD12C09081809160028F5F94
:1018B0008F7320916102821751F0E0916002F0E095
:1018C000E95BFD4F958F8093600201C08081FF919D
:1018D000EF919F918F912F910F900FBE0F901F90BE
:1018E00018951F920F920FB60F9211242F933F93CA
:1018F0004F935F936F937F938F939F93AF93BF9318
:10190000EF93FF9387E492E00E94350BFF91EF91F4
:10191000BF91AF919F918F917F916F915F914F9107
:101920003F912F910F900FBE0F901F90189587E455
:1019300092E00E94FA0A21E0892B09F420E0822F2C
:10194000089510924A021092490288EE93E0A0E0B6
:10195000B0E080934B0290934C02A0934D02B09361
:101960004E0282E092E0909348028093470285EC19
:1019700090E0909354028093530284EC90E0909313
:1019800056028093550280EC90E090935802809329
:10199000570281EC90E090935A028093590282ECB6
:1019A00090E090935C0280935B0286EC90E09093D1
:1019B0005E0280935D0210926002109261021092AA
:1019C000620210926302089508950E94860A0E949E
:1019D000E40C0E940802C7E2DBE00E941303209798
:1019E000E1F30E94270BF9CFCF92DF92EF92FF92A3
:1019F0000F931F93CF93DF937C016A01EB0100E00B
:101A000010E00C151D0571F06991D701ED91FC9165
:101A10000190F081E02DC7010995892B19F00F5F26
:101A20001F4FEFCFC801DF91CF911F910F91FF9012
:101A3000EF90DF90CF9008956115710581F0DB0183
:101A40000D900020E9F7AD0141505109461B570B9D
:101A5000DC01ED91FC910280F381E02D099480E09E
:101A600090E008950C941C0DDC01ED91FC91019027
:101A7000F081E02D09946EE072E00C941C0D0F9340
:101A80001F93CF93DF93EC010E941C0D8C01CE01BC
:101A90000E943B0D800F911FDF91CF911F910F91FD
:101AA00008958F929F92AF92BF92CF92DF92EF9262
:101AB000FF920F931F93CF93DF93CDB7DEB7A1971C
:101AC0000FB6F894DEBF0FBECDBF7C01C42EE52F4C
:101AD000CB01D22E19A221E02D1510F02AE0D22E32
:101AE0008E010F5D1F4F8D2C912CA12CB12C6C2DD4
:101AF0007E2FA50194010E94640F8C2DD29E801927
:101B00001124015011098A3014F4805D01C0895CF0
:101B1000F8018083211531054105510521F0C22EC0
:101B2000E32FCA01E4CFB801C7010E941C0DA196A2
:101B30000FB6F894DEBF0FBECDBFDF91CF911F91DE
:101B40000F91FF90EF90DF90CF90BF90AF909F905C
:101B50008F900895CF92DF92EF92FF920F931F9391
:101B6000CF93DF93EC016A017B012115310579F4F4
:101B7000E881F9810190F081E02D642FDF91CF9110
:101B80001F910F91FF90EF90DF90CF9009942A3032
:101B90003105E9F477FF1AC06DE20E94340D8C0123
:101BA00044275527BA014C195D096E097F092AE0BF
:101BB000CE010E94510D800F911FDF91CF911F9197
:101BC0000F91FF90EF90DF90CF9008952AE0B7013A
:101BD000A601CE01DF91CF911F910F91FF90EF9061
:101BE000DF90CF900C94510D0F931F93CF93DF9301
:101BF000EC019A01AB01662757FD6095762F0E9494
:101C0000AA0D8C01CE010E943B0D800F911FDF9128
:101C1000CF911F910F9108952115310541F4DC01F9
:101C2000ED91FC910190F081E02D642F09940C94CA
:101C3000510D0F931F93CF93DF93EC019A01462F21
:101C400050E060E070E00E940C0E8C01CE010E941A
:101C50003B0D800F911FDF91CF911F910F91089540
:101C60000F931F93CF93DF93EC010E940C0E8C0116
:101C7000CE010E943B0D800F911FDF91CF911F91EC
:101C80000F9108950CD0E6C0DED040F0D5D030F0F2
:101C900021F45F3F19F0C7C0511110C1CAC0EBD089
:101CA00098F39923C9F35523B1F3951B550BBB2723
:101CB000AA2762177307840738F09F5F5F4F220FD0
:101CC000331F441FAA1FA9F333D00E2E3AF0E0E8C9
:101CD00030D091505040E695001CCAF729D0FE2F15
:101CE00027D0660F771F881FBB1F261737074807A7
:101CF000AB07B0E809F0BB0B802DBF01FF2793585D
:101D00005F4F2AF09E3F510568F08DC0D7C05F3FFE
:101D1000ECF3983EDCF3869577956795B795F79544
:101D20009F5FC9F7880F911D9695879597F908953C
:101D3000E1E0660F771F881FBB1F621773078407D8
:101D4000BA0720F0621B730B840BBA0BEE1F88F7E7
:101D5000E095089598D088F09F5790F0B92F992773
:101D6000B751A0F0D1F0660F771F881F991F1AF0A6
:101D7000BA95C9F712C0B13081F09FD0B1E0089593
:101D80009CC0672F782F8827B85F39F0B93FCCF314
:101D9000869577956795B395D9F73EF4909580959C
:101DA000709561957F4F8F4F9F4F0895E89409C0BC
:101DB00097FB3EF490958095709561957F4F8F4F7E
:101DC0009F4F9923A9F0F92F96E9BB279395F69594
:101DD000879577956795B795F111F8CFFAF4BB0F12
:101DE00011F460FF1BC06F5F7F4F8F4F9F4F16C076
:101DF000882311F096E911C0772321F09EE8872F00
:101E0000762F05C0662371F096E8862F70E060E0BB
:101E10002AF09A95660F771F881FDAF7880F969534
:101E2000879597F9089597F99F6780E870E060E0DB
:101E300008959FEF80EC089500240A941616170663
:101E400018060906089500240A94121613061406AB
:101E500005060895092E0394000C11F4882352F00E
:101E6000BB0F40F4BF2B11F460FF04C06F5F7F4FC6
:101E70008F4F9F4F089557FD9058440F551F59F0AD
:101E80005F3F71F04795880F97FB991F61F09F3F67
:101E900079F087950895121613061406551FF2CF90
:101EA0004695F1DF08C0161617061806991FF1CFE0
:101EB00086957105610508940895E894BB27662707
:101EC0007727CB0197F90895A1E21A2EAA1BBB1B15
:101ED000FD010DC0AA1FBB1FEE1FFF1FA217B307F6
:101EE000E407F50720F0A21BB30BE40BF50B661F0C
:101EF000771F881F991F1A9469F7609570958095D0
:101F000090959B01AC01BD01CF0108950E94970FF0
:101F1000A59F900DB49F900DA49F800D911D11243D
:101F20000895EE0FFF1F0590F491E02D0994A29FF4
:101F3000B001B39FC001A39F700D811D1124911D9D
:101F4000B29F700D811D1124911D08950F931F9351
:101F5000CF93DF93869F8001879F100D969F100D72
:101F60001124C8010E94C20FEC01009729F0A801BA
:101F700060E070E00E940711CE01DF91CF911F91C8
:101F80000F910895CF93DF938230910510F482E092
:101F900090E0E091E602F091E70220E030E0A0E07E
:101FA000B0E0309739F14081518148175907B8F0B6
:101FB0004817590771F482819381109729F013967D
:101FC0009C938E9312972CC09093E7028093E60225
:101FD00027C02115310531F04217530718F0A90128
:101FE000DB0101C0EF019A01BD01DF010280F38135
:101FF000E02DD7CF21153105F9F0281B390B2430FE
:10200000310580F48A819B816115710521F0FB0106
:102010009383828304C09093E7028093E602FE01DB
:10202000329644C0FE01E20FF31F81939193225038
:102030003109398328833AC02091E4023091E502C6
:10204000232B41F420910201309103013093E502EA
:102050002093E40220910001309101012115310506
:1020600041F42DB73EB74091040150910501241B66
:10207000350BE091E402F091E502E217F307A0F4DA
:102080002E1B3F0B2817390778F0AC014E5F5F4FCE
:102090002417350748F04E0F5F1F5093E502409319
:1020A000E4028193919302C0E0E0F0E0CF01DF9180
:1020B000CF910895CF93DF93009709F487C0FC0177
:1020C000329713821282C091E602D091E7022097E4
:1020D00081F420813181280F391F8091E402909191
:1020E000E5028217930779F5F093E502E093E402A5
:1020F0006DC0DE0120E030E0AE17BF0750F412964D
:102100004D915C9113979D014115510509F1DA013B
:10211000F3CFB383A28340815181840F951F8A1727
:102120009B0771F48D919C911197840F951F0296D6
:102130009183808312968D919C91139793838283D0
:102140002115310529F4F093E702E093E6023EC041
:10215000D9011396FC93EE9312974D915D91A40FC4
:10216000B51FEA17FB0779F480819181840F951FD1
:102170000296D90111969C938E9382819381139636
:102180009C938E931297E0E0F0E08A819B81009708
:1021900019F0FE01EC01F9CFCE01029628813981B8
:1021A000820F931F2091E4023091E502281739072E
:1021B00069F4309729F41092E7021092E60202C007
:1021C00013821282D093E502C093E402DF91CF9193
:1021D0000895FC0188279927E89421912032E9F39A
:1021E000293010F02E30C8F32B3241F02D3239F463
:1021F000689404C00E943511820F911D21912053D3
:102200002A30C0F31EF4909581959F4F0895DC010C
:1022100001C06D9341505040E0F70895FA01A1913B
:10222000B081009719F41097E1F0CD01DC01CD01E8
:102230000D90002011F4C00113C0FB012191222355
:1022400019F02015D9F7F3CFFB012191201519F4CE
:102250001E92119606C02223C1F70D900020A1F70F
:10226000D001FA01A193B08308957AE0979F902D51
:10227000879F802D910D1124089510E0C8EAD0E0C9
:1022800004C0FE010E94930F2296CA3AD107C9F7F3
:04229000F894FFCFF0
:102294000000E8028000020205B901B90100000053
:1022A40000A00F00000405B901B90100000000A05E
:1022B4000F00020005CD01CD010000000004000064
:1022C400000305B901B901A00F0000E803000201F1
:1022D40005B901B901A00F0000881301020205B974
:1022E40001C40100000000881300000405B901C402
:1022F40001A00F0000881300020005CD01CD0100EC
:10230400000000000000000305B901C401A00F0093
:1023140000D00700020105B901C401A00F0000703C
:10232400170102436170747572696E672073657278
:1023340069616C206F7574707574206F6E205072B3
:102344006F5472696E6B657400312C322C332C34EB
:102354002C352000352C342C332C322C31200045E4
:102364006C61707365642074696D65206973203ACB
:102374002000537472697020004566666563744E6C
:10238400756D20697320004E554C4C002C000000E4
:102394000000780BF40CFA0A130B050B560B0D0A0C
:1023A400006E616E00696E66006F7666002E000036
:00000001FF
