:100000000C945F000C9487000C9487000C9487007C
:100010000C9487000C9487000C9487000C94870044
:100020000C9487000C9487000C9487000C94870034
:100030000C9487000C9487000C9487000C94870024
:100040000C94B3030C9487000C946C060C949E06DD
:100050000C9487000C9487000C9487000C94870004
:100060000C9487000C948700000000080002010037
:100070000003040700000000000000000102040863
:100080001020408001020408102001020408102002
:10009000040404040404040402020202020203032E
:1000A0000303030300000000250028002B000000CC
:1000B0000000240027002A00F600CE06FA001124D2
:1000C0001FBECFEFD8E0DEBFCDBF13E0A0E0B1E0B0
:1000D000E8E7FDE102C005900D92A238B107D9F71B
:1000E00024E0A2E8B3E001C01D92AC36B207E1F70C
:1000F00010E0CCEBD0E004C02297FE010E94C50BBB
:10010000C83BD107C9F70E9412070C94AF0E0C949C
:10011000000040ED57E060E070E08BE893E00E9463
:10012000290120E032EC41E050E06BEC73E08BE819
:1001300093E00E943C018BE893E00E94260166E078
:1001400071E08091BC039091BD030E946D076AE04D
:1001500070E080E090E00E942C0441E060E08BE8D9
:1001600093E00E94A70126E040E052EC61E070E0DD
:100170008BEC93E00E940A0668E171E08BEC93E05F
:100180000E94850760E070E082E893E00E94C6016B
:1001900061E088E00E94B80461E088E00C94F1041A
:1001A00082E893E00E94D6019091890380918A03AE
:1001B000992349F08823A9F061E088E00E94F104C6
:1001C0006EE371E008C0882361F060E088E00E947F
:1001D000F10467E671E08BEC93E00E9485071092D2
:1001E0008A03089582E893E00C94EA0182E893E0A0
:1001F0000C94C20182E893E00C9455090F931F936D
:10020000CF93DF93EC01662359F00E94FD036983CD
:100210007A838B839C83DF91CF911F910F910895F7
:100220000E94FD0309811A812B813C81601B710BA7
:10023000820B930B623371058105910530F763E002
:1002400070E080E090E00E942C04EACF60E00C9423
:10025000FE00FC0113AA14AA15AA16AA1182128282
:1002600013821482411551056105710521F0CB01FE
:10027000BA010C942C040895FB01BA01A901DC0118
:10028000D296FC93EE93D19726E0CF010C940A0608
:100290001F93CF93DF93EC01162F61E971E089A9D9
:1002A0009AA90E946D074AE050E0612F89A99AA996
:1002B0000E94FD0768E971E089A99AA90E946D076B
:1002C00062E370E080E090E0DF91CF911F910C94A9
:1002D0002C041F93CF93DF93EC01162F8D8188237D
:1002E00089F189A99AA9DC01ED91FC910480F5813D
:1002F000E02D0995892BA9F307C02637310519F19F
:100300002835310509F41D8289A99AA9DC01ED91EE
:10031000FC910480F581E02D09951816190694F4D6
:1003200089A99AA9DC01ED91FC910680F781E02D65
:1003300009959C01332723363105F9F6612FCE014B
:100340000E94480183E6DF91CF911F9108950F939A
:100350001F93CF93DF931F92CDB7DEB78C01662337
:1003600049F081E0F801858360E0C80149830E947B
:1003700069014981F80145830F90DF91CF911F9169
:100380000F91089560EA71E00C94C309672B59F44A
:1003900061E08FE00E94B80461E08FE00E94F10408
:1003A00080E090E008958FEF9FEF0895CF93DF9363
:1003B000EC018E81882359F0BE018BEC93E00E9402
:1003C000730760EA71E0CE010E941B0A1E82DF9172
:1003D000CF910895AF92BF92DF92EF92FF920F9369
:1003E0001F93CF93DF93CDB7DEB7AE970FB6F894D8
:1003F000DEBF0FBECDBF8C0160EA71E0CE018996F1
:100400000E94C30969EE71E08BEC93E00E948507BE
:1004100081E0F8018683E12CF12CD12C8BEC93E068
:100420000E942705892B09F48AC1D11064C04AE0D3
:100430006BEC73E0CE0101960E942D09BE016F5F47
:100440007F4FCE0189960E940F0ACE0101960E942D
:100450005509CE0189960E942B0B6FE072E0CE0108
:1004600001960E94C309BE01675D7F4FCE010196D0
:100470000E94B50A6FE971E00E94C80ABC01C80178
:100480000E948B0ACE0101960E94550964E272E037
:10049000CE0189960E94E20A882341F068E272E068
:1004A000C8010E94920AE12CF12C22C06BE372E099
:1004B000CE0189960E94E20A882349F064E472E042
:1004C000C8010E94920AEE24E394F12C11C06CE55D
:1004D00072E0CE0189960E94E20A882309F49ECF39
:1004E00068E672E0C8010E94920A82E0E82EF12CD0
:1004F000DD24D39493CF60EA71E0CE0183960E940D
:10050000C30963E872E0C8010E94920AF1E0EF16A5
:10051000F10409F442C082E0E816F10409F4B7C01E
:10052000E114F10409F0FCC041E060E070E08BEC04
:1005300093E00E94A3085B014AE0CE0147960E9427
:10054000330A63EA72E0CE0101960E94C309BE013C
:10055000695E7F4FCE0101960E94B50A6FE971E096
:100560000E94C80ABC01C8010E948B0ACE010196F4
:100570000E945509CE0147960E94550961E088E026
:10058000AB2821F40E94B80460E003C00E94B804C4
:1005900061E088E00E94F104C3C04AE06BEC73E0C4
:1005A000CE0101960E942D09BE016F5F7F4FCE01E3
:1005B00083960E940F0ACE0101960E9455094FA111
:1005C00058A54F5F5F4F20E030E0BE016F5F7F4F67
:1005D000CE0183960E94010B4AE06BEC73E0CE01E2
:1005E00047960E942D09BE01695E7F4FCE0183961A
:1005F0000E940F0ACE0147960E945509CE018396AC
:100600000E948A0B7E8B6D8BBE016F5F7F4FCE0188
:100610004D960E94C30961EC72E0CE0147960E949C
:10062000C309BE01635E7F4FCE0147960E94B50AA3
:1006300062ED72E00E94C80ABC01C8010E948B0AE8
:10064000CE0147960E945509CE014D960E9455094C
:100650006D897E894AE0CE014D960E94330A65ED90
:1006600072E0CE0147960E94C309BE01635E7F4FD0
:10067000CE0147960E94B50ABC01C8010E948B0AB0
:10068000CE0147960E945509CE014D9647C041E0E4
:1006900060E070E08BEC93E00E94A30821E0F80199
:1006A00020876130710581F06230710599F0672B08
:1006B000B9F527834AE060E070E0CE0147960E94DA
:1006C000330A64EE72E011C0F80117824AE061E07B
:1006D00070E005C0F80117824AE062E070E0CE01E8
:1006E00047960E94330A64E273E0CE0101960E94AD
:1006F000C309BE01695E7F4FCE0101960E94B50A13
:100700006FE971E00E94C80ABC01C8010E948B0A0F
:10071000CE0101960E945509CE0147960E945509C7
:100720006BEC73E0CE0101960E941309CE01019695
:100730000E945509CE0183960E9455096FCECE01C5
:1007400089960E945509AE960FB6F894DEBF0FBE8B
:10075000CDBFDF91CF911F910F91FF90EF90DF9070
:10076000BF90AF9008951F920F920FB60F92112471
:100770002F933F938F939F93AF93BF938091C30326
:100780009091C403A091C503B091C6033091C203F8
:1007900023E0230F2D3720F40196A11DB11D05C0C4
:1007A00026E8230F0296A11DB11D2093C20380935A
:1007B000C3039093C403A093C503B093C603809171
:1007C000C7039091C803A091C903B091CA030196D1
:1007D000A11DB11D8093C7039093C803A093C903C3
:1007E000B093CA03BF91AF919F918F913F912F9189
:1007F0000F900FBE0F901F9018952FB7F89460912F
:10080000C3037091C4038091C5039091C6032FBFA9
:1008100008953FB7F8948091C7039091C803A091C1
:10082000C903B091CA0326B5A89B05C02F3F19F094
:100830000196A11DB11D3FBF6627782F892F9A2FE2
:10084000620F711D811D911D42E0660F771F881F89
:10085000991F4A95D1F70895CF92DF92EF92FF92B8
:10086000CF93DF936B017C010E940904EB01C1145B
:10087000D104E104F10489F00E94950B0E9409045F
:100880006C1B7D0B683E734090F381E0C81AD10861
:10089000E108F108C851DC4FEACFDF91CF91FF901A
:1008A000EF90DF90CF900895789484B5826084BDF6
:1008B00084B5816084BD85B5826085BD85B5816064
:1008C00085BDEEE6F0E0808181608083E1E8F0E0C4
:1008D0001082808182608083808181608083E0E8F3
:1008E000F0E0808181608083E1EBF0E080818460D2
:1008F0008083E0EBF0E0808181608083EAE7F0E0D4
:100900008081846080838081826080838081816037
:1009100080838081806880831092C1000895833035
:1009200081F028F4813099F08230A1F00895873069
:10093000A9F08830B9F08430D1F4809180008F7DA7
:1009400003C0809180008F7780938000089584B5E4
:100950008F7702C084B58F7D84BD08958091B000EB
:100960008F7703C08091B0008F7D8093B000089591
:10097000CF93DF9390E0FC01E458FF4F2491FC01FA
:10098000E057FF4F8491882349F190E0880F991F29
:10099000FC01E255FF4FA591B4918C559F4FFC018E
:1009A000C591D4919FB7611108C0F8948C9120959E
:1009B00082238C93888182230AC0623051F4F89498
:1009C0008C91322F309583238C938881822B88835E
:1009D00004C0F8948C91822B8C939FBFDF91CF91B0
:1009E00008950F931F93CF93DF931F92CDB7DEB778
:1009F000282F30E0F901E859FF4F8491F901E458BC
:100A0000FF4F1491F901E057FF4F04910023C9F003
:100A1000882321F069830E948F046981E02FF0E030
:100A2000EE0FFF1FEC55FF4FA591B4919FB7F894BF
:100A30008C91611103C01095812301C0812B8C938F
:100A40009FBF0F90DF91CF911F910F910895FC01EF
:100A5000818D228D90E0805C9F4F821B91098F7366
:100A600099270895FC01918D828D981731F0828D20
:100A7000E80FF11D858D90E008958FEF9FEF0895A9
:100A8000FC01918D828D981761F0828DDF01A80F96
:100A9000B11D5D968C91928D9F5F9F73928F90E0B8
:100AA00008958FEF9FEF089584EC96E0892B49F02D
:100AB00082EF90E0892B29F00E94C40681110C94EA
:100AC000F2000895FC01848DDF01A80FB11DA35A27
:100AD000BF4F2C91848D90E001968F739927848F5E
:100AE000A689B7892C93A089B1898C9180648C9355
:100AF000938D848D981306C00288F389E02D808140
:100B00008F7D80830895CF93DF93EC01888D8823B8
:100B1000C9F0EA89FB89808185FD05C0A889B9896A
:100B20008C9186FD0FC00FB607FCF5CF808185FF45
:100B3000F2CFA889B9898C9185FFEDCFCE010E94B3
:100B40006205E7CFDF91CF910895CF92DF92FF92B8
:100B50000F931F93CF93DF931F92CDB7DEB76C0136
:100B600081E0D60158968C9358975B969C915B9741
:100B70005C968C915C97981307C05096ED91FC9110
:100B80005197808185FD2EC0F601038D10E00F5F27
:100B90001F4F0F731127F02EF601848DF81211C02C
:100BA0000FB607FCF9CFD6015096ED91FC91519705
:100BB000808185FFF1CFC60169830E94620569814A
:100BC000EBCF838DE80FF11DE35AFF4F6083D60111
:100BD0005B960C935B975296ED91FC9153978081B5
:100BE00080620CC0D6015696ED91FC9157976083B8
:100BF0005096ED91FC91519780818064808381E0D3
:100C000090E00F90DF91CF911F910F91FF90DF90B7
:100C1000CF900895BF92CF92DF92EF92FF92CF9341
:100C2000DF93EC016A017B01B22EE889F98982E049
:100C30008083411581EE580761057105A1F060E0E0
:100C400079E08DE390E0A70196010E94960B215078
:100C50003109410951095695479537952795211531
:100C600080E1380798F0E889F989108260E874E833
:100C70008EE190E0A70196010E94960B2150310968
:100C8000410951095695479537952795EC85FD857E
:100C90003083EE85FF852083188EEC89FD89B08234
:100CA000EA89FB89808180618083EA89FB89808170
:100CB00088608083EA89FB89808180688083EA89F3
:100CC000FB8980818F7D8083DF91CF91FF90EF90B2
:100CD000DF90CF90BF9008951F920F920FB60F92A2
:100CE00011242F938F939F93EF93FF93E091DB0356
:100CF000F091DC038081E091E103F091E20382FD59
:100D000012C090818091E4038F5F8F732091E5037F
:100D1000821751F0E091E403F0E0E553FC4F958F2A
:100D20008093E40301C08081FF91EF919F918F91A7
:100D30002F910F900FBE0F901F9018951F920F923A
:100D40000FB60F9211242F933F934F935F936F939E
:100D50007F938F939F93AF93BF93EF93FF938BEC0E
:100D600093E00E946205FF91EF91BF91AF919F9137
:100D70008F917F916F915F914F913F912F910F9044
:100D80000FBE0F901F9018958BEC93E00E942705E3
:100D900021E0892B09F420E0822F08951092CE03E0
:100DA0001092CD0388EE93E0A0E0B0E08093CF03F3
:100DB0009093D003A093D103B093D20389E693E03C
:100DC0009093CC038093CB0385EC90E09093D80371
:100DD0008093D70384EC90E09093DA038093D90357
:100DE00080EC90E09093DC038093DB0381EC90E057
:100DF0009093DE038093DD0382EC90E09093E00318
:100E00008093DF0386EC90E09093E2038093E1030C
:100E10001092E4031092E5031092E6031092E703A8
:100E2000089508950E9454040E9411070E948900A9
:100E3000C4E5D5E00E94D0002097E1F30E9454055C
:100E4000F9CFCF92DF92EF92FF920F931F93CF9340
:100E5000DF937C016A01EB0100E010E00C151D0539
:100E600071F06991D701ED91FC910190F081E02D35
:100E7000C7010995892B19F00F5F1F4FEFCFC801EC
:100E8000DF91CF911F910F91FF90EF90DF90CF9066
:100E900008956115710581F0DB010D900020E9F7DF
:100EA000AD0141505109461B570BDC01ED91FC91FE
:100EB0000280F381E02D099480E090E00895DC0148
:100EC000ED91FC91DB0114964D915C9115976D911C
:100ED0007C910280F381E02D09940C9449076EE91E
:100EE00071E00C9449070F931F93CF93DF93EC01AC
:100EF0000E945F078C01CE010E946F07800F911F37
:100F0000DF91CF911F910F9108950F931F93CF936E
:100F1000DF93EC010E9449078C01CE010E946F070C
:100F2000800F911FDF91CF911F910F9108958F92A4
:100F30009F92AF92BF92CF92DF92EF92FF920F9368
:100F40001F93CF93DF93CDB7DEB7A1970FB6F89479
:100F5000DEBF0FBECDBF7C01C42EE52FCB01D22E4C
:100F600019A221E02D1510F02AE0D22E8E010F5D7E
:100F70001F4F8D2C912CA12CB12C6C2D7E2FA501F7
:100F800094010E94960B8C2DD29E80191124015041
:100F900011098A3014F4805D01C0895CF8018083F6
:100FA000211531054105510521F0C22EE32FCA015B
:100FB000E4CFB801C7010E944907A1960FB6F89483
:100FC000DEBF0FBECDBFDF91CF911F910F91FF907C
:100FD000EF90DF90CF90BF90AF909F908F9008954B
:100FE0002115310541F4DC01ED91FC910190F08176
:100FF000E02D642F09940C9497079A01462F50E036
:1010000060E070E00C94F0070F931F93CF93DF9391
:10101000EC010E94FD03688779878A879B87E881B6
:10102000F9810680F781E02DCE01099597FF15C063
:101030000E94FD03088519852A853B85601B710B7D
:10104000820B930B0C811D812E813F8160177107EC
:101050008207930720F38FEF9FEFDF91CF911F91CE
:101060000F9108950F931F93CF93DF93EC010E948C
:10107000FD03688779878A879B87E881F9810084E7
:10108000F185E02DCE01099597FF15C00E94FD0363
:10109000088519852A853B85601B710B820B930B94
:1010A0000C811D812E813F81601771078207930794
:1010B00020F38FEF9FEFDF91CF911F910F91089554
:1010C000FF920F931F93CF93DF93EC018B01F42ECC
:1010D000CE010E9432089C0197FD28C08D329105F7
:1010E00019F1C0970A9710F1FF2019F02E3231053F
:1010F000F9F001301105F9F00230110569F42D30D5
:10110000310551F034F4295031092230310520F0F5
:1011100012C02032310579F4E881F9810680F78127
:10112000E02DCE010995D4CF8DE203C0C90105C0E1
:101130008EE290E002C08FEF9FEFDF91CF911F9181
:101140000F91FF900895CF92DF92FF920F931F931C
:10115000CF93DF9300D000D0CDB7DEB76C01042F62
:1011600040E00E946008FC0197FD4BC020E030E0A9
:10117000A901F12C112707FD1095E017F107E9F0FF
:10118000ED32F105C1F0CF01C0970A97B0F4AAE0A3
:10119000B0E00E94B80B9B01AC01CF01AA2797FDDC
:1011A000A095BA2F280F391F4A1F5B1F2053310902
:1011B0004109510902C0FF24F394D601ED91FC913D
:1011C0000680F781E02DC60129833A834B835C8337
:1011D0000995C6010E943208FC01C09729813A8115
:1011E0004B815C810A9748F2E017F10731F2FF204A
:1011F00061F066277727CB01621B730B840B950B7D
:1012000006C060E070E0CB0102C0CA01B9010F90D6
:101210000F900F900F90DF91CF911F910F91FF9042
:10122000DF90CF9008950F931F93CF93DF93EC013E
:101230008B0160EA71E00E94C309C8010E940408A2
:1012400097FD05C0682FCE010E94A20AF6CFCE01FD
:10125000DF91CF911F910F910895EF92FF920F931D
:101260001F93CF93DF93EC018B01E42E60EA71E0D2
:101270000E94C309C8010E940408FF24E7FCF094FF
:1012800097FD0BC08E159F0541F0682FCE010E947F
:10129000A20AC8010E940408F3CFCE01DF91CF91CA
:1012A0001F910F91FF90EF900895FC018081918133
:1012B0000C94700CCF93DF93EC0188819981009797
:1012C00011F00E94700C198218821D821C821B82F0
:1012D0001A82DF91CF9108950F931F93CF93DF93DD
:1012E000EC018B016F5F7F4F888199810E94FF0C19
:1012F000009731F0998388831B830A8381E001C0C2
:1013000080E0DF91CF911F910F910895CF93DF93EC
:10131000EC0188819981892B29F08A819B8186172C
:10132000970760F4CE010E946C09882341F08C81FC
:101330009D81892B19F4E881F981108281E0DF9188
:10134000CF910895EF92FF920F931F93CF93DF9366
:10135000EC017B018A01BA010E948609811104C057
:10136000CE010E945A0907C01D830C83B7018881F2
:1013700099810E940A0ECE01DF91CF911F910F91AA
:10138000FF90EF900895FC01118210821382128267
:10139000158214826115710559F0FB01019000203E
:1013A000E9F7AF0141505109461B570B0C94A209B4
:1013B00008950F931F93CF93DF938C01EB01FC01F2
:1013C00080819181009799F0428153812C813D81E8
:1013D0004217530750F0688179810E940A0E8C8170
:1013E0009D81F8019583848313C00E94700C8881CD
:1013F0009981F801918380838A819B819383828381
:101400008C819D8195838483198218821B821A8224
:101410001D821C82DF91CF911F910F910895CF9370
:10142000DF93EC018617970711F00E94D909CE01CE
:10143000DF91CF910895CF93DF93EC016115710592
:1014400061F0FB0101900020E9F7AF014150510923
:10145000461B570B0E94A20902C00E945A09CE01E6
:10146000DF91CF9108950F931F93CF93DF93CDB763
:10147000DEB762970FB6F894DEBF0FBECDBF8C010A
:10148000CB01F8011182108213821282158214821C
:1014900050E0BE016F5F7F4F0E94200EBE016F5F64
:1014A0007F4FC8010E941B0A62960FB6F894DEBFF8
:1014B0000FBECDBFDF91CF911F910F910895EF9295
:1014C000FF920F931F93CF93DF93EC017B010C816D
:1014D0001D816115710511F480E016C0411551059B
:1014E00091F0040F151FB8010E9486098823A1F30B
:1014F000288139818C819D81B701820F931F0E94C1
:101500000A0E1D830C8381E0DF91CF911F910F9113
:10151000FF90EF900895FB014481558160817181B6
:101520000C945F0A6115710559F0FB0101900020D0
:10153000E9F7AF0141505109461B570B0C945F0A64
:1015400080E00895CF93DF9300D0CDB7DEB76983F5
:101550001A8241E050E0BE016F5F7F4F0E945F0A38
:101560000F900F90DF91CF910895CF93DF93EC010F
:10157000FB0144815581608171810E945F0A811164
:1015800003C0CE010E945A09CE01DF91CF91089588
:10159000CF93DF93EC016115710569F0FB010190B8
:1015A0000020E9F7AF0141505109461B570B0E943B
:1015B0005F0A811103C0CE010E945A09CE01DF915A
:1015C000CF910895FC0124813581232B31F421E052
:1015D00061157105A1F0FB0108C0FC0180819181BA
:1015E0006115710531F421E0FC018081882339F017
:1015F00005C00E94010E21E0892B09F020E0822F16
:1016000008950F931F93CF93DF93EB01411551057D
:10161000E9F02097D9F0FC0164817581261737071E
:10162000A0F4621B730B8A01015011096017710746
:1016300008F48B01FC0160817181620F731FA801A6
:10164000CE010E94110EC00FD11F1882DF91CF91E1
:101650001F910F910895AF92BF92CF92DF92EF92B8
:10166000FF920F931F93CF93DF937C01DC01CD900A
:10167000DC901197C114D10409F441C01496CD91A6
:10168000DC9115972097D9F156018501BFEFAB1A70
:10169000BB0AF8018081992787FD90950E94F00D83
:1016A000892B99F72197CC0DDD1D8881992787FD1E
:1016B00090950E94F00D892B91F4AE014F5F5F4F22
:1016C000401B510BD70115965C934E931497C0168F
:1016D000D10650F4B801C6010E94F80D05C0C0172C
:1016E000D10758F32197E1CFD701ED91FC911197E4
:1016F00014968D919C911597E80FF91F1082DF9138
:10170000CF911F910F91FF90EF90DF90CF90BF90FE
:10171000AF900895FC0180819181009711F00C94A5
:10172000C90D60E070E0CB0108950895A1E21A2E82
:10173000AA1BBB1BFD010DC0AA1FBB1FEE1FFF1F75
:10174000A217B307E407F50720F0A21BB30BE40BC5
:10175000F50B661F771F881F991F1A9469F760950C
:101760007095809590959B01AC01BD01CF010895C6
:101770000E94C90BA59F900DB49F900DA49F800D52
:10178000911D11240895EE0FFF1F0590F491E02D97
:101790000994A29FB001B39FC001A39F700D811D4A
:1017A0001124911DB29F700D811D1124911D08956A
:1017B000CF93DF938230910510F482E090E0E091C6
:1017C0006A04F0916B0420E030E0A0E0B0E03097D4
:1017D00039F14081518148175907B8F04817590726
:1017E00071F482819381109729F013969C938E93C4
:1017F00012972CC090936B0480936A0427C0211524
:10180000310531F04217530718F0A901DB0101C07F
:10181000EF019A01BD01DF010280F381E02DD7CFF6
:1018200021153105F9F0281B390B2430310580F4DE
:101830008A819B816115710521F0FB01938382836D
:1018400004C090936B0480936A04FE01329644C0F6
:10185000FE01E20FF31F81939193225031093983E6
:1018600028833AC02091680430916904232B41F405
:1018700020910201309103013093690420936804A0
:1018800020910001309101012115310541F42DB75E
:101890003EB74091040150910501241B350BE091A6
:1018A0006804F0916904E217F307A0F42E1B3F0BC4
:1018B0002817390778F0AC014E5F5F4F24173507C2
:1018C00048F04E0F5F1F5093690440936804819362
:1018D000919302C0E0E0F0E0CF01DF91CF91089555
:1018E000CF93DF93009709F487C0FC0132971382EE
:1018F0001282C0916A04D0916B04209781F42081F8
:101900003181280F391F80916804909169048217F2
:10191000930779F5F0936904E09368046DC0DE01E4
:1019200020E030E0AE17BF0750F412964D915C9165
:1019300013979D014115510509F1DA01F3CFB383E6
:10194000A28340815181840F951F8A179B0771F4F0
:101950008D919C911197840F951F0296918380839E
:1019600012968D919C911397938382832115310553
:1019700029F4F0936B04E0936A043EC0D9011396F6
:10198000FC93EE9312974D915D91A40FB51FEA174A
:10199000FB0779F480819181840F951F0296D9010C
:1019A00011969C938E938281938113969C938E9330
:1019B0001297E0E0F0E08A819B81009719F0FE0128
:1019C000EC01F9CFCE01029628813981820F931F55
:1019D00020916804309169042817390769F4309719
:1019E00029F410926B0410926A0402C013821282CE
:1019F000D0936904C0936804DF91CF910895A0E06B
:101A0000B0E0E5E0FDE00C947C0EEC01CB0120970A
:101A100019F40E94D80BB8C0FE01E60FF71F9E0113
:101A200022503109E217F30708F4ACC0D9010D9137
:101A30001C91119706171707B8F00530110508F427
:101A40009FC0A801445051094617570708F498C091
:101A500002501109061B170B019311936D937C9390
:101A6000CF010E94700C8CC05B01A01AB10A4E011C
:101A7000800E911EA0916A04B0916B04612C712CB0
:101A800060E070E0109709F449C0A815B905C9F5E0
:101A9000ED90FC901197670142E0C40ED11CCA146E
:101AA000DB0478F147018A189B08640142E0C40E08
:101AB000D11C1296BC9012971396AC91B5E0CB1640
:101AC000D10440F0B282A38391828082D9018D93A8
:101AD0009C9309C00E5F1F4F0E0D1F1DF90111834E
:101AE0000083EB2DFA2F6115710531F0DB011396A0
:101AF000FC93EE93129744C0F0936B04E0936A0456
:101B00003FC06D917C9111976616770608F43B01F2
:101B1000BD0112960D90BC91A02DB4CF60916804C8
:101B20007091690468157905E9F468167906D0F4AE
:101B300040910001509101014115510541F44DB70B
:101B40005EB76091040170910501461B570BE417C5
:101B5000F507C0F4F0936904E0936804F9019183F8
:101B600080830EC00E94D80B7C01009759F0A80119
:101B7000BE010E94F80DCE010E94700CC70104C086
:101B8000CE0102C080E090E0CDB7DEB7EEE00C946D
:101B9000980E1F93FC0199278827BC01E8941191A6
:101BA0001032E9F3193010F01E30C8F31B3251F037
:101BB0001D3249F4689406C00E94360E610F711DF3
:101BC000811D911D119110531A30B0F33EF4909580
:101BD0008095709561957F4F8F4F9F4F1F9108950E
:101BE000911173C0803219F089508550D0F7089553
:101BF000FB01DC0102C001900D9241505040D8F72A
:101C00000895FB01DC018D91019080190110D9F339
:101C1000990B0895FB01DC0101900D920020E1F782
:101C20000895FB01DC014150504048F001900D92B5
:101C30000020C9F701C01D9241505040E0F70895BF
:101C40004532510520F4423010F00C942B0EFB016C
:101C50001082CB010895BB274A3031F4992322F436
:101C6000BDE2909581959F4F0C944C0E592F482FB3
:101C7000372F262F660F771F881F991F660F771F34
:101C8000881F991F620F731F841F951F660F771F90
:101C9000881F991F0895BB27FB015527AA27880F86
:101CA000991FAA1FA41710F0A41B83955051B9F7D0
:101CB000A05DAA3308F0A95DA193009779F7B1114F
:101CC000B1931192CB010C94680E9927882708953F
:101CD000DC01FC01672F71917723E1F7329704C093
:101CE0007C916D9370836291AE17BF07C8F308951E
:101CF0002F923F924F925F926F927F928F929F921C
:101D0000AF92BF92CF92DF92EF92FF920F931F9309
:101D1000CF93DF93CDB7DEB7CA1BDB0B0FB6F894BA
:101D2000DEBF0FBECDBF09942A88398848885F84FA
:101D30006E847D848C849B84AA84B984C884DF806B
:101D4000EE80FD800C811B81AA81B981CE0FD11D4F
:101D50000FB6F894DEBF0FBECDBFED01089510E0C1
:101D6000CCEBD0E004C0FE010E94C50B2296CE3B16
:081D7000D107C9F7F894FFCF79
:101D780000006C048000564D4450565F317C315F42
:101D8800564D4450560D0A00436170747572696E61
:101D9800672073657269616C206F75747075742043
:101DA8006F6E2050726F5472696E6B657400546860
:101DB800652076616C7565206F6620626567696E5F
:101DC800536571206973207472756520696E206C83
:101DD8006F6F702E2E2E005468652076616C7565C5
:101DE800206F6620626567696E536571206973208C
:101DF80066616C736520696E206C6F6F702E2E2E75
:101E080000564D4450435F005F564D4450430D0A01
:101E1800004572726F723A20417474656D70742057
:101E2800746F20736574206120726561642D6F6E14
:101E38006C79207661726961626C65206F722064CA
:101E48006174612074797065206E6F742073757089
:101E5800706F727465640D0A0049206D61646520B5
:101E6800697420696E746F20525848616E646C659D
:101E78007220696E746572727570742E2E2E0054FD
:101E88006865207265616420737472696E67207773
:101E9800617320004C4544004C45442073747269BA
:101EA8006E6720666F756E64210A00555345524966
:101EB8004E464F0055534552494E464F2073747253
:101EC800696E6720666F756E64210A00494E495431
:101ED8004C45445345515300494E49544C4544538D
:101EE80045515320737472696E6720666F756E640E
:101EF800210A0049276D20696E20746865206D6588
:101F0800746820666F756E6420706F7274696F6E86
:101F1800210A005468652073746174652077696CC0
:101F28006C206265206368616E67656420746F2049
:101F38000054686520757365726E616D65206973FC
:101F480020002C2000546865206E756D6265722033
:101F58006973200054686520626567696E5365710E
:101F680073207761732073657420746F20747275A1
:101F78006520616E642074686520737461746520DF
:101F880077696C6C206265206368616E67656420A0
:101F9800746F200054686520626567696E536571C7
:101FA80073207761732073657420746F2066616C89
:101FB800736520616E64207468652073746174654C
:101FC8002077696C6C206265206368616E67656460
:101FD80020746F200000000000A505210727054098
:101FE80005320583056E616E00696E66006F766660
:021FF8000000E7
:00000001FF
