:100000000C9468000C9490000C9490000C94900058
:100010000C9490000C9490000C9490000C94900020
:100020000C9490000C9490000C9490000C94900010
:100030000C9490000C9490000C9490000C94900000
:100040000C9437100C9490000C94F0120C94221322
:100050000C9490000C9490000C9490000C949000E0
:100060000C9490000C949000F207CB07D007D507B2
:10007000DA07DF07E407E907ED07000000080002E0
:10008000010000030407000000000000000001025E
:100090000408102040800102040810200102040816
:1000A00010200404040404040404020202020202F4
:1000B00003030303030300000000250028002B00B6
:1000C00000000000240027002A002F0352135C03C5
:1000D00011241FBECFEFD8E0DEBFCDBF14E0A0E0FB
:1000E000B1E0E6EBF8E302C005900D92AA34B10747
:1000F000D9F725E0AAE4B4E001C01D92A633B20707
:10010000E1F710E0CEECD0E004C02297FE010E949F
:100110005019CA3CD107C9F70E9496130C944E1C83
:100120000C9400008F929F92AF92BF92CF92DF9279
:10013000EF92FF920F931F93CF93DF93CDB7DEB76C
:10014000C154D1090FB6F894DEBF0FBECDBF26E073
:1001500040E052EC61E070E085E994E00E948E128C
:1001600048EE53E060E070E085E994E00E949B1562
:100170006BE071E085E994E00E941014E0914E0478
:10018000F0914F04609106017091070181E0808336
:10019000618381E391E09383828384E690E0A0E031
:1001A000B0E084839583A683B78388E893E1918741
:1001B0008087128622E3238724E0248765872CE347
:1001C00031E037872687108A118A128A138A958B25
:1001D000848B168A84E6C82EC78A92E0D92ED08EE8
:1001E000618F87E491E0938F828F24EF822E992490
:1001F0009394A12CB12C848E958EA68EB78E24EF6D
:1002000031E031A320A312A213A2D4A265A342E538
:1002100051E057A346A380A691A6A2A6B3A635A7F0
:1002200024A716A617A6D0AA61AB4DE551E053ABA3
:1002300042AB84AA95AAA6AAB7AA31AF20AF12AE44
:1002400013AED4AE65AF48E651E057AF46AFAF014D
:10025000405C5F4FDA018D929D92AD92BC921397F4
:100260004C5F5F4FDA012D933C934E5F5F4FDA0195
:100270001C924F5F5F4FDA011C924F5F5F4FDA01B4
:10028000DC9211966C93119703E711E013961C937F
:100290000E93129714968D929D92AD92BC921797E1
:1002A00019963C932E9318971A961C921A971B96A0
:1002B0001C92445F5F4FDA01DC9211966C931197A8
:1002C0000EE711E013961C930E93129714968D92DD
:1002D0009D92AD92BC92179719963C932E931897C6
:1002E0001A961C921A971B961C92445F5F4FDA0174
:1002F000DC9211966C93119709E811E013961C9308
:100300000E93129714968D929D92AD92BC92179770
:1003100019963C932E9318971A961C921A971B962F
:100320001C92445F5F4FDA01DC9211966C93119737
:1003300004E911E013961C930E93129714968D9274
:100340009D92AD92BC92179719963C932E93189755
:100350001A961C921A971B961C92445F5F4FDA0103
:10036000DC9211966C9311970FE911E013961C9390
:100370000E93129714968D929D92AD92BC92179700
:1003800019963C932E9318971A961C921A971B96BF
:100390001C92445F5F4FDA01DC9211966C931197C7
:1003A0000AEA11E013961C930E93129714968D92FD
:1003B0009D92AD92BC92179719963C932E931897E5
:1003C0001A961C921A971B961C929F0120573F4F1A
:1003D00043E0D9014C9311966C93119713961C939B
:1003E0000E93129714968D929D92AD92BC92179790
:1003F00080E197E219969C938E9318971A96DC9257
:100400001A971B96CC92A0905004B0905104C090C3
:100410000801DD24C7FCD0947F0106E025E044E01C
:10042000CE0101960E949F0D81E4FE013196D50117
:1004300001900D928A95E1F7CE0101960E949A0DE6
:1004400080915004909151040E94290E0E94CF0384
:1004500080915004909151040E94290E0E94190429
:10046000609150047091510440910901CE010196B0
:100470000E94480C8DE0FE013196A4E5B4E00190A5
:100480000D928A95E1F7CE0101960E94440C80916D
:1004900052049091530490935504809354040E9405
:1004A000811070934B0460934A0460E070E085E62D
:1004B00094E00E94BA0568EE73E080E090E00E944C
:1004C000B01060E070E085E694E00E94A30560EA69
:1004D0007FE080E090E00E94B01065EB71E085E97C
:1004E00094E00E941014CF5BDF4F0FB6F894DEBF8C
:1004F0000FBECDBFDF91CF911F910F91FF90EF9075
:10050000DF90CF90BF90AF909F908F9008950E9402
:10051000811020914A0430914B04621B730B70933D
:100520004D0460934C040E94811070934B046093BF
:100530004A0490916C0480916D04992309F45EC083
:10054000882309F161E080E10E94751164ED71E09A
:1005500085E994E00E94101410926D048091840447
:1005600090918504892B29F484E594E00E94E80C9D
:100570000AC084E594E00E94940DAB01BC0184E5BF
:1005800094E00E94B00C0E948110AB01BC0184E594
:1005900094E00E94930CAC0160E070E04093610431
:1005A00050936204609363047093640484E594E060
:1005B0000E945E0C4091610450916204609163045A
:1005C000709164042AE030E085E994E00E94EA1426
:1005D0006DEF71E085E994E00E94F11384E594E009
:1005E0000E94940DAB01BC012AE030E085E994E063
:1005F0000E94EA1485E994E00C94FA13882371F1BF
:1006000060E080E10E94751167E172E085E994E0A5
:100610000E94101410926D048091840490918504BE
:10062000009719F0029741F0089584E594E00E9444
:10063000180D61E472E00EC040916E0450916F0499
:10064000662757FD6095762F84E594E00E945B0D48
:100650006CE572E085E994E00C941014089585E649
:1006600094E00E948E0584E594E00E94390C64E0D9
:1006700070E081E090E00E946E19909353048093A3
:1006800052048091090161E470E0992787FD9095FB
:100690000E946E1990935104809350048091080138
:1006A0006CE070E0992787FD90950E946E199093F9
:1006B0004F0480934E04089584E594E00E94440C16
:1006C00085E694E00C94391680910A01882349F05C
:1006D00085E994E00E94C4110196D1F710920A01B5
:1006E000089585E694E00C94E1058EBD00000DB4FC
:1006F00007FEFDCF8EB5089508950E9444058CB580
:100700008C7F8CBD8DB581608DBD8CB58F7D8CBD92
:100710008CB5837F8CBD0895CF93DF93EC0161E0AE
:100720008A810E943C1161E08B810E943C114A81C8
:1007300050E0FA01EE55FF4FE491F0E0EE0FFF1F9D
:10074000EA54FF4FA591B491BD87AC872B8130E06F
:10075000F901EE55FF4F849190E0880F991F8A545C
:100760009F4FFC01859194919F878E87FA01E257F4
:10077000FF4F44914A87F901E257FF4F24912B879D
:100780008C919A85909589238C93EE85FF85908135
:100790008B85809589238083DF91CF910895FC011B
:1007A00022812F3F11F40C947D030C948C03CF9382
:1007B000DF93EC0160E08A810E943C1160E08B8154
:1007C000DF91CF910C943C11CF93DF93EC018D819D
:1007D0009E81009711F00E94221A8A818F3F21F496
:1007E000DF91CF910C947A05CE01DF91CF910C94DB
:1007F000D703FC0199E09150D9F0A485B585828595
:100800002C9167FF03C0282B2C9303C08095822373
:100810008C93A685B7858C912385822B8C93A68596
:10082000B7852C918385809582238C93660FE3CFC7
:100830000895BF92CF92DF92EF92FF920F931F9392
:10084000CF93DF93EC01ED80FE80E114F10409F415
:1008500088C008811981BC808A818F3F09F041C01E
:1008600080E00E94750380E00E94750380E00E9492
:1008700075031EBC3FEF0DB407FEFDCF3EBDF70173
:1008800023E08C81882331F080818B9DC00111246D
:10089000892F01C080810DB407FEFDCF8EBD215090
:1008A00031962111EECF83E0E80EF11C01501109C1
:1008B00011F70DB407FEFDCF8FEF0E9475038FEF88
:1008C0000E9475038FEF0E9475038FEFDF91CF9128
:1008D0001F910F91FF90EF90DF90CF90BF900C94FD
:1008E000750374E0D72E60E0CE010E94F903DA941C
:1008F000D1F78C81882331F16FEFCE010E94F9038B
:100900006701E3E0CE0ED11CF70181917F018B9D41
:10091000C0011124692FCE010E94F903EC14FD04DB
:1009200099F70150110941F714E015C0F7016191E1
:100930007F01CE010E94F903EC14FD04B9F70150C8
:10094000110991F36FEFCE010E94F9036701F3E003
:10095000CF0ED11CEBCF6FEFCE010E94F9031150E7
:10096000D1F7DF91CF911F910F91FF90EF90DF9022
:10097000CF90BF900895FC013781208580819181BF
:10098000AC01321307C04D5F5F4F569547955695A2
:10099000479502C0440F551F480F591F60E070E093
:1009A000858196810C94D11B0F931F93CF93DF9376
:1009B000EC018B018D819E81009711F00E94221A1B
:1009C0009F818885981307C0C801039696958795DF
:1009D0009695879503C0C801880F991F800F911FB6
:1009E0000E948A199E838D83892B49F0198308837D
:1009F000CE01DF91CF911F910F910C94BB0419820E
:100A00001882DF91CF911F910F9108950F931F933B
:100A1000FC0142832383148216821582802F837007
:100A2000878310E0C8019595879595958795837084
:100A3000808734E0159507953A95E1F703700187B3
:100A4000CF011F910F910C94D404FC0180819181FE
:100A500068177907C0F4DB01AA0FBB1FA60FB71FE9
:100A6000858196818A0F9B1F5781DC01A50FB11DDF
:100A70004C934085DC01A40FB11D3C933185FC01F2
:100A8000E30FF11D20830895CF93CFB7F8948091A1
:100A90008704811127C0ECEAF0E08491E8E9F0E0F6
:100AA0009491E82FF0E0EE0FFF1FE054FF4FA59167
:100AB000B4918C91892321F461E08AE00E94751140
:100AC00061E08AE00E943C118CB580618CBD8CB5E0
:100AD00080648CBD61E08DE00E943C1161E08BE0A0
:100AE0000E943C11809187048F5F80938704CFBF61
:100AF000CF9108959FB7F89480918704882319F0C7
:100B000081508093870480918704811105C08CB542
:100B10008F7B8CBD109286049FBF0895CF93DF9387
:100B2000EC016DE374E00E94A7161E821F821886F6
:100B30001A8619862B9684E1FE0111928A95E9F7AF
:100B4000DF91CF910895CF93DF93EC01672B69F488
:100B500061E08FE00E943C1161E08FE00E9475111E
:100B600018A21F8E80E090E002C08FEF9FEFDF9110
:100B7000CF910895672B59F461E08FE00E943C11FA
:100B800060E08FE00E94751180E090E008958FEFA3
:100B90009FEF089520E030E0DC011B96FD010190FD
:100BA0000020E9F73197EA1BFB0B2E173F0738F4BB
:100BB000FC01E20FF31F13862F5F3F4FEFCF80E062
:100BC00008952F923F924F925F926F927F928F92F1
:100BD0009F92AF92BF92CF92DF92EF92FF920F93CC
:100BE0001F93CF93DF93CDB7DEB7AA970FB6F894D4
:100BF000DEBF0FBECDBF8C016DE374E0CE018396E6
:100C00000E94A716C8010E94CA056DE772E085E937
:100C100094E00E941014E12CF12CC12CD12C212C39
:100C20003324339444244394512C52E0652E712C88
:100C3000C8010B969AA789A785E994E00E94AB1199
:100C400018161906B4F4F8013682FFEFCF1ADF0A3E
:100C500063EA72E085E994E00E94F1134AE050E013
:100C6000B60185E994E00E94C51423E0C216D104C0
:100C7000E9F4CE0183960E943916AA960FB6F8942D
:100C8000DEBF0FBECDBFDF91CF911F910F91FF90BF
:100C9000EF90DF90CF90BF90AF909F908F907F901C
:100CA0006F905F904F903F902F90089521109EC0BD
:100CB0006AEC72E085E994E00E94101448EE53E07B
:100CC00060E070E085E994E00E949B15AA24AA9454
:100CD000BA2C85E994E00E94AB11892B79F08FEF53
:100CE000A81AB80A61E070E080E090E00E94B010BD
:100CF00085E994E00E94C4118A3041F569A57AA57E
:100D0000CE0183960E94FF1668EF72E085E994E0B9
:100D10000E94F113BE016D5D7F4F85E994E00E9452
:100D2000FE13CE0183960E949F1760E273E0CE010E
:100D300083960E9456178823A1F064E273E085E948
:100D400094E00E941014E12CF12C40C0F801EA0D4F
:100D5000FB1D838769A57AA585E994E00E9410149C
:100D6000B8CF66E373E0CE0183960E9456178823BE
:100D700051F06FE373E085E994E00E941014EE24D3
:100D8000E394F12C23C066E573E0CE0183960E94C4
:100D90005617882351F062E673E085E994E00E94DB
:100DA000101492E0E92EF12C11C06CE773E0CE0133
:100DB00083960E945617882361F060E873E085E906
:100DC00094E00E94101483E0E82EF12C2224239456
:100DD00033CF85E994E00E94C4110196D1F762E90E
:100DE00073E085E994E00E94101426CF6DE374E06F
:100DF000CE014D960E94A716F1E0EF16F10409F41A
:100E00004BC024F4E114F10479F1A9C082E0E816A2
:100E1000F10409F477C093E0E916F10409F09FC0EA
:100E200069EE73E085E994E00E94101441E060E00F
:100E300070E085E994E00E94A115F801728761874E
:100E40006DEF73E085E994E00E94F113F80161858C
:100E500072854AE050E085E994E00E94C514F801EB
:100E6000308670A2678E7BC041E060E070E085E96B
:100E700094E00E94A115672B31F461E081E10E94AA
:100E80003C1160E005C061E081E10E943C1161E03D
:100E900081E10E94751163C04AE065E974E0CE010A
:100EA00001960E941116BE016F5F7F4FCE014D96D5
:100EB0000E94F316CE0101960E94391649A15AA14B
:100EC0004F5F5F4F20E030E0BE016F5F7F4FCE018C
:100ED0004D960E9475174AE065E974E0CE01479689
:100EE0000E941116BE01695E7F4FCE014D960E9491
:100EF000F316CE0147960E943916CE014D960E94F8
:100F0000FE172DC06DEB73E085E994E00E9410148C
:100F100041E060E070E085E994E00E94A1154B019A
:100F20005C0166ED73E085E994E00E941014F8011D
:100F30003086F1E08F16910449F022E08216910488
:100F400051F0892861F4F801378209C0F80117824D
:100F500050A2478E04C0F801178210A2178E85E9AF
:100F600094E00E94C4110196D1F7CE014D960E94E3
:100F70003916212C61CE0F931F93AB01B901009755
:100F8000C1F1452BB1F10930110560F5F801EC5CB8
:100F9000FF4F0C944E192FEF3FEF4FEF50E025C05D
:100FA00020E030E04FEF50E020C020E03FEF40E095
:100FB00050E01BC02FEF30E040E050E016C020E0D2
:100FC0003FEF4FEF50E011C02FEF3FEF40E050E018
:100FD0000CC02FEF30E0A90108C020E035EA4FEF48
:100FE00050E003C020E030E0A9011F910F910C9464
:100FF00025051F910F9108958F929F92AF92BF92F6
:10100000CF92DF92EF92FF920F931F93CF93DF93D4
:101010006C015B014A01009789F16115710571F15D
:101020008CE0849F7001859FF00C1124E60EF71E62
:10103000F70182819381892B09F1C0E0D0E0F701AB
:10104000818190E0C817D90754F400E010E09E01B8
:10105000A401B501C6010E94BB072196F0CFC601CD
:10106000DF91CF911F910F91FF90EF90DF90CF9084
:10107000BF90AF909F908F900C941904DF91CF9107
:101080001F910F91FF90EF90DF90CF90BF90AF90A6
:101090009F908F900895CF92DF92FF920F931F93AE
:1010A000CF93DF9300D000D01F92CDB7DEB76C0195
:1010B000CE01019625E0DC011D922A95E9F79B01FE
:1010C000BC014FEF5FEFF60101900020E9F7319787
:1010D000EC19FD092E173F0718F58601020F131FA3
:1010E000D801FC90BCE2FB1204C089010F5F1F4FC6
:1010F0000CC08F01015011092017310749F4DE019E
:10110000A40FB51F1296FC928F010E947B1B0CC08E
:101110004F5F5F4FFB01F192BF012F5F3F4FD3CF76
:101120000FEF1FEF8FEF9FEF10938B0400938A0454
:1011300090938904809388040F900F900F900F90E4
:101140000F90DF91CF911F910F91FF90DF90CF9083
:1011500008956F927F928F929F92AF92BF92CF929B
:10116000DF92EF92FF920F931F93CF93DF936C0167
:101170005B014A013901009709F444C0611571050A
:1011800009F440C08CE0849FE001859FD00D1124BC
:10119000C60FD71F8A819B81892BA1F110928B04E6
:1011A00010928A04E12CF12C898190E0E816F9066E
:1011B000C4F460918A0470918B048A819B810E949F
:1011C0004B0800918804109189049701260D371D62
:1011D000A401B501C6010E94BB078FEFE81AF80A07
:1011E000E3CFC601DF91CF911F910F91FF90EF9058
:1011F000DF90CF90BF90AF909F908F907F906F9037
:101200000C941904DF91CF911F910F91FF90EF90F3
:10121000DF90CF90BF90AF909F908F907F906F9016
:1012200008952F923F924F925F926F927F928F928A
:101230009F92AF92BF92CF92DF92EF92FF920F9365
:101240001F93CF93DF9300D000D000D0CDB7DEB78F
:101250003C012B011A01F9018B8D9C8D9A838983A6
:10126000AD8DBE8DBC83AB838F8D98A19E838D8306
:1012700029A13AA16114710409F490C161157105A5
:1012800009F48CC18081918197FF45C001969183BB
:1012900080830023F9F08FEF9FEFD7018D939C930C
:1012A000D6011D921C9281E090E0D5018D939C9314
:1012B00082E090E0D4018D939C9383E090E0A9813B
:1012C000BA818D939C9384E090E0AB81BC818D9337
:1012D0009C9324C010928B0410928A048CE0829D0F
:1012E000A001839D500D1124460F571F6D817E81F3
:1012F00080E090E0DA0111960C9110E080179107E0
:101300000CF0D1C08C0101501109DB010D931D932C
:10131000BD010196EFCF002309F4C5C08CE0829D8A
:101320008001839D100D1124040D151DD801119607
:101330008C9190E0D7012D913C91281739072CF022
:1013400080819181019691838083D8011B968C9135
:1013500090E020813181821793070CF404C1F701DA
:1013600060817181CB0101969183808320E030E020
:10137000A901C3010E942505D6016D917C911197A9
:10138000CB0101968D939C9320E030E04FEF50E02D
:10139000C3010E942505F50160817181CB01019691
:1013A0009183808320E035EA4FEF50E0C3010E9433
:1013B0002505D4016D917C911197CB0101968D93F8
:1013C0009C9320E03FEF4FEF50E0C3010E942505C2
:1013D000E981FA8160817181CB01019691838083DB
:1013E00020E03FEF40E050E0C3010E942505AB81C3
:1013F000BC816D917C911197CB0101968D939C934B
:101400002FEF30E040E050E0C3010E942505F801D5
:10141000818190E0D7012D913C91119728173907D0
:1014200014F01D921C92F801818190E0D6012D915B
:101430003C9111972817390714F01D921C92F8015E
:10144000818190E0D5012D913C91119728173907A2
:1014500014F01D921C92F801818190E0D4012D912D
:101460003C9111972817390714F01D921C92F8012E
:10147000818190E0A981BA812D913C911197281723
:10148000390714F01D921C92F801818190E0AB8124
:10149000BC812D913C911197281739070CF463C03A
:1014A0001D921C9260C08CE0829D7001839DF00CA7
:1014B0001124E40CF51CD70111968C9190E0AD81BC
:1014C000BE814D915C91481759072CF08081918124
:1014D000019691838083D7011B968C9190E0408187
:1014E000518184179507D4F110928B0410928A04CD
:1014F000CD80DE80A12CB12CF701818190E0A8166F
:10150000B9068CF54601F60180819181019691839F
:101510008083D70111962C9130E08217930714F045
:101520001182108260918A0470918B04F70182818C
:1015300093810E944B08F2E0CF0ED11C00918804E9
:1015400010918904D4012D913C91A101B201C301F4
:101550000E94BB07BFEFAB1ABB0ACECFA101B201FD
:10156000C3010E94FC07C30126960FB6F894DEBFA4
:101570000FBECDBFDF91CF911F910F91FF90EF90E4
:10158000DF90CF90BF90AF909F908F907F906F90A3
:101590005F904F903F902F900C94190426960FB6B1
:1015A000F894DEBF0FBECDBFDF91CF911F910F9199
:1015B000FF90EF90DF90CF90BF90AF909F908F9073
:1015C0007F906F905F904F903F902F900895AF92D3
:1015D000BF92CF92DF92EF92FF920F931F93CF9320
:1015E000DF936C018B017A016115710539F110925D
:1015F0008B0410928A04AA24AA94BB24BA94C0E053
:10160000D0E0CE15DF05B9F060918A0470918B04AB
:10161000C8010E944B088091880490918904892B0D
:1016200041F061E274E0C6010E94D81B892B21F0D1
:101630005E012196E6CFE501CE0102C08FEF9FEF5C
:10164000DF91CF911F910F91FF90EF90DF90CF909E
:10165000BF90AF9008952F923F924F925F926F92FA
:101660007F928F929F92AF92BF92CF92DF92EF9232
:10167000FF920F931F93CF93DF9300D0CDB7DEB7C8
:101680001C013B015A8349832901F8010B8D1C8DF4
:10169000009709F4D9C06115710509F4D5C0D901C5
:1016A0008C918823A1F120E030E0C1010E94A908BB
:1016B000F20110828CE029813A81829F2001839F70
:1016C000500C1124460C571CD2011A968C9190E0B4
:1016D000F40191838083D7011D921C92F201418114
:1016E00050E06281738186E294E00E94E70AD501AE
:1016F0008D939C93F201418150E06281738181E27C
:1017000094E00E94E70AD6018D939C939DC0D4017A
:101710008D919C91892B09F480C02081D7018D91F6
:101720009C911197222309F43FC001968D939C93BD
:10173000D5018D919C91119701968D939C93D60123
:101740008D919C91119701968D939C938CE02981AA
:101750003A81829FD001839FB00D1124A60FB71F3D
:1017600011968C9190E0D5012D913C912817390765
:101770000CF44AC01082F40180819181019691831A
:101780008083D7018D919C91119701978D939C93A4
:10179000F50180819181019791838083D6018D919C
:1017A0009C91119701972EC00197D7018D939C931F
:1017B000D5018D919C91119701978D939C93D601A2
:1017C0008D919C91119701978D939C9397FF1CC0CD
:1017D00081E08083F40180819181019691838083EF
:1017E000D7018D919C91119701968D939C93F50152
:1017F00080819181019691838083D6018D919C9106
:10180000119701968D939C93F70120813181498135
:101810005A81B301C1010E94A908C1010F900F9024
:10182000DF91CF911F910F91FF90EF90DF90CF90BC
:10183000BF90AF909F908F907F906F905F904F90F0
:101840003F902F900C9419040F900F90DF91CF913F
:101850001F910F91FF90EF90DF90CF90BF90AF90CE
:101860009F908F907F906F905F904F903F902F90C0
:101870000895FC0111821082128214821382118653
:101880001286138614860895FC011482138208952B
:101890000F931F93FC01118210827483638315825E
:1018A0001682178210860FEF1FEF980101871287AB
:1018B0002387348742831F910F910895EF92FF92FF
:1018C0000F931F93CF93DF93EC010D811E812F8126
:1018D0003885040F151F261F371F0D831E832F8386
:1018E0003887E12CF12C00E010E08A81992787FDF0
:1018F00090950817190784F44D815E816F81788572
:101900008B819C818E0D9F1D0E94640E0F5F1F4F67
:1019100081E4E80EF11CE9CFDF91CF911F910F9187
:10192000FF90EF9008950F931F93FC01018512859E
:10193000238534850F3F1F4F2F4F3F4F21F44187A1
:10194000528763877487818592859A01281B390B9A
:10195000C90141875287638774871F910F9108954A
:10196000AF92BF92CF92DF92EF92FF920F931F93AD
:10197000CF93DF93EC016A017B014FEF5FEFBA0178
:1019800049875A876B877C87A12CB12C00E010E037
:101990008A81992787FD90950817190774F48B8120
:1019A0009C81B701A6018A0D9B1D0E94DB0F0F5F72
:1019B0001F4F81E4A80EB11CEBCFDF91CF911F9197
:1019C0000F91FF90EF90DF90CF90BF90AF90089570
:1019D000EF92FF920F931F93CF93DF93EC011D8241
:1019E0001E821F8218864FEF5FEFBA0149875A8720
:1019F0006B877C87E12CF12C00E010E08A8199272D
:101A000087FD90950817190764F48B819C818E0DD2
:101A10009F1D0E94D40F0F5F1F4F81E4E80EF11C41
:101A2000EDCFDF91CF911F910F91FF90EF9008952F
:101A3000CF92DF92EF92FF920F931F93CF93DF939A
:101A40008C01C0E0D0E0E12CF12CF80182819927D3
:101A500087FD9095E816F9062CF5F80183819481AD
:101A60008C0F9D1F0E9433106C01F80183819481BB
:101A70008C0F9D1F0E94290E20E030E040E050E0D6
:101A8000B6010E94FC07F801838194818C0F9D1F91
:101A90000E94290E0E94BB04FFEFEF1AFF0ACF5BE2
:101AA000DF4FD3CFDF91CF911F910F91FF90EF9038
:101AB000DF90CF900895AF92BF92CF92DF92EF92D6
:101AC000FF920F931F93CF93DF93EC016A017B0189
:101AD0004D835E836F83788749875A876B877C87BE
:101AE000A12CB12C00E010E08A81992787FD909508
:101AF0000817190774F48B819C81B701A6018A0D20
:101B00009B1D0E94DB0F0F5F1F4F81E4A80EB11CCD
:101B1000EBCFDF91CF911F910F91FF90EF90DF906E
:101B2000CF90BF90AF900895FC0165817681878149
:101B300090850895FC01118A108A0C94E4038F9219
:101B40009F92AF92BF92CF92DF92EF92FF920F934C
:101B5000CF93DF93CDB7DEB762970FB6F894DEBFB1
:101B60000FBECDBF5C014B012A8B498B0E947C03C9
:101B7000F501118A108A128A81E0838B848B158A81
:101B8000168A178A108E8FEF9FEFDC01818F928F5C
:101B9000A38FB48F158E168E178E10A292A381A3D9
:101BA00094A383A396A385A310A617A281E090E037
:101BB00092A781A782E090E094A783A783E090E0BA
:101BC00096A785A764E070E070AB67A712AA11AA78
:101BD00094AB83AB16AA15AA10AE17AA12AE11AE1B
:101BE00014AE13AE16AE15AE62E070E084E690E07F
:101BF0000E946E19F501FF969183808306E02A8981
:101C00004989B401CE0101960E94060580E1FE01DA
:101C10003196D50101900D928A95E1F7CE0101969A
:101C20000E94E403F501F18AE08AD0AEC7AA629669
:101C30000FB6F894DEBF0FBECDBFDF91CF910F91ED
:101C4000FF90EF90DF90CF90BF90AF909F908F90DC
:101C500008950895FC01158A168A178A108E4FEF91
:101C60005FEFBA01418F528F638F748F158E168E7E
:101C7000178E10A2128A81E0838B848B12AE11AE74
:101C800014AE13AE8FEF9FEF92A381A394A383A30F
:101C900096A385A310A617A281E090E092A781A742
:101CA00082E090E094A783A783E090E096A785A7C1
:101CB00084E090E090AB87A712AA11AA14AA13AAF5
:101CC00016AE15AE81E008954F925F926F927F92AB
:101CD0008F929F92AF92BF92CF92DF92EF92FF923C
:101CE0000F931F93CF93DF93EC018D8D9E8DAF8D5E
:101CF000B8A1481B590B6A0B7B0B4D8B5E8B6F8B0E
:101D0000788F85E994E00E94FA132DA93EA98FA946
:101D100098AD2817390788F08A89811134C16889FC
:101D200079899E0140E050E0CE010E94FC07CE017F
:101D30000E942A0E81E08A8B26C11A8A68887988D7
:101D40008CE0829FF001839FF00D1124E60DF71DBA
:101D50004085518560E070E08D899E89AF89B88D9E
:101D6000481759076A077B07F8F48D8D9E8DAF8D54
:101D7000B8A1840F951FA61FB71F8D8F9E8FAF8FA1
:101D8000B8A32F5F3F4F3EAB2DAB1D8A1E8A1F8A23
:101D9000188E8FEF9FEFDC01898F9A8FAB8FBC8FEE
:101DA0009AA389A381E08B8B6D897E898F89988D19
:101DB0000E949E1820E030E040E251E40E940A18A0
:101DC0000E9472189B01AC01AAE0B0E00E94541975
:101DD000098D1A8D2B8D3C8D0F3F4FEF1407240773
:101DE000340729F0601771078207930731F021E06B
:101DF0002A8B698F7A8F8B8F9C8F6D8B7E8B8F8BCD
:101E0000988F4DA85EA82CE0249D8001259D100D83
:101E10001124060D171DF801248135814681578153
:101E20000E942C19672B682B692B09F0ACC08A899A
:101E3000882309F4A8C0F8018081823009F472C0B7
:101E400098F5882309F467C0813009F09BC0DF93BF
:101E5000CF931F921F92CE018F969F938F930297DD
:101E60009F938F934E018BE2880E911C5E0199E245
:101E7000A90EB11C6E01E7E2CE0ED11C7E01F5E287
:101E8000EF0EF11C01E09E012F5D3F4FA201B30157
:101E9000CE010E9411098DB79EB708960FB6F8942F
:101EA0009EBF0FBE8DBF6EC0833009F444C0843026
:101EB00009F068C0DF93CF93FE01FF9681818F9375
:101EC00080818F93CE018F969F938F9302979F93DC
:101ED0008F934E014BE2840E911C5E0189E2A80EA5
:101EE000B11C6E0197E2C90ED11C7E01E5E2EE0E37
:101EF000F11C00E09E012F5D3F4FA201B301CE0116
:101F00000E9411098DB79EB708960FB6F8949EBF30
:101F10000FBE8DBF37C09E01A201B301CE010E944A
:101F2000FC0730C08E0120E030E0A201B301CE01F9
:101F30000E94A90827C0DF93CF931F921F921F9280
:101F40001F924E01FDE38F0E911C5E0143E3A40E30
:101F5000B11C6E0181E3C80ED11C7E0191E2E90E35
:101F6000F11C8E010C5E1F4F9E012D5E3F4FA201A2
:101F7000B301CE010E942B0B0F900F900F900F908A
:101F80000F900F901A8ADF91CF911F910F91FF90C0
:101F9000EF90DF90CF90BF90AF909F908F907F9009
:101FA0006F905F904F900895FC0116AA15AA0E94A9
:101FB0002A0E81E00895CF92DF92EF92FF920F9365
:101FC0001F93CF93DF9300D000D0CDB7DEB77C0155
:101FD00049835A836B837C830E94D40F49815A8141
:101FE0006B817C81411551056105710511F481E01A
:101FF0002DC0D7015096CD90DC905197F601A08569
:10200000B18580E090E0F701058D168D278D30A118
:102010000A0F1B1F211D311D0C9640175107620727
:102020007307A0F005A8F6A9E02D3196D701D69642
:10203000FC93EE93D597F701058F168F278F30A36A
:10204000F601E80FF91FA085B185DDCF0F900F9045
:102050000F900F90DF91CF911F910F91FF90EF9014
:10206000DF90CF900895FC018089918908951F9297
:102070000F920FB60F9211242F933F938F939F933C
:10208000AF93BF9380918D0490918E04A0918F04A3
:10209000B091900430918C0423E0230F2D3720F46D
:1020A0000196A11DB11D05C026E8230F0296A11DB2
:1020B000B11D20938C0480938D0490938E04A09383
:1020C0008F04B09390048091910490919204A09118
:1020D0009304B09194040196A11DB11D80939104C5
:1020E00090939204A0939304B0939404BF91AF9102
:1020F0009F918F913F912F910F900FBE0F901F9046
:1021000018952FB7F89460918D0470918E0480918A
:102110008F04909190042FBF08953FB7F894809159
:10212000910490919204A0919304B091940426B5E7
:10213000A89B05C02F3F19F00196A11DB11D3FBFFF
:102140006627782F892F9A2F620F711D811D911D8F
:1021500042E0660F771F881F991F4A95D1F70895AF
:10216000CF92DF92EF92FF92CF93DF936B017C01CE
:102170000E948D10EB01C114D104E104F10489F037
:102180000E9409180E948D106C1B7D0B683E7340E5
:1021900090F381E0C81AD108E108F108C851DC4F7A
:1021A000EACFDF91CF91FF90EF90DF90CF9008952D
:1021B000789484B5826084BD84B5816084BD85B522
:1021C000826085BD85B5816085BDEEE6F0E08081E9
:1021D00081608083E1E8F0E010828081826080830A
:1021E000808181608083E0E8F0E08081816080838D
:1021F000E1EBF0E0808184608083E0EBF0E08081BF
:1022000081608083EAE7F0E0808184608083808160
:102210008260808380818160808380818068808308
:102220001092C1000895833081F028F4813099F034
:102230008230A1F008958730A9F08830B9F0843059
:10224000D1F4809180008F7D03C0809180008F77D2
:1022500080938000089584B58F7702C084B58F7D08
:1022600084BD08958091B0008F7703C08091B00045
:102270008F7D8093B0000895CF93DF9390E0FC01B1
:10228000E257FF4F2491FC01EE55FF4F84918823C4
:1022900049F190E0880F991FFC01E054FF4FA59190
:1022A000B4918A549F4FFC01C591D4919FB761119D
:1022B00008C0F8948C91209582238C938881822386
:1022C0000AC0623051F4F8948C91322F30958323F8
:1022D0008C938881822B888304C0F8948C91822B04
:1022E0008C939FBFDF91CF9108950F931F93CF934E
:1022F000DF931F92CDB7DEB7282F30E0F901E65803
:10230000FF4F8491F901E257FF4F1491F901EE5507
:10231000FF4F04910023C9F0882321F069830E94B4
:1023200013116981E02FF0E0EE0FFF1FEA54FF4F19
:10233000A591B4919FB7F8948C91611103C0109549
:10234000812301C0812B8C939FBF0F90DF91CF9190
:102350001F910F910895FC01818D228D90E0805C8A
:102360009F4F821B91098F7399270895FC01918DCE
:10237000828D981731F0828DE80FF11D858D90E0E8
:1023800008958FEF9FEF0895FC01918D828D98172E
:1023900061F0828DDF01A80FB11D5D968C91928D49
:1023A0009F5F9F73928F90E008958FEF9FEF089546
:1023B00088E493E1892B49F084E693E0892B29F0A6
:1023C0000E94481381110C9464030895FC01848DCC
:1023D000DF01A80FB11DA35ABF4F2C91848D90E04F
:1023E00001968F739927848FA689B7892C93A0892A
:1023F000B1898C9180648C93938D848D981306C0E1
:102400000288F389E02D80818F7D80830895CF93AA
:10241000DF93EC01888D8823C9F0EA89FB898081EC
:1024200085FD05C0A889B9898C9186FD0FC00FB6BE
:1024300007FCF5CF808185FFF2CFA889B9898C91FF
:1024400085FFEDCFCE010E94E611E7CFDF91CF915E
:102450000895CF92DF92FF920F931F93CF93DF9354
:102460001F92CDB7DEB76C0181E0D60158968C93F0
:1024700058975B969C915B975C968C915C979813B0
:1024800007C05096ED91FC915197808185FD2EC03B
:10249000F601038D10E00F5F1F4F0F731127F02E11
:1024A000F601848DF81211C00FB607FCF9CFD601E2
:1024B0005096ED91FC915197808185FFF1CFC60137
:1024C00069830E94E6116981EBCF838DE80FF11DCE
:1024D000E35AFF4F6083D6015B960C935B9752964D
:1024E000ED91FC915397808180620CC0D601569685
:1024F000ED91FC91579760835096ED91FC91519727
:1025000080818064808381E090E00F90DF91CF91A3
:102510001F910F91FF90DF90CF900895BF92CF92BF
:10252000DF92EF92FF92CF93DF93EC016A017B0180
:10253000B22EE889F98982E08083411581EE58073F
:1025400061057105A1F060E079E08DE390E0A701FD
:1025500096010E942C1921503109410951095695C3
:10256000479537952795211580E1380798F0E88938
:10257000F989108260E874E88EE190E0A701960185
:102580000E942C192150310941095109569547954E
:1025900037952795EC85FD853083EE85FF85208373
:1025A000188EEC89FD89B082EA89FB89808180617F
:1025B0008083EA89FB89808188608083EA89FB893E
:1025C000808180688083EA89FB8980818F7D808318
:1025D000DF91CF91FF90EF90DF90CF90BF90089563
:1025E0001F920F920FB60F9211242F938F939F93E8
:1025F000EF93FF93E091A504F091A6048081E09110
:10260000AB04F091AC0482FD12C090818091AE04C5
:102610008F5F8F732091AF04821751F0E091AE0469
:10262000F0E0EB56FB4F958F8093AE0401C08081A4
:10263000FF91EF919F918F912F910F900FBE0F906F
:102640001F9018951F920F920FB60F9211242F937F
:102650003F934F935F936F937F938F939F93AF932A
:10266000BF93EF93FF9385E994E00E94E611FF91F9
:10267000EF91BF91AF919F918F917F916F915F91FA
:102680004F913F912F910F900FBE0F901F90189573
:1026900085E994E00E94AB1121E0892B09F420E048
:1026A000822F0895109298041092970488EE93E078
:1026B000A0E0B0E08093990490939A04A0939B04C7
:1026C000B0939C048FE294E09093960480939504D9
:1026D00085EC90E09093A2048093A10484EC90E0B8
:1026E0009093A4048093A30480EC90E09093A604BC
:1026F0008093A50481EC90E09093A8048093A704B4
:1027000082EC90E09093AA048093A90486EC90E078
:102710009093AC048093AB041092AE041092AF047B
:102720001092B0041092B104089508950E94D81038
:102730000E9495130E949200C8EDD1E10E94870289
:102740002097E1F30E94D811F9CFCF92DF92EF9258
:10275000FF920F931F93CF93DF937C016A01EB01EC
:1027600000E010E00C151D0571F06991D701ED91A5
:10277000FC910190F081E02DC7010995892B19F09A
:102780000F5F1F4FEFCFC801DF91CF911F910F91C6
:10279000FF90EF90DF90CF9008956115710581F063
:1027A000DB010D900020E9F7AD0141505109461BB6
:1027B000570BDC01ED91FC910280F381E02D09942F
:1027C00080E090E00895DC01ED91FC91DB0114962E
:1027D0004D915C9115976D917C910280F381E02D74
:1027E00009940C94CD13DC01ED91FC910190F081E2
:1027F000E02D09946BE374E00C94CD130F931F93B9
:10280000CF93DF93EC010E94E3138C01CE010E9471
:10281000FA13800F911FDF91CF911F910F910895AF
:102820000F931F93CF93DF93EC010E94CD138C0184
:10283000CE010E94FA13800F911FDF91CF911F915B
:102840000F9108958F929F92AF92BF92CF92DF9295
:10285000EF92FF920F931F93CF93DF93CDB7DEB725
:10286000A1970FB6F894DEBF0FBECDBF7C01C42E7A
:10287000E52FCB01D22E19A221E02D1510F02AE070
:10288000D22E8E010F5D1F4F8D2C912CA12CB12CBF
:102890006C2D7E2FA50194010E942C198C2DD29EA7
:1028A00080191124015011098A3014F4805D01C08F
:1028B000895CF8018083211531054105510521F01E
:1028C000C22EE32FCA01E4CFB801C7010E94CD1385
:1028D000A1960FB6F894DEBF0FBECDBFDF91CF91AA
:1028E0001F910F91FF90EF90DF90CF90BF90AF902E
:1028F0009F908F900895CF92DF92EF92FF920F9367
:102900001F93CF93DF93EC016A017B012115310501
:1029100079F4E881F9810190F081E02D642FDF9155
:10292000CF911F910F91FF90EF90DF90CF9009947E
:102930002A303105E9F477FF1AC06DE20E94F313E3
:102940008C0144275527BA014C195D096E097F098E
:102950002AE0CE010E942214800F911FDF91CF91B7
:102960001F910F91FF90EF90DF90CF9008952AE094
:10297000B701A601CE01DF91CF911F910F91FF907A
:10298000EF90DF90CF900C9422140F931F93CF936E
:10299000DF93EC019A01AB01662757FD6095762F16
:1029A0000E947B148C01CE010E94FA13800F911FAC
:1029B000DF91CF911F910F9108952115310541F4B9
:1029C000DC01ED91FC910190F081E02D642F0994E0
:1029D0000C9422140F931F93CF93DF93EC010E946A
:1029E000DD148C01CE010E94FA13800F911FDF913C
:1029F000CF911F910F9108950F931F93CF93DF9362
:102A0000EC010E948110688779878A879B87E8811B
:102A1000F9810680F781E02DCE01099597FF15C059
:102A20000E948110088519852A853B85601B710BE2
:102A3000820B930B0C811D812E813F8160177107E2
:102A40008207930720F38FEF9FEFDF91CF911F91C4
:102A50000F9108950F931F93CF93DF93EC010E9482
:102A60008110688779878A879B87E881F98100844C
:102A7000F185E02DCE01099597FF15C00E948110C8
:102A8000088519852A853B85601B710B820B930B8A
:102A90000C811D812E813F8160177107820793078A
:102AA00020F38FEF9FEFDF91CF911F910F9108954A
:102AB000FF920F931F93CF93DF93EC018B01F42EC2
:102AC000CE010E942A159C0197FD28C08D329105E8
:102AD00019F1C0970A9710F1FF2019F02E32310535
:102AE000F9F001301105F9F00230110569F42D30CB
:102AF000310551F034F4295031092230310520F0EC
:102B000012C02032310579F4E881F9810680F7811D
:102B1000E02DCE010995D4CF8DE203C0C90105C0D7
:102B20008EE290E002C08FEF9FEFDF91CF911F9177
:102B30000F91FF900895FC0144835583668377834A
:102B40000895CF92DF92FF920F931F93CF93DF935D
:102B500000D000D0CDB7DEB76C01042F40E00E945A
:102B60005815FC0197FD4BC020E030E0A901F12C85
:102B7000112707FD1095E017F107E9F0ED32F10597
:102B8000C1F0CF01C0970A97B0F4AAE0B0E00E946C
:102B900054199B01AC01CF01AA2797FDA095BA2F2C
:102BA000280F391F4A1F5B1F205331094109510962
:102BB00002C0FF24F394D601ED91FC910680F781C9
:102BC000E02DC60129833A834B835C830995C601B6
:102BD0000E942A15FC01C09729813A814B815C81B2
:102BE0000A9748F2E017F10731F2FF2061F06627FB
:102BF0007727CB01621B730B840B950B06C060E03B
:102C000070E0CB0102C0CA01B9010F900F900F9084
:102C10000F90DF91CF911F910F91FF90DF90CF9098
:102C20000895EF92FF920F931F93CF93DF93EC01E0
:102C30008B01E42E6DE374E00E94A716C8010E9488
:102C4000FC14FF24E7FCF09497FD0BC08E159F0544
:102C500041F0682FCE010E944317C8010E94FC1466
:102C6000F3CFCE01DF91CF911F910F91FF90EF90A5
:102C70000895FC01808191810C94221ACF93DF93F7
:102C8000EC0188819981009711F00E94221A198223
:102C900018821D821C821B821A82DF91CF910895B7
:102CA0000F931F93CF93DF93EC018B016F5F7F4FE7
:102CB000888199810E94B11A009731F099838883A5
:102CC0001B830A8381E001C080E0DF91CF911F91D7
:102CD0000F910895CF93DF93EC0188819981892B1F
:102CE00029F08A819B818617970760F4CE010E94A4
:102CF0005016882341F08C819D81892B19F4E8813D
:102D0000F981108281E0DF91CF910895EF92FF92D7
:102D10000F931F93CF93DF93EC017B018A01BA01DC
:102D20000E946A16811104C0CE010E943E1607C09F
:102D30001D830C83B701888199810E94E11BCE011C
:102D4000DF91CF911F910F91FF90EF900895FC01BB
:102D5000118210821382128215821482611571050C
:102D600059F0FB0101900020E9F7AF0141505109F2
:102D7000461B570B0C94861608950F931F93CF9301
:102D8000DF938C01EB01FC0180819181009799F028
:102D9000428153812C813D814217530750F0688155
:102DA00079810E94E11B8C819D81F8019583848348
:102DB00013C00E94221A88819981F801918380832F
:102DC0008A819B81938382838C819D819583848377
:102DD000198218821B821A821D821C82DF91CF9178
:102DE0001F910F910895CF93DF93EC0186179707FA
:102DF00011F00E94BD16CE01DF91CF910895CF93BF
:102E0000DF93EC016115710561F0FB010190002079
:102E1000E9F7AF0141505109461B570B0E94861636
:102E200002C00E943E16CE01DF91CF910895EF922D
:102E3000FF920F931F93CF93DF93EC017B010C81E3
:102E40001D816115710511F480E016C04115510511
:102E500091F0040F151FB8010E946A168823A1F390
:102E6000288139818C819D81B701820F931F0E9437
:102E7000E11B1D830C8381E0DF91CF911F910F91A6
:102E8000FF90EF900895CF93DF9300D0CDB7DEB7DA
:102E900069831A8241E050E0BE016F5F7F4F0E945C
:102EA00017170F900F90DF91CF910895FC012481A7
:102EB0003581232B31F421E061157105A1F0FB016F
:102EC00008C0FC01808191816115710531F421E018
:102ED000FC018081882339F005C00E94D81B21E0C5
:102EE000892B09F020E0822F08950F931F93CF9331
:102EF000DF93EB0141155105E9F02097D9F0FC0172
:102F00006481758126173707A0F4621B730B8A0151
:102F1000015011096017710708F48B01FC016081F1
:102F20007181620F731FA801CE010E94E81BC00FC0
:102F3000D11F1882DF91CF911F910F910895AF9209
:102F4000BF92CF92DF92EF92FF920F931F93CF9396
:102F5000DF937C01DC01CD90DC901197C114D1048A
:102F600009F441C01496CD91DC9115972097D9F1C1
:102F700056018501BFEFAB1ABB0AF8018081992782
:102F800087FD90950E94C01B892B99F72197CC0D46
:102F9000DD1D8881992787FD90950E94C01B892B94
:102FA00091F4AE014F5F5F4F401B510BD701159657
:102FB0005C934E931497C016D10650F4B801C60125
:102FC0000E94C81B05C0C017D10758F32197E1CF55
:102FD000D701ED91FC91119714968D919C911597C5
:102FE000E80FF91F1082DF91CF911F910F91FF9091
:102FF000EF90DF90CF90BF90AF900895FC0180815B
:103000009181009711F00C94991B60E070E0CB0166
:10301000089508950CD0E6C0DED040F0D5D030F051
:1030200021F45F3F19F0C7C0511110C1CAC0EBD0E5
:1030300098F39923C9F35523B1F3951B550BBB277F
:10304000AA2762177307840738F09F5F5F4F220F2C
:10305000331F441FAA1FA9F333D00E2E3AF0E0E825
:1030600030D091505040E695001CCAF729D0FE2F71
:1030700027D0660F771F881FBB1F26173707480703
:10308000AB07B0E809F0BB0B802DBF01FF279358B9
:103090005F4F2AF09E3F510568F08DC0D7C05F3F5B
:1030A000ECF3983EDCF3869577956795B795F795A1
:1030B0009F5FC9F7880F911D9695879597F9089599
:1030C000E1E0660F771F881FBB1F62177307840735
:1030D000BA0720F0621B730B840BBA0BEE1F88F744
:1030E000E095089598D088F09F5790F0B92F9927D0
:1030F000B751A0F0D1F0660F771F881F991F1AF003
:10310000BA95C9F712C0B13081F09FD0B1E00895EF
:103110009CC0672F782F8827B85F39F0B93FCCF370
:10312000869577956795B395D9F73EF490958095F8
:10313000709561957F4F8F4F9F4F0895E89409C018
:1031400097FB3EF490958095709561957F4F8F4FDA
:103150009F4F9923A9F0F92F96E9BB279395F695F0
:10316000879577956795B795F111F8CFFAF4BB0F6E
:1031700011F460FF1BC06F5F7F4F8F4F9F4F16C0D2
:10318000882311F096E911C0772321F09EE8872F5C
:10319000762F05C0662371F096E8862F70E060E018
:1031A0002AF09A95660F771F881FDAF7880F969591
:1031B000879597F9089597F99F6780E870E060E038
:1031C00008959FEF80EC089500240A9416161706C0
:1031D00018060906089500240A9412161306140608
:1031E00005060895092E0394000C11F4882352F06B
:1031F000BB0F40F4BF2B11F460FF04C06F5F7F4F23
:103200008F4F9F4F089557FD9058440F551F59F009
:103210005F3F71F04795880F97FB991F61F09F3FC3
:1032200079F087950895121613061406551FF2CFEC
:103230004695F1DF08C0161617061806991FF1CF3C
:1032400086957105610508940895E894BB27662763
:103250007727CB0197F90895A1E21A2EAA1BBB1B71
:10326000FD010DC0AA1FBB1FEE1FFF1FA217B30752
:10327000E407F50720F0A21BB30BE40BF50B661F68
:10328000771F881F991F1A9469F76095709580952C
:1032900090959B01AC01BD01CF010895EE0FFF1F7A
:1032A0000590F491E02D09940E945F19A59F900D5F
:1032B000B49F900DA49F800D911D11240895A29F8D
:1032C000B001B39FC001A39F700D811D1124911DFA
:1032D000B29F700D811D1124911D08950F931F93AE
:1032E000CF93DF93869F8001879F100D969F100DCF
:1032F0001124C8010E948A19EC01009729F0A80145
:1033000060E070E00E94D11BCE01DF91CF911F9150
:103310000F910895CF93DF938230910510F482E0EE
:1033200090E0E0913405F091350520E030E0A0E038
:10333000B0E0309739F14081518148175907B8F012
:103340004817590771F482819381109729F01396D9
:103350009C938E9312972CC09093350580933405DF
:1033600027C02115310531F04217530718F0A90184
:10337000DB0101C0EF019A01BD01DF010280F38191
:10338000E02DD7CF21153105F9F0281B390B24305A
:10339000310580F48A819B816115710521F0FB0163
:1033A0009383828304C09093350580933405FE0196
:1033B000329644C0FE01E20FF31F81939193225095
:1033C0003109398328833AC0209132053091330581
:1033D000232B41F4209102013091030130933305F6
:1033E0002093320520910001309101012115310512
:1033F00041F42DB73EB74091040150910501241BC3
:10340000350BE0913205F0913305E217F307A0F494
:103410002E1B3F0B2817390778F0AC014E5F5F4F2A
:103420002417350748F04E0F5F1F50933305409324
:1034300032058193919302C0E0E0F0E0CF01DF918B
:10344000CF910895CF93DF93009709F487C0FC01D3
:10345000329713821282C0913405D091350520979E
:1034600081F420813181280F391F8091320590919C
:1034700033058217930779F5F0933305E09332050E
:103480006DC0DE0120E030E0AE17BF0750F41296A9
:103490004D915C9113979D014115510509F1DA0198
:1034A000F3CFB383A28340815181840F951F8A1784
:1034B0009B0771F48D919C911197840F951F029633
:1034C0009183808312968D919C911397938382832D
:1034D0002115310529F4F0933505E09334053EC0FC
:1034E000D9011396FC93EE9312974D915D91A40F21
:1034F000B51FEA17FB0779F480819181840F951F2E
:103500000296D90111969C938E9382819381139692
:103510009C938E931297E0E0F0E08A819B81009764
:1035200019F0FE01EC01F9CFCE0102962881398114
:10353000820F931F209132053091330528173907E8
:1035400069F4309729F4109235051092340502C0C1
:1035500013821282D0933305C0933205DF91CF914D
:103560000895A0E0B0E0E7EBFAE10C941B1CEC013D
:10357000CB01209719F40E948A19B8C0FE01E60F0A
:10358000F71F9E0122503109E217F30708F4ACC07F
:10359000D9010D911C91119706171707B8F0053046
:1035A000110508F49FC0A801445051094617570758
:1035B00008F498C002501109061B170B01931193D0
:1035C0006D937C93CF010E94221A8CC05B01A01ADC
:1035D000B10A4E01800E911EA0913405B0913505BF
:1035E000612C712C60E070E0109709F449C0A815B7
:1035F000B905C9F5ED90FC901197670142E0C40E42
:10360000D11CCA14DB0478F147018A189B086401B5
:1036100042E0C40ED11C1296BC9012971396AC9146
:10362000B5E0CB16D10440F0B282A38391828082B0
:10363000D9018D939C9309C00E5F1F4F0E0D1F1D66
:10364000F90111830083EB2DFA2F6115710531F01B
:10365000DB011396FC93EE93129744C0F09335056B
:10366000E09334053FC06D917C9111976616770603
:1036700008F43B01BD0112960D90BC91A02DB4CF72
:10368000609132057091330568157905E9F4681683
:103690007906D0F440910001509101014115510586
:1036A00041F44DB75EB76091040170910501461B6E
:1036B000570BE417F507C0F4F0933305E093320598
:1036C000F901918380830EC00E948A197C010097C2
:1036D00059F0A801BE010E94C81BCE010E94221A07
:1036E000C70104C0CE0102C080E090E0CDB7DEB7D4
:1036F000EEE00C94371CFC0188279927E89421916F
:103700002032E9F3293010F02E30C8F32B3241F08B
:103710002D3239F4689404C00E940C1C820F911D54
:10372000219120532A30C0F31EF4909581959F4F2C
:1037300008951F93FC0199278827BC01E8941191F3
:103740001032E9F3193010F01E30C8F31B3251F07B
:103750001D3249F4689406C00E94F71B610F711D69
:10376000811D911D119110531A30B0F33EF49095C4
:103770008095709561957F4F8F4F9F4F1F91089552
:10378000911152C0803219F089508550D0F70895B8
:10379000FB01DC0102C001900D9241505040D8F76E
:1037A0000895DC0101C06D9341505040E0F7089549
:1037B000FB01DC018D91019080190110D9F3990B67
:1037C0000895FB01DC0101900D920020E1F70895BE
:1037D000FB01DC014150504048F001900D92002067
:1037E000C9F701C01D9241505040E0F70895592F8C
:1037F000482F372F262F660F771F881F991F660FB8
:10380000771F881F991F620F731F841F951F660FF4
:10381000771F881F991F08957AE0979F902D879FA3
:10382000802D910D112408959927882708952F92AE
:103830003F924F925F926F927F928F929F92AF9240
:10384000BF92CF92DF92EF92FF920F931F93CF938D
:10385000DF93CDB7DEB7CA1BDB0B0FB6F894DEBF24
:103860000FBECDBF09942A88398848885F846E844A
:103870007D848C849B84AA84B984C884DF80EE8094
:10388000FD800C811B81AA81B981CE0FD11D0FB69D
:10389000F894DEBF0FBECDBFED01089510E0CEEC71
:1038A000D0E004C0FE010E9450192296C03DD1070D
:0638B000C9F7F894FFCFF8
:1038B60000003605800005000D0101436170747536
:1038C60072696E672073657269616C206F757470BA
:1038D6007574206F6E2050726F5472696E6B6574CA
:1038E60000302C302C302C302C302000362C342C50
:1038F600302C302C332000362C342C302C322C300B
:103906002000322C312C302C302C352000302C3439
:103916002C302C342C302000332C302C302C302CF6
:10392600332000302C322C302C322C302000312C1D
:10393600302C332C302C312000332C302C312C30D1
:103946002C332000382C302C382C302C32200032EE
:103956002C302C322C302C382000302C352C342CAA
:10396600352C30200046696E697368656420776976
:1039760074682053657475702073656374696F6E1F
:103986002E2E2E005468652076616C7565206F6654
:1039960020626567696E536571206973207472755C
:1039A6006520696E206C6F6F702E2E2E0054686530
:1039B60020706572666F726D616E63652074696DE5
:1039C600652069733A20005468652076616C7565D8
:1039D600206F6620626567696E5365712069732082
:1039E60066616C736520696E206C6F6F702E2E2E6B
:1039F600004A75737420636C656172656420616C3E
:103A06006C207374726970732E2E2E004A7573744F
:103A1600207570646174656420706572666F726D7E
:103A2600616E63652074696D652E2E2E0049206DCA
:103A360061646520697420696E746F20525848610C
:103A46006E646C657220696E746572727570742E20
:103A56002E2E0053657269616C2069732061766150
:103A6600696C61626C6520616E64206C6F6F70209A
:103A7600636F756E7420697320004E6F206D6574D8
:103A8600686F6420666F756E642079657420736F45
:103A96002072656164696E6720756E74696C206E4C
:103AA6006577206C696E6500466F756E64206120CF
:103AB6006E6577206C696E65206E6F7720616E6427
:103AC600207468652076616C75652069733A2000FC
:103AD6004C4544004C454420737472696E672066F9
:103AE6006F756E64210055534552494E464F005539
:103AF600534552494E464F20737472696E6720666D
:103B06006F756E642100494E49544C4544534551E6
:103B16005300494E49544C45445345515320737400
:103B260072696E6720666F756E6421005550540089
:103B360055505420737472696E6720666F756E6493
:103B46002100456D70746965642073657269616CE6
:103B5600206275666665722E202053686F756C64E8
:103B66002065786974206E6F772E2E2E004E6F7743
:103B76002068616E646C696E6720494C4544534504
:103B860051532E2E2E004A75737420706172736520
:103B96006420696E742E2E2E004E6F772068616E3B
:103BA600646C696E67205550542E2E2E0055505465
:103BB6002075706461746520706572666F726D61E0
:103BC6006E63652074696D6520657175616C73201F
:103BD600005441494C00484541440000000000297A
:103BE60012A513AB11C411B61107120D0A006E61AE
:0A3BF6006E00696E66006F766600CF
:00000001FF
