:100000000C9468000C9490000C9490000C94900058
:100010000C9490000C9490000C9490000C94900020
:100020000C9490000C9490000C9490000C94900010
:100030000C9490000C9490000C9490000C94900000
:100040000C9451100C9490000C940A130C943C13D3
:100050000C9490000C9490000C9490000C949000E0
:100060000C9490000C949000C2079B07A007A50772
:10007000AA07AF07B407B907BD07000000080002D0
:10008000010000030407000000000000000001025E
:100090000408102040800102040810200102040816
:1000A00010200404040404040404020202020202F4
:1000B00003030303030300000000250028002B00B6
:1000C00000000000240027002A00FD026C132A0310
:1000D00011241FBECFEFD8E0DEBFCDBF14E0A0E0FB
:1000E000B1E0EAEEF8E302C005900D92AA3CB10738
:1000F000D9F725E0AAECB4E001C01D92A63BB207F7
:10010000E1F710E0CEECD0E004C02297FE010E949F
:100110006A19CA3CD107C9F70E94B0130C94681C35
:100120000C9400004F925F926F927F928F929F92F9
:10013000AF92BF92CF92DF92EF92FF920F931F93F5
:10014000CF93DF93CDB7DEB7C154D1090FB6F89482
:10015000DEBF0FBECDBF26E040E052EC61E070E0B4
:1001600085E195E00E94A8126BE071E085E195E0E1
:100170000E942A1460E070E085EE94E00E9475050C
:1001800061E080E10E94561160E080E10E948F11E1
:10019000E091CE04F091CF04B0900601A090070149
:1001A00044E04083B18281E391E09383828380E2E3
:1001B00093E0A0E0B0E084839583A683B78328E230
:1001C00033E23187208724E6922E9286938624E6B6
:1001D00030E03587248764E170E077876687808B1D
:1001E000918BA28BB38B63E0648BB58A85E691E03B
:1001F000978B868B80E991E0A0E0B0E0808F918FB3
:10020000A28FB38F00EA1FE0158F048F968E978E12
:1002100031A320A352E3C52ED12CD3A2C2A288E5DC
:1002200092E0A0E0B0E084A395A3A6A3B7A340A763
:10023000B1A689E991E093A782A778EC472E512CCB
:10024000612C712C44A655A666A677A611AB00AB0F
:1002500092AA93AA35AB24AB40E550E057AB46AB2E
:1002600040AE51AE62AE73AE64AFB5AE4DEC51E090
:1002700057AF46AF7F0140E4E40EF11C44E650E086
:1002800060E070E0D7014D935D936D937C9313977D
:100290007F01B4E4EB0EF11CD7010D931C938F0189
:1002A0000A5B1F4FD8019C920F5F1F4FD8019C9291
:1002B0000F5F1F4FD8012D933C930E5F1F4FA8E790
:1002C000EA2EF12CD801ED92FC920E5F1F4FD8015F
:1002D0004D935D936D937C931397AF01405B5F4F9C
:1002E000DA011C921196BC9211976DEB74E0139693
:1002F0007C936E93129714961D921D921D921C92E0
:10030000179768EB7BE019967C936E9318971A9673
:100310001C921A971B961C921B976FEF70E01D960C
:100320007C936E931C971F961C921E921E9750965C
:100330001D921D921D921C9253974C5E5F4F62E07E
:10034000DA016C931196BC92119761E072E01396FA
:100350007C936E93129714964D925D926D927C925F
:10036000179768E873E119967C936E9318971A961D
:100370001C921A971B961C921B971D963C932E93CA
:100380001C971F96DC92CE921E9750964D925D92CE
:100390006D927C9253978090D0049090D104C0903D
:1003A0000801DD24C7FCD0947F0106E025E044E08D
:1003B0006B2D7A2DCE0101960E94720D81E4FE0113
:1003C0003196D40101900D928A95E1F7CE01019604
:1003D0000E946D0D8091D0049091D1040E94FC0D7B
:1003E0000E949D038091D0049091D1040E94FC0D45
:1003F0000E94E7036091D0047091D10440910901FB
:10040000CE0101960E941B0C8DE0FE013196A4EDF9
:10041000B4E001900D928A95E1F7CE0101960E9419
:10042000170C8091D2049091D3049093D5048093BB
:10043000D4040E949B107093CB046093CA0460E0C4
:1004400070E085EE94E00E948C0568EE73E080E039
:1004500090E00E94CA1060E070E085EE94E00E9497
:10046000750560EA7FE080E090E00E94CA1065E3D5
:1004700072E085E195E00E942A14CF5BDF4F0FB652
:10048000F894DEBF0FBECDBFDF91CF911F910F91CA
:10049000FF90EF90DF90CF90BF90AF909F908F90A4
:1004A0007F906F905F904F9008950E949B102091D5
:1004B000CA043091CB04621B730B7093CD0460931C
:1004C000CC040E949B107093CB046093CA0490915B
:1004D000EC048091ED04992309F45EC0882309F1AE
:1004E00061E080E10E948F1164E572E085E195E0B2
:1004F0000E942A141092ED04809104059091050544
:10050000892B29F484ED94E00E94BB0C0AC084ED91
:1005100094E00E94670DAB01BC0184ED94E00E9461
:10052000830C0E949B10AB01BC0184ED94E00E94FF
:10053000660CAC0160E070E04093E1045093E2048B
:100540006093E3047093E40484ED94E00E94310C22
:100550004091E1045091E2046091E3047091E4045D
:100560002AE030E085E195E00E9404156DE772E035
:1005700085E195E00E940B1484ED94E00E94670DE4
:10058000AB01BC012AE030E085E195E00E94041552
:1005900085E195E00C941414882371F160E080E10A
:1005A0000E948F1167E972E085E195E00E942A14AC
:1005B0001092ED048091040590910505009719F0C3
:1005C000029741F0089584ED94E00E94EB0C61ECF9
:1005D00072E00EC04091EE045091EF04662757FD83
:1005E0006095762F84ED94E00E942E0D6CED72E004
:1005F00085E195E00C942A14089585EE94E00E941C
:10060000600584ED94E00E940C0C64E070E081E0F1
:1006100090E00E9488199093D3048093D204809133
:10062000090161E470E0992787FD90950E9488197F
:100630009093D1048093D0048091080164E170E02C
:10064000992787FD90950E9488199093CF048093F5
:10065000CE04089584ED94E00E94170C85EE94E09A
:100660000C94531680910A01882349F085E195E0A6
:100670000E94DE110196D1F710920A01089585EECD
:1006800094E00C94B3058EBD00000DB407FEFDCFC1
:100690008EB5089508950E9416058CB58C7F8CBD8B
:1006A0008DB581608DBD8CB58F7D8CBD8CB5837F04
:1006B0008CBD0895CF93DF93EC0161E08A810E94A5
:1006C000561161E08B810E9456114A8150E0FA0177
:1006D000EE55FF4FE491F0E0EE0FFF1FEA54FF4F9D
:1006E000A591B491BD87AC872B8130E0F901EE551F
:1006F000FF4F849190E0880F991F8A549F4FFC010F
:10070000859194919F878E87FA01E257FF4F44911C
:100710004A87F901E257FF4F24912B878C919A85E4
:10072000909589238C93EE85FF8590818B858095AC
:1007300089238083DF91CF910895FC0122812F3F8F
:1007400011F40C944B030C945A03CF93DF93EC01F8
:1007500060E08A810E94561160E08B81DF91CF9129
:100760000C945611CF93DF93EC018D819E810097FD
:1007700011F00E943C1A8A818F3F21F4DF91CF91C2
:100780000C944C05CE01DF91CF910C94A503FC0194
:1007900099E09150D9F0A485B58582852C9167FFA9
:1007A00003C0282B2C9303C0809582238C93A685AD
:1007B000B7858C912385822B8C93A685B7852C9148
:1007C0008385809582238C93660FE3CF0895BF9233
:1007D000CF92DF92EF92FF920F931F93CF93DF930D
:1007E000EC01ED80FE80E114F10409F488C0088179
:1007F0001981BC808A818F3F09F041C080E00E944E
:10080000430380E00E94430380E00E9443031EBC38
:100810003FEF0DB407FEFDCF3EBDF70123E08C8115
:10082000882331F080818B9DC0011124892F01C064
:1008300080810DB407FEFDCF8EBD21503196211170
:10084000EECF83E0E80EF11C0150110911F70DB451
:1008500007FEFDCF8FEF0E9443038FEF0E944303FB
:100860008FEF0E9443038FEFDF91CF911F910F9184
:10087000FF90EF90DF90CF90BF900C94430374E013
:10088000D72E60E0CE010E94C703DA94D1F78C81A5
:10089000882331F16FEFCE010E94C7036701E3E0C7
:1008A000CE0ED11CF70181917F018B9DC0011124D7
:1008B000692FCE010E94C703EC14FD0499F7015083
:1008C000110941F714E015C0F70161917F01CE01D4
:1008D0000E94C703EC14FD04B9F70150110991F30C
:1008E0006FEFCE010E94C7036701F3E0CF0ED11C6A
:1008F000EBCF6FEFCE010E94C7031150D1F7DF910C
:10090000CF911F910F91FF90EF90DF90CF90BF900C
:100910000895FC013781208580819181AC013213DB
:1009200007C04D5F5F4F569547955695479502C056
:10093000440F551F480F591F60E070E08581968174
:100940000C94EB1B0F931F93CF93DF93EC018B0160
:100950008D819E81009711F00E943C1A9F818885AD
:10096000981307C0C8010396969587959695879525
:1009700003C0C801880F991F800F911F0E94A419FE
:100980009E838D83892B49F019830883CE01DF91E3
:10099000CF911F910F910C94890419821882DF91D5
:1009A000CF911F910F9108950F931F93FC014283E4
:1009B0002383148216821582802F8370878310E030
:1009C000C80195958795959587958370808734E0C4
:1009D000159507953A95E1F703700187CF011F91AF
:1009E0000F910C94A204FC01808191816817790712
:1009F000C0F4DB01AA0FBB1FA60FB71F858196812C
:100A00008A0F9B1F5781DC01A50FB11D4C934085B8
:100A1000DC01A40FB11D3C933185FC01E30FF11DF6
:100A2000208308956F5FFC0164830895CF93CFB74F
:100A3000F89480910705811127C0ECEAF0E08491D9
:100A4000E8E9F0E09491E82FF0E0EE0FFF1FE054AA
:100A5000FF4FA591B4918C91892321F461E08AE044
:100A60000E948F1161E08AE00E9456118CB580616E
:100A70008CBD8CB580648CBD61E08DE00E94561108
:100A800061E08BE00E945611809107058F5F809393
:100A90000705CFBFCF9108959FB7F89480910705C0
:100AA000882319F0815080930705809107058111F3
:100AB00005C08CB58F7B8CBD109206059FBF089535
:100AC000CF93DF93EC016DEB74E00E94C1161E82A0
:100AD0001F8218861A8619862B9684E1FE011192D0
:100AE0008A95E9F7DF91CF910895CF93DF93EC01D9
:100AF000672B69F461E08FE00E94561161E08FE09E
:100B00000E948F1118A21F8E80E090E002C08FEF2C
:100B10009FEFDF91CF910895672B59F461E08FE04B
:100B20000E94561160E08FE00E948F1180E090E0FB
:100B300008958FEF9FEF089520E030E0DC011B96D1
:100B4000FD0101900020E9F73197EA1BFB0B2E17FE
:100B50003F0738F4FC01E20FF31F13862F5F3F4F6E
:100B6000EFCF80E008952F923F924F925F926F9265
:100B70007F928F929F92AF92BF92CF92DF92EF922D
:100B8000FF920F931F93CF93DF93CDB7DEB7AA9752
:100B90000FB6F894DEBF0FBECDBF8C016DEB74E0D5
:100BA000CE0183960E94C116C8010E949C056DEF7C
:100BB00072E085E195E00E942A14E12CF12CC12C11
:100BC000D12C212C3324339444244394512C52E0CF
:100BD000652E712CC8010B969AA789A785E195E02F
:100BE0000E94C51118161906B4F4F8013682FFEFF9
:100BF000CF1ADF0A63E273E085E195E00E940B14EF
:100C00004AE050E0B60185E195E00E94DF1423E060
:100C1000C216D104E9F4CE0183960E945316AA9617
:100C20000FB6F894DEBF0FBECDBFDF91CF911F91FD
:100C30000F91FF90EF90DF90CF90BF90AF909F907B
:100C40008F907F906F905F904F903F902F9008957E
:100C500021109EC06AE473E085E195E00E942A14A9
:100C600048EE53E060E070E085E195E00E94B51544
:100C7000AA24AA94BA2C85E195E00E94C511892B7B
:100C800079F08FEFA81AB80A61E070E080E090E098
:100C90000E94CA1085E195E00E94DE118A3041F57C
:100CA00069A57AA5CE0183960E94191768E773E0BB
:100CB00085E195E00E940B14BE016D5D7F4F85E1DB
:100CC00095E00E941814CE0183960E94B91760EA3D
:100CD00073E0CE0183960E9470178823A1F064EA26
:100CE00073E085E195E00E942A14E12CF12C40C0CC
:100CF000F801EA0DFB1D838769A57AA585E195E0DA
:100D00000E942A14B8CF66EB73E0CE0183960E944E
:100D10007017882351F06FEB73E085E195E00E9436
:100D20002A14EE24E394F12C23C066ED73E0CE0187
:100D300083960E947017882351F062EE73E085E17C
:100D400095E00E942A1492E0E92EF12C11C06CEF7C
:100D500073E0CE0183960E947017882361F060E0F3
:100D600074E085E195E00E942A1483E0E82EF12CDE
:100D70002224239433CF85E195E00E94DE11019671
:100D8000D1F762E174E085E195E00E942A1426CF54
:100D90006DEB74E0CE014D960E94C116F1E0EF16A6
:100DA000F10409F44BC024F4E114F10479F1A9C071
:100DB00082E0E816F10409F477C093E0E916F10443
:100DC00009F09FC069E674E085E195E00E942A146D
:100DD00041E060E070E085E195E00E94BB15F8011C
:100DE000728761876DE774E085E195E00E940B14DE
:100DF000F801618572854AE050E085E195E00E9446
:100E0000DF14F801308670A2678E7BC041E060E09D
:100E100070E085E195E00E94BB15672B31F461E03D
:100E200081E10E94561160E005C061E081E10E940D
:100E3000561161E081E10E948F1163C04AE065E1D3
:100E400075E0CE0101960E942B16BE016F5F7F4FA9
:100E5000CE014D960E940D17CE0101960E945316A9
:100E600049A15AA14F5F5F4F20E030E0BE016F5FA4
:100E70007F4FCE014D960E948F174AE065E175E0E5
:100E8000CE0147960E942B16BE01695E7F4FCE01B0
:100E90004D960E940D17CE0147960E945316CE0123
:100EA0004D960E9418182DC06DE374E085E195E021
:100EB0000E942A1441E060E070E085E195E00E9424
:100EC000BB154B015C0166E574E085E195E00E948D
:100ED0002A14F8013086F1E08F16910449F022E0DF
:100EE0008216910451F0892861F4F801378209C013
:100EF000F801178250A2478E04C0F801178210A291
:100F0000178E85E195E00E94DE110196D1F7CE01A2
:100F10004D960E945316212C61CEFB01BA01009719
:100F2000B1F1EF2BA1F12930310560F5F901EC5C4D
:100F3000FF4F0C9468192FEF3FEF4FEF50E025C0A3
:100F400020E030E04FEF50E020C020E03FEF40E0F5
:100F500050E01BC02FEF30E040E050E016C020E032
:100F60003FEF4FEF50E011C02FEF3FEF40E050E078
:100F70000CC02FEF30E0A90108C020E035EA4FEFA8
:100F800050E003C020E030E0A9010C94F304089580
:100F9000CF92DF92EF92FF920F931F93CF93DF9345
:100FA0007C016B01009761F16115710549F184E1E4
:100FB000849F8001859F100D1124060F171FF801D3
:100FC00082819381892BE1F0C0E0D0E0F80181813A
:100FD00090E0C817D9074CF420E030E0AE01B6012C
:100FE000C7010E948D072196F1CFC701DF91CF91F4
:100FF0001F910F91FF90EF90DF90CF900C94E7033B
:10100000DF91CF911F910F91FF90EF90DF90CF90E4
:101010000895FB0164E1649F9001659F300D1124E8
:10102000E20FF31F4685578541155105C9F0248508
:101030003585240F351F2F3F310531F02CF02FEF70
:1010400030E03587248707C037FD03C03587248704
:1010500007C01586148651954195510957874687D3
:1010600064850C941205CF92DF92FF920F931F9329
:10107000CF93DF9300D000D01F92CDB7DEB76C01C5
:10108000CE01019625E0DC011D922A95E9F79B012E
:10109000BC014FEF5FEFF60101900020E9F73197B7
:1010A000EC19FD092E173F0718F58601020F131FD3
:1010B000D801FC90BCE2FB1204C089010F5F1F4FF6
:1010C0000CC08F01015011092017310749F4DE01CE
:1010D000A40FB51F1296FC928F010E94951B0CC0A5
:1010E0004F5F5F4FFB01F192BF012F5F3F4FD3CFA7
:1010F0000FEF1FEF8FEF9FEF10930B0500930A0583
:1011000090930905809308050F900F900F900F9012
:101110000F90DF91CF911F910F91FF90DF90CF90B3
:101120000895AF92BF92CF92DF92EF92FF920F930A
:101130001F93CF93DF937C016B0159010097E9F175
:1011400061157105D1F184E1849FE001859FD00D87
:101150001124C60FD71F8A819B81892B71F11092B0
:101160000B0510920A0500E010E0898190E0081755
:101170001907B4F460910A0570910B058A819B816F
:101180000E9433082091080530910905A8014A0DF5
:101190005B1DB601C7010E948D070F5F1F4FE5CF92
:1011A000C701DF91CF911F910F91FF90EF90DF90DA
:1011B000CF90BF90AF900C94E703DF91CF911F9138
:1011C0000F91FF90EF90DF90CF90BF90AF90089578
:1011D0002F923F924F925F926F927F928F929F9247
:1011E000AF92BF92CF92DF92EF92FF920F931F9335
:1011F000CF93DF9300D000D000D0CDB7DEB73C0155
:101200002B01F9012B8C3C8C8D8D9E8D9A838983CB
:10121000AF8DB8A1BE83AD8389A19AA19C838B8336
:101220006114710409F48DC16115710509F489C156
:101230008081918197FF44C0019691838083002330
:10124000F1F08FEF9FEFD7018D939C93D6011D9204
:101250001C9281E090E0D5018D939C9382E090E018
:10126000D4018D939C9383E090E0D1018D939C9366
:1012700084E090E0A981BA818D939C9324C0109260
:101280000B0510920A0584E1849F9001859F300D23
:101290001124260F371F6D817E8180E090E0D901F7
:1012A00011960C9110E0801791070CF0CFC08C01C3
:1012B00001501109DB010D931D93BD010196EFCF84
:1012C000002309F4C3C084E1849F8001859F100D31
:1012D0001124040D151DD80111968C9190E0D701B1
:1012E0002D913C91281739072CF08081918101962E
:1012F00091838083D8011B968C9190E0208131816D
:10130000821793070CF402C1F70160817181CB0150
:1013100001969183808320E030E0A901C3010E94FF
:10132000F304D6016D917C911197CB0101968D93B9
:101330009C9320E030E04FEF50E0C3010E94F304A3
:10134000F50160817181CB0101969183808320E05A
:1013500035EA4FEF50E0C3010E94F304D4016D91D0
:101360007C911197CB0101968D939C9320E03FEFE8
:101370004FEF50E0C3010E94F304F10160817181DD
:10138000CB0101969183808320E03FEF40E050E065
:10139000C3010E94F304A981BA816D917C911197D8
:1013A000CB0101968D939C932FEF30E040E050E00D
:1013B000C3010E94F304F801818190E0D7012D91CF
:1013C0003C9111972817390714F01D921C92F801CF
:1013D000818190E0D6012D913C9111972817390712
:1013E00014F01D921C92F801818190E0D5012D919D
:1013F0003C9111972817390714F01D921C92F8019F
:10140000818190E0D4012D913C91119728173907E3
:1014100014F01D921C92F801818190E0D1012D9170
:101420003C9111972817390714F01D921C92F8016E
:10143000818190E0A981BA812D913C911197281763
:1014400039070CF463C01D921C9260C084E1849F34
:101450008001859F100D1124040D151DD8011196D2
:101460008C9190E0AD81BE812D913C912817390778
:101470002CF080819181019691838083D8011B9605
:101480008C9190E02081318182179307CCF11092EA
:101490000B0510920A05ED80FE80C12CD12CF801BD
:1014A000818190E0C816D9068CF55701F70180813B
:1014B0009181019691838083D80111962C9130E01F
:1014C0008217930714F01182108260910A057091BF
:1014D0000B05F801828193810E943308F2E0EF0E40
:1014E000F11C2091080530910905D5014D915C91C1
:1014F000B201C3010E948D07BFEFCB1ADB0ACFCF29
:101500002B813C81B201C3010E94C807C30126960A
:101510000FB6F894DEBF0FBECDBFDF91CF911F9104
:101520000F91FF90EF90DF90CF90BF90AF909F9082
:101530008F907F906F905F904F903F902F900C9482
:10154000E70326960FB6F894DEBF0FBECDBFDF913E
:10155000CF911F910F91FF90EF90DF90CF90BF90B0
:10156000AF909F908F907F906F905F904F903F9043
:101570002F900895AF92BF92CF92DF92EF92FF9299
:101580000F931F93CF93DF936C018B017A01611549
:10159000710539F110920B0510920A05AA24AA943C
:1015A000BB24BA94C0E0D0E0CE15DF05B9F060915D
:1015B0000A0570910B05C8010E9433088091080547
:1015C00090910905892B41F061EA74E0C6010E94FF
:1015D000F21B892B21F05E012196E6CFE501CE01B9
:1015E00002C08FEF9FEFDF91CF911F910F91FF907E
:1015F000EF90DF90CF90BF90AF9008952F923F92E1
:101600004F925F926F927F928F929F92AF92BF9212
:10161000CF92DF92EF92FF920F931F93CF93DF93BE
:1016200000D0CDB7DEB71C013B015A8349832901A5
:10163000F8010B8D1C8D009709F4D9C06115710557
:1016400009F4D5C0D9018C918823A1F120E030E0C4
:10165000C1010E949108F201108284E129813A813E
:10166000829F2001839F500C1124460C571CD201ED
:101670001A968C9190E0F40191838083D7011D929A
:101680001C92F201418150E06281738186EA94E00C
:101690000E94BA0AD5018D939C93F201418150E0DA
:1016A0006281738181EA94E00E94BA0AD6018D9327
:1016B0009C939DC0D4018D919C91892B09F480C08D
:1016C0002081D7018D919C911197222309F43FC06D
:1016D00001968D939C93D5018D919C9111970196C4
:1016E0008D939C93D6018D919C91119701968D932A
:1016F0009C9384E129813A81829FD001839FB00D20
:101700001124A60FB71F11968C9190E0D5012D9151
:101710003C91281739070CF44AC01082F4018081EB
:101720009181019691838083D7018D919C9111972E
:1017300001978D939C93F50180819181019791830D
:101740008083D6018D919C91119701972EC00197AE
:10175000D7018D939C93D5018D919C911197019701
:101760008D939C93D6018D919C91119701978D93A8
:101770009C9397FF1CC081E08083F401808191815C
:10178000019691838083D7018D919C911197019649
:101790008D939C93F5018081918101969183808343
:1017A000D6018D919C91119701968D939C93F70191
:1017B0002081318149815A81B301C1010E94910880
:1017C000C1010F900F90DF91CF911F910F91FF906A
:1017D000EF90DF90CF90BF90AF909F908F907F90D1
:1017E0006F905F904F903F902F900C94E7030F9075
:1017F0000F90DF91CF911F910F91FF90EF90DF90AD
:10180000CF90BF90AF909F908F907F906F905F90A0
:101810004F903F902F900895FC0111821082128208
:101820001482138211861286138614860895FC0191
:101830001482138208950F931F93FC01118210826A
:101840007483638315821682178210860FEF1FEF51
:101850009801018712872387348742831F910F9154
:101860000895EF92FF920F931F93CF93DF93EC01B4
:101870000D811E812F813885040F151F261F371FEC
:101880000D831E832F833887E12CF12C00E010E0BC
:101890008A81992787FD90950817190784F44D814F
:1018A0005E816F8178858B819C818E0D9F1D0E944A
:1018B000370E0F5F1F4F81E4E80EF11CE9CFDF9177
:1018C000CF911F910F91FF90EF9008950F931F9369
:1018D000FC0101851285238534850F3F1F4F2F4F53
:1018E0003F4F21F4418752876387748781859285B2
:1018F0009A01281B390BC901418752876387748776
:101900001F910F910895AF92BF92CF92DF92EF9205
:10191000FF920F931F93CF93DF93EC016A017B013A
:101920004FEF5FEFBA0149875A876B877C87A12CFD
:10193000B12C00E010E08A81992787FD9095081767
:10194000190774F48B819C81B701A6018A0D9B1D38
:101950000E94F50F0F5F1F4F81E4A80EB11CEBCF63
:10196000DF91CF911F910F91FF90EF90DF90CF907B
:10197000BF90AF900895EF92FF920F931F93CF9374
:10198000DF93EC011D821E821F8218864FEF5FEFEE
:10199000BA0149875A876B877C87E12CF12C00E0DC
:1019A00010E08A81992787FD90950817190764F43C
:1019B0008B819C818E0D9F1D0E94EE0F0F5F1F4F2C
:1019C00081E4E80EF11CEDCFDF91CF911F910F91D3
:1019D000FF90EF900895CF92DF92EF92FF920F93D6
:1019E0001F93CF93DF938C01C0E0D0E0E12CF12C6A
:1019F000F8018281992787FD9095E816F9062CF564
:101A0000F801838194818C0F9D1F0E944D106C0101
:101A1000F801838194818C0F9D1F0E94FC0D20E0B2
:101A200030E040E050E0B6010E94C807F801838131
:101A300094818C0F9D1F0E94FC0D0E948904FFEF72
:101A4000EF1AFF0ACF5BDF4FD3CFDF91CF911F910A
:101A50000F91FF90EF90DF90CF900895AF92BF92DB
:101A6000CF92DF92EF92FF920F931F93CF93DF936A
:101A7000EC016A017B014D835E836F837887498720
:101A80005A876B877C87A12CB12C00E010E08A81FB
:101A9000992787FD90950817190774F48B819C810D
:101AA000B701A6018A0D9B1D0E94F50F0F5F1F4F06
:101AB00081E4A80EB11CEBCFDF91CF911F910F9164
:101AC000FF90EF90DF90CF90BF90AF900895FC0112
:101AD00065817681878190850895FC01118A108A3D
:101AE0000C94B2038F929F92AF92BF92CF92DF92EB
:101AF000EF92FF920F93CF93DF93CDB7DEB762974C
:101B00000FB6F894DEBF0FBECDBF5C014B012A8B30
:101B1000498B0E944A03F501118A108A128A81E0DA
:101B2000838B848B158A168A178A108E8FEF9FEF0E
:101B3000DC01818F928FA38FB48F158E168E178E36
:101B400010A292A381A394A383A396A385A310A616
:101B500017A281E090E092A781A782E090E094A78D
:101B600083A783E090E096A785A764E070E070AB60
:101B700067A712AA11AA94AB83AB16AA15AA10AE36
:101B800017AA12AE11AE14AE13AE16AE15AE62E0C9
:101B900070E084E690E00E948819F501FF96918339
:101BA000808306E02A894989B401CE0101960E940A
:101BB000D40480E1FE013196D50101900D928A9501
:101BC000E1F7CE0101960E94B203F501F18AE08AA5
:101BD000D0AEC7AA62960FB6F894DEBF0FBECDBFD7
:101BE000DF91CF910F91FF90EF90DF90CF90BF905A
:101BF000AF909F908F9008950895FC01158A168AE2
:101C0000178A108E4FEF5FEFBA01418F528F638FAB
:101C1000748F158E168E178E10A2128A81E0838B18
:101C2000848B12AE11AE14AE13AE8FEF9FEF92A362
:101C300081A394A383A396A385A310A617A281E0F2
:101C400090E092A781A782E090E094A783A783E029
:101C500090E096A785A784E090E090AB87A712AAB2
:101C600011AA14AA13AA16AE15AE81E008954F92D8
:101C70005F926F927F928F929F92AF92BF92CF921C
:101C8000DF92EF92FF920F931F93CF93DF93EC01BC
:101C90008D8D9E8DAF8DB8A1481B590B6A0B7B0BA8
:101CA0004D8B5E8B6F8B788F85E195E00E941414CD
:101CB0004DA95EA9EFA9F8AD4E175F0788F08A8994
:101CC00081117BC1688979899E0140E050E0CE0195
:101CD0000E94C807CE010E94FD0D81E08A8B6DC174
:101CE0001A8A6889798984E1849FD001859FB00D23
:101CF0001124A60FB71F18960D911C91199720E07B
:101D000030E08D899E89AF89B88D081719072A0799
:101D10003B0738F58D8D9E8DAF8DB8A1800F911F3B
:101D2000A21FB31F8D8F9E8FAF8FB8A34F5F5F4FE2
:101D30005EAB4DAB1D8A1E8A1F8A188E8FEF9FEFF8
:101D4000DC01898F9A8FAB8FBC8F4E175F0718F419
:101D5000CE010E9409088FEF9FEF9AA389A381E02B
:101D60008B8B6D897E898F89988D0E94B81820E0B1
:101D700030E040E251E40E9424180E948C189B013C
:101D8000AC01AAE0B0E00E946E196B017C01898D64
:101D90009A8DAB8DBC8D8F3F2FEF9207A207B207B4
:101DA00099F481E08A8BC98EDA8EEB8EFC8E4DA978
:101DB0005EA98FA998AD4817590788F46889798971
:101DC000CE010E9409080BC0C816D906EA06FB0618
:101DD00031F081E08A8BC98EDA8EEB8EFC8ECD8A53
:101DE000DE8AEF8AF88E088919896DA87EA884E1B9
:101DF000869DF001879DF00D1124E00FF11F86856F
:101E00009785892BA1F02089318942895389C7019F
:101E1000B6010E944619672B682B692B41F48A8909
:101E2000882329F0A301B801CE010E94090868881F
:101E300079884DA85EA884E1849D8001859D100D60
:101E40001124060D171DF801248135814681578123
:101E5000C701B6010E944619672B682B692B09F050
:101E6000ACC08A89882309F4A8C0F8018081823037
:101E700009F472C098F5882309F467C0813009F02D
:101E80009BC0DF93CF931F921F92CE018F969F939B
:101E90008F9302979F938F934E018BE2880E911C34
:101EA0005E0199E2A90EB11C6E01E7E2CE0ED11CD3
:101EB0007E01F5E2EF0EF11C01E09E012F5D3F4F28
:101EC000A201B301CE010E94E8088DB79EB7089623
:101ED0000FB6F8949EBF0FBE8DBF6EC0833009F45D
:101EE00044C0843009F068C0DF93CF93FE01FF96B1
:101EF00081818F9380818F93CE018F969F938F9353
:101F000002979F938F934E012BE2820E911C5E01EC
:101F100089E2A80EB11C6E0197E2C90ED11C7E01A8
:101F2000E5E2EE0EF11C00E09E012F5D3F4FA201A5
:101F3000B301CE010E94E8088DB79EB708960FB690
:101F4000F8949EBF0FBE8DBF37C09E01A201B301A2
:101F5000CE010E94C80730C08E0120E030E0A2010F
:101F6000B301CE010E94910827C0DF93CF931F9247
:101F70001F921F921F924E01FDE38F0E911C5E0176
:101F800023E3A20EB11C6E0181E3C80ED11C7E01B9
:101F900091E2E90EF11C8E010C5E1F4F9E012D5E39
:101FA0003F4FA201B301CE010E94FE0A0F900F9095
:101FB0000F900F900F900F901A8ADF91CF911F9181
:101FC0000F91FF90EF90DF90CF90BF90AF909F90D8
:101FD0008F907F906F905F904F900895FC0116AAAC
:101FE00015AA0E94FD0D81E00895CF92DF92EF9235
:101FF000FF920F931F93CF93DF9300D000D0CDB704
:10200000DEB77C0149835A836B837C830E94EE0F89
:1020100049815A816B817C814115510561057105AA
:1020200011F481E02DC0D7015096CD90DC905197EE
:10203000F601A085B18580E090E0F701058D168D51
:10204000278D30A10A0F1B1F211D311D44964017FB
:10205000510762077307A0F005A8F6A9E02D319695
:10206000D701D696FC93EE93D597F701058F168F7F
:10207000278F30A3F601E80FF91FA085B185DDCFCA
:102080000F900F900F900F90DF91CF911F910F91B4
:10209000FF90EF90DF90CF900895FC0180899189A7
:1020A00008951F920F920FB60F9211242F933F9312
:1020B0008F939F93AF93BF9380910D0590910E05E1
:1020C000A0910F05B091100530910C0523E0230F6E
:1020D0002D3720F40196A11DB11D05C026E8230F60
:1020E0000296A11DB11D20930C0580930D059093C0
:1020F0000E05A0930F05B0931005809111059091E6
:102100001205A0911305B09114050196A11DB11DF2
:102110008093110590931205A0931305B0931405B5
:10212000BF91AF919F918F913F912F910F900FBED3
:102130000F901F9018952FB7F89460910D0570912E
:102140000E0580910F05909110052FBF08953FB7A0
:10215000F8948091110590911205A0911305B0910A
:10216000140526B5A89B05C02F3F19F00196A11DA7
:10217000B11D3FBF6627782F892F9A2F620F711DDF
:10218000811D911D42E0660F771F881F991F4A9598
:10219000D1F70895CF92DF92EF92FF92CF93DF9322
:1021A0006B017C010E94A710EB01C114D104E10472
:1021B000F10489F00E9423180E94A7106C1B7D0B6C
:1021C000683E734090F381E0C81AD108E108F10835
:1021D000C851DC4FEACFDF91CF91FF90EF90DF90B5
:1021E000CF900895789484B5826084BD84B5816071
:1021F00084BD85B5826085BD85B5816085BDEEE60F
:10220000F0E0808181608083E1E8F0E010828081ED
:1022100082608083808181608083E0E8F0E080815B
:1022200081608083E1EBF0E0808184608083E0EB7B
:10223000F0E0808181608083EAE7F0E08081846063
:1022400080838081826080838081816080838081BF
:10225000806880831092C1000895833081F028F453
:10226000813099F08230A1F008958730A9F088304C
:10227000B9F08430D1F4809180008F7D03C08091CB
:1022800080008F7780938000089584B58F7702C097
:1022900084B58F7D84BD08958091B0008F7703C091
:1022A0008091B0008F7D8093B0000895CF93DF932D
:1022B00090E0FC01E257FF4F2491FC01EE55FF4FE7
:1022C0008491882349F190E0880F991FFC01E05424
:1022D000FF4FA591B4918A549F4FFC01C591D491B1
:1022E0009FB7611108C0F8948C91209582238C933C
:1022F000888182230AC0623051F4F8948C91322F85
:10230000309583238C938881822B888304C0F89432
:102310008C91822B8C939FBFDF91CF9108950F9367
:102320001F93CF93DF931F92CDB7DEB7282F30E0F6
:10233000F901E658FF4F8491F901E257FF4F1491DC
:10234000F901EE55FF4F04910023C9F0882321F0D5
:1023500069830E942D116981E02FF0E0EE0FFF1FCD
:10236000EA54FF4FA591B4919FB7F8948C916111F5
:1023700003C01095812301C0812B8C939FBF0F90C8
:10238000DF91CF911F910F910895FC01818D228DD6
:1023900090E0805C9F4F821B91098F73992708956D
:1023A000FC01918D828D981731F0828DE80FF11D1F
:1023B000858D90E008958FEF9FEF0895FC01918D3A
:1023C000828D981761F0828DDF01A80FB11D5D9697
:1023D0008C91928D9F5F9F73928F90E008958FEF05
:1023E0009FEF089582E693E1892B49F082E393E021
:1023F000892B29F00E94621381110C9432030895F5
:10240000FC01848DDF01A80FB11DA35ABF4F2C9191
:10241000848D90E001968F739927848FA689B78960
:102420002C93A089B1898C9180648C93938D848D39
:10243000981306C00288F389E02D80818F7D808308
:102440000895CF93DF93EC01888D8823C9F0EA8942
:10245000FB89808185FD05C0A889B9898C9186FD9D
:102460000FC00FB607FCF5CF808185FFF2CFA8899A
:10247000B9898C9185FFEDCFCE010E940012E7CF84
:10248000DF91CF910895CF92DF92FF920F931F9328
:10249000CF93DF931F92CDB7DEB76C0181E0D601F9
:1024A00058968C9358975B969C915B975C968C9111
:1024B0005C97981307C05096ED91FC9151978081DD
:1024C00085FD2EC0F601038D10E00F5F1F4F0F73C7
:1024D0001127F02EF601848DF81211C00FB607FCFB
:1024E000F9CFD6015096ED91FC915197808185FFEF
:1024F000F1CFC60169830E9400126981EBCF838D01
:10250000E80FF11DE35AFF4F6083D6015B960C93F1
:102510005B975296ED91FC915397808180620CC03D
:10252000D6015696ED91FC91579760835096ED91A8
:10253000FC91519780818064808381E090E00F90CE
:10254000DF91CF911F910F91FF90DF90CF90089571
:10255000BF92CF92DF92EF92FF92CF93DF93EC0185
:102560006A017B01B22EE889F98982E080834115F6
:1025700081EE580761057105A1F060E079E08DE317
:1025800090E0A70196010E944619215031094109A6
:1025900051095695479537952795211580E13807BC
:1025A00098F0E889F989108260E874E88EE190E09B
:1025B000A70196010E94461921503109410951098C
:1025C0005695479537952795EC85FD853083EE85A3
:1025D000FF852083188EEC89FD89B082EA89FB890A
:1025E000808180618083EA89FB8980818860808323
:1025F000EA89FB89808180688083EA89FB89808100
:102600008F7D8083DF91CF91FF90EF90DF90CF900F
:10261000BF9008951F920F920FB60F9211242F931F
:102620008F939F93EF93FF93E0912505F0912605FB
:102630008081E0912B05F0912C0582FD12C09081E4
:1026400080912E058F5F8F7320912F05821751F097
:10265000E0912E05F0E0EB5EFA4F958F80932E050A
:1026600001C08081FF91EF919F918F912F910F90E9
:102670000FBE0F901F9018951F920F920FB60F92DA
:1026800011242F933F934F935F936F937F938F9377
:102690009F93AF93BF93EF93FF9385E195E00E94E3
:1026A0000012FF91EF91BF91AF919F918F917F9118
:1026B0006F915F914F913F912F910F900FBE0F90AF
:1026C0001F90189585E195E00E94C51121E0892BA6
:1026D00009F420E0822F0895109218051092170532
:1026E00088EE93E0A0E0B0E08093190590931A057E
:1026F000A0931B05B0931C058FEA94E090931605F8
:102700008093150585EC90E0909322058093210538
:1027100084EC90E0909324058093230580EC90E076
:10272000909326058093250581EC90E090932805F1
:102730008093270582EC90E090932A0580932905E9
:1027400086EC90E090932C0580932B0510922E053B
:1027500010922F05109230051092310508950895BA
:102760000E94F2100E94AF130E949200C2EFD1E1CA
:102770000E9455022097E1F30E94F211F9CFCF9207
:10278000DF92EF92FF920F931F93CF93DF937C0121
:102790006A01EB0100E010E00C151D0571F0699174
:1027A000D701ED91FC910190F081E02DC7010995D1
:1027B000892B19F00F5F1F4FEFCFC801DF91CF9129
:1027C0001F910F91FF90EF90DF90CF9008956115CA
:1027D000710581F0DB010D900020E9F7AD0141505A
:1027E0005109461B570BDC01ED91FC910280F381EE
:1027F000E02D099480E090E00895DC01ED91FC91DA
:10280000DB0114964D915C9115976D917C9102803E
:10281000F381E02D09940C94E713DC01ED91FC9118
:102820000190F081E02D09946BEB74E00C94E713B8
:102830000F931F93CF93DF93EC010E94FD138C0144
:10284000CE010E941414800F911FDF91CF911F9130
:102850000F9108950F931F93CF93DF93EC010E9484
:10286000E7138C01CE010E941414800F911FDF9199
:10287000CF911F910F9108958F929F92AF92BF9227
:10288000CF92DF92EF92FF920F931F93CF93DF933C
:10289000CDB7DEB7A1970FB6F894DEBF0FBECDBFA0
:1028A0007C01C42EE52FCB01D22E19A221E02D15DB
:1028B00010F02AE0D22E8E010F5D1F4F8D2C912C2F
:1028C000A12CB12C6C2D7E2FA50194010E944619DC
:1028D0008C2DD29E80191124015011098A3014F4D4
:1028E000805D01C0895CF8018083211531054105B7
:1028F000510521F0C22EE32FCA01E4CFB801C70170
:102900000E94E713A1960FB6F894DEBF0FBECDBFAD
:10291000DF91CF911F910F91FF90EF90DF90CF90BB
:10292000BF90AF909F908F900895CF92DF92EF92DB
:10293000FF920F931F93CF93DF93EC016A017B010A
:102940002115310579F4E881F9810190F081E02DBC
:10295000642FDF91CF911F910F91FF90EF90DF9047
:10296000CF9009942A303105E9F477FF1AC06DE25F
:102970000E940D148C0144275527BA014C195D099A
:102980006E097F092AE0CE010E943C14800F911F3E
:10299000DF91CF911F910F91FF90EF90DF90CF903B
:1029A00008952AE0B701A601CE01DF91CF911F91D2
:1029B0000F91FF90EF90DF90CF900C943C140F9309
:1029C0001F93CF93DF93EC019A01AB01662757FD6C
:1029D0006095762F0E9495148C01CE010E941414EC
:1029E000800F911FDF91CF911F910F9108952115B5
:1029F000310541F4DC01ED91FC910190F081E02D75
:102A0000642F09940C943C140F931F93CF93DF937E
:102A1000EC010E94F7148C01CE010E941414800F67
:102A2000911FDF91CF911F910F9108950F931F93E5
:102A3000CF93DF93EC010E949B10688779878A8788
:102A40009B87E881F9810680F781E02DCE01099509
:102A500097FF15C00E949B10088519852A853B8524
:102A6000601B710B820B930B0C811D812E813F81AA
:102A7000601771078207930720F38FEF9FEFDF91B5
:102A8000CF911F910F9108950F931F93CF93DF93D1
:102A9000EC010E949B10688779878A879B87E88171
:102AA000F9810084F185E02DCE01099597FF15C0CD
:102AB0000E949B10088519852A853B85601B710B38
:102AC000820B930B0C811D812E813F816017710752
:102AD0008207930720F38FEF9FEFDF91CF911F9134
:102AE0000F910895FF920F931F93CF93DF93EC0103
:102AF0008B01F42ECE010E9444159C0197FD28C045
:102B00008D32910519F1C0970A9710F1FF2019F045
:102B10002E323105F9F001301105F9F002301105BE
:102B200069F42D30310551F034F429503109223047
:102B3000310520F012C02032310579F4E881F981A5
:102B40000680F781E02DCE010995D4CF8DE203C038
:102B5000C90105C08EE290E002C08FEF9FEFDF91C8
:102B6000CF911F910F91FF900895FC0144835583ED
:102B7000668377830895CF92DF92FF920F931F931E
:102B8000CF93DF9300D000D0CDB7DEB76C01042F18
:102B900040E00E947215FC0197FD4BC020E030E040
:102BA000A901F12C112707FD1095E017F107E9F0B5
:102BB000ED32F105C1F0CF01C0970A97B0F4AAE059
:102BC000B0E00E946E199B01AC01CF01AA2797FDCE
:102BD000A095BA2F280F391F4A1F5B1F20533109B8
:102BE0004109510902C0FF24F394D601ED91FC91F3
:102BF0000680F781E02DC60129833A834B835C83ED
:102C00000995C6010E944415FC01C09729813A81AB
:102C10004B815C810A9748F2E017F10731F2FF20FF
:102C200061F066277727CB01621B730B840B950B32
:102C300006C060E070E0CB0102C0CA01B9010F908C
:102C40000F900F900F90DF91CF911F910F91FF90F8
:102C5000DF90CF900895EF92FF920F931F93CF9341
:102C6000DF93EC018B01E42E6DEB74E00E94C11642
:102C7000C8010E941615FF24E7FCF09497FD0BC0D5
:102C80008E159F0541F0682FCE010E945D17C80187
:102C90000E941615F3CFCE01DF91CF911F910F91B6
:102CA000FF90EF900895FC01808191810C943C1A73
:102CB000CF93DF93EC0188819981009711F00E94F6
:102CC0003C1A198218821D821C821B821A82DF9193
:102CD000CF9108950F931F93CF93DF93EC018B0156
:102CE0006F5F7F4F888199810E94CB1A009731F0E6
:102CF000998388831B830A8381E001C080E0DF9190
:102D0000CF911F910F910895CF93DF93EC018881AC
:102D10009981892B29F08A819B818617970760F416
:102D2000CE010E946A16882341F08C819D81892BF7
:102D300019F4E881F981108281E0DF91CF91089543
:102D4000EF92FF920F931F93CF93DF93EC017B01E0
:102D50008A01BA010E948416811104C0CE010E942A
:102D6000581607C01D830C83B701888199810E9482
:102D7000FB1BCE01DF91CF911F910F91FF90EF9040
:102D80000895FC011182108213821282158214822E
:102D90006115710559F0FB0101900020E9F7AF01C1
:102DA00041505109461B570B0C94A01608950F93E0
:102DB0001F93CF93DF938C01EB01FC018081918104
:102DC000009799F0428153812C813D81421753072E
:102DD00050F0688179810E94FB1B8C819D81F801F4
:102DE0009583848313C00E943C1A88819981F801DD
:102DF000918380838A819B81938382838C819D814F
:102E000095838483198218821B821A821D821C82F8
:102E1000DF91CF911F910F910895CF93DF93EC0134
:102E20008617970711F00E94D716CE01DF91CF9138
:102E30000895CF93DF93EC016115710561F0FB01FB
:102E400001900020E9F7AF0141505109461B570B93
:102E50000E94A01602C00E945816CE01DF91CF91A9
:102E60000895EF92FF920F931F93CF93DF93EC019E
:102E70007B010C811D816115710511F480E016C084
:102E80004115510591F0040F151FB8010E948416D9
:102E90008823A1F3288139818C819D81B701820F1C
:102EA000931F0E94FB1B1D830C8381E0DF91CF9158
:102EB0001F910F91FF90EF900895CF93DF9300D073
:102EC000CDB7DEB769831A8241E050E0BE016F5F83
:102ED0007F4F0E9431170F900F90DF91CF9108958F
:102EE000FC0124813581232B31F421E0611571052A
:102EF000A1F0FB0108C0FC01808191816115710581
:102F000031F421E0FC018081882339F005C00E9462
:102F1000F21B21E0892B09F020E0822F08950F9306
:102F20001F93CF93DF93EB0141155105E9F02097F3
:102F3000D9F0FC016481758126173707A0F4621B64
:102F4000730B8A01015011096017710708F48B0196
:102F5000FC0160817181620F731FA801CE010E9484
:102F6000021CC00FD11F1882DF91CF911F910F91CA
:102F70000895AF92BF92CF92DF92EF92FF920F939C
:102F80001F93CF93DF937C01DC01CD90DC901197F0
:102F9000C114D10409F441C01496CD91DC91159768
:102FA0002097D9F156018501BFEFAB1ABB0AF80192
:102FB0008081992787FD90950E94DA1B892B99F7CC
:102FC0002197CC0DDD1D8881992787FD90950E9462
:102FD000DA1B892B91F4AE014F5F5F4F401B510B01
:102FE000D70115965C934E931497C016D10650F4F2
:102FF000B801C6010E94E21B05C0C017D10758F3F3
:103000002197E1CFD701ED91FC91119714968D9105
:103010009C911597E80FF91F1082DF91CF911F91B6
:103020000F91FF90EF90DF90CF90BF90AF900895F9
:10303000FC0180819181009711F00C94B31B60E03A
:1030400070E0CB01089508950CD0E6C0DED040F0CA
:10305000D5D030F021F45F3F19F0C7C0511110C135
:10306000CAC0EBD098F39923C9F35523B1F3951B4C
:10307000550BBB27AA2762177307840738F09F5F99
:103080005F4F220F331F441FAA1FA9F333D00E2E08
:103090003AF0E0E830D091505040E695001CCAF775
:1030A00029D0FE2F27D0660F771F881FBB1F26173A
:1030B00037074807AB07B0E809F0BB0B802DBF010D
:1030C000FF2793585F4F2AF09E3F510568F08DC04F
:1030D000D7C05F3FECF3983EDCF386957795679514
:1030E000B795F7959F5FC9F7880F911D96958795BE
:1030F00097F90895E1E0660F771F881FBB1F6217DD
:1031000073078407BA0720F0621B730B840BBA0B9A
:10311000EE1F88F7E095089598D088F09F5790F0BB
:10312000B92F9927B751A0F0D1F0660F771F881FEC
:10313000991F1AF0BA95C9F712C0B13081F09FD02B
:10314000B1E008959CC0672F782F8827B85F39F0C9
:10315000B93FCCF3869577956795B395D9F73EF44B
:1031600090958095709561957F4F8F4F9F4F0895F3
:10317000E89409C097FB3EF4909580957095619511
:103180007F4F8F4F9F4F9923A9F0F92F96E9BB27C7
:103190009395F695879577956795B795F111F8CF43
:1031A000FAF4BB0F11F460FF1BC06F5F7F4F8F4FAE
:1031B0009F4F16C0882311F096E911C0772321F0A4
:1031C0009EE8872F762F05C0662371F096E8862F3C
:1031D00070E060E02AF09A95660F771F881FDAF793
:1031E000880F9695879597F9089597F99F6780E8D6
:1031F00070E060E008959FEF80EC089500240A9449
:103200001616170618060906089500240A941216C1
:103210001306140605060895092E0394000C11F4F4
:10322000882352F0BB0F40F4BF2B11F460FF04C0A1
:103230006F5F7F4F8F4F9F4F089557FD9058440FFA
:10324000551F59F05F3F71F04795880F97FB991F05
:1032500061F09F3F79F087950895121613061406C2
:10326000551FF2CF4695F1DF08C01616170618064F
:10327000991FF1CF86957105610508940895E8942A
:10328000BB2766277727CB0197F90895A1E21A2E6D
:10329000AA1BBB1BFD010DC0AA1FBB1FEE1FFF1FFA
:1032A000A217B307E407F50720F0A21BB30BE40B4A
:1032B000F50B661F771F881F991F1A9469F7609591
:1032C0007095809590959B01AC01BD01CF0108954B
:1032D000EE0FFF1F0590F491E02D09940E947919DB
:1032E000A59F900DB49F900DA49F800D911D11245A
:1032F0000895A29FB001B39FC001A39F700D811DCF
:103300001124911DB29F700D811D1124911D0895EE
:103310000F931F93CF93DF93869F8001879F100D9C
:10332000969F100D1124C8010E94A419EC0100976A
:1033300029F0A80160E070E00E94EB1BCE01DF9154
:10334000CF911F910F910895CF93DF938230910514
:1033500010F482E090E0E091B405F091B50520E032
:1033600030E0A0E0B0E0309739F14081518148175A
:103370005907B8F04817590771F482819381109763
:1033800029F013969C938E9312972CC09093B505B9
:103390008093B40527C02115310531F0421753073A
:1033A00018F0A901DB0101C0EF019A01BD01DF01A5
:1033B0000280F381E02DD7CF21153105F9F0281BCC
:1033C000390B2430310580F48A819B8161157105A8
:1033D00021F0FB019383828304C09093B505809311
:1033E000B405FE01329644C0FE01E20FF31F819343
:1033F000919322503109398328833AC02091B20534
:103400003091B305232B41F4209102013091030147
:103410003093B3052093B205209100013091010152
:103420002115310541F42DB73EB74091040150916B
:103430000501241B350BE091B205F091B305E217AD
:10344000F307A0F42E1B3F0B2817390778F0AC01C7
:103450004E5F5F4F2417350748F04E0F5F1F5093A4
:10346000B3054093B2058193919302C0E0E0F0E090
:10347000CF01DF91CF910895CF93DF93009709F4A7
:1034800087C0FC01329713821282C091B405D0919B
:10349000B505209781F420813181280F391F809153
:1034A000B2059091B3058217930779F5F093B305B0
:1034B000E093B2056DC0DE0120E030E0AE17BF073B
:1034C00050F412964D915C9113979D014115510551
:1034D00009F1DA01F3CFB383A28340815181840FD4
:1034E000951F8A179B0771F48D919C911197840FFA
:1034F000951F02969183808312968D919C911397CC
:10350000938382832115310529F4F093B505E09367
:10351000B4053EC0D9011396FC93EE9312974D91DA
:103520005D91A40FB51FEA17FB0779F480819181A3
:10353000840F951F0296D90111969C938E938281D8
:10354000938113969C938E931297E0E0F0E08A812A
:103550009B81009719F0FE01EC01F9CFCE01029694
:1035600028813981820F931F2091B2053091B305D4
:103570002817390769F4309729F41092B50510928D
:10358000B40502C013821282D093B305C093B20572
:10359000DF91CF910895A0E0B0E0E1EDFAE10C9465
:1035A000351CEC01CB01209719F40E94A419B8C076
:1035B000FE01E60FF71F9E0122503109E217F307C3
:1035C00008F4ACC0D9010D911C911197061717078B
:1035D000B8F00530110508F49FC0A8014450510906
:1035E0004617570708F498C002501109061B170B1D
:1035F000019311936D937C93CF010E943C1A8CC070
:103600005B01A01AB10A4E01800E911EA091B40573
:10361000B091B505612C712C60E070E0109709F451
:1036200049C0A815B905C9F5ED90FC90119767013F
:1036300042E0C40ED11CCA14DB0478F147018A1899
:103640009B08640142E0C40ED11C1296BC901297F4
:103650001396AC91B5E0CB16D10440F0B282A383AF
:1036600091828082D9018D939C9309C00E5F1F4F78
:103670000E0D1F1DF90111830083EB2DFA2F61152B
:10368000710531F0DB011396FC93EE93129744C061
:10369000F093B505E093B4053FC06D917C9111970F
:1036A0006616770608F43B01BD0112960D90BC9199
:1036B000A02DB4CF6091B2057091B305681579055E
:1036C000E9F468167906D0F44091000150910101A7
:1036D0004115510541F44DB75EB7609104017091F9
:1036E0000501461B570BE417F507C0F4F093B3052B
:1036F000E093B205F901918380830EC00E94A41962
:103700007C01009759F0A801BE010E94E21BCE0186
:103710000E943C1AC70104C0CE0102C080E090E0C4
:10372000CDB7DEB7EEE00C94511CFC018827992739
:10373000E89421912032E9F3293010F02E30C8F3BB
:103740002B3241F02D3239F4689404C00E94261CBB
:10375000820F911D219120532A30C0F31EF49095C1
:1037600081959F4F08951F93FC0199278827BC01DD
:10377000E89411911032E9F3193010F01E30C8F3BB
:103780001B3251F01D3249F4689406C00E94111C8E
:10379000610F711D811D911D119110531A30B0F3ED
:1037A0003EF490958095709561957F4F8F4F9F4F18
:1037B0001F910895911152C0803219F0895085509F
:1037C000D0F70895FB01DC0102C001900D92415039
:1037D0005040D8F70895DC0101C06D93415050402E
:1037E000E0F70895FB01DC018D9101908019011033
:1037F000D9F3990B0895FB01DC0101900D92002093
:10380000E1F70895FB01DC014150504048F0019080
:103810000D920020C9F701C01D9241505040E0F7C1
:103820000895592F482F372F262F660F771F881F8F
:10383000991F660F771F881F991F620F731F841FC0
:10384000951F660F771F881F991F08957AE0979F2D
:10385000902D879F802D910D1124089599278827F9
:1038600008952F923F924F925F926F927F928F9224
:103870009F92AF92BF92CF92DF92EF92FF920F93FF
:103880001F93CF93DF93CDB7DEB7CA1BDB0B0FB609
:10389000F894DEBF0FBECDBF09942A8839884888C6
:1038A0005F846E847D848C849B84AA84B984C8845C
:1038B000DF80EE80FD800C811B81AA81B981CE0F53
:1038C000D11D0FB6F894DEBF0FBECDBFED01089538
:1038D00010E0CEECD0E004C0FE010E946A192296EE
:0A38E000C03DD107C9F7F894FFCFEF
:1038EA000000B60580001A00060101436170747574
:1038FA0072696E672073657269616C206F75747086
:10390A007574206F6E2050726F5472696E6B657495
:10391A0000342C302C342C302C342C302C342C30D9
:10392A002C342C302C342C302C342C302C342C309D
:10393A002C342C302C342C302C342C302C342C308D
:10394A002C342C3000342C302C342C302C302C30AD
:10395A002C302C302C302C302C342C302C342C3075
:10396A002C302C302C302C302C302C302C342C3069
:10397A002C342C302C302C3000342C302C342C3479
:10398A002C302C342C302C342C302C342C342C303D
:10399A002C342C342C302C342C302C342C302C3429
:1039AA002C302C342C302C342C302C3400342C3148
:1039BA002C342C302C302C302C302C302C302C3019
:1039CA002C342C312C342C302C302C302C302C3004
:1039DA002C302C302C342C312C342C302C302C30F4
:1039EA0000312C312C312C312C312C312C312C3111
:1039FA002C312C312C312C312C312C312C312C31D5
:103A0A002C312C312C312C312C312C312C312C31C4
:103A1A002C312C310046696E6973686564207769B8
:103A2A0074682053657475702073656374696F6E6A
:103A3A002E2E2E005468652076616C7565206F669F
:103A4A0020626567696E53657120697320747275A7
:103A5A006520696E206C6F6F702E2E2E005468657B
:103A6A0020706572666F726D616E63652074696D30
:103A7A00652069733A20005468652076616C756523
:103A8A00206F6620626567696E53657120697320CD
:103A9A0066616C736520696E206C6F6F702E2E2EB6
:103AAA00004A75737420636C656172656420616C89
:103ABA006C207374726970732E2E2E004A7573749B
:103ACA00207570646174656420706572666F726DCA
:103ADA00616E63652074696D652E2E2E0049206D16
:103AEA0061646520697420696E746F205258486158
:103AFA006E646C657220696E746572727570742E6C
:103B0A002E2E0053657269616C206973206176619B
:103B1A00696C61626C6520616E64206C6F6F7020E5
:103B2A00636F756E7420697320004E6F206D657423
:103B3A00686F6420666F756E642079657420736F90
:103B4A002072656164696E6720756E74696C206E97
:103B5A006577206C696E6500466F756E642061201A
:103B6A006E6577206C696E65206E6F7720616E6472
:103B7A00207468652076616C75652069733A200047
:103B8A004C4544004C454420737472696E67206644
:103B9A006F756E64210055534552494E464F005584
:103BAA00534552494E464F20737472696E672066B8
:103BBA006F756E642100494E49544C454453455132
:103BCA005300494E49544C4544534551532073744C
:103BDA0072696E6720666F756E64210055505400D5
:103BEA0055505420737472696E6720666F756E64DF
:103BFA002100456D70746965642073657269616C32
:103C0A00206275666665722E202053686F756C6433
:103C1A002065786974206E6F772E2E2E004E6F778E
:103C2A002068616E646C696E6720494C454453454F
:103C3A0051532E2E2E004A7573742070617273656B
:103C4A006420696E742E2E2E004E6F772068616E86
:103C5A00646C696E67205550542E2E2E00555054B0
:103C6A002075706461746520706572666F726D612B
:103C7A006E63652074696D6520657175616C73206A
:103C8A00005441494C0048454144000000000043AB
:103C9A0012BF13C511DE11D01121120D0A006E6177
:0A3CAA006E00696E66006F7666001A
:00000001FF
