:100000000C9468000C9490000C9490000C94900058
:100010000C9490000C9490000C9490000C94900020
:100020000C9490000C9490000C9490000C94900010
:100030000C9490000C9490000C9490000C94900000
:100040000C94D20E0C9490000C948B110C94BD1156
:100050000C9490000C9490000C9490000C949000E0
:100060000C9490000C949000E606BF06C406C906E6
:10007000CE06D306D806DD06E10600000008000221
:10008000010000030407000000000000000001025E
:100090000408102040800102040810200102040816
:1000A00010200404040404040404020202020202F4
:1000B00003030303030300000000250028002B00B6
:1000C00000000000240027002A00BC02ED11F90204
:1000D00011241FBECFEFD8E0DEBFCDBF13E0A0E0FC
:1000E000B1E0E8EAF5E302C005900D92A236B1074F
:1000F000D9F724E0A2E6B3E001C01D92AA33B2070B
:10010000E1F710E0CEECD0E004C02297FE010E949F
:10011000C917CA3CD107C9F70E9431120C94C71AFB
:100120000C9400004F925F926F927F928F929F92F9
:10013000AF92BF92CF92DF92EF92FF920F931F93F5
:10014000CF93DF93CDB7DEB7C154D1090FB6F89482
:10015000DEBF0FBECDBF26E040E052EC61E070E0B4
:1001600089E993E00E94291148EE53E060E070E0D5
:1001700089E993E00E942C146DE071E089E993E035
:100180000E948B1260E070E08FE793E00E942705E9
:1001900061E080E10E94D70F60E080E10E941010D2
:1001A000E0916803F0916903609108017091090181
:1001B00021E02083618383E391E09383828388EC51
:1001C000882E912CA12CB12C84829582A682B78294
:1001D00088E59BE191878087228792E0592E53869C
:1001E00014E0148765878EE391E097878687808A7D
:1001F000918AA28AB38A88EF9AE2958B848B168AB9
:100200008CE2878B508E618F89E491E0938F828F8F
:1002100080EA9FE0A0E0B0E0848F958FA68FB78F33
:1002200091A380A312A213A223E0422E44A265A3AD
:1002300024E531E037A326A380A691A6A2A6B3A603
:1002400095A784A716A757A660906A0370906B03C2
:10025000C0900B01DD24C7FCD0947F0106E026E0AE
:1002600048E0CE0101960E943E0C81E4FE013196E9
:10027000D30101900D928A95E1F7CE0101960E947B
:10028000390C80916A0390916B030E94C80C0E9404
:100290005B0380916A0390916B030E94C80C0E94DB
:1002A000A503E0916603F0916703609106017091E8
:1002B0000701508261838FE591E09383828388E810
:1002C00093E1A0E0B0E084839583A683B783918710
:1002D000808712861386148765872AE631E0378780
:1002E0002687808A918AA28AB38A958B848B168A04
:1002F00084E1878B408E618F85E791E0938F828FB9
:10030000848E958EA68EB78E80E49FE191A380A304
:1003100088E082A383A3A0906A03B0906B03C0908F
:100320000A01DD24C7FCD0947F0125E044E0CE0122
:1003300001960E943E0CD501AF5BBF4F81E4FE01E8
:10034000319601900D928A95E1F7CE0101960E94B7
:10035000390C80916A0390916B038F5B9F4F0E94D1
:10036000C80C0E945B0380916A0390916B038F5BC2
:100370009F4F0E94C80C0E94A50360916A03709170
:100380006B0340910C01CE0101960E943C0B8DE065
:10039000FE013196AEE6B3E001900D928A95E1F749
:1003A000CE0101960E94380B80916C0390916D03F1
:1003B00090936F0380936E030E941C0F70936303EE
:1003C0006093620360E070E08FE793E00E943E0577
:1003D00068EE73E080E090E00E944B0F60E070E018
:1003E0008FE793E00E94270560EA7FE080E090E0DD
:1003F0000E944B0F60E871E089E993E00E948B1244
:10040000CF5BDF4F0FB6F894DEBF0FBECDBFDF91DD
:10041000CF911F910F91FF90EF90DF90CF90BF9001
:10042000AF909F908F907F906F905F904F900895C6
:100430000E941C0F2091620330916303621B730BB7
:1004400070936503609364030E941C0F70936303B1
:10045000609362039091860380918703992309F446
:100460005BC0882309F161E080E10E9410106FE910
:1004700071E089E993E00E948B12109287038091CA
:10048000880390918903892B29F48EE693E00E94DA
:10049000DC0B0AC08EE693E00E94330CAB01BC017A
:1004A0008EE693E00E94A40B0E941C0FAB01BC01DE
:1004B0008EE693E00E94870BAC0160E070E0409311
:1004C0007B0350937C0360937D0370937E038EE6E1
:1004D00093E00E94520B40917B0350917C0360910A
:1004E0007D0370917E032AE030E089E993E00E9469
:1004F0007B1368EC71E089E993E00E947E128EE63E
:1005000093E00E94330CAB01BC012AE030E089E9A2
:1005100093E00E947B1328C08823B1F060E080E163
:100520000E94101062EE71E089E993E00E948B1244
:10053000109287038091880390918903892B21F47D
:100540008EE693E00E940C0C6CE072E089E993E087
:100550000E947E1260916403709165034AE050E04E
:1005600089E993E00E94651389E993E00C9487126E
:100570008FE793E00C944E05CF93DF938FE793E0E2
:100580000E941A058EE693E00E942D0BC0910C018B
:10059000DD27C7FDD09564E070E0CE010E94E7172B
:1005A00090936D0380936C0361E470E0CE010E9430
:1005B000E71790936B0380936A0380910B016CE0C3
:1005C00070E0992787FD90950E94E7179093690343
:1005D000809368036CE070E08091060190910701C0
:1005E0000E94E7179093670380936603DF91CF9192
:1005F00008958EE693E00E94380B8FE793E00C9409
:10060000CA148EBD00000DB407FEFDCF8EB508954F
:1006100008950E94D0048CB58C7F8CBD8DB581600F
:100620008DBD8CB58F7D8CBD8CB5837F8CBD0895C1
:10063000CF93DF93EC0161E08A810E94D70F61E0E4
:100640008B810E94D70F4A8150E0FA01EE55FF4F8F
:10065000E491F0E0EE0FFF1FEA54FF4FA591B49133
:10066000BD87AC872B8130E0F901EE55FF4F8491B7
:1006700090E0880F991F8A549F4FFC0185919491B7
:100680009F878E87FA01E257FF4F44914A87F9010D
:10069000E257FF4F24912B878C919A85909589235F
:1006A0008C93EE85FF8590818B858095892380834F
:1006B000DF91CF910895FC0122812F3F11F40C941A
:1006C00009030C941803CF93DF93EC0160E08A8157
:1006D0000E94D70F60E08B81DF91CF910C94D70FF0
:1006E000CF93DF93EC018D819E81009711F00E94E2
:1006F0009B188A818F3F21F4DF91CF910C940605DE
:10070000CE01DF91CF910C946303FC0199E09150ED
:10071000D9F0A485B58582852C9167FF03C0282B6D
:100720002C9303C0809582238C93A685B7858C91EA
:100730002385822B8C93A685B7852C918385809504
:1007400082238C93660FE3CF0895BF92CF92DF92FE
:10075000EF92FF920F931F93CF93DF93EC01ED8005
:10076000FE80E114F10409F488C008811981BC807D
:100770008A818F3F09F041C080E00E94010380E040
:100780000E94010380E00E9401031EBC3FEF0DB4F4
:1007900007FEFDCF3EBDF70123E08C81882331F0B9
:1007A00080818B9DC0011124892F01C080810DB4EF
:1007B00007FEFDCF8EBD215031962111EECF83E093
:1007C000E80EF11C0150110911F70DB407FEFDCF21
:1007D0008FEF0E9401038FEF0E9401038FEF0E94B1
:1007E00001038FEFDF91CF911F910F91FF90EF9059
:1007F000DF90CF90BF900C94010374E0D72E60E09F
:10080000CE010E948503DA94D1F78C81882331F1DF
:100810006FEFCE010E9485036701E3E0CE0ED11C8D
:10082000F70181917F018B9DC0011124692FCE01B9
:100830000E948503EC14FD0499F70150110941F75A
:1008400014E015C0F70161917F01CE010E9485037C
:10085000EC14FD04B9F70150110991F36FEFCE01CB
:100860000E9485036701F3E0CF0ED11CEBCF6FEF41
:10087000CE010E9485031150D1F7DF91CF911F91D6
:100880000F91FF90EF90DF90CF90BF900895FC0103
:100890003781208580819181AC01321307C04D5F83
:1008A0005F4F569547955695479502C0440F551F83
:1008B000480F591F60E070E0858196810C944A1AB8
:1008C0000F931F93CF93DF93EC018B018D819E815A
:1008D000009711F00E949B189F818885981307C08C
:1008E000C8010396969587959695879503C0C8018C
:1008F000880F991F800F911F0E9403189E838D837C
:10090000892B49F019830883CE01DF91CF911F9184
:100910000F910C94470419821882DF91CF911F9197
:100920000F9108950F931F93FC0142832383148238
:1009300016821582802F8370878310E0C8019595F9
:100940008795959587958370808734E015950795F1
:100950003A95E1F703700187CF011F910F910C9435
:100960006004FC018081918168177907C0F4DB0184
:10097000AA0FBB1FA60FB71F858196818A0F9B1FE9
:100980005781DC01A50FB11D4C934085DC01A40FFC
:10099000B11D3C933185FC01E30FF11D20830895C7
:1009A000CF93CFB7F89480918B03811127C0ECEAE5
:1009B000F0E08491E8E9F0E09491E82FF0E0EE0FA8
:1009C000FF1FE054FF4FA591B4918C91892321F42E
:1009D00061E08AE00E94101061E08AE00E94D70F77
:1009E0008CB580618CBD8CB580648CBD61E08DE080
:1009F0000E94D70F61E08BE00E94D70F80918B039C
:100A00008F5F80938B03CFBFCF9108959FB7F894EA
:100A100080918B03882319F0815080938B03809100
:100A20008B03811105C08CB58F7B8CBD10928A031E
:100A30009FBF0895CF93DF93EC0164E573E00E94BC
:100A400038151E821F821886DF91CF910895CF93AB
:100A5000DF93EC01672B69F461E08FE00E94D70F10
:100A600061E08FE00E9410101A86198680E090E005
:100A700002C08FEF9FEFDF91CF910895672B59F45C
:100A800061E08FE00E94D70F60E08FE00E941010BD
:100A900080E090E008958FEF9FEF08954F925F926E
:100AA0006F927F929F92AF92BF92CF92DF92EF921E
:100AB000FF920F931F93CF93DF93CDB7DEB7A89725
:100AC0000FB6F894DEBF0FBECDBF8C0164E573E0B6
:100AD000CE0183960E9438156DE172E089E993E0BA
:100AE0000E948B12E12CF12CC12CD12C712C992459
:100AF0009394AA24A394B12C89E993E00E94461010
:100B000018161906B4F4F8019682FFEFCF1ADF0A1F
:100B100063E472E089E993E00E947E124AE050E0CB
:100B2000B60189E993E00E94401323E0C216D10484
:100B3000D1F4CE0183960E94CA14A8960FB6F894F9
:100B4000DEBF0FBECDBFDF91CF911F910F91FF9000
:100B5000EF90DF90CF90BF90AF909F907F906F907D
:100B60005F904F900895711060C06AE672E089E965
:100B700093E00E948B124AE069E973E0CE0101968E
:100B80000E94A214BE016F5F7F4FCE0183960E9428
:100B90008415CE0101960E94CA1468E972E089E9C1
:100BA00093E00E948B12CE0183960E94181660EB90
:100BB00072E0CE0183960E94CF15882349F064EB42
:100BC00072E089E993E00E948B12E12CF12C23C0A2
:100BD00066EC72E0CE0183960E94CF15882351F017
:100BE0006FEC72E089E993E00E948B12EE24E394AB
:100BF000F12C11C066EE72E0CE0183960E94CF15F3
:100C0000882361F062EF72E089E993E00E948B1221
:100C100082E0E82EF12C772473946ECF89E993E07B
:100C20000E945F100196D1F767CF64E573E0CE01B3
:100C30004D960E943815F1E0EF16F10409F122E01B
:100C4000E216F10409F452C0E114F10409F07BC08A
:100C500041E060E070E089E993E00E943214672B84
:100C600031F461E081E10E94D70F60E005C061E0EE
:100C700081E10E94D70F61E081E10E94101063C002
:100C80004AE069E973E0CE0101960E94A214BE0118
:100C90006F5F7F4FCE014D960E948415CE01019665
:100CA0000E94CA1449A15AA14F5F5F4F20E030E073
:100CB000BE016F5F7F4FCE014D960E94EE154AE058
:100CC00069E973E0CE0147960E94A214BE01695EF5
:100CD0007F4FCE014D960E948415CE0147960E940B
:100CE000CA14CE014D960E9477162DC06CE073E0B9
:100CF00089E993E00E948B1241E060E070E089E9AD
:100D000093E00E9432142B013C0165E273E089E913
:100D100093E00E948B12F8019086F1E04F16510487
:100D200049F022E04216510451F0452861F4F801DF
:100D3000978209C0F8011782B286A18604C0F80123
:100D400017821286118689E993E00E945F1001964E
:100D5000D1F7CE014D960E94CA14712CCDCE0F93BF
:100D60001F93AB01B9010097C1F1452BB1F10930D7
:100D7000110560F5F801EC5CFF4F0C94C7172FEFDD
:100D80003FEF4FEF50E025C020E030E04FEF50E064
:100D900020C020E03FEF40E050E01BC02FEF30E0EC
:100DA00040E050E016C020E03FEF4FEF50E011C0B0
:100DB0002FEF3FEF40E050E00CC02FEF30E0A901F3
:100DC00008C020E035EA4FEF50E003C020E030E0FB
:100DD000A9011F910F910C94B1041F910F910895D7
:100DE0008F929F92AF92BF92CF92DF92EF92FF923B
:100DF0000F931F93CF93DF936C015B014A01009720
:100E000089F16115710571F18CE0849F7001859FF6
:100E1000F00C1124E60EF71EF70182819381892BD5
:100E200009F1C0E0D0E0F701818190E0C817D9074F
:100E300054F400E010E09E01A401B501C6010E9437
:100E4000AF062196F0CFC601DF91CF911F910F9190
:100E5000FF90EF90DF90CF90BF90AF909F908F90DA
:100E60000C94A503DF91CF911F910F91FF90EF900C
:100E7000DF90CF90BF90AF909F908F900895CF92CA
:100E8000DF92FF920F931F93CF93DF9300D000D098
:100E90001F92CDB7DEB76C01CE01019625E0DC01D3
:100EA0001D922A95E9F79B01BC014FEF5FEFF60118
:100EB00001900020E9F73197EC19FD092E173F0743
:100EC00018F58601020F131FD801FC90BCE2FB123B
:100ED00004C089010F5F1F4F0CC08F010150110921
:100EE0002017310749F4DE01A40FB51F1296FC92BA
:100EF0008F010E94F4190CC04F5F5F4FFB01F1920C
:100F0000BF012F5F3F4FD3CF0FEF1FEF8FEF9FEF4B
:100F100010938F0300938E0390938D0380938C0323
:100F20000F900F900F900F900F90DF91CF911F9126
:100F30000F91FF90DF90CF9008956F927F928F92E4
:100F40009F92AF92BF92CF92DF92EF92FF920F9358
:100F50001F93CF93DF936C015B014A013901009726
:100F600009F444C06115710509F440C08CE0849F08
:100F7000E001859FD00D1124C60FD71F8A819B8168
:100F8000892BA1F110928F0310928E03E12CF12C8A
:100F9000898190E0E816F906C4F460918E0370919F
:100FA0008F038A819B810E943F0700918C031091DF
:100FB0008D039701260D371DA401B501C6010E94BE
:100FC000AF068FEFE81AF80AE3CFC601DF91CF91A1
:100FD0001F910F91FF90EF90DF90CF90BF90AF9057
:100FE0009F908F907F906F900C94A503DF91CF918D
:100FF0001F910F91FF90EF90DF90CF90BF90AF9037
:101000009F908F907F906F9008952F923F924F9274
:101010005F926F927F928F929F92AF92BF92CF9288
:10102000DF92EF92FF920F931F93CF93DF9300D045
:1010300000D000D0CDB7DEB73C012B011A01F90179
:101040008B8D9C8D9A838983AD8DBE8DBC83AB8344
:101050008F8D98A19E838D8329A13AA1611471047B
:1010600009F490C16115710509F48CC180819181E9
:1010700097FF45C00196918380830023F9F08FEF9D
:101080009FEFD7018D939C93D6011D921C9281E016
:1010900090E0D5018D939C9382E090E0D4018D93F4
:1010A0009C9383E090E0A981BA818D939C9384E026
:1010B00090E0AB81BC818D939C9324C010928F03F0
:1010C00010928E038CE0829DA001839D500D11240F
:1010D000460F571F6D817E8180E090E0DA01119606
:1010E0000C9110E0801791070CF0D1C08C010150D9
:1010F0001109DB010D931D93BD010196EFCF002374
:1011000009F4C5C08CE0829D8001839D100D1124DF
:10111000040D151DD80111968C9190E0D7012D91E9
:101120003C91281739072CF0808191810196918399
:101130008083D8011B968C9190E0208131818217A9
:1011400093070CF404C1F70160817181CB01019612
:101150009183808320E030E0A901C3010E94B104A3
:10116000D6016D917C911197CB0101968D939C9343
:1011700020E030E04FEF50E0C3010E94B104F501E0
:1011800060817181CB0101969183808320E035EAF3
:101190004FEF50E0C3010E94B104D4016D917C91E6
:1011A0001197CB0101968D939C9320E03FEF4FEF79
:1011B00050E0C3010E94B104E981FA81608171812C
:1011C000CB0101969183808320E03FEF40E050E027
:1011D000C3010E94B104AB81BC816D917C911197D8
:1011E000CB0101968D939C932FEF30E040E050E0CF
:1011F000C3010E94B104F801818190E0D7012D91D3
:101200003C9111972817390714F01D921C92F80190
:10121000818190E0D6012D913C91119728173907D3
:1012200014F01D921C92F801818190E0D5012D915E
:101230003C9111972817390714F01D921C92F80160
:10124000818190E0D4012D913C91119728173907A5
:1012500014F01D921C92F801818190E0A981BA815D
:101260002D913C9111972817390714F01D921C926B
:10127000F801818190E0AB81BC812D913C91119767
:10128000281739070CF463C01D921C9260C08CE0D3
:10129000829D7001839DF00C1124E40CF51CD70194
:1012A00011968C9190E0AD81BE814D915C91481773
:1012B00059072CF080819181019691838083D70119
:1012C0001B968C9190E04081518184179507D4F151
:1012D00010928F0310928E03CD80DE80A12CB12C52
:1012E000F701818190E0A816B9068CF54601F60158
:1012F00080819181019691838083D70111962C91F1
:1013000030E08217930714F01182108260918E03EF
:1013100070918F03F701828193810E943F07F2E071
:10132000CF0ED11C00918C0310918D03D4012D910F
:101330003C91A101B201C3010E94AF06BFEFAB1AFD
:10134000BB0ACECFA101B201C3010E94F006C301C6
:1013500026960FB6F894DEBF0FBECDBFDF91CF91BA
:101360001F910F91FF90EF90DF90CF90BF90AF90C3
:101370009F908F907F906F905F904F903F902F90B5
:101380000C94A50326960FB6F894DEBF0FBECDBF12
:10139000DF91CF911F910F91FF90EF90DF90CF9051
:1013A000BF90AF909F908F907F906F905F904F9085
:1013B0003F902F900895AF92BF92CF92DF92EF921D
:1013C000FF920F931F93CF93DF936C018B017A01F0
:1013D0006115710539F110928F0310928E03AA24C2
:1013E000AA94BB24BA94C0E0D0E0CE15DF05B9F0D2
:1013F00060918E0370918F03C8010E943F07809116
:101400008C0390918D03892B41F068E373E0C60152
:101410000E94511A892B21F05E012196E6CFE50149
:10142000CE0102C08FEF9FEFDF91CF911F910F91FF
:10143000FF90EF90DF90CF90BF90AF9008952F92E4
:101440003F924F925F926F927F928F929F92AF9254
:10145000BF92CF92DF92EF92FF920F931F93CF93A1
:10146000DF9300D0CDB7DEB71C013B015A8349831F
:101470002901F8010B8D1C8D009709F4D9C0611565
:10148000710509F4D5C0D9018C918823A1F120E020
:1014900030E0C1010E949D07F20110828CE0298199
:1014A0003A81829F2001839F500C1124460C571CC7
:1014B000D2011A968C9190E0F40191838083D70138
:1014C0001D921C92F201418150E0628173818DE393
:1014D00093E00E94DB09D5018D939C93F201418139
:1014E00050E06281738188E393E00E94DB09D601BA
:1014F0008D939C939DC0D4018D919C91892B09F46F
:1015000080C02081D7018D919C911197222309F4ED
:101510003FC001968D939C93D5018D919C9111971D
:1015200001968D939C93D6018D919C911197019674
:101530008D939C938CE029813A81829FD001839F77
:10154000B00D1124A60FB71F11968C9190E0D50114
:101550002D913C91281739070CF44AC01082F401F0
:1015600080819181019691838083D7018D919C9197
:10157000119701978D939C93F5018081918101973B
:1015800091838083D6018D919C91119701972EC0F4
:101590000197D7018D939C93D5018D919C911197C3
:1015A00001978D939C93D6018D919C9111970197F2
:1015B0008D939C9397FF1CC081E08083F401808110
:1015C0009181019691838083D7018D919C91119790
:1015D00001968D939C93F501808191810196918371
:1015E0008083D6018D919C91119701968D939C9348
:1015F000F7012081318149815A81B301C1010E94E3
:101600009D07C1010F900F90DF91CF911F910F9116
:10161000FF90EF90DF90CF90BF90AF909F908F9012
:101620007F906F905F904F903F902F900C94A50308
:101630000F900F90DF91CF911F910F91FF90EF903E
:10164000DF90CF90BF90AF909F908F907F906F90E2
:101650005F904F903F902F900895FC01118210826F
:1016600012821482138211861286138614860895BC
:10167000FC011482138208950F931F93FC011182C1
:1016800010827483638315821682178210860FEF8F
:101690001FEF9801018712872387348742831F91A8
:1016A0000F910895EF92FF920F931F93CF93DF93C3
:1016B000EC010D811E812F813885040F151F261F17
:1016C000371F0D831E832F833887E12CF12C00E018
:1016D00010E08A81992787FD90950817190784F4EF
:1016E0004D815E816F8178858B819C818E0D9F1DE0
:1016F0000E94030D0F5F1F4F81E4E80EF11CE9CF3C
:10170000DF91CF911F910F91FF90EF9008950F936C
:101710001F93FC0101851285238534850F3F1F4FE0
:101720002F4F3F4F21F4418752876387748781850C
:1017300092859A01281B390BC9014187528763871B
:1017400074871F910F910895AF92BF92CF92DF924D
:10175000EF92FF920F931F93CF93DF93EC016A01F7
:101760007B014FEF5FEFBA0149875A876B877C8710
:10177000A12CB12C00E010E08A81992787FD90957B
:101780000817190774F48B819C81B701A6018A0D93
:101790009B1D0E947A0E0F5F1F4F81E4A80EB11CA3
:1017A000EBCFDF91CF911F910F91FF90EF90DF90E2
:1017B000CF90BF90AF900895EF92FF920F931F9339
:1017C000CF93DF93EC011D821E821F8218864FEF9C
:1017D0005FEFBA0149875A876B877C87E12CF12C30
:1017E00000E010E08A81992787FD90950817190776
:1017F00064F48B819C818E0D9F1D0E94730E0F5F80
:101800001F4F81E4E80EF11CEDCFDF91CF911F91C6
:101810000F91FF90EF900895EF92FF920F931F9317
:10182000CF93DF937C0100E010E0C0E0D0E0F7014F
:101830008281992787FD9095C817D9076CF4F70125
:1018400083819481800F911F0E94C80C0E944704DD
:1018500021960F5B1F4FEBCFDF91CF911F910F911F
:10186000FF90EF900895FC016581768187819085D6
:101870000895FC01118A108A0C9470038F929F9234
:10188000AF92BF92CF92DF92EF92FF920F93CF93DE
:10189000DF93CDB7DEB762970FB6F894DEBF0FBE09
:1018A000CDBF5C014B012A8B498B0E940803F501D7
:1018B000118A108A128A81E0838B848B158A168A9A
:1018C000178A108E8FEF9FEFDC01818F928FA38F8D
:1018D000B48F158E168E178E10A292A381A394A397
:1018E00083A396A385A310A617A281E090E092A7F8
:1018F00081A782E090E094A783A783E090E096A779
:1019000085A764E070E070AB67A712AA11AA94AB38
:1019100083AB16AA15AA10AE17AA12AE11AE14AE5A
:1019200013AE16AE15AE62E070E084E690E00E9461
:10193000E717F501FF969183808306E02A8949899C
:10194000B401CE0101960E94920480E1FE0131961D
:10195000D50101900D928A95E1F7CE0101960E9482
:101960007003F501F18AE08AD0AEC7AA62960FB67D
:10197000F894DEBF0FBECDBFDF91CF910F91FF90E6
:10198000EF90DF90CF90BF90AF909F908F90089591
:101990000895FC01158A168A178A108E4FEF5FEFA3
:1019A000BA01418F528F638F748F158E168E178EEA
:1019B00010A2128A81E0838B848B12AE11AE14AE1A
:1019C00013AE8FEF9FEF92A381A394A383A396A35B
:1019D00085A310A617A281E090E092A781A782E0DC
:1019E00090E094A783A783E090E096A785A784E082
:1019F00090E090AB87A712AA11AA14AA13AA16AE58
:101A000015AE81E008954F925F926F927F928F9210
:101A10009F92AF92BF92CF92DF92EF92FF920F937D
:101A20001F93CF93DF93EC018D8D9E8DAF8DB8A169
:101A3000481B590B6A0B7B0B4D8B5E8B6F8B788F22
:101A400089E993E00E9487122DA93EA98FA998AD3C
:101A50002817390788F08A89811134C16889798902
:101A60009E0140E050E0CE010E94F006CE010E94AF
:101A7000C90C81E08A8B26C11A8A688879888CE033
:101A8000829FF001839FF00D1124E60DF71D408524
:101A9000518560E070E08D899E89AF89B88D4817C7
:101AA00059076A077B07F8F48D8D9E8DAF8DB8A11D
:101AB000840F951FA61FB71F8D8F9E8FAF8FB8A362
:101AC0002F5F3F4F3EAB2DAB1D8A1E8A1F8A188E9B
:101AD0008FEF9FEFDC01898F9A8FAB8FBC8F9AA31A
:101AE00089A381E08B8B6D897E898F89988D0E9477
:101AF000171720E030E040E251E40E9483160E9474
:101B0000EB169B01AC01AAE0B0E00E94CD17098D55
:101B10001A8D2B8D3C8D0F3F4FEF14072407340790
:101B200029F0601771078207930731F021E02A8BB3
:101B3000698F7A8F8B8F9C8F6D8B7E8B8F8B988F1D
:101B40004DA85EA82CE0249D8001259D100D112438
:101B5000060D171DF80124813581468157810E94A9
:101B6000A517672B682B692B09F0ACC08A898823DD
:101B700009F4A8C0F8018081823009F472C098F598
:101B8000882309F467C0813009F09BC0DF93CF93AD
:101B90001F921F92CE018F969F938F9302979F93D0
:101BA0008F934E018BE2880E911C5E0199E2A90E83
:101BB000B11C6E01E7E2CE0ED11C7E01F5E2EF0E04
:101BC000F11C01E09E012F5D3F4FA201B301CE0148
:101BD0000E9405088DB79EB708960FB6F8949EBF71
:101BE0000FBE8DBF6EC0833009F444C0843009F04D
:101BF00068C0DF93CF93FE01FF9681818F93808130
:101C00008F93CE018F969F938F9302979F938F937D
:101C10004E014BE2840E911C5E0189E2A80EB11CBC
:101C20006E0197E2C90ED11C7E01E5E2EE0EF11CB9
:101C300000E09E012F5D3F4FA201B301CE010E9443
:101C400005088DB79EB708960FB6F8949EBF0FBED5
:101C50008DBF37C09E01A201B301CE010E94F006E4
:101C600030C08E0120E030E0A201B301CE010E941D
:101C70009D0727C0DF93CF931F921F921F921F9241
:101C80004E01FDE38F0E911C5E0143E3A40EB11CD7
:101C90006E0181E3C80ED11C7E0191E2E90EF11CB8
:101CA0008E010C5E1F4F9E012D5E3F4FA201B301BE
:101CB000CE010E941F0A0F900F900F900F900F906F
:101CC0000F901A8ADF91CF911F910F91FF90EF90A3
:101CD000DF90CF90BF90AF909F908F907F906F904C
:101CE0005F904F900895FC0116AA15AA0E94C90C96
:101CF00081E00895CF92DF92EF92FF920F931F93AE
:101D0000CF93DF9300D000D0CDB7DEB77C014983FD
:101D10005A836B837C830E94730E49815A816B8145
:101D20007C81411551056105710511F481E02DC0DB
:101D3000D7015096CD90DC905197F601A085B185E2
:101D400080E090E0F701058D168D278D30A10A0FF8
:101D50001B1F211D311D0C96401751076207730789
:101D6000A0F005A8F6A9E02D3196D701D696FC93F0
:101D7000EE93D597F701058F168F278F30A3F601C5
:101D8000E80FF91FA085B185DDCF0F900F900F9060
:101D90000F90DF91CF911F910F91FF90EF90DF9007
:101DA000CF9008951F920F920FB60F9211242F9388
:101DB0003F938F939F93AF93BF93809191039091A3
:101DC0009203A0919303B09194033091900323E088
:101DD000230F2D3720F40196A11DB11D05C026E863
:101DE000230F0296A11DB11D2093900380939103B0
:101DF00090939203A0939303B093940380919503DF
:101E000090919603A0919703B09198030196A11D1C
:101E1000B11D8093950390939603A0939703B0937D
:101E20009803BF91AF919F918F913F912F910F9008
:101E30000FBE0F901F9018952FB7F89460919103E3
:101E40007091920380919303909194032FBF089512
:101E50003FB7F8948091950390919603A0919703D2
:101E6000B091980326B5A89B05C02F3F19F00196A5
:101E7000A11DB11D3FBF6627782F892F9A2F620FB2
:101E8000711D811D911D42E0660F771F881F991FEC
:101E90004A95D1F70895CF92DF92EF92FF92CF93B8
:101EA000DF936B017C010E94280FEB01C114D10468
:101EB000E104F10489F00E9482160E94280F6C1B35
:101EC0007D0B683E734090F381E0C81AD108E108A9
:101ED000F108C851DC4FEACFDF91CF91FF90EF902E
:101EE000DF90CF900895789484B5826084BD84B5E6
:101EF000816084BD85B5826085BD85B5816085BD05
:101F0000EEE6F0E0808181608083E1E8F0E010821D
:101F1000808182608083808181608083E0E8F0E05E
:101F2000808181608083E1EBF0E080818460808348
:101F3000E0EBF0E0808181608083EAE7F0E080817F
:101F400084608083808182608083808181608083DF
:101F50008081806880831092C1000895833081F071
:101F600028F4813099F08230A1F008958730A9F0EB
:101F70008830B9F08430D1F4809180008F7D03C027
:101F8000809180008F7780938000089584B58F774B
:101F900002C084B58F7D84BD08958091B0008F7795
:101FA00003C08091B0008F7D8093B0000895CF93DF
:101FB000DF9390E0FC01E257FF4F2491FC01EE55C6
:101FC000FF4F8491882349F190E0880F991FFC010D
:101FD000E054FF4FA591B4918A549F4FFC01C591E5
:101FE000D4919FB7611108C0F8948C9120958223F9
:101FF0008C93888182230AC0623051F4F8948C91CA
:10200000322F309583238C938881822B888304C060
:10201000F8948C91822B8C939FBFDF91CF91089580
:102020000F931F93CF93DF931F92CDB7DEB7282F67
:1020300030E0F901E658FF4F8491F901E257FF4F74
:102040001491F901EE55FF4F04910023C9F0882344
:1020500021F069830E94AE0F6981E02FF0E0EE0F5E
:10206000FF1FEA54FF4FA591B4919FB7F8948C914C
:10207000611103C01095812301C0812B8C939FBFF8
:102080000F90DF91CF911F910F910895FC01818DE9
:10209000228D90E0805C9F4F821B91098F7399275E
:1020A0000895FC01918D828D981731F0828DE80F93
:1020B000F11D858D90E008958FEF9FEF0895FC014D
:1020C000918D828D981761F0828DDF01A80FB11D6F
:1020D0005D968C91928D9F5F9F73928F90E0089593
:1020E0008FEF9FEF089583EE91E1892B49F088EB04
:1020F00092E0892B29F00E94E31181110C94B8021F
:102100000895FC01848DDF01A80FB11DA35ABF4FB4
:102110002C91848D90E001968F739927848FA689E6
:10212000B7892C93A089B1898C9180648C93938D0D
:10213000848D981306C00288F389E02D80818F7DFD
:1021400080830895CF93DF93EC01888D8823C9F0B5
:10215000EA89FB89808185FD05C0A889B9898C91B0
:1021600086FD0FC00FB607FCF5CF808185FFF2CF4B
:10217000A889B9898C9185FFEDCFCE010E9481108D
:10218000E7CFDF91CF910895CF92DF92FF920F9327
:102190001F93CF93DF931F92CDB7DEB76C0181E021
:1021A000D60158968C9358975B969C915B975C965A
:1021B0008C915C97981307C05096ED91FC915197C4
:1021C000808185FD2EC0F601038D10E00F5F1F4F4B
:1021D0000F731127F02EF601848DF81211C00FB67F
:1021E00007FCF9CFD6015096ED91FC915197808173
:1021F00085FFF1CFC60169830E9481106981EBCF11
:10220000838DE80FF11DE35AFF4F6083D6015B9683
:102210000C935B975296ED91FC915397808180626D
:102220000CC0D6015696ED91FC915797608350965D
:10223000ED91FC91519780818064808381E090E0F2
:102240000F90DF91CF911F910F91FF90DF90CF9072
:102250000895BF92CF92DF92EF92FF92CF93DF93D8
:10226000EC016A017B01B22EE889F98982E0808362
:10227000411581EE580761057105A1F060E079E034
:102280008DE390E0A70196010E94A5172150310926
:10229000410951095695479537952795211580E1B4
:1022A000380798F0E889F989108260E874E88EE1CF
:1022B00090E0A70196010E94A5172150310941091C
:1022C00051095695479537952795EC85FD853083BF
:1022D000EE85FF852083188EEC89FD89B082EA891E
:1022E000FB89808180618083EA89FB8980818860A5
:1022F0008083EA89FB89808180688083EA89FB8901
:1023000080818F7D8083DF91CF91FF90EF90DF9070
:10231000CF90BF9008951F920F920FB60F92112485
:102320002F938F939F93EF93FF93E091A903F091E5
:10233000AA038081E091AF03F091B00382FD12C047
:1023400090818091B2038F5F8F732091B3038217C6
:1023500051F0E091B203F0E0E756FC4F958F809387
:10236000B20301C08081FF91EF919F918F912F91D6
:102370000F900FBE0F901F9018951F920F920FB6DF
:102380000F9211242F933F934F935F936F937F93FB
:102390008F939F93AF93BF93EF93FF9389E993E05C
:1023A0000E948110FF91EF91BF91AF919F918F910A
:1023B0007F916F915F914F913F912F910F900FBE41
:1023C0000F901F90189589E993E00E94461021E034
:1023D000892B09F420E0822F089510929C0310921B
:1023E0009B0388EE93E0A0E0B0E080939D03909380
:1023F0009E03A0939F03B093A00386E493E0909381
:102400009A038093990385EC90E09093A6038093C0
:10241000A50384EC90E09093A8038093A70380EC3D
:1024200090E09093AA038093A90381EC90E09093AD
:10243000AC038093AB0382EC90E09093AE03809367
:10244000AD0386EC90E09093B0038093AF031092BD
:10245000B2031092B3031092B4031092B50308951F
:1024600008950E94730F0E9430120E949200C3E7E9
:10247000D0E10E9418022097E1F30E947310F9CF77
:10248000CF92DF92EF92FF920F931F93CF93DF9340
:102490007C016A01EB0100E010E00C151D0571F0F4
:1024A0006991D701ED91FC910190F081E02DC70178
:1024B0000995892B19F00F5F1F4FEFCFC801DF91EE
:1024C000CF911F910F91FF90EF90DF90CF900895E3
:1024D0006115710581F0DB010D900020E9F7AD0178
:1024E00041505109461B570BDC01ED91FC910280D4
:1024F000F381E02D099480E090E008950C94681237
:10250000DC01ED91FC910190F081E02D099462E5F0
:1025100073E00C9468120F931F93CF93DF93EC0139
:102520000E9468128C01CE010E948712800F911FB9
:10253000DF91CF911F910F9108958F929F92AF924B
:10254000BF92CF92DF92EF92FF920F931F93CF93A0
:10255000DF93CDB7DEB7A1970FB6F894DEBF0FBEFD
:10256000CDBF7C01C42EE52FCB01D22E19A221E0D4
:102570002D1510F02AE0D22E8E010F5D1F4F8D2CED
:10258000912CA12CB12C6C2D7E2FA50194010E94C1
:10259000A5178C2DD29E80191124015011098A3063
:1025A00014F4805D01C0895CF80180832115310538
:1025B0004105510521F0C22EE32FCA01E4CFB80135
:1025C000C7010E946812A1960FB6F894DEBF0FBE35
:1025D000CDBFDF91CF911F910F91FF90EF90DF90D2
:1025E000CF90BF90AF909F908F900895CF92DF9241
:1025F000EF92FF920F931F93CF93DF93EC016A0149
:102600007B012115310579F4E881F9810190F08190
:10261000E02D642FDF91CF911F910F91FF90EF90EC
:10262000DF90CF9009942A303105E9F477FF1AC082
:102630006DE20E9480128C0144275527BA014C1983
:102640005D096E097F092AE0CE010E949D12800F6C
:10265000911FDF91CF911F910F91FF90EF90DF902D
:10266000CF9008952AE0B701A601CE01DF91CF9166
:102670001F910F91FF90EF90DF90CF900C949D12DF
:102680000F931F93CF93DF93EC019A01AB01662761
:1026900057FD6095762F0E94F6128C01CE010E94A4
:1026A0008712800F911FDF91CF911F910F91089595
:1026B0002115310541F4DC01ED91FC910190F0818F
:1026C000E02D642F09940C949D120F931F93CF93C8
:1026D000DF93EC019A01AB0160E070E00E945813B7
:1026E0008C01CE010E948712800F911FDF91CF9144
:1026F0001F910F9108950F931F93CF93DF93EC01D8
:102700000E9458138C01CE010E948712800F911FE6
:10271000DF91CF911F910F9108950F931F93CF9346
:10272000DF93EC010E941C0F688779878A879B875B
:10273000E881F9810680F781E02DCE01099597FFA8
:1027400015C00E941C0F088519852A853B85601BD2
:10275000710B820B930B0C811D812E813F816017C1
:1027600071078207930720F38FEF9FEFDF91CF91DF
:102770001F910F9108950F931F93CF93DF93EC0157
:102780000E941C0F688779878A879B87E881F98177
:102790000084F185E02DCE01099597FF15C00E94B8
:1027A0001C0F088519852A853B85601B710B820BE0
:1027B000930B0C811D812E813F8160177107820769
:1027C000930720F38FEF9FEFDF91CF911F910F9130
:1027D0000895FF920F931F93CF93DF93EC018B012A
:1027E000F42ECE010E94BB139C0197FD28C08D32B0
:1027F000910519F1C0970A9710F1FF2019F02E32B8
:102800003105F9F001301105F9F00230110569F4D4
:102810002D30310551F034F4295031092230310581
:1028200020F012C02032310579F4E881F981068068
:10283000F781E02DCE010995D4CF8DE203C0C90107
:1028400005C08EE290E002C08FEF9FEFDF91CF9145
:102850001F910F91FF900895FC0144835583668377
:1028600077830895CF92DF92FF920F931F93CF93B8
:10287000DF9300D000D0CDB7DEB76C01042F40E06D
:102880000E94E913FC0197FD4BC020E030E0A90154
:10289000F12C112707FD1095E017F107E9F0ED3253
:1028A000F105C1F0CF01C0970A97B0F4AAE0B0E0FB
:1028B0000E94CD179B01AC01CF01AA2797FDA095DF
:1028C000BA2F280F391F4A1F5B1F205331094109B6
:1028D000510902C0FF24F394D601ED91FC910680CA
:1028E000F781E02DC60129833A834B835C830995E8
:1028F000C6010E94BB13FC01C09729813A814B811C
:102900005C810A9748F2E017F10731F2FF2061F08D
:1029100066277727CB01621B730B840B950B06C0D0
:1029200060E070E0CB0102C0CA01B9010F900F90C6
:102930000F900F90DF91CF911F910F91FF90DF903B
:10294000CF900895EF92FF920F931F93CF93DF9351
:10295000EC018B01E42E64E573E00E943815C80198
:102960000E948D13FF24E7FCF09497FD0BC08E1599
:102970009F0541F0682FCE010E94BC15C8010E943E
:102980008D13F3CFCE01DF91CF911F910F91FF9067
:10299000EF900895FC01808191810C949B18CF9356
:1029A000DF93EC0188819981009711F00E949B18B8
:1029B000198218821D821C821B821A82DF91CF919C
:1029C00008950F931F93CF93DF93EC018B016F5FFB
:1029D0007F4F888199810E942A19009731F099834D
:1029E00088831B830A8381E001C080E0DF91CF915F
:1029F0001F910F910895CF93DF93EC018881998106
:102A0000892B29F08A819B818617970760F4CE0174
:102A10000E94E114882341F08C819D81892B19F457
:102A2000E881F981108281E0DF91CF910895EF92E2
:102A3000FF920F931F93CF93DF93EC017B018A01E9
:102A4000BA010E94FB14811104C0CE010E94CF1470
:102A500007C01D830C83B701888199810E945A1A8F
:102A6000CE01DF91CF911F910F91FF90EF900895CC
:102A7000FC01118210821382128215821482611568
:102A8000710559F0FB0101900020E9F7AF014150B9
:102A90005109461B570B0C94171508950F931F935C
:102AA000CF93DF938C01EB01FC0180819181009732
:102AB00099F0428153812C813D814217530750F098
:102AC000688179810E945A1A8C819D81F8019583D1
:102AD000848313C00E949B1888819981F801918397
:102AE00080838A819B81938382838C819D8195835E
:102AF0008483198218821B821A821D821C82DF91B4
:102B0000CF911F910F910895CF93DF93EC0186171A
:102B1000970711F00E944E15CE01DF91CF910895D5
:102B2000EF92FF920F931F93CF93DF93EC017B0102
:102B30000C811D816115710511F480E016C04115ED
:102B4000510591F0040F151FB8010E94FB14882352
:102B5000A1F3288139818C819D81B701820F931F58
:102B60000E945A1A1D830C8381E0DF91CF911F913F
:102B70000F91FF90EF900895CF93DF9300D0CDB7E2
:102B8000DEB769831A8241E050E0BE016F5F7F4F7C
:102B90000E9490150F900F90DF91CF910895FC0146
:102BA00024813581232B31F421E061157105A1F0D9
:102BB000FB0108C0FC01808191816115710531F430
:102BC00021E0FC018081882339F005C00E94511A60
:102BD00021E0892B09F020E0822F08950F931F93A5
:102BE000CF93DF93EB0141155105E9F02097D9F020
:102BF000FC016481758126173707A0F4621B730BF3
:102C00008A01015011096017710708F48B01FC015A
:102C100060817181620F731FA801CE010E94611A49
:102C2000C00FD11F1882DF91CF911F910F9108958E
:102C3000AF92BF92CF92DF92EF92FF920F931F93CA
:102C4000CF93DF937C01DC01CD90DC901197C11410
:102C5000D10409F441C01496CD91DC9115972097C9
:102C6000D9F156018501BFEFAB1ABB0AF80180818B
:102C7000992787FD90950E94391A892B99F72197FA
:102C8000CC0DDD1D8881992787FD90950E94391A0A
:102C9000892B91F4AE014F5F5F4F401B510BD70161
:102CA00015965C934E931497C016D10650F4B80154
:102CB000C6010E94411A05C0C017D10758F32197D9
:102CC000E1CFD701ED91FC91119714968D919C91D4
:102CD0001597E80FF91F1082DF91CF911F910F9187
:102CE000FF90EF90DF90CF90BF90AF900895FC01E0
:102CF00080819181009711F00C94121A60E070E0CD
:102D0000CB01089508950CD0E6C0DED040F0D5D0B8
:102D100030F021F45F3F19F0C7C0511110C1CAC093
:102D2000EBD098F39923C9F35523B1F3951B550BB9
:102D3000BB27AA2762177307840738F09F5F5F4F8E
:102D4000220F331F441FAA1FA9F333D00E2E3AF0CF
:102D5000E0E830D091505040E695001CCAF729D0E9
:102D6000FE2F27D0660F771F881FBB1F2617370738
:102D70004807AB07B0E809F0BB0B802DBF01FF2768
:102D800093585F4F2AF09E3F510568F08DC0D7C021
:102D90005F3FECF3983EDCF3869577956795B795A2
:102DA000F7959F5FC9F7880F911D9695879597F9BD
:102DB0000895E1E0660F771F881FBB1F6217730736
:102DC0008407BA0720F0621B730B840BBA0BEE1F4B
:102DD00088F7E095089598D088F09F5790F0B92F24
:102DE0009927B751A0F0D1F0660F771F881F991F60
:102DF0001AF0BA95C9F712C0B13081F09FD0B1E096
:102E000008959CC0672F782F8827B85F39F0B93FA5
:102E1000CCF3869577956795B395D9F73EF4909561
:102E20008095709561957F4F8F4F9F4F0895E894DF
:102E300009C097FB3EF490958095709561957F4F02
:102E40008F4F9F4F9923A9F0F92F96E9BB279395B0
:102E5000F695879577956795B795F111F8CFFAF4C0
:102E6000BB0F11F460FF1BC06F5F7F4F8F4F9F4FF1
:102E700016C0882311F096E911C0772321F09EE84F
:102E8000872F762F05C0662371F096E8862F70E0B5
:102E900060E02AF09A95660F771F881FDAF7880F8F
:102EA0009695879597F9089597F99F6780E870E060
:102EB00060E008959FEF80EC089500240A941616B0
:102EC000170618060906089500240A941216130618
:102ED000140605060895092E0394000C11F48823A6
:102EE00052F0BB0F40F4BF2B11F460FF04C06F5FC2
:102EF0007F4F8F4F9F4F089557FD9058440F551F98
:102F000059F05F3F71F04795880F97FB991F61F06B
:102F10009F3F79F087950895121613061406551FE2
:102F2000F2CF4695F1DF08C0161617061806991F4E
:102F3000F1CF86957105610508940895E894BB2743
:102F400066277727CB0197F90895A1E21A2EAA1BCD
:102F5000BB1BFD010DC0AA1FBB1FEE1FFF1FA21749
:102F6000B307E407F50720F0A21BB30BE40BF50B46
:102F7000661F771F881F991F1A9469F760957095CF
:102F8000809590959B01AC01BD01CF010895EE0F96
:102F9000FF1F0590F491E02D09940E94D817A59F7A
:102FA000900DB49F900DA49F800D911D1124089544
:102FB000A29FB001B39FC001A39F700D811D11247A
:102FC000911DB29F700D811D1124911D08950F93C5
:102FD0001F93CF93DF93869F8001879F100D969F4D
:102FE000100D1124C8010E940318EC01009729F06C
:102FF000A80160E070E00E944A1ACE01DF91CF91F3
:103000001F910F910895CF93DF938230910510F4B3
:1030100082E090E0E0913804F091390420E030E063
:10302000A0E0B0E0309739F140815181481759074D
:10303000B8F04817590771F482819381109729F0ED
:1030400013969C938E9312972CC09093390480937F
:10305000380427C02115310531F04217530718F005
:10306000A901DB0101C0EF019A01BD01DF0102806E
:10307000F381E02DD7CF21153105F9F0281B390B4D
:103080002430310580F48A819B816115710521F01E
:10309000FB019383828304C09093390480933804A6
:1030A000FE01329644C0FE01E20FF31F819391931B
:1030B00022503109398328833AC020913604309157
:1030C0003704232B41F42091020130910301309306
:1030D000370420933604209100013091010121151D
:1030E000310541F42DB73EB74091040150910501DF
:1030F000241B350BE0913604F0913704E217F307F7
:10310000A0F42E1B3F0B2817390778F0AC014E5F57
:103110005F4F2417350748F04E0F5F1F5093370459
:10312000409336048193919302C0E0E0F0E0CF0138
:10313000DF91CF910895CF93DF93009709F487C073
:10314000FC01329713821282C0913804D091390465
:10315000209781F420813181280F391F8091360416
:10316000909137048217930779F5F0933704E09331
:1031700036046DC0DE0120E030E0AE17BF0750F42A
:1031800012964D915C9113979D014115510509F1DE
:10319000DA01F3CFB383A28340815181840F951F5D
:1031A0008A179B0771F48D919C911197840F951F3D
:1031B00002969183808312968D919C9113979383AD
:1031C00082832115310529F4F0933904E093380402
:1031D0003EC0D9011396FC93EE9312974D915D91E9
:1031E000A40FB51FEA17FB0779F480819181840F42
:1031F000951F0296D90111969C938E93828193819B
:1032000013969C938E931297E0E0F0E08A819B8165
:10321000009719F0FE01EC01F9CFCE01029628814A
:103220003981820F931F209136043091370428177B
:10323000390769F4309729F4109239041092380450
:1032400002C013821282D0933704C0933604DF91F8
:10325000CF910895A0E0B0E0E0E3F9E10C94941A76
:10326000EC01CB01209719F40E940318B8C0FE01AD
:10327000E60FF71F9E0122503109E217F30708F409
:10328000ACC0D9010D911C91119706171707B8F022
:103290000530110508F49FC0A80144505109461794
:1032A000570708F498C002501109061B170B019329
:1032B00011936D937C93CF010E949B188CC05B018E
:1032C000A01AB10A4E01800E911EA0913804B0914F
:1032D0003904612C712C60E070E0109709F449C04A
:1032E000A815B905C9F5ED90FC901197670142E06A
:1032F000C40ED11CCA14DB0478F147018A189B085C
:10330000640142E0C40ED11C1296BC901297139631
:10331000AC91B5E0CB16D10440F0B282A383918288
:103320008082D9018D939C9309C00E5F1F4F0E0DB3
:103330001F1DF90111830083EB2DFA2F6115710513
:1033400031F0DB011396FC93EE93129744C0F09397
:103350003904E09338043FC06D917C911197661653
:10336000770608F43B01BD0112960D90BC91A02D8B
:10337000B4CF609136047091370468157905E9F48B
:1033800068167906D0F44091000150910101411571
:10339000510541F44DB75EB760910401709105018C
:1033A000461B570BE417F507C0F4F0933704E0937E
:1033B0003604F901918380830EC00E9403187C01BA
:1033C000009759F0A801BE010E94411ACE010E9447
:1033D0009B18C70104C0CE0102C080E090E0CDB7C9
:1033E000DEB7EEE00C94B01AFC0188279927E89428
:1033F00021912032E9F3293010F02E30C8F32B321E
:1034000041F02D3239F4689404C00E94851A820F6D
:10341000911D219120532A30C0F31EF4909581957F
:103420009F4F08951F93FC0199278827BC01E894BA
:1034300011911032E9F3193010F01E30C8F31B322D
:1034400051F01D3249F4689406C00E94701A610F51
:10345000711D811D911D119110531A30B0F33EF46E
:1034600090958095709561957F4F8F4F9F4F1F91DD
:103470000895911152C0803219F089508550D0F7CB
:103480000895FB01DC0102C001900D9241505040B3
:10349000D8F70895DC0101C06D9341505040E0F72A
:1034A0000895FB01DC018D91019080190110D9F381
:1034B000990B0895FB01DC0101900D920020E1F7CA
:1034C0000895FB01DC014150504048F001900D92FD
:1034D0000020C9F701C01D9241505040E0F7089507
:1034E000592F482F372F262F660F771F881F991FB8
:1034F000660F771F881F991F620F731F841F951F08
:10350000660F771F881F991F08957AE0979F902D67
:10351000879F802D910D112408959927882708955C
:103520002F923F924F925F926F927F928F929F92D3
:10353000AF92BF92CF92DF92EF92FF920F931F93C1
:10354000CF93DF93CDB7DEB7CA1BDB0B0FB6F89472
:10355000DEBF0FBECDBF09942A88398848885F84B2
:103560006E847D848C849B84AA84B984C884DF8023
:10357000EE80FD800C811B81AA81B981CE0FD11D07
:103580000FB6F894DEBF0FBECDBFED01089510E079
:10359000CEECD0E004C0FE010E94C9172296C03DC7
:0835A000D107C9F7F894FFCF31
:1035A80000003A048000050005000304024361702E
:1035B800747572696E672073657269616C206F75C6
:1035C80074707574206F6E2050726F5472696E6BD0
:1035D800657400302C302C302C302C302000312CED
:1035E800322C302C322C312000302C342C302C341E
:1035F8002C302000302C302C312C322C302000354F
:103608002C342C332C322C312000302C322C332CFF
:10361800322C302000302C332C332C322C3020002C
:1036280046696E69736865642077697468205365B4
:103638007475702073656374696F6E2E2E2E005436
:1036480068652076616C7565206F662062656769BC
:103658006E536571206973207472756520696E20D8
:103668006C6F6F702E2E2E00546865207065726620
:103678006F726D616E63652074696D652069733A58
:1036880020005468652076616C7565206F6620623D
:103698006567696E5365712069732066616C73652F
:1036A80020696E206C6F6F702E2E2E00456C617035
:1036B8007365642074696D65206973200049206D05
:1036C80061646520697420696E746F20525848617E
:1036D8006E646C657220696E746572727570742E92
:1036E8002E2E0053657269616C20697320617661C2
:1036F800696C61626C6520616E64206C6F6F70200C
:10370800636F756E7420697320004E6F206D657449
:10371800686F6420666F756E642079657420736FB6
:103728002072656164696E6720756E74696C206EBD
:103738006577206C696E6500466F756E6420612040
:103748006E6577206C696E65206E6F772E2E2E0061
:103758004C4544004C454420737472696E6720667A
:103768006F756E64210055534552494E464F0055BA
:10377800534552494E464F20737472696E672066EE
:103788006F756E642100494E49544C454453455168
:103798005300494E49544C45445345515320737482
:1037A80072696E6720666F756E6421004E6F7720B0
:1037B80068616E646C696E6720494C454453455195
:1037C800532E2E2E004A75737420706172736564CF
:1037D80020696E742E2E2E005441494C00484541F4
:1037E800440000000000C410401246105F10511041
:1037F800A2100D0A006E616E00696E66006F766633
:023808000000BE
:00000001FF
