:100000000C9434000C9451000C9451000C94510049
:100010000C9451000C9451000C9451000C9451001C
:100020000C9451000C9451000C9451000C9451000C
:100030000C9451000C9451000C9451000C945100FC
:100040000C9465000C9451000C9451000C945100D8
:100050000C9451000C9451000C9451000C945100DC
:100060000C9451000C94510011241FBECFEFD8E026
:10007000DEBFCDBF21E0A6E0B1E001C01D92AF30F0
:10008000B207E1F711E0A0E0B1E0E8EDF1E002C075
:1000900005900D92A630B107D9F70E9456000C9436
:1000A000EA000C9400000895089508950E94AF009E
:1000B0000E9455000E945300C0E0D0E00E9454000E
:1000C0002097E1F30E940000F9CF1F920F920FB624
:1000D0000F9211242F933F938F939F93AF93BF93CE
:1000E0008091070190910801A0910901B0910A0146
:1000F0003091060123E0230F2D3720F40196A11D36
:10010000B11D05C026E8230F0296A11DB11D209345
:1001100006018093070190930801A0930901B09311
:100120000A0180910B0190910C01A0910D01B091F9
:100130000E010196A11DB11D80930B0190930C013E
:10014000A0930D01B0930E01BF91AF919F918F913C
:100150003F912F910F900FBE0F901F90189578949C
:1001600084B5826084BD84B5816084BD85B58260BC
:1001700085BD85B5816085BDEEE6F0E0808181605A
:100180008083E1E8F0E0108280818260808380815A
:1001900081608083E0E8F0E0808181608083E1EB32
:1001A000F0E0808184608083E0EBF0E0808181601A
:1001B0008083EAE7F0E080818460808380818260D0
:1001C00080838081816080838081806880831092B9
:0801D000C1000895F894FFCF6F
:0601D80000000F01800091
:00000001FF
