:100000000C9468000C9490000C9490000C94900058
:100010000C9490000C9490000C9490000C94900020
:100020000C9490000C9490000C9490000C94900010
:100030000C9490000C9490000C9490000C94900000
:100040000C945C0C0C9490000C94CA0E0C94FC0E56
:100050000C9490000C9490000C9490000C949000E0
:100060000C9490000C9490002505FE0403050805EF
:100070000D05120517051C052005000000080002EB
:10008000010000030407000000000000000001025E
:100090000408102040800102040810200102040816
:1000A00010200404040404040404020202020202F4
:1000B00003030303030300000000250028002B00B6
:1000C00000000000240027002A0095022C0FCF0218
:1000D00011241FBECFEFD8E0DEBFCDBF11E0A0E0FE
:1000E000B1E0EAE9F6E202C005900D92A23FB10745
:1000F000D9F722E0A2EFB1E001C01D92AB3BB207FD
:10010000E1F710E0CEECD0E004C02297FE010E949F
:10011000A911CA3CD107C9F70E94700F0C94401373
:100120000C9400003F924F925F926F927F928F9259
:100130009F92AF92BF92CF92DF92EF92FF920F9376
:100140001F93CF93DF93CDB7DEB7C154D1090FB65C
:10015000F894DEBF0FBECDBF26E040E052EC61E078
:1001600070E08AE192E00E94680E6DE071E08AE141
:1001700092E00E94C30FE091F401F091F5016091CB
:1001800008016090090121E02083618383E391E00D
:100190009383828388EC882E912CA12CB12C8482AD
:1001A0009582A682B78288E59BE191878087228726
:1001B00092E0792E738674E6748715861686178604
:1001C000108A118A14E0128B638B8EE391E0958B79
:1001D000848B868A978AA08EB18E88EF9AE2938F5D
:1001E000828F148E0CE2058F768F178E10A211A2CB
:1001F00012A213A274A265A32DE431E037A326A3B3
:1002000044EFC42EDD24D394E12CF12CC0A6D1A65A
:10021000E2A6F3A640EA5FE055A744A716A617A6F4
:10022000AAE0A0AB11AA12AA13AA14AA15AAA3E0C5
:100230003A2E36AA67ABA8E5B1E0B1AFA0AF82AE67
:1002400093AEA4AEB5AE57AF46AFDF01A05CBF4FD3
:100250001C9311967C92119646E94C9311961C9230
:1002600011961D921D921D921C92139714961C9329
:1002700011966C93119713963C932E9312971496A4
:100280008D929D92AD92BC92179719969C938E93E6
:1002900018971A961C921A971B960C931B971C96EC
:1002A0007C931C971D961C921D971E961D921D9265
:1002B0001D921C9251974090F6015090F701C0900A
:1002C0000B01DD24C7FCD0947F0106E026E048E066
:1002D000762DCE0101960E94DD0981E4FE01319662
:1002E000D20101900D928A95E1F7CE0101960E940C
:1002F000D8098091F6019091F7010E94670A0E9447
:100300002D038091F6019091F7010E94670A0E94E7
:100310007703E091F201F091F30160910601709191
:10032000070142E1DF01242F1D922A95E9F770822F
:10033000618383E691E09383828388E893E1A0E080
:10034000B0E084839583A683B783918780877F01FC
:10035000A2E1EA0EF11CD701242F1D922A95E9F79C
:10036000128B638B2EE631E0358B248B868A978A3D
:10037000A08EB18E938F828F84E1858FCF0184967A
:10038000DC011D924A95E9F734A265A389E791E063
:1003900097A386A380A691A6A2A6B3A680E49FE118
:1003A00095A784A788E086A787A7A090F601B090BC
:1003B000F701C0900A01DD24C7FCD0947F0125E03D
:1003C00044E0CE0101960E94DD09D501AF5BBF4F2D
:1003D00081E4FE01319601900D928A95E1F7CE01FC
:1003E00001960E94D8098091F6019091F7018F5BE8
:1003F0009F4F0E94670A0E942D038091F601909101
:10040000F7018F5B9F4F0E94670A0E9477036091FC
:10041000F6017091F70140910C01CE0101960E9406
:100420006C098DE0FE013196AAEFB1E001900D92CA
:100430008A95E1F7CE0101960E9468098091F80142
:100440009091F9019093FB018093FA0164E871E0C7
:100450008AE192E00E94BD0F8AEF91E00E94D409E8
:100460008F5B9F4F0E94680A4AE050E0BC018AE11E
:1004700092E00E943B108AE192E00E94BF0FCF5BA6
:10048000DF4F0FB6F894DEBF0FBECDBFDF91CF9127
:100490001F910F91FF90EF90DF90CF90BF90AF90A2
:1004A0009F908F907F906F905F904F903F900895B6
:1004B0000E94A60CAB01BC018AEF91E00E94B70933
:1004C000AC0160E070E04093070250930802609333
:1004D000090270930A028AEF91E00E94820963EB9D
:1004E00071E08AE192E00E94BD0F409107025091B5
:1004F00008026091090270910A022AE030E08AE164
:1005000092E00E945110E091FA01F091FB014081CC
:100510005181628173812AE030E08AE192E00E9499
:1005200051108AE192E00C94BF0FCF93DF938AEFD2
:1005300091E00E945D09C0910C01DD27C7FDD095B7
:1005400064E070E0CE010E94C7119093F90180939E
:10055000F80161E470E0CE010E94C7119093F701A9
:100560008093F60180910B0162E170E0992787FD8D
:1005700090950E94C7119093F5018093F4018091AA
:100580000A0162E170E0992787FD90950E94C711EA
:100590009093F3018093F201DF91CF9108958AEF58
:1005A00091E00C9468098EBD00000DB407FEFDCFEC
:1005B0008EB5089508950E94A6048CB58C7F8CBDDD
:1005C0008DB581608DBD8CB58F7D8CBD8CB5837FE5
:1005D0008CBD0895CF93DF93EC0161E08A810E9486
:1005E000160D61E08B810E94160D4A8150E0FA01E0
:1005F000EE55FF4FE491F0E0EE0FFF1FEA54FF4F7E
:10060000A591B491BD87AC872B8130E0F901EE55FF
:10061000FF4F849190E0880F991F8A549F4FFC01EF
:10062000859194919F878E87FA01E257FF4F4491FD
:100630004A87F901E257FF4F24912B878C919A85C5
:10064000909589238C93EE85FF8590818B8580958D
:1006500089238083DF91CF910895FC0122812F3F70
:1006600011F40C94DB020C94EA02CF93DF93EC01BB
:1006700060E08A810E94160D60E08B81DF91CF914E
:100680000C94160DCF93DF93EC018D819E81009722
:1006900011F00E947B128A818F3F21F4DF91CF916C
:1006A0000C94DC04CE01DF91CF910C943503FC0156
:1006B00099E09150D9F0A485B58582852C9167FF8A
:1006C00003C0282B2C9303C0809582238C93A6858E
:1006D000B7858C912385822B8C93A685B7852C9129
:1006E0008385809582238C93660FE3CF0895BF9214
:1006F000CF92DF92EF92FF920F931F93CF93DF93EE
:10070000EC01ED80FE80E114F10409F488C0088159
:100710001981BC808A818F3F09F041C080E00E942E
:10072000D30280E00E94D30280E00E94D3021EBC6C
:100730003FEF0DB407FEFDCF3EBDF70123E08C81F6
:10074000882331F080818B9DC0011124892F01C045
:1007500080810DB407FEFDCF8EBD21503196211151
:10076000EECF83E0E80EF11C0150110911F70DB432
:1007700007FEFDCF8FEF0E94D3028FEF0E94D302BE
:100780008FEF0E94D3028FEFDF91CF911F910F91D6
:10079000FF90EF90DF90CF90BF900C94D30274E065
:1007A000D72E60E0CE010E945703DA94D1F78C81F6
:1007B000882331F16FEFCE010E9457036701E3E018
:1007C000CE0ED11CF70181917F018B9DC0011124B8
:1007D000692FCE010E945703EC14FD0499F70150D4
:1007E000110941F714E015C0F70161917F01CE01B5
:1007F0000E945703EC14FD04B9F70150110991F35D
:100800006FEFCE010E9457036701F3E0CF0ED11CBA
:10081000EBCF6FEFCE010E9457031150D1F7DF915C
:10082000CF911F910F91FF90EF90DF90CF90BF90ED
:100830000895FC013781208580819181AC013213BC
:1008400007C04D5F5F4F569547955695479502C037
:10085000440F551F480F591F60E070E08581968155
:100860000C9428130F931F93CF93DF93EC018B010C
:100870008D819E81009711F00E947B129F81888557
:10088000981307C0C8010396969587959695879506
:1008900003C0C801880F991F800F911F0E94E311A8
:1008A0009E838D83892B49F019830883CE01DF91C4
:1008B000CF911F910F910C94190419821882DF9126
:1008C000CF911F910F9108950F931F93FC014283C5
:1008D0002383148216821582802F8370878310E011
:1008E000C80195958795959587958370808734E0A5
:1008F000159507953A95E1F703700187CF011F9190
:100900000F910C943204FC01808191816817790762
:10091000C0F4DB01AA0FBB1FA60FB71F858196810C
:100920008A0F9B1F5781DC01A50FB11D4C93408599
:10093000DC01A40FB11D3C933185FC01E30FF11DD7
:10094000208308956F5FFC0164830895CF93CFB730
:10095000F89480910C02811127C0ECEAF0E08491B8
:10096000E8E9F0E09491E82FF0E0EE0FFF1FE0548B
:10097000FF4FA591B4918C91892321F461E08AE025
:100980000E944F0D61E08AE00E94160D8CB58061D7
:100990008CBD8CB580648CBD61E08DE00E94160D2D
:1009A00061E08BE00E94160D80910C028F5F8093B6
:1009B0000C02CFBFCF9108959FB7F89480910C029D
:1009C000882319F0815080930C0280910C028111D0
:1009D00005C08CB58F7B8CBD10920B029FBF089514
:1009E000FB01BA010097B1F1EF2BA1F129303105DC
:1009F00060F5F901EC5CFF4F0C94A7112FEF3FEF6E
:100A00004FEF50E025C020E030E04FEF50E020C035
:100A100020E03FEF40E050E01BC02FEF30E040E02F
:100A200050E016C020E03FEF4FEF50E011C02FEF35
:100A30003FEF40E050E00CC02FEF30E0A90108C0CC
:100A400020E035EA4FEF50E003C020E030E0A9019C
:100A50000C9483040895CF92DF92EF92FF920F934C
:100A60001F93CF93DF937C016B01009761F16115B8
:100A7000710549F182E1849F8001859F100D112449
:100A8000060F171FF80182819381892BE1F0C0E0E6
:100A9000D0E0F801818190E0C817D9074CF420E03C
:100AA00030E0AE01B601C7010E94F0042196F1CFFB
:100AB000C701DF91CF911F910F91FF90EF90DF90D1
:100AC000CF900C947703DF91CF911F910F91FF90FE
:100AD000EF90DF90CF900895FB0162E1649F900159
:100AE000659F300D1124E20FF31F3585332349F044
:100AF0002485230F27FD02C0248703C01486319567
:100B0000358764850C94A204CF92DF92FF920F93F5
:100B10001F93CF93DF9300D000D01F92CDB7DEB7E5
:100B20006C01CE01019625E0DC011D922A95E9F7C2
:100B30009B01BC014FEF5FEFF60101900020E9F748
:100B40003197EC19FD092E173F0718F58601020FA2
:100B5000131FD801FC90BCE2FB1204C089010F5F97
:100B60001F4F0CC08F01015011092017310749F4A4
:100B7000DE01A40FB51F1296FC928F010E940A138A
:100B80000CC04F5F5F4FFB01F192BF012F5F3F4FE2
:100B9000D3CF0FEF1FEF8FEF9FEF10931002009353
:100BA0000F0290930E0280930D020F900F900F9002
:100BB0000F900F90DF91CF911F910F91FF90DF90D9
:100BC000CF900895AF92BF92CF92DF92EF92FF92B3
:100BD0000F931F93CF93DF937C016B015901009713
:100BE000E9F161157105D1F182E1849FE001859FF2
:100BF000D00D1124C60FD71F8A819B81892B71F1DB
:100C00001092100210920F0200E010E0898190E033
:100C100008171907B4F460910F02709110028A81CD
:100C20009B810E94840520910D0230910E02A80143
:100C30004A0D5B1DB601C7010E94F0040F5F1F4FF4
:100C4000E5CFC701DF91CF911F910F91FF90EF90FA
:100C5000DF90CF90BF90AF900C947703DF91CF914E
:100C60001F910F91FF90EF90DF90CF90BF90AF90CA
:100C700008952F923F924F925F926F927F928F9240
:100C80009F92AF92BF92CF92DF92EF92FF920F931B
:100C90001F93CF93DF9300D000D000D0CDB7DEB745
:100CA0003C012B01F9012B8C3C8C8D8D9E8D9A8300
:100CB0008983AF8DB8A1BE83AD8389A19AA19C839E
:100CC0008B836114710409F48DC16115710509F4F8
:100CD00089C18081918197FF44C00196918380836F
:100CE0000023F1F08FEF9FEFD7018D939C93D601F6
:100CF0001D921C9281E090E0D5018D939C9382E03F
:100D000090E0D4018D939C9383E090E0D1018D938A
:100D10009C9384E090E0A981BA818D939C9324C038
:100D20001092100210920F0282E1849F9001859F21
:100D3000300D1124260F371F6D817E8180E090E0F9
:100D4000D90111960C9110E0801791070CF0CFC0DB
:100D50008C0101501109DB010D931D93BD0101961A
:100D6000EFCF002309F4C3C082E1849F8001859FF7
:100D7000100D1124040D151DD80111968C9190E0D1
:100D8000D7012D913C91281739072CF08081918152
:100D9000019691838083D8011B968C9190E02081ED
:100DA0003181821793070CF402C1F70160817181D0
:100DB000CB0101969183808320E030E0A901C3013B
:100DC0000E948304D6016D917C911197CB0101960D
:100DD0008D939C9320E030E04FEF50E0C3010E94E0
:100DE0008304F50160817181CB0101969183808339
:100DF00020E035EA4FEF50E0C3010E948304D401A4
:100E00006D917C911197CB0101968D939C9320E07D
:100E10003FEF4FEF50E0C3010E948304F101608176
:100E20007181CB0101969183808320E03FEF40E008
:100E300050E0C3010E948304A981BA816D917C9125
:100E40001197CB0101968D939C932FEF30E040E0FA
:100E500050E0C3010E948304F801818190E0D70132
:100E60002D913C9111972817390714F01D921C926F
:100E7000F801818190E0D6012D913C9111972817BE
:100E8000390714F01D921C92F801818190E0D50180
:100E90002D913C9111972817390714F01D921C923F
:100EA000F801818190E0D4012D913C911197281790
:100EB000390714F01D921C92F801818190E0D10154
:100EC0002D913C9111972817390714F01D921C920F
:100ED000F801818190E0A981BA812D913C9111970F
:100EE000281739070CF463C01D921C9260C082E180
:100EF000849F8001859F100D1124040D151DD801BC
:100F000011968C9190E0AD81BE812D913C91281776
:100F100039072CF080819181019691838083D801DB
:100F20001B968C9190E02081318182179307CCF140
:100F30001092100210920F02ED80FE80C12CD12C75
:100F4000F801818190E0C816D9068CF55701F701A8
:100F500080819181019691838083D80111962C9193
:100F600030E08217930714F01182108260910F0213
:100F700070911002F801828193810E948405F2E051
:100F8000EF0EF11C20910D0230910E02D5014D9112
:100F90005C91B201C3010E94F004BFEFCB1ADB0ADF
:100FA000CFCF2B813C81B201C3010E942B05C3012D
:100FB00026960FB6F894DEBF0FBECDBFDF91CF915E
:100FC0001F910F91FF90EF90DF90CF90BF90AF9067
:100FD0009F908F907F906F905F904F903F902F9059
:100FE0000C94770326960FB6F894DEBF0FBECDBFE4
:100FF000DF91CF911F910F91FF90EF90DF90CF90F5
:10100000BF90AF909F908F907F906F905F904F9028
:101010003F902F900895AF92BF92CF92DF92EF92C0
:10102000FF920F931F93CF93DF936C018B017A0193
:101030006115710539F11092100210920F02AA2465
:10104000AA94BB24BA94C0E0D0E0CE15DF05B9F075
:1010500060910F0270911002C8010E948405809176
:101060000D0290910E02892B41F066EC71E0C601F1
:101070000E942F13892B21F05E012196E6CFE50116
:10108000CE0102C08FEF9FEFDF91CF911F910F91A3
:10109000FF90EF90DF90CF90BF90AF9008952F9288
:1010A0003F924F925F926F927F928F929F92AF92F8
:1010B000BF92CF92DF92EF92FF920F931F93CF9345
:1010C000DF9300D0CDB7DEB71C013B015A834983C3
:1010D0002901F8010B8D1C8D009709F4D9C0611509
:1010E000710509F4D5C0D9018C918823A1F120E0C4
:1010F00030E0C1010E94E205F201108282E1298103
:101100003A81829F2001839F500C1124460C571C6A
:10111000D2011A968C9190E0F40191838083D701DB
:101120001D921C92F201418150E0628173818BEC2F
:1011300091E00E940B08D5018D939C93F2014181AF
:1011400050E06281738186EC91E00E940B08D60129
:101150008D939C939DC0D4018D919C91892B09F412
:1011600080C02081D7018D919C911197222309F491
:101170003FC001968D939C93D5018D919C911197C1
:1011800001968D939C93D6018D919C911197019618
:101190008D939C9382E129813A81829FD001839F24
:1011A000B00D1124A60FB71F11968C9190E0D501B8
:1011B0002D913C91281739070CF44AC01082F40194
:1011C00080819181019691838083D7018D919C913B
:1011D000119701978D939C93F501808191810197DF
:1011E00091838083D6018D919C91119701972EC098
:1011F0000197D7018D939C93D5018D919C91119767
:1012000001978D939C93D6018D919C911197019795
:101210008D939C9397FF1CC081E08083F4018081B3
:101220009181019691838083D7018D919C91119733
:1012300001968D939C93F501808191810196918314
:101240008083D6018D919C91119701968D939C93EB
:10125000F7012081318149815A81B301C1010E9486
:10126000E205C1010F900F90DF91CF911F910F9177
:10127000FF90EF90DF90CF90BF90AF909F908F90B6
:101280007F906F905F904F903F902F900C947703DA
:101290000F900F90DF91CF911F910F91FF90EF90E2
:1012A000DF90CF90BF90AF909F908F907F906F9086
:1012B0005F904F903F902F900895FC011182108213
:1012C0001282148213821186128613861486089560
:1012D000FC011482138208950F931F93FC01118265
:1012E00010827483638315821682178210860FEF33
:1012F0001FEF9801018712872387348742831F914C
:101300000F910895EF92FF920F931F93CF93DF9366
:10131000EC010D811E812F813885040F151F261FBA
:10132000371F0D831E832F833887E12CF12C00E0BB
:1013300010E08A81992787FD90950817190784F492
:101340004D815E816F8178858B819C818E0D9F1D83
:101350000E94A60A0F5F1F4F81E4E80EF11CE9CF3F
:10136000DF91CF911F910F91FF90EF9008950F9310
:101370001F93FC0101851285238534850F3F1F4F84
:101380002F4F3F4F21F441875287638774878185B0
:1013900092859A01281B390BC901418752876387BF
:1013A00074871F910F910895FC01838194810895A2
:1013B000FC01118A108A0C9442038F929F92AF9283
:1013C000BF92CF92DF92EF92FF920F93CF93DF9372
:1013D000CDB7DEB762970FB6F894DEBF0FBECDBFB4
:1013E0005C014B012A8B498B0E94DA02F501118ABC
:1013F000108A128A81E0838B848B158A168A178A59
:10140000108E8FEF9FEFDC01818F928FA38FB48FAF
:10141000158E168E178E10A292A381A394A383A378
:1014200096A385A310A617A281E090E092A781A7BA
:1014300082E090E094A783A783E090E096A785A739
:1014400064E070E070AB67A712AA11AA94AB83ABFB
:1014500016AA15AA10AE17AA12AE11AE14AE13AE8C
:1014600016AE15AE62E070E084E690E00E94C7110F
:10147000F501FF969183808306E02A894989B401AA
:10148000CE0101960E94640480E1FE013196D501EF
:1014900001900D928A95E1F7CE0101960E944203D8
:1014A000F501F18AE08AD0AEC7AA62960FB6F89429
:1014B000DEBF0FBECDBFDF91CF910F91FF90EF90B8
:1014C000DF90CF90BF90AF909F908F900895089538
:1014D000FC0187A990AD0895FC01158A168A178A28
:1014E000108E4FEF5FEFBA01418F528F638F748F71
:1014F000158E168E178E10A2128A81E0838B848B34
:1015000012AE11AE14AE13AE8FEF9FEF92A381A374
:1015100094A383A396A385A310A617A281E090E0CD
:1015200092A781A782E090E094A783A783E090E050
:1015300096A785A784E090E090AB87A712AA11AA8E
:1015400014AA13AA16AE15AE81E008954F925F92C9
:101550006F927F928F929F92AF92BF92CF92DF92C3
:10156000EF92FF920F931F93CF93DF93EC018D8D3A
:101570009E8DAF8DB8A1481B590B6A0B7B0B4D8B11
:101580005E8B6F8B788F8AE192E00E94BF0F4DA92E
:101590005EA9EFA9F8AD4E175F0788F08A8981111F
:1015A0007AC1688979899E0140E050E0CE010E94AD
:1015B0002B05CE010E946C0A81E08A8B6CC11A8ACD
:1015C0006889798982E1849FD001859FB00D1124BB
:1015D000A60FB71F18960D911C91199720E030E0C7
:1015E0008D899E89AF89B88D081719072A073B078F
:1015F00038F58D8D9E8DAF8DB8A1800F911FA21FE4
:10160000B31F8D8F9E8FAF8FB8A34F5F5F4F5EABC1
:101610004DAB1D8A1E8A1F8A188E8FEF9FEFDC014B
:10162000898F9A8FAB8FBC8F4E175F0718F4CE014E
:101630000E946C058FEF9FEF9AA389A381E08B8BAB
:101640006D897E898F89988D0E94F71020E030E0A7
:1016500040E251E40E9463100E94CB109B01AC0158
:10166000AAE0B0E00E94AD116B017C01898D9A8DDA
:10167000AB8DBC8D8F3F2FEF9207A207B20799F475
:1016800081E08A8BC98EDA8EEB8EFC8E4DA95EA925
:101690008FA998AD4817590788F468897989CE01D0
:1016A0000E946C050BC0C816D906EA06FB0631F08D
:1016B00081E08A8BC98EDA8EEB8EFC8ECD8ADE8A33
:1016C000EF8AF88E088919896DA87EA882E1869D27
:1016D000F001879DF00D1124E00FF11F858588230F
:1016E000A1F02685378540895189C701B6010E943E
:1016F0008511672B682B692B41F48A89882329F08F
:10170000A301B801CE010E946C05688879884DA8B4
:101710005EA882E1849D8001859D100D1124060D37
:10172000171DF8012481358146815781C701B60113
:101730000E948511672B682B692B09F0ACC08A8940
:10174000882309F4A8C0F8018081823009F472C0AE
:1017500098F5882309F467C0813009F09BC0DF93B6
:10176000CF931F921F92CE018F969F938F930297D4
:101770009F938F934E018BE2880E911C5E0199E23C
:10178000A90EB11C6E01E7E2CE0ED11C7E01F5E27E
:10179000EF0EF11C01E09E012F5D3F4FA201B3014E
:1017A000CE010E9439068DB79EB708960FB6F89401
:1017B0009EBF0FBE8DBF6EC0833009F444C084301D
:1017C00009F068C0DF93CF93FE01FF9681818F936C
:1017D00080818F93CE018F969F938F9302979F93D3
:1017E0008F934E012BE2820E911C5E0189E2A80EBE
:1017F000B11C6E0197E2C90ED11C7E01E5E2EE0E2E
:10180000F11C00E09E012F5D3F4FA201B301CE010C
:101810000E9439068DB79EB708960FB6F8949EBF02
:101820000FBE8DBF37C09E01A201B301CE010E9441
:101830002B0530C08E0120E030E0A201B301CE01C3
:101840000E94E20527C0DF93CF931F921F921F9241
:101850001F924E01FDE38F0E911C5E0123E3A20E49
:10186000B11C6E0181E3C80ED11C7E0191E2E90E2C
:10187000F11C8E010C5E1F4F9E012D5E3F4FA20199
:10188000B301CE010E944F080F900F900F900F9060
:101890000F900F901A8ADF91CF911F910F91FF90B7
:1018A000EF90DF90CF90BF90AF909F908F907F9000
:1018B0006F905F904F9008951F920F920FB60F9206
:1018C00011242F933F938F939F93AF93BF93809156
:1018D000120290911302A0911402B091150230915E
:1018E000110223E0230F2D3720F40196A11DB11D15
:1018F00005C026E8230F0296A11DB11D20931102F9
:101900008093120290931302A0931402B0931502D5
:101910008091160290911702A0911802B0911902BD
:101920000196A11DB11D8093160290931702A093FA
:101930001802B0931902BF91AF919F918F913F917F
:101940002F910F900FBE0F901F9018952FB7F894FE
:10195000609112027091130280911402909115020D
:101960002FBF0895789484B5826084BD84B581606A
:1019700084BD85B5826085BD85B5816085BDEEE697
:10198000F0E0808181608083E1E8F0E01082808176
:1019900082608083808181608083E0E8F0E08081E4
:1019A00081608083E1EBF0E0808184608083E0EB04
:1019B000F0E0808181608083EAE7F0E080818460EC
:1019C0008083808182608083808181608083808148
:1019D000806880831092C1000895833081F028F4DC
:1019E000813099F08230A1F008958730A9F08830D5
:1019F000B9F08430D1F4809180008F7D03C0809154
:101A000080008F7780938000089584B58F7702C01F
:101A100084B58F7D84BD08958091B0008F7703C019
:101A20008091B0008F7D8093B0000895CF93DF93B5
:101A300090E0FC01E257FF4F2491FC01EE55FF4F6F
:101A40008491882349F190E0880F991FFC01E054AC
:101A5000FF4FA591B4918A549F4FFC01C591D49139
:101A60009FB7611108C0F8948C91209582238C93C4
:101A7000888182230AC0623051F4F8948C91322F0D
:101A8000309583238C938881822B888304C0F894BB
:101A90008C91822B8C939FBFDF91CF9108950F93F0
:101AA0001F93CF93DF931F92CDB7DEB7282F30E07F
:101AB000F901E658FF4F8491F901E257FF4F149165
:101AC000F901EE55FF4F04910023C9F0882321F05E
:101AD00069830E94ED0C6981E02FF0E0EE0FFF1F9B
:101AE000EA54FF4FA591B4919FB7F8948C9161117E
:101AF00003C01095812301C0812B8C939FBF0F9051
:101B0000DF91CF911F910F910895FC01818D228D5E
:101B100090E0805C9F4F821B91098F7399270895F5
:101B2000FC01918D828D981731F0828DE80FF11DA7
:101B3000858D90E008958FEF9FEF0895FC01918DC2
:101B4000828D981761F0828DDF01A80FB11D5D961F
:101B50008C91928D9F5F9F73928F90E008958FEF8D
:101B60009FEF089582E29FE0892B49F080E090E0AA
:101B7000892B29F00E94220F81110C9400000895F6
:101B8000FC01848DDF01A80FB11DA35ABF4F2C911A
:101B9000848D90E001968F739927848FA689B789E9
:101BA0002C93A089B1898C9180648C93938D848DC2
:101BB000981306C00288F389E02D80818F7D808391
:101BC0000895CF93DF93EC01888D8823C9F0EA89CB
:101BD000FB89808185FD05C0A889B9898C9186FD26
:101BE0000FC00FB607FCF5CF808185FFF2CFA88923
:101BF000B9898C9185FFEDCFCE010E94C00DE7CF52
:101C0000DF91CF910895CF92DF92FF920F931F93B0
:101C1000CF93DF931F92CDB7DEB76C0181E0D60181
:101C200058968C9358975B969C915B975C968C9199
:101C30005C97981307C05096ED91FC915197808165
:101C400085FD2EC0F601038D10E00F5F1F4F0F734F
:101C50001127F02EF601848DF81211C00FB607FC83
:101C6000F9CFD6015096ED91FC915197808185FF77
:101C7000F1CFC60169830E94C00D6981EBCF838DCE
:101C8000E80FF11DE35AFF4F6083D6015B960C937A
:101C90005B975296ED91FC915397808180620CC0C6
:101CA000D6015696ED91FC91579760835096ED9131
:101CB000FC91519780818064808381E090E00F9057
:101CC000DF91CF911F910F91FF90DF90CF900895FA
:101CD000BF92CF92DF92EF92FF92CF93DF93EC010E
:101CE0006A017B01B22EE889F98982E0808341157F
:101CF00081EE580761057105A1F060E079E08DE3A0
:101D000090E0A70196010E948511215031094109F7
:101D100051095695479537952795211580E1380744
:101D200098F0E889F989108260E874E88EE190E023
:101D3000A70196010E9485112150310941095109DD
:101D40005695479537952795EC85FD853083EE852B
:101D5000FF852083188EEC89FD89B082EA89FB8992
:101D6000808180618083EA89FB89808188608083AB
:101D7000EA89FB89808180688083EA89FB89808188
:101D80008F7D8083DF91CF91FF90EF90DF90CF9098
:101D9000BF9008951F920F920FB60F9211242F93A8
:101DA0008F939F93EF93FF93E0912A02F0912B0280
:101DB0008081E0913002F091310282FD12C0908169
:101DC000809133028F5F8F7320913402821751F01C
:101DD000E0913302F0E0E65EFD4F958F8093330291
:101DE00001C08081FF91EF919F918F912F910F9072
:101DF0000FBE0F901F9018951F920F920FB60F9263
:101E000011242F933F934F935F936F937F938F93FF
:101E10009F93AF93BF93EF93FF938AE192E00E9469
:101E2000C00DFF91EF91BF91AF919F918F917F91E5
:101E30006F915F914F913F912F910F900FBE0F9037
:101E40001F9018958AE192E00E94850D21E0892B70
:101E500009F420E0822F089510921D0210921C02B6
:101E600088EE93E0A0E0B0E080931E0290931F0202
:101E7000A0932002B093210284ED91E090931B0285
:101E800080931A0285EC90E09093270280932602BB
:101E900084EC90E0909329028093280280EC90E0FB
:101EA00090932B0280932A0281EC90E090932D0274
:101EB00080932C0282EC90E090932F0280932E026C
:101EC00086EC90E0909331028093300210923302BE
:101ED000109234021092350210923602089508953D
:101EE0000E94B20C0E946F0F0E949200C2EBDDE0D4
:101EF0000E9458022097E1F30E94B20DF9CFCF92D1
:101F0000DF92EF92FF920F931F93CF93DF937C01A9
:101F10006A01EB0100E010E00C151D0571F06991FC
:101F2000D701ED91FC910190F081E02DC701099559
:101F3000892B19F00F5F1F4FEFCFC801DF91CF91B1
:101F40001F910F91FF90EF90DF90CF900895611552
:101F5000710581F0DB010D900020E9F7AD014150E2
:101F60005109461B570BDC01ED91FC910280F38176
:101F7000E02D099480E090E008950C94A70F60EEA6
:101F800071E00C94A70F0F931F93CF93DF93EC0195
:101F90000E94A70F8C01CE010E94BF0F800F911FDE
:101FA000DF91CF911F910F9108958F929F92AF92E1
:101FB000BF92CF92DF92EF92FF920F931F93CF9336
:101FC000DF93CDB7DEB7A1970FB6F894DEBF0FBE93
:101FD000CDBF7C01C42EE52FCB01D22E19A221E06A
:101FE0002D1510F02AE0D22E8E010F5D1F4F8D2C83
:101FF000912CA12CB12C6C2D7E2FA50194010E9457
:1020000085118C2DD29E80191124015011098A301E
:1020100014F4805D01C0895CF801808321153105CD
:102020004105510521F0C22EE32FCA01E4CFB801CA
:10203000C7010E94A70FA1960FB6F894DEBF0FBE8E
:10204000CDBFDF91CF911F910F91FF90EF90DF9067
:10205000CF90BF90AF909F908F900895211531053C
:1020600041F4DC01ED91FC910190F081E02D642FB1
:1020700009940C94D50F0F931F93CF93DF93EC012A
:102080009A01AB0160E070E00E942E108C01CE013D
:102090000E94BF0F800F911FDF91CF911F910F9171
:1020A00008950F931F93CF93DF93EC010E942E109E
:1020B0008C01CE010E94BF0F800F911FDF91CF9145
:1020C0001F910F9108950CD0E6C0DED040F0D5D01E
:1020D00030F021F45F3F19F0C7C0511110C1CAC0E0
:1020E000EBD098F39923C9F35523B1F3951B550B06
:1020F000BB27AA2762177307840738F09F5F5F4FDB
:10210000220F331F441FAA1FA9F333D00E2E3AF01B
:10211000E0E830D091505040E695001CCAF729D035
:10212000FE2F27D0660F771F881FBB1F2617370784
:102130004807AB07B0E809F0BB0B802DBF01FF27B4
:1021400093585F4F2AF09E3F510568F08DC0D7C06D
:102150005F3FECF3983EDCF3869577956795B795EE
:10216000F7959F5FC9F7880F911D9695879597F909
:102170000895E1E0660F771F881FBB1F6217730782
:102180008407BA0720F0621B730B840BBA0BEE1F97
:1021900088F7E095089598D088F09F5790F0B92F70
:1021A0009927B751A0F0D1F0660F771F881F991FAC
:1021B0001AF0BA95C9F712C0B13081F09FD0B1E0E2
:1021C00008959CC0672F782F8827B85F39F0B93FF2
:1021D000CCF3869577956795B395D9F73EF49095AE
:1021E0008095709561957F4F8F4F9F4F0895E8942C
:1021F00009C097FB3EF490958095709561957F4F4F
:102200008F4F9F4F9923A9F0F92F96E9BB279395FC
:10221000F695879577956795B795F111F8CFFAF40C
:10222000BB0F11F460FF1BC06F5F7F4F8F4F9F4F3D
:1022300016C0882311F096E911C0772321F09EE89B
:10224000872F762F05C0662371F096E8862F70E001
:1022500060E02AF09A95660F771F881FDAF7880FDB
:102260009695879597F9089597F99F6780E870E0AC
:1022700060E008959FEF80EC089500240A941616FC
:10228000170618060906089500240A941216130664
:10229000140605060895092E0394000C11F48823F2
:1022A00052F0BB0F40F4BF2B11F460FF04C06F5F0E
:1022B0007F4F8F4F9F4F089557FD9058440F551FE4
:1022C00059F05F3F71F04795880F97FB991F61F0B8
:1022D0009F3F79F087950895121613061406551F2F
:1022E000F2CF4695F1DF08C0161617061806991F9B
:1022F000F1CF86957105610508940895E894BB2790
:1023000066277727CB0197F90895A1E21A2EAA1B19
:10231000BB1BFD010DC0AA1FBB1FEE1FFF1FA21795
:10232000B307E407F50720F0A21BB30BE40BF50B92
:10233000661F771F881F991F1A9469F7609570951B
:10234000809590959B01AC01BD01CF010895EE0FE2
:10235000FF1F0590F491E02D09940E94B811A59FEC
:10236000900DB49F900DA49F800D911D1124089590
:10237000A29FB001B39FC001A39F700D811D1124C6
:10238000911DB29F700D811D1124911D08950F9311
:102390001F93CF93DF93869F8001879F100D969F99
:1023A000100D1124C8010E94E311EC01009729F0DF
:1023B000A80160E070E00E942813CE01DF91CF9168
:1023C0001F910F910895CF93DF938230910510F400
:1023D00082E090E0E091B902F091BA0220E030E0B2
:1023E000A0E0B0E0309739F140815181481759079A
:1023F000B8F04817590771F482819381109729F03A
:1024000013969C938E9312972CC09093BA0280934C
:10241000B90227C02115310531F04217530718F0D2
:10242000A901DB0101C0EF019A01BD01DF010280BA
:10243000F381E02DD7CF21153105F9F0281B390B99
:102440002430310580F48A819B816115710521F06A
:10245000FB019383828304C09093BA028093B902F4
:10246000FE01329644C0FE01E20FF31F8193919367
:1024700022503109398328833AC02091B702309124
:10248000B802232B41F420910201309103013093D3
:10249000B8022093B702209100013091010121156B
:1024A000310541F42DB73EB740910401509105012B
:1024B000241B350BE091B702F091B802E217F30745
:1024C000A0F42E1B3F0B2817390778F0AC014E5FA4
:1024D0005F4F2417350748F04E0F5F1F5093B80227
:1024E0004093B7028193919302C0E0E0F0E0CF0106
:1024F000DF91CF910895CF93DF93009709F487C0C0
:10250000FC01329713821282C091B902D091BA02B3
:10251000209781F420813181280F391F8091B702E3
:102520009091B8028217930779F5F093B802E0937F
:10253000B7026DC0DE0120E030E0AE17BF0750F4F7
:1025400012964D915C9113979D014115510509F12A
:10255000DA01F3CFB383A28340815181840F951FA9
:102560008A179B0771F48D919C911197840F951F89
:1025700002969183808312968D919C9113979383F9
:1025800082832115310529F4F093BA02E093B90250
:102590003EC0D9011396FC93EE9312974D915D9135
:1025A000A40FB51FEA17FB0779F480819181840F8E
:1025B000951F0296D90111969C938E9382819381E7
:1025C00013969C938E931297E0E0F0E08A819B81B2
:1025D000009719F0FE01EC01F9CFCE010296288197
:1025E0003981820F931F2091B7023091B8022817CA
:1025F000390769F4309729F41092BA021092B9029F
:1026000002C013821282D093B802C093B702DF9146
:10261000CF910895FC0188279927E89421912032D1
:10262000E9F3293010F02E30C8F32B3241F02D326F
:1026300039F4689404C00E943813820F911D2191CF
:1026400020532A30C0F31EF4909581959F4F089532
:10265000DC0101C06D9341505040E0F70895FB014B
:10266000DC018D91019080190110D9F3990B089527
:102670007AE0979F902D879F802D910D11240895CA
:1026800010E0CEECD0E004C0FE010E94A911229619
:0A269000C03DD107C9F7F894FFCF51
:10269A000000BB0280000500780003050243617058
:1026AA00747572696E672073657269616C206F75E3
:1026BA0074707574206F6E2050726F5472696E6BED
:1026CA00657400302C302C302C302C302000302C0B
:1026DA00312C322C302C322C312C302000302C343E
:1026EA002C302C342C302000302C302C312C322C35
:1026FA00302000352C342C332C322C312000302C55
:10270A00322C332C322C302000302C332C332C3208
:10271A002C30200053747269702032206465746111
:10272A00696C73202D20746865206E756D62657200
:10273A00206F662073657175656E636573206172BB
:10274A00652000456C61707365642074696D65204D
:10275A006973203A20005441494C004845414400DD
:10276A0000000000030E7F0F850D9E0D900DE10DF8
:10277A000D0A006E616E00696E66006F7666002E45
:02278A0000004D
:00000001FF
