:100000000C9468000C9490000C9490000C94900058
:100010000C9490000C9490000C9490000C94900020
:100020000C9490000C9490000C9490000C94900010
:100030000C9490000C9490000C9490000C94900000
:100040000C943D0D0C9490000C94F60F0C94281019
:100050000C9490000C9490000C9490000C949000E0
:100060000C9490000C949000F204CB04D004D504BE
:10007000DA04DF04E404E904ED04000000080002EF
:10008000010000030407000000000000000001025E
:100090000408102040800102040810200102040816
:1000A00010200404040404040404020202020202F4
:1000B00003030303030300000000250028002B00B6
:1000C00000000000240027002A00C8015810DA01AF
:1000D00011241FBECFEFD8E0DEBFCDBF12E0A0E0FD
:1000E000B1E0E4EBF9E202C005900D92AE34B10745
:1000F000D9F723E0AEE4B2E001C01D92AA34B20702
:10010000E1F710E0CEECD0E004C02297FE010E949F
:100110003613CA3CD107C9F70E949C100C94CD1429
:100120000C940000AF92BF92CF92DF92EF92FF92B9
:100130000F93CF93DF93CDB7DEB7C154D1090FB67C
:10014000F894DEBF0FBECDBF40ED57E060E070E039
:1001500085E692E00E94220420E032EC41E050E08B
:1001600069EA72E085E692E00E94350485E692E055
:100170000E941F046AE071E08091960290919702BC
:100180000E94E9106AE070E080E090E00E94B60D05
:1001900041E060E085E692E00E94A00426E040E0B5
:1001A00052EC61E070E089EA92E00E94940F6CE109
:1001B00071E089EA92E00E94F6108091090161E401
:1001C00070E0992787FD90950E9454135C019093ED
:1001D000620280936102C0900801DD24C7FCD094C4
:1001E0006CE070E0C6010E945413FC0130910601DE
:1001F000A0910701108231838BE491E09383828385
:1002000048EE53E060E070E0448355836683778373
:1002100088EE93E0918780871286138684E0848736
:10022000358782E491E09787868748EC50E060E06C
:1002300070E0408B518B628B738B88EF9AE2958BC9
:10024000848B168A22E0278BB1E0B08F318F8DE44A
:1002500091E0938F828F448F558F668F778F88E5DB
:100260009BE191A380A3B2A323A37F0106E026E034
:1002700048E0632F7A2FCE0101960E94630A81E441
:10028000FE013196D50101900D928A95E1F7CE01DC
:1002900001960E945E0A80916102909162020E9422
:1002A000FA0A0E94380280916102909162020E94D3
:1002B000FA0A0E948202609161027091620240918A
:1002C0000901CE0101960E94F0098DE0FE013196F0
:1002D000A4E5B2E001900D928A95E1F7CE01019676
:1002E0000E94EC0980914E0290914F02909355022A
:1002F00080935402CF5BDF4F0FB6F894DEBF0FBE82
:10030000CDBFDF91CF910F91FF90EF90DF90CF9015
:10031000BF90AF9008950E94870DAB01BC0184E5AA
:1003200092E00E94410AAC0160E070E0409350020C
:1003300050935102609352027093530284E592E00D
:100340000E94060A68E571E089EA92E00E94E910DD
:1003500040915002509151026091520270915302AB
:100360002AE030E089EA92E00E94DD11E091540237
:10037000F091550240815181628173812AE030E021
:1003800089EA92E00E94DD1189EA92E00C94F21071
:1003900084E592E00E94E1098091090164E070E047
:1003A000992787FD90950E94541390934F02809354
:1003B0004E02089584E592E00C94EC098EBD000095
:1003C0000DB407FEFDCF8EB5089508950E94AD03CC
:1003D0008CB58C7F8CBD8DB581608DBD8CB58F7DCE
:1003E0008CBD8CB5837F8CBD0895CF93DF93EC01DA
:1003F00061E08A810E94420E61E08B810E94420E80
:100400004A8150E0FA01EE55FF4FE491F0E0EE0F23
:10041000FF1FEA54FF4FA591B491BD87AC872B8194
:1004200030E0F901EE55FF4F849190E0880F991F5D
:100430008A549F4FFC01859194919F878E87FA0182
:10044000E257FF4F44914A87F901E257FF4F249149
:100450002B878C919A85909589238C93EE85FF85C7
:1004600090818B85809589238083DF91CF9108953A
:10047000FC0122812F3F11F40C94E6010C94F5014C
:10048000CF93DF93EC0160E08A810E94420E60E02E
:100490008B81DF91CF910C94420ECF93DF93EC01CF
:1004A0008D819E81009711F00E9408148A818F3FF0
:1004B00021F4DF91CF910C94E303CE01DF91CF9132
:1004C0000C944002FC0199E09150D9F0A485B585C7
:1004D00082852C9167FF03C0282B2C9303C0809545
:1004E00082238C93A685B7858C912385822B8C9350
:1004F000A685B7852C918385809582238C93660F82
:10050000E3CF0895BF92CF92DF92EF92FF920F93C5
:100510001F93CF93DF93EC01ED80FE80E114F10493
:1005200009F488C008811981BC808A818F3F09F055
:1005300041C080E00E94DE0180E00E94DE0180E098
:100540000E94DE011EBC3FEF0DB407FEFDCF3EBD95
:10055000F70123E08C81882331F080818B9DC001DD
:100560001124892F01C080810DB407FEFDCF8EBDFF
:10057000215031962111EECF83E0E80EF11C01509D
:10058000110911F70DB407FEFDCF8FEF0E94DE01B8
:100590008FEF0E94DE018FEF0E94DE018FEFDF916F
:1005A000CF911F910F91FF90EF90DF90CF90BF9070
:1005B0000C94DE0174E0D72E60E0CE010E9462024E
:1005C000DA94D1F78C81882331F16FEFCE010E944C
:1005D00062026701E3E0CE0ED11CF70181917F0139
:1005E0008B9DC0011124692FCE010E946202EC1480
:1005F000FD0499F70150110941F714E015C0F70106
:1006000061917F01CE010E946202EC14FD04B9F7F2
:100610000150110991F36FEFCE010E946202670150
:10062000F3E0CF0ED11CEBCF6FEFCE010E94620240
:100630001150D1F7DF91CF911F910F91FF90EF9063
:10064000DF90CF90BF900895FC0137812085808195
:100650009181AC01321307C04D5F5F4F56954795AE
:100660005695479502C0440F551F480F591F60E02B
:1006700070E0858196810C94B5140F931F93CF93EE
:10068000DF93EC018B018D819E81009711F00E9418
:1006900008149F818885981307C0C8010396969512
:1006A00087959695879503C0C801880F991F800F7D
:1006B000911F0E9470139E838D83892B49F01983AB
:1006C0000883CE01DF91CF911F910F910C942403E9
:1006D00019821882DF91CF911F910F9108950F9386
:1006E0001F93FC0142832383148216821582802F7C
:1006F0008370878310E0C8019595879595958795B8
:100700008370808734E0159507953A95E1F703707B
:100710000187CF011F910F910C943D03FC01808153
:10072000918168177907C0F4DB01AA0FBB1FA60FE0
:10073000B71F858196818A0F9B1F5781DC01A50F0A
:10074000B11D4C934085DC01A40FB11D3C93318554
:10075000FC01E30FF11D20830895CF93CFB7F894E8
:1007600080916402811127C0ECEAF0E08491E8E90D
:10077000F0E09491E82FF0E0EE0FFF1FE054FF4F00
:10078000A591B4918C91892321F461E08AE00E94C3
:100790007B0E61E08AE00E94420E8CB580618CBDC8
:1007A0008CB580648CBD61E08DE00E94420E61E0FA
:1007B0008BE00E94420E809164028F5F80936402FE
:1007C000CFBFCF9108959FB7F8948091640288239A
:1007D00019F081508093640280916402811105C0F8
:1007E0008CB58F7B8CBD109263029FBF08950F93D1
:1007F0001F93CF93DF93EC01662359F00E94870D7E
:1008000069837A838B839C83DF91CF911F910F91B2
:1008100008950E94870D09811A812B813C81601BFC
:10082000710B820B930B623371058105910530F7D3
:1008300063E070E080E090E00E94B60DEACF60E0F7
:100840000C94F703FC0113AA14AA15AA16AA118284
:10085000128213821482411551056105710521F040
:10086000CB01BA010C94B60D0895FB01BA01A901A0
:10087000DC01D296FC93EE93D19726E0CF010C9445
:10088000940F1F93CF93DF93EC01162F6BE671E06B
:1008900089A99AA90E94E9104AE050E0612F89A92C
:1008A0009AA90E94C01162E771E089A99AA90E94E1
:1008B000E91062E370E080E090E0DF91CF911F915A
:1008C0000C94B60D1F93CF93DF93EC01162F8D81FF
:1008D000882389F189A99AA9DC01ED91FC91048012
:1008E000F581E02D0995892BA9F307C0263731053D
:1008F00019F12835310509F41D8289A99AA9DC016D
:10090000ED91FC910480F581E02D099518161906EA
:1009100094F489A99AA9DC01ED91FC910680F781F4
:10092000E02D09959C01332723363105F9F6612F17
:10093000CE010E94410483E6DF91CF911F9108957B
:100940000F931F93CF93DF931F92CDB7DEB78C0128
:10095000662349F081E0F801858360E0C80149839E
:100960000E9462044981F80145830F90DF91CF9185
:100970001F910F9108950F931F93AB01B901009739
:10098000C1F1452BB1F10930110560F5F801EC5CBE
:10099000FF4F0C9434132FEF3FEF4FEF50E025C083
:1009A00020E030E04FEF50E020C020E03FEF40E09B
:1009B00050E01BC02FEF30E040E050E016C020E0D8
:1009C0003FEF4FEF50E011C02FEF3FEF40E050E01E
:1009D0000CC02FEF30E0A90108C020E035EA4FEF4E
:1009E00050E003C020E030E0A9011F910F910C946A
:1009F0008E031F910F9108958F929F92AF92BF9295
:100A0000CF92DF92EF92FF920F931F93CF93DF93DA
:100A10006C015B014A01009789F16115710571F163
:100A20008CE0849F7001859FF00C1124E60EF71E68
:100A3000F70182819381892B09F1C0E0D0E0F701B1
:100A4000818190E0C817D90754F400E010E09E01BE
:100A5000A401B501C6010E94BB042196F0CFC601D6
:100A6000DF91CF911F910F91FF90EF90DF90CF908A
:100A7000BF90AF909F908F900C948202DF91CF91A6
:100A80001F910F91FF90EF90DF90CF90BF90AF90AC
:100A90009F908F900895CF92DF92FF920F931F93B4
:100AA000CF93DF9300D000D01F92CDB7DEB76C019B
:100AB000CE01019625E0DC011D922A95E9F79B0104
:100AC000BC014FEF5FEFF60101900020E9F731978D
:100AD000EC19FD092E173F0718F58601020F131FA9
:100AE000D801FC90BCE2FB1204C089010F5F1F4FCC
:100AF0000CC08F01015011092017310749F4DE01A4
:100B0000A40FB51F1296FC928F010E9497140CC07F
:100B10004F5F5F4FFB01F192BF012F5F3F4FD3CF7C
:100B20000FEF1FEF8FEF9FEF10939F0200939E0236
:100B300090939D0280939C020F900F900F900F90C6
:100B40000F90DF91CF911F910F91FF90DF90CF9089
:100B500008956F927F928F929F92AF92BF92CF92A1
:100B6000DF92EF92FF920F931F93CF93DF936C016D
:100B70005B014A013901009709F444C06115710510
:100B800009F440C08CE0849FE001859FD00D1124C2
:100B9000C60FD71F8A819B81892BA1F110929F02DA
:100BA00010929E02E12CF12C898190E0E816F90662
:100BB000C4F460919E0270919F028A819B810E9481
:100BC0004B0500919C0210919D029701260D371D47
:100BD000A401B501C6010E94BB048FEFE81AF80A10
:100BE000E3CFC601DF91CF911F910F91FF90EF905E
:100BF000DF90CF90BF90AF909F908F907F906F903D
:100C00000C948202DF91CF911F910F91FF90EF9092
:100C1000DF90CF90BF90AF909F908F907F906F901C
:100C200008952F923F924F925F926F927F928F9290
:100C30009F92AF92BF92CF92DF92EF92FF920F936B
:100C40001F93CF93DF9300D000D000D0CDB7DEB795
:100C50001C013B012A013A832983F8018B8D9C8D6D
:100C60009C838B83AD8DBE8DBE83AD830F8D18A10C
:100C70002114310409F4C8C06115710509F4C4C018
:100C8000D9018C91882319F120E030E0C1010E9444
:100C9000A905E981FA8110828CE0849DF001859D8F
:100CA000F00D1124E60DF71D828590E0D4018D939F
:100CB0009C93F70111821082EB81FC81D501ED93A9
:100CC000FC93ED81FE81D601ED93FC939DC0D40190
:100CD0008D919C91892B09F47CC02081D7018D9145
:100CE0009C9111972223E9F101968D939C93D50154
:100CF0008D919C91119701968D939C93D6018D9126
:100D00009C91119701968D939C938CE0849FD001C8
:100D1000859FB00D1124A60FB71F11968C9190E0FE
:100D2000D5012D913C91281739070CF44AC0108247
:100D3000F40180819181019691838083D7018D9107
:100D40009C91119701978D939C93F50180819181DE
:100D5000019791838083D6018D919C911197019782
:100D60002EC00197D7018D939C93D5018D919C91B5
:100D7000119701978D939C93D6018D919C9111971A
:100D800001978D939C9397FF1CC081E08083F401B1
:100D900080819181019691838083D7018D919C916F
:100DA000119701968D939C93F50180819181019615
:100DB00091838083D6018D919C91119701968D939B
:100DC0009C93F70120813181A201B301C1010E94EE
:100DD000A905C10126960FB6F894DEBF0FBECDBFA0
:100DE000DF91CF911F910F91FF90EF90DF90CF9007
:100DF000BF90AF909F908F907F906F905F904F903B
:100E00003F902F900C94820226960FB6F894DEBF86
:100E10000FBECDBFDF91CF911F910F91FF90EF904B
:100E2000DF90CF90BF90AF909F908F907F906F900A
:100E30005F904F903F902F9008952F923F924F9246
:100E40005F926F927F928F929F92AF92BF92CF925A
:100E5000DF92EF92FF920F931F93CF93DF93CDB763
:100E6000DEB728970FB6F894DEBF0FBECDBF3C01AA
:100E70002B011A018D8D9E8D9A838983EF8DF8A1A8
:100E8000FC83EB8389A19AA19E838D8361147104F5
:100E900009F47EC26115710509F47AC2F9018081F5
:100EA000918197FF8BC001969183808301110DC0C2
:100EB0008CE0849F6001859FD00C1124C60ED71E44
:100EC000AD80BE8000E010E01FC08FEF9FEFF70104
:100ED00091838083F6011182108281E090E0F50118
:100EE0009183808382E090E0F4019183808383E0AA
:100EF00090E0E981FA819183808384E090E0EB8146
:100F0000FC81918380835DC0F601818190E00817A8
:100F100019070CF01DC17501C8010197F5018193F6
:100F200091935F016FEC71E089EA92E02F8338873B
:100F30000E94E9104AE050E0B80189EA92E00E947C
:100F4000AB1163EC71E089EA92E00E94E910F701CD
:100F5000608171814AE050E089EA92E00E94AB1121
:100F600089EA92E00E94F21085E692E00E941F0456
:100F70006CED71E080919602909197020E94E910C9
:100F800064EE71E080919602909197020E94E910C0
:100F900065E070E080E090E00E94B60D6AE070E0ED
:100FA00080E090E00E94B60D61E085E692E00E944C
:100FB00062040F5F1F4F38852F81A6CF002309F4ED
:100FC000C7C08CE0829D8001839D100D1124040D0B
:100FD000151DF801818190E0F7014081518148178A
:100FE000590734F0F90180819181019691838083C2
:100FF000F801838590E0F901208131818217930700
:101000000CF4ABC1F70160817181CB010196918332
:10101000808320E030E0A901C3010E948E03F60125
:1010200060817181CB0101969183808320E030E063
:101030004FEF50E0C3010E948E03F5016081718182
:10104000CB0101969183808320E035EA4FEF50E099
:10105000C3010E948E03F40160817181CB0101966E
:101060009183808320E03FEF4FEF50E0C3010E9467
:101070008E03E981FA8160817181CB0101969183B0
:10108000808320E03FEF40E050E0C3010E948E03E8
:10109000EB81FC8160817181CB010196918380831A
:1010A0002FEF30E040E050E0C3010E948E03F601D4
:1010B000608171816250710920E030E0A901C301B3
:1010C0000E948E03F801818190E0F7012081318137
:1010D0002817390714F011821082F801818190E0FD
:1010E000F601208131812817390714F0118210820E
:1010F000F801818190E0F5012081318128173907BD
:1011000014F011821082F801818190E0F4012081B5
:1011100031812817390714F011821082F80181817A
:1011200090E0E981FA81208131812817390714F094
:1011300011821082F801818190E0EB81FC81208195
:101140003181281739070CF408C11182108205C1BA
:101150008CE0829D7001839DF00C1124E40CF51C41
:10116000F701818190E0ED81FE8140815181481736
:10117000590734F0F9018081918101969183808330
:10118000F701838590E0F90120813181821793076F
:101190000CF4E3C010929F0210929E02CD80DE807C
:1011A000A12CB12CF701818190E0A816B9060CF0B2
:1011B000D4C06FEC71E089EA92E00E94E9104AE045
:1011C00050E0B50189EA92E00E94AB1163EC71E056
:1011D00089EA92E00E94E9104601F601608171817E
:1011E0004AE050E089EA92E00E94AB116DEE71E0B6
:1011F00089EA92E00E94E91060919C0270919D0240
:101200004AE050E089EA92E00E94AB1189EA92E05C
:101210000E94F21085E692E00E941F0463E072E0F3
:1012200080919602909197020E94E91064EE71E01D
:1012300080919602909197020E94E91065E070E01B
:1012400080E090E00E94B60D6AE070E080E090E0FF
:101250000E94B60D63E085E692E00E946204F6010A
:1012600080819181019691838083F701218130E013
:10127000821793071CF0F6011182108260919E0282
:1012800070919F02F701828193810E944B056FEC60
:1012900071E089EA92E00E94E9104AE050E0B5016D
:1012A00089EA92E00E94AB1163EC71E089EA92E076
:1012B0000E94E910F601619171916F014AE050E0DE
:1012C00089EA92E00E94AB116DEE71E089EA92E04A
:1012D0000E94E91060919C0270919D024AE050E0EA
:1012E00089EA92E00E94AB1189EA92E00E94F21032
:1012F00085E692E00E941F046BE072E08091960206
:10130000909197020E94E91064EE71E0809196023C
:10131000909197020E94E91065E070E080E090E013
:101320000E94B60D6AE070E080E090E00E94B60D89
:1013300062E085E692E00E94620400919C021091B6
:101340009D02F40120813181A101B201C3010E94FB
:10135000BB04FFEFAF1ABF0A25CFC30128960FB613
:10136000F894DEBF0FBECDBFDF91CF911F910F91DB
:10137000FF90EF90DF90CF90BF90AF909F908F90B5
:101380007F906F905F904F903F902F900C948202CF
:1013900028960FB6F894DEBF0FBECDBFDF91CF9178
:1013A0001F910F91FF90EF90DF90CF90BF90AF9083
:1013B0009F908F907F906F905F904F903F902F9075
:1013C0000895FC0111821082128214821382118608
:1013D0001286138614860895FC01148213820895E0
:1013E0000F931F93FC011182108274836383158213
:1013F0001682178210860FEF1FEF98010187128760
:101400002387348742831F910F910895EF92FF92B3
:101410000F931F93CF93DF93EC010D811E812F81DA
:101420003885400F511F621F731F4D835E836F838A
:101430007887E881F9814083518362837383E12C4B
:10144000F12C00E010E08A81992787FD909508171C
:10145000190784F44D815E816F8178858B819C8131
:101460008E0D9F1D0E949E0B0F5F1F4F81E4E80EA3
:10147000F11CE9CFDF91CF911F910F91FF90EF9079
:1014800008950F931F93FC010185128523853485F0
:101490000F3F1F4F2F4F3F4F21F4418752876387E4
:1014A0007487818592859A01281B390BC901418770
:1014B0005287638774871F910F910895FC01118AE9
:1014C000108A0C944D02AF92BF92CF92DF92EF92AE
:1014D000FF920F93CF93DF93CDB7DEB764970FB62C
:1014E000F894DEBF0FBECDBF5C012C8B4B8B698B9C
:1014F0007A8B0E94E501D50151961C921E9250975D
:1015000052961C92529781E053968C93539754961F
:101510008C93F501158A168A178A108E8FEF9FEF2C
:10152000DC01818F928FA38FB48FD501158E168E1B
:10153000178E10A292A381A394A383A396A385A33D
:1015400010A617A281E090E092A781A782E090E028
:1015500094A783A783E090E096A785A7E4E0F0E056
:10156000D096FC93EE939F97D2961C921E92D197A1
:10157000D4969C938E93D397D6961C921E92D59711
:10158000D8961C921E92D797DA961C921E92D997E3
:10159000DC961C921E92DB97DE961C921E92DD97C3
:1015A00006E02C894B8969897A89CE0101960E94CF
:1015B0006F0380E1FE013196D50101900D928A956D
:1015C000E1F7CE0101960E944D02F501F18AE08A11
:1015D000D0AEC7AA64960FB6F894DEBF0FBECDBFDB
:1015E000DF91CF910F91FF90EF90DF90CF90BF9060
:1015F000AF9008950895BF92CF92DF92EF92FF923D
:101600000F931F93CF93DF938C017B01DC01D59661
:101610002D913C91D6974CE0429FC001439F900D85
:1016200011245096ED91FC915197E80FF91F82819A
:101630009381892BD9F110929F0210929E02BB24B4
:10164000BA94CC24CA94C0E0D0E08CE0D82EF80143
:1016500025A936A9D29EC001D39E900D11240088E1
:10166000F189E02DE80FF91F818190E0C817D907B3
:10167000CCF460919E0270919F02828193810E94BE
:101680004B0580919C0290919D02892B49F063E16A
:1016900072E0C7010E94BC14892B31F0BC2ECD2E04
:1016A0002196D5CFCB2DDC2DCE0102C08FEF9FEF41
:1016B000DF91CF911F910F91FF90EF90DF90CF902E
:1016C000BF900895FC0110AE17AA158A168A178AD2
:1016D000108E4FEF5FEFBA01418F528F638F748F7F
:1016E000158E168E178E10A2128A81E0838B848B42
:1016F00012AE11AE14AE13AE8FEF9FEF92A381A383
:1017000094A383A396A385A310A617A281E090E0DB
:1017100092A781A782E090E094A783A783E090E05E
:1017200096A785A784E090E090AB87A712AA11AA9C
:1017300014AA13AA16AE15AE81E008954F925F92D7
:101740006F927F928F929F92AF92BF92CF92DF92D1
:10175000EF92FF920F931F93CF93DF93EC018D8D48
:101760009E8DAF8DB8A1481B590B6A0B7B0B4D8B1F
:101770005E8B6F8B788F2DA93EA9EFA9F8AD2E1740
:101780003F07F8F08A89811167C1688979899E01CC
:1017900040E050E0CE010E94FC04CE010E94620BAA
:1017A00068E172E089EA92E00E94E9106DA97EA9E1
:1017B0004AE050E089EA92E00E94C71181E08A8BFA
:1017C0004BC11A8A688879881CE0129FF001139F28
:1017D000F00D1124E60DF71DC084D184E12CF12C0D
:1017E000C416D506E606F706B8F48C0D9D1DAE1D91
:1017F000BF1D8D8F9E8FAF8FB8A32F5F3F4F3EAB26
:101800002DAB1D8A1E8A1F8A188E8FEF9FEFDC0179
:10181000898F9A8FAB8FBC8F6D897E898F89988DC8
:101820000E94841220E030E048E453E40E94F0116A
:101830000E9458129B01AC01A8ECB0E00E943A1340
:10184000098D1A8D2B8D3C8D0F3F4FEF1407240708
:10185000340729F0601771078207930731F021E000
:101860002A8B698F7A8F8B8F9C8F6D8B7E8B8F8B62
:10187000988F4DA85EA82CE0249D8001259D100D19
:101880001124060D171DF8012481358146815781E9
:101890000E941213672B682B692B09F0DDC08A891F
:1018A000882309F4D9C0F8018081823009F440C04E
:1018B00090F58823B1F1813009F0CDC0DF93CF934B
:1018C0001F921F92CE018F969F938F9302979F93A3
:1018D0008F934E014BE2840E911C5E0189E2A80EAB
:1018E000B11C6E0197E2C90ED11C7E01E5E2EE0E3D
:1018F000F11C01E09E012F5D3F4FA201B301CE011B
:101900000E941D078DB79EB708960FB6F8949EBF2C
:101910000FBE8DBFA0C08330A1F0843009F447C052
:101920009AC09E01A201B301CE010E94FC0493C0A3
:101930008E0120E030E0A201B301CE010E94A90592
:101940008AC06AE272E0CE010E94FB0A182F092FBA
:1019500063E172E0CE010E94FB0A4DA95EA968898D
:101960007989DF93CF939F938F930F931F934E01AA
:101970002DE3820E911C5E0183E3A80EB11C6E0163
:1019800091E3C90ED11C7E01E1E2EE0EF11C8E0145
:101990000C5E1F4F9E012D5E3F4FCE010E9411062F
:1019A0000F900F900F900F900F900F9054C089A13F
:1019B0009AA18E01015C1F4F0196E1F4F80180812C
:1019C0009181009711F00E9408142DA93EA94CE0C6
:1019D000429FC001439F900D1124E889F989E80FC7
:1019E000F91F818162E070E090E00E945413F801D9
:1019F000918380834DA95EA968897989DF93CF930C
:101A0000F80181818F9380818F93CE018F969F9370
:101A10008F9302979F938F934E01FBE28F0E911C41
:101A20005E0129E2A20EB11C6E0187E2C80ED11C34
:101A30007E0195E2E90EF11C00E09E012F5D3F4F13
:101A4000CE010E941D07EDB7FEB738960FB6F89489
:101A5000FEBF0FBEEDBF1A8ADF91CF911F910F918C
:101A6000FF90EF90DF90CF90BF90AF909F908F90BE
:101A70007F906F905F904F9008951F920F920FB6D6
:101A80000F9211242F933F938F939F93AF93BF9304
:101A90008091A1029091A202A091A302B091A40210
:101AA0003091A00223E0230F2D3720F40196A11DD1
:101AB000B11D05C026E8230F0296A11DB11D20937C
:101AC000A0028093A1029093A202A093A302B093DC
:101AD000A4028091A5029091A602A091A702B091C4
:101AE000A8020196A11DB11D8093A5029093A602A4
:101AF000A093A702B093A802BF91AF919F918F913D
:101B00003F912F910F900FBE0F901F9018952FB7F8
:101B1000F8946091A1027091A2028091A302909129
:101B2000A4022FBF08953FB7F8948091A502909129
:101B3000A602A091A702B091A80226B5A89B05C055
:101B40002F3F19F00196A11DB11D3FBF6627782FC9
:101B5000892F9A2F620F711D811D911D42E0660F22
:101B6000771F881F991F4A95D1F70895CF92DF926A
:101B7000EF92FF92CF93DF936B017C010E94930D54
:101B8000EB01C114D104E104F10489F00E94EF11CA
:101B90000E94930D6C1B7D0B683E734090F381E0B7
:101BA000C81AD108E108F108C851DC4FEACFDF912B
:101BB000CF91FF90EF90DF90CF900895789484B507
:101BC000826084BD84B5816084BD85B5826085BD39
:101BD00085B5816085BDEEE6F0E08081816080831F
:101BE000E1E8F0E010828081826080838081816002
:101BF0008083E0E8F0E0808181608083E1EBF0E0C9
:101C0000808184608083E0EBF0E08081816080836C
:101C1000EAE7F0E080818460808380818260808355
:101C20008081816080838081806880831092C10080
:101C30000895833081F028F4813099F08230A1F04A
:101C400008958730A9F08830B9F08430D1F48091BC
:101C500080008F7D03C0809180008F77809380000B
:101C6000089584B58F7702C084B58F7D84BD0895B3
:101C70008091B0008F7703C08091B0008F7D8093FA
:101C8000B0000895CF93DF9390E0FC01E257FF4F3F
:101C90002491FC01EE55FF4F8491882349F190E097
:101CA000880F991FFC01E054FF4FA591B4918A540D
:101CB0009F4FFC01C591D4919FB7611108C0F89462
:101CC0008C91209582238C93888182230AC0623074
:101CD00051F4F8948C91322F309583238C93888122
:101CE000822B888304C0F8948C91822B8C939FBFA5
:101CF000DF91CF9108950F931F93CF93DF931F929E
:101D0000CDB7DEB7282F30E0F901E658FF4F8491B8
:101D1000F901E257FF4F1491F901EE55FF4F04917D
:101D20000023C9F0882321F069830E94190E69817C
:101D3000E02FF0E0EE0FFF1FEA54FF4FA591B491A2
:101D40009FB7F8948C91611103C01095812301C055
:101D5000812B8C939FBF0F90DF91CF911F910F919B
:101D60000895FC01818D228D90E0805C9F4F821B45
:101D700091098F7399270895FC01918D828D981791
:101D800031F0828DE80FF11D858D90E008958FEF81
:101D90009FEF0895FC01918D828D981761F0828DDF
:101DA000DF01A80FB11D5D968C91928D9F5F9F738F
:101DB000928F90E008958FEF9FEF08958EE490E169
:101DC000892B49F080E090E0892B29F00E944E1089
:101DD00081110C9400000895FC01848DDF01A80F8F
:101DE000B11DA35ABF4F2C91848D90E001968F7343
:101DF0009927848FA689B7892C93A089B1898C9162
:101E000080648C93938D848D981306C00288F38927
:101E1000E02D80818F7D80830895CF93DF93EC0147
:101E2000888D8823C9F0EA89FB89808185FD05C0FA
:101E3000A889B9898C9186FD0FC00FB607FCF5CF34
:101E4000808185FFF2CFA889B9898C9185FFEDCF7C
:101E5000CE010E94EC0EE7CFDF91CF910895CF9293
:101E6000DF92FF920F931F93CF93DF931F92CDB713
:101E7000DEB76C0181E0D60158968C9358975B963B
:101E80009C915B975C968C915C97981307C05096D9
:101E9000ED91FC915197808185FD2EC0F601038D57
:101EA00010E00F5F1F4F0F731127F02EF601848D86
:101EB000F81211C00FB607FCF9CFD6015096ED917C
:101EC000FC915197808185FFF1CFC60169830E9403
:101ED000EC0E6981EBCF838DE80FF11DE35AFF4FC4
:101EE0006083D6015B960C935B975296ED91FC91C3
:101EF0005397808180620CC0D6015696ED91FC917B
:101F0000579760835096ED91FC9151978081806442
:101F1000808381E090E00F90DF91CF911F910F912E
:101F2000FF90DF90CF900895BF92CF92DF92EF9213
:101F3000FF92CF93DF93EC016A017B01B22EE88917
:101F4000F98982E08083411581EE580761057105AA
:101F5000A1F060E079E08DE390E0A70196010E9496
:101F6000121321503109410951095695479537956A
:101F70002795211580E1380798F0E889F9891082C2
:101F800060E874E88EE190E0A70196010E941213C8
:101F900021503109410951095695479537952795A3
:101FA000EC85FD853083EE85FF852083188EEC89D6
:101FB000FD89B082EA89FB89808180618083EA891A
:101FC000FB89808188608083EA89FB8980818068C1
:101FD0008083EA89FB8980818F7D8083DF91CF9127
:101FE000FF90EF90DF90CF90BF9008951F920F92D7
:101FF0000FB60F9211242F938F939F93EF93FF931C
:10200000E091B902F091BA028081E091BF02F091B3
:10201000C00282FD12C090818091C2028F5F8F73D7
:102020002091C302821751F0E091C202F0E0E7551F
:10203000FD4F958F8093C20201C08081FF91EF9187
:102040009F918F912F910F900FBE0F901F90189519
:102050001F920F920FB60F9211242F933F934F931D
:102060005F936F937F938F939F93AF93BF93EF9300
:10207000FF9389EA92E00E94EC0EFF91EF91BF91ED
:10208000AF919F918F917F916F915F914F913F9110
:102090002F910F900FBE0F901F90189589EA92E034
:1020A0000E94B10E21E0892B09F420E0822F0895CF
:1020B0001092AC021092AB0288EE93E0A0E0B0E088
:1020C0008093AD029093AE02A093AF02B093B002A2
:1020D00083E392E09093AA028093A90285EC90E0BA
:1020E0009093B6028093B50284EC90E09093B8028E
:1020F0008093B70280EC90E09093BA028093B9028B
:1021000081EC90E09093BC028093BB0282EC90E063
:102110009093BE028093BD0286EC90E09093C00243
:102120008093BF021092C2021092C3021092C402A6
:102130001092C502089508950E94DE0D0E949B1022
:102140000E949200CEEDDEE00E948B012097E1F329
:102150000E94DE0EF9CFCF92DF92EF92FF920F93A3
:102160001F93CF93DF937C016A01EB0100E010E045
:102170000C151D0571F06991D701ED91FC9101904D
:10218000F081E02DC7010995892B19F00F5F1F4FD2
:10219000EFCFC801DF91CF911F910F91FF90EF908A
:1021A000DF90CF9008956115710581F0DB010D90EE
:1021B0000020E9F7AD0141505109461B570BDC01E6
:1021C000ED91FC910280F381E02D099480E090E094
:1021D00008950C94D310DC01ED91FC910190F081F5
:1021E000E02D099468E771E00C94D3100F931F93CE
:1021F000CF93DF93EC010E94D3108C01CE010E949B
:10220000F210800F911FDF91CF911F910F910895D0
:102210008F929F92AF92BF92CF92DF92EF92FF92F6
:102220000F931F93CF93DF93CDB7DEB7A1970FB670
:10223000F894DEBF0FBECDBF7C01C42EE52FCB01CD
:10224000D22E19A221E02D1510F02AE0D22E8E01F7
:102250000F5D1F4F8D2C912CA12CB12C6C2D7E2F3E
:10226000A50194010E9412138C2DD29E8019112475
:10227000015011098A3014F4805D01C0895CF801B5
:102280008083211531054105510521F0C22EE32F30
:10229000CA01E4CFB801C7010E94D310A1960FB6BE
:1022A000F894DEBF0FBECDBFDF91CF911F910F918C
:1022B000FF90EF90DF90CF90BF90AF909F908F9066
:1022C0000895CF92DF92EF92FF920F931F93CF93D7
:1022D000DF93EC016A017B012115310579F4E88176
:1022E000F9810190F081E02D642FDF91CF911F9152
:1022F0000F91FF90EF90DF90CF9009942A30310535
:10230000E9F477FF1AC06DE20E94EB108C014427BC
:102310005527BA014C195D096E097F092AE0CE01E3
:102320000E940811800F911FDF91CF911F910F9193
:10233000FF90EF90DF90CF9008952AE0B701A601BB
:10234000CE01DF91CF911F910F91FF90EF90DF9021
:10235000CF900C9408119A01AB01662757FD609548
:10236000762F0C9461112115310541F4DC01ED91BA
:10237000FC910190F081E02D642F09940C940811D8
:102380009A01462F50E060E070E00C94B3110F9377
:102390001F93CF93DF93EC019A01AB0160E070E0F3
:1023A0000E94B3118C01CE010E94F210800F911F88
:1023B000DF91CF911F910F9108950F931F93CF93AA
:1023C000DF93EC010E94B3118C01CE010E94F21048
:1023D000800F911FDF91CF911F910F910895089564
:1023E0000CD0E6C0DED040F0D5D030F021F45F3F15
:1023F00019F0C7C0511110C1CAC0EBD098F399238E
:10240000C9F35523B1F3951B550BBB27AA276217B8
:102410007307840738F09F5F5F4F220F331F441FFD
:10242000AA1FA9F333D00E2E3AF0E0E830D0915035
:102430005040E695001CCAF729D0FE2F27D0660F22
:10244000771F881FBB1F261737074807AB07B0E861
:1024500009F0BB0B802DBF01FF2793585F4F2AF077
:102460009E3F510568F08DC0D7C05F3FECF3983EAA
:10247000DCF3869577956795B795F7959F5FC9F7D4
:10248000880F911D9695879597F90895E1E0660F5D
:10249000771F881FBB1F621773078407BA0720F0D6
:1024A000621B730B840BBA0BEE1F88F7E09508953F
:1024B00098D088F09F5790F0B92F9927B751A0F086
:1024C000D1F0660F771F881F991F1AF0BA95C9F7C8
:1024D00012C0B13081F09FD0B1E008959CC0672F49
:1024E000782F8827B85F39F0B93FCCF38695779578
:1024F0006795B395D9F73EF4909580957095619561
:102500007F4F8F4F9F4F0895E89409C097FB3EF48B
:1025100090958095709561957F4F8F4F9F4F992330
:10252000A9F0F92F96E9BB279395F69587957795AE
:102530006795B795F111F8CFFAF4BB0F11F460FF6E
:102540001BC06F5F7F4F8F4F9F4F16C0882311F0C6
:1025500096E911C0772321F09EE8872F762F05C0DA
:10256000662371F096E8862F70E060E02AF09A9575
:10257000660F771F881FDAF7880F9695879597F96A
:10258000089597F99F6780E870E060E008959FEFF5
:1025900080EC089500240A941616170618060906FA
:1025A000089500240A9412161306140605060895C9
:1025B000092E0394000C11F4882352F0BB0F40F451
:1025C000BF2B11F460FF04C06F5F7F4F8F4F9F4F91
:1025D000089557FD9058440F551F59F05F3F71F013
:1025E0004795880F97FB991F61F09F3F79F087957A
:1025F0000895121613061406551FF2CF4695F1DF03
:1026000008C0161617061806991FF1CF8695710592
:10261000610508940895E894BB2766277727CB01C6
:1026200097F90895A1E21A2EAA1BBB1BFD010DC04C
:10263000AA1FBB1FEE1FFF1FA217B307E407F50772
:1026400020F0A21BB30BE40BF50B661F771F881F4E
:10265000991F1A9469F760957095809590959B01E4
:10266000AC01BD01CF010895EE0FFF1F0590F4915D
:10267000E02D09940E944513A59F900DB49F900DE5
:10268000A49F800D911D11240895A29FB001B39FB6
:10269000C001A39F700D811D1124911DB29F700D6B
:1026A000811D1124911D08950F931F93CF93DF93E4
:1026B000869F8001879F100D969F100D1124C801E1
:1026C0000E947013EC01009729F0A80160E070E00F
:1026D0000E94B514CE01DF91CF911F910F91089503
:1026E000CF93DF938230910510F482E090E0E09187
:1026F0004803F091490320E030E0A0E0B0E03097DB
:1027000039F14081518148175907B8F048175907E6
:1027100071F482819381109729F013969C938E9384
:1027200012972CC0909349038093480327C021152A
:10273000310531F04217530718F0A901DB0101C040
:10274000EF019A01BD01DF010280F381E02DD7CFB7
:1027500021153105F9F0281B390B2430310580F49F
:102760008A819B816115710521F0FB01938382832E
:1027700004C09093490380934803FE01329644C0FD
:10278000FE01E20FF31F81939193225031093983A7
:1027900028833AC02091460330914703232B41F40C
:1027A00020910201309103013093470320934603A7
:1027B00020910001309101012115310541F42DB71F
:1027C0003EB74091040150910501241B350BE09167
:1027D0004603F0914703E217F307A0F42E1B3F0BCB
:1027E0002817390778F0AC014E5F5F4F2417350783
:1027F00048F04E0F5F1F5093470340934603819369
:10280000919302C0E0E0F0E0CF01DF91CF91089515
:10281000CF93DF93009709F487C0FC0132971382AE
:102820001282C0914803D0914903209781F42081FE
:102830003181280F391F80914603909147038217F9
:10284000930779F5F0934703E09346036DC0DE01EB
:1028500020E030E0AE17BF0750F412964D915C9126
:1028600013979D014115510509F1DA01F3CFB383A7
:10287000A28340815181840F951F8A179B0771F4B1
:102880008D919C911197840F951F0296918380835F
:1028900012968D919C911397938382832115310514
:1028A00029F4F0934903E09348033EC0D9011396FD
:1028B000FC93EE9312974D915D91A40FB51FEA170B
:1028C000FB0779F480819181840F951F0296D901CD
:1028D00011969C938E938281938113969C938E93F1
:1028E0001297E0E0F0E08A819B81009719F0FE01E9
:1028F000EC01F9CFCE01029628813981820F931F16
:1029000020914603309147032817390769F430971F
:1029100029F4109249031092480302C013821282D4
:10292000D0934703C0934603DF91CF910895FC01F4
:1029300088279927E89421912032E9F3293010F073
:102940002E30C8F32B3241F02D3239F4689404C094
:102950000E94C514820F911D219120532A30C0F38B
:102960001EF4909581959F4F0895DC0101C06D93F1
:1029700041505040E0F70895FB01DC018D9101903A
:1029800080190110D9F3990B08957AE0979F902D43
:10299000879F802D910D1124089510E0CEECD0E09A
:1029A00004C0FE010E9436132296C03DD107C9F72C
:0429B000F894FFCFC9
:1029B40000004A03800005000301564D4450565F51
:1029C400317C315F564D4450560D0A00436170749A
:1029D4007572696E672073657269616C206F7574B6
:1029E400707574206F6E2050726F5472696E6B65CF
:1029F4007400312C322C302C322C312000332C3307
:102A04002C332C332C332000456C617073656420A7
:102A140074696D65206973203A2000564D44504313
:102A24005F005F564D4450430D0A004572726F7249
:102A34003A20417474656D707420746F20736574EA
:102A4400206120726561642D6F6E6C7920766172ED
:102A54006961626C65206F722064617461207479AD
:102A64007065206E6F7420737570706F7274656416
:102A74000D0A00206973205669727475616C2050C8
:102A84006978656C20656C656D3A2000564D44503C
:102A9400455F31005F564D4450450D0A0020616E7C
:102AA4006420436F6C6F722076616C756520697366
:102AB4003A2000564D4450455F3300564D4450452E
:102AC4005F32005441494C002043757272656E7444
:102AD40053657175656E6365200048454144000087
:102AE4000000002F0FAB10B10ECA0EBC0E0D0F6EFE
:0E2AF400616E00696E66006F7666002E00004F
:00000001FF
