:100000000C945F000C9487000C9487000C9487007C
:100010000C9487000C9487000C9487000C94870044
:100020000C9487000C9487000C9487000C94870034
:100030000C9487000C9487000C9487000C94870024
:100040000C945C090C9487000C94A2040C94D404C6
:100050000C9487000C9487000C9487000C94870004
:100060000C9487000C948700000000080002010037
:100070000003040700000000000000000102040863
:100080001020408001020408102001020408102002
:10009000040404040404040402020202020203032E
:1000A0000303030300000000250028002B000000CC
:1000B0000000240027002A00CC000405D0001124F1
:1000C0001FBECFEFD8E0DEBFCDBF13E0A0E0B1E0B0
:1000D000E6E2FAE102C005900D92AA31B107D9F724
:1000E00023E0AAE1B3E001C01D92AD3CB207E1F705
:1000F00010E0CCEBD0E004C02297FE010E941C0A65
:10010000C83BD107C9F70E9448050C94060D0C9412
:10011000000026E040E052EC61E070E083E293E012
:100120000E94400466E071E083E293E00E94B9051A
:1001300060E070E08AE193E00E94D80061E088E02E
:100140000E94EE0261E088E00C9427038AE193E0CC
:100150000E94E8009091210380912203992349F0A5
:100160008823A9F061E088E00E9427036CE271E037
:1001700008C0882361F060E088E00E94270365E5FD
:1001800071E083E293E00E94B90510922203089582
:100190008AE193E00C94FC008AE193E00C94D40093
:1001A0008AE193E00C941C076DE073E00C948A07DD
:1001B000672B59F461E08EE00E94EE0261E08EE070
:1001C0000E94270380E090E008958FEF9FEF08954D
:1001D000CF93DF93EC018E81882359F0BE0183E237
:1001E00093E00E94A7056DE073E0CE010E94E20754
:1001F0001E82DF91CF910895AF92BF92DF92EF926E
:10020000FF920F931F93CF93DF93CDB7DEB7AE97D7
:100210000FB6F894DEBF0FBECDBF8C016DE073E06A
:10022000CE0189960E948A076FE771E083E293E02E
:100230000E94B90581E0F8018683E12CF12CD12CD4
:1002400083E293E00E945D03892B09F48AC1D110F7
:1002500064C04AE063E273E0CE0101960E94F406B6
:10026000BE016F5F7F4FCE0189960E94D607CE01F7
:1002700001960E941C07CE0189960E94F20865EA49
:1002800071E0CE0101960E948A07BE01675D7F4F33
:10029000CE0101960E947C086CE073E00E948F08FA
:1002A000BC01C8010E945208CE0101960E941C07A1
:1002B0006AEB71E0CE0189960E94A908882341F07B
:1002C0006EEB71E0C8010E945908E12CF12C22C0AC
:1002D00061ED71E0CE0189960E94A908882349F05A
:1002E0006AED71E0C8010E945908EE24E394F12CF4
:1002F00011C062EF71E0CE0189960E94A90888239F
:1003000009F49ECF6EEF71E0C8010E94590882E0A7
:10031000E82EF12CDD24D39493CF6DE073E0CE0171
:1003200083960E948A0769E172E0C8010E94590819
:10033000F1E0EF16F10409F442C082E0E816F1049E
:1003400009F4B7C0E114F10409F0FCC041E060E039
:1003500070E083E293E00E946A065B014AE0CE010E
:1003600047960E94FA0769E372E0CE0101960E9467
:100370008A07BE01695E7F4FCE0101960E947C080C
:100380006CE073E00E948F08BC01C8010E94520813
:10039000CE0101960E941C07CE0147960E941C07C1
:1003A00061E088E0AB2821F40E94EE0260E003C027
:1003B0000E94EE0261E088E00E942703C3C04AE089
:1003C00063E273E0CE0101960E94F406BE016F5F06
:1003D0007F4FCE0183960E94D607CE0101960E94E0
:1003E0001C074FA158A54F5F5F4F20E030E0BE01D2
:1003F0006F5F7F4FCE0183960E94C8084AE063E298
:1004000073E0CE0147960E94F406BE01695E7F4FFD
:10041000CE0183960E94D607CE0147960E941C0704
:10042000CE0183960E9451097E8B6D8BBE016F5F5A
:100430007F4FCE014D960E948A0767E572E0CE019C
:1004400047960E948A07BE01635E7F4FCE014796A2
:100450000E947C0868E672E00E948F08BC01C80117
:100460000E945208CE0147960E941C07CE014D966D
:100470000E941C076D897E894AE0CE014D960E943C
:10048000FA076BE672E0CE0147960E948A07BE012A
:10049000635E7F4FCE0147960E947C08BC01C80175
:1004A0000E945208CE0147960E941C07CE014D962D
:1004B00047C041E060E070E083E293E00E946A069A
:1004C00021E0F80120876130710581F0623071050B
:1004D00099F0672BB9F527834AE060E070E0CE0120
:1004E00047960E94FA076AE772E011C0F801178286
:1004F0004AE061E070E005C0F80117824AE062E07E
:1005000070E0CE0147960E94FA076AEB72E0CE01D6
:1005100001960E948A07BE01695E7F4FCE01019657
:100520000E947C086CE073E00E948F08BC01C80147
:100530000E945208CE0101960E941C07CE014796E8
:100540000E941C0763E273E0CE0101960E94DA0666
:10055000CE0101960E941C07CE0183960E941C07C3
:100560006FCECE0189960E941C07AE960FB6F89406
:10057000DEBF0FBECDBFDF91CF911F910F91FF90D6
:10058000EF90DF90BF90AF900895833081F028F412
:10059000813099F08230A1F008958730A9F0883039
:1005A000B9F08430D1F4809180008F7D03C08091B8
:1005B00080008F7780938000089584B58F7702C084
:1005C00084B58F7D84BD08958091B0008F7703C07E
:1005D0008091B0008F7D8093B0000895CF93DF931A
:1005E00090E0FC01E458FF4F2491FC01E057FF4FDD
:1005F0008491882349F190E0880F991FFC01E2550E
:10060000FF4FA591B4918C559F4FFC01C591D4919A
:100610009FB7611108C0F8948C91209582238C9328
:10062000888182230AC0623051F4F8948C91322F71
:10063000309583238C938881822B888304C0F8941F
:100640008C91822B8C939FBFDF91CF9108950F9354
:100650001F93CF93DF931F92CDB7DEB7282F30E0E3
:10066000F901E859FF4F8491F901E458FF4F1491C3
:10067000F901E057FF4F04910023C9F0882321F0CE
:1006800069830E94C5026981E02FF0E0EE0FFF1F31
:10069000EC55FF4FA591B4919FB7F8948C916111DF
:1006A00003C01095812301C0812B8C939FBF0F90B5
:1006B000DF91CF911F910F910895FC01818D228DC3
:1006C00090E0805C9F4F821B91098F73992708955A
:1006D000FC01918D828D981731F0828DE80FF11D0C
:1006E000858D90E008958FEF9FEF0895FC01918D27
:1006F000828D981761F0828DDF01A80FB11D5D9684
:100700008C91928D9F5F9F73928F90E008958FEFF1
:100710009FEF08958AEF94E0892B49F088EC90E0F0
:10072000892B29F00E94FA0481110C94C8000895C5
:10073000FC01848DDF01A80FB11DA35ABF4F2C917E
:10074000848D90E001968F739927848FA689B7894D
:100750002C93A089B1898C9180648C93938D848D26
:10076000981306C00288F389E02D80818F7D8083F5
:100770000895CF93DF93EC01888D8823C9F0EA892F
:10078000FB89808185FD05C0A889B9898C9186FD8A
:100790000FC00FB607FCF5CF808185FFF2CFA88987
:1007A000B9898C9185FFEDCFCE010E949803E7CFE8
:1007B000DF91CF910895CF92DF92FF920F931F9315
:1007C000CF93DF931F92CDB7DEB76C0181E0D601E6
:1007D00058968C9358975B969C915B975C968C91FE
:1007E0005C97981307C05096ED91FC9151978081CA
:1007F00085FD2EC0F601038D10E00F5F1F4F0F73B4
:100800001127F02EF601848DF81211C00FB607FCE7
:10081000F9CFD6015096ED91FC915197808185FFDB
:10082000F1CFC60169830E9498036981EBCF838D64
:10083000E80FF11DE35AFF4F6083D6015B960C93DE
:100840005B975296ED91FC915397808180620CC02A
:10085000D6015696ED91FC91579760835096ED9195
:10086000FC91519780818064808381E090E00F90BB
:10087000DF91CF911F910F91FF90DF90CF9008955E
:10088000BF92CF92DF92EF92FF92CF93DF93EC0172
:100890006A017B01B22EE889F98982E080834115E3
:1008A00081EE580761057105A1F060E079E08DE304
:1008B00090E0A70196010E94ED09215031094109FC
:1008C00051095695479537952795211580E13807A9
:1008D00098F0E889F989108260E874E88EE190E088
:1008E000A70196010E94ED092150310941095109E2
:1008F0005695479537952795EC85FD853083EE8590
:10090000FF852083188EEC89FD89B082EA89FB89F6
:10091000808180618083EA89FB898081886080830F
:10092000EA89FB89808180688083EA89FB898081EC
:100930008F7D8083DF91CF91FF90EF90DF90CF90FC
:10094000BF9008951F920F920FB60F9211242F930C
:100950008F939F93EF93FF93E0913303F0913403D0
:100960008081E0913903F0913A0382FD12C09081B9
:1009700080913C038F5F8F7320913D03821751F06C
:10098000E0913C03F0E0ED5DFC4F958F80933C03DC
:1009900001C08081FF91EF919F918F912F910F90D6
:1009A0000FBE0F901F9018951F920F920FB60F92C7
:1009B00011242F933F934F935F936F937F938F9364
:1009C0009F93AF93BF93EF93FF9383E293E00E94D3
:1009D0009803FF91EF91BF91AF919F918F917F917C
:1009E0006F915F914F913F912F910F900FBE0F909C
:1009F0001F90189583E293E00E945D0321E0892B0C
:100A000009F420E0822F0895109226031092250306
:100A100088EE93E0A0E0B0E0809327039093280352
:100A2000A0932903B0932A038FEF92E090932403BD
:100A30008093230385EC90E09093300380932F0301
:100A400084EC90E0909332038093310380EC90E04B
:100A5000909334038093330381EC90E090933603BA
:100A60008093350382EC90E09093380380933703B2
:100A700086EC90E090933A038093390310923C0304
:100A800010923D0310923E0310923F030895089583
:100A90000E94B2090E9447050E948900CAE8D3E07B
:100AA0000E94A6002097E1F30E948A03F9CFCF921B
:100AB000DF92EF92FF920F931F93CF93DF937C010E
:100AC0006A01EB0100E010E00C151D0571F0699161
:100AD000D701ED91FC910190F081E02DC7010995BE
:100AE000892B19F00F5F1F4FEFCFC801DF91CF9116
:100AF0001F910F91FF90EF90DF90CF9008956115B7
:100B0000710581F0DB010D900020E9F7AD01415046
:100B10005109461B570BDC01ED91FC910280F381DA
:100B2000E02D099480E090E00895DC01ED91FC91C6
:100B3000DB0114964D915C9115976D917C9102802B
:100B4000F381E02D09946BE073E00C947F050F9323
:100B50001F93CF93DF93EC010E9495058C01CE018A
:100B60000E94A305800F911FDF91CF911F910F91DC
:100B700008950F931F93CF93DF93EC010E947F059D
:100B80008C01CE010E94A305800F911FDF91CF91B0
:100B90001F910F9108950F931F93CF93DF93EC0153
:100BA0000E94A609688779878A879B87E881F981EF
:100BB0000680F781E02DCE01099597FF15C00E94B0
:100BC000A609088519852A853B85601B710B820B58
:100BD000930B0C811D812E813F8160177107820765
:100BE000930720F38FEF9FEFDF91CF911F910F912C
:100BF00008950F931F93CF93DF93EC010E94A609F2
:100C0000688779878A879B87E881F9810084F185E5
:100C1000E02DCE01099597FF15C00E94A609088511
:100C200019852A853B85601B710B820B930B0C8108
:100C30001D812E813F81601771078207930720F382
:100C40008FEF9FEFDF91CF911F910F910895FF924A
:100C50000F931F93CF93DF93EC018B01F42ECE0102
:100C60000E94F9059C0197FD28C08D32910519F16C
:100C7000C0970A9710F1FF2019F02E323105F9F0D4
:100C800001301105F9F00230110569F42D303105FC
:100C900051F034F4295031092230310520F012C0CE
:100CA0002032310579F4E881F9810680F781E02D61
:100CB000CE010995D4CF8DE203C0C90105C08EE2F3
:100CC00090E002C08FEF9FEFDF91CF911F910F91C6
:100CD000FF900895CF92DF92FF920F931F93CF93CF
:100CE000DF9300D000D0CDB7DEB76C01042F40E019
:100CF0000E942706FC0197FD4BC020E030E0A901CF
:100D0000F12C112707FD1095E017F107E9F0ED32FE
:100D1000F105C1F0CF01C0970A97B0F4AAE0B0E0A6
:100D20000E940F0A9B01AC01CF01AA2797FDA09555
:100D3000BA2F280F391F4A1F5B1F20533109410961
:100D4000510902C0FF24F394D601ED91FC91068075
:100D5000F781E02DC60129833A834B835C83099593
:100D6000C6010E94F905FC01C09729813A814B8197
:100D70005C810A9748F2E017F10731F2FF2061F039
:100D800066277727CB01621B730B840B950B06C07C
:100D900060E070E0CB0102C0CA01B9010F900F9072
:100DA0000F900F90DF91CF911F910F91FF90DF90E7
:100DB000CF9008950F931F93CF93DF93EC018B0196
:100DC0006DE073E00E948A07C8010E94CB0597FD81
:100DD00005C0682FCE010E946908F6CFCE01DF91D1
:100DE000CF911F910F910895EF92FF920F931F9350
:100DF000CF93DF93EC018B01E42E6DE073E00E9452
:100E00008A07C8010E94CB05FF24E7FCF09497FDF8
:100E10000BC08E159F0541F0682FCE010E94690816
:100E2000C8010E94CB05F3CFCE01DF91CF911F9176
:100E30000F91FF90EF900895FC01808191810C94B7
:100E4000C70ACF93DF93EC0188819981009711F055
:100E50000E94C70A198218821D821C821B821A8274
:100E6000DF91CF9108950F931F93CF93DF93EC0100
:100E70008B016F5F7F4F888199810E94560B00978D
:100E800031F0998388831B830A8381E001C080E06D
:100E9000DF91CF911F910F910895CF93DF93EC01D4
:100EA00088819981892B29F08A819B8186179707F0
:100EB00060F4CE010E943307882341F08C819D812C
:100EC000892B19F4E881F981108281E0DF91CF91BB
:100ED0000895EF92FF920F931F93CF93DF93EC014E
:100EE0007B018A01BA010E944D07811104C0CE0125
:100EF0000E94210707C01D830C83B7018881998157
:100F00000E94610CCE01DF91CF911F910F91FF9054
:100F1000EF900895FC0111821082138212821582D3
:100F200014826115710559F0FB0101900020E9F769
:100F3000AF0141505109461B570B0C9469070895A6
:100F40000F931F93CF93DF938C01EB01FC01808102
:100F50009181009799F0428153812C813D81421704
:100F6000530750F0688179810E94610C8C819D81CA
:100F7000F8019583848313C00E94C70A88819981F0
:100F8000F801918380838A819B81938382838C8102
:100F90009D8195838483198218821B821A821D8207
:100FA0001C82DF91CF911F910F910895CF93DF9312
:100FB000EC018617970711F00E94A007CE01DF9180
:100FC000CF910895CF93DF93EC016115710561F026
:100FD000FB0101900020E9F7AF0141505109461B88
:100FE000570B0E94690702C00E942107CE01DF91C2
:100FF000CF9108950F931F93CF93DF93CDB7DEB7B3
:1010000062970FB6F894DEBF0FBECDBF8C01CB0147
:10101000F80111821082138212821582148250E02C
:10102000BE016F5F7F4F0E94770CBE016F5F7F4FE5
:10103000C8010E94E20762960FB6F894DEBF0FBEA9
:10104000CDBFDF91CF911F910F910895EF92FF9245
:101050000F931F93CF93DF93EC017B010C811D81D4
:101060006115710511F480E016C04115510591F02C
:10107000040F151FB8010E944D078823A1F3288192
:1010800039818C819D81B701820F931F0E94610C71
:101090001D830C8381E0DF91CF911F910F91FF9011
:1010A000EF900895FB0144815581608171810C941A
:1010B00026086115710559F0FB0101900020E9F740
:1010C000AF0141505109461B570B0C94260880E094
:1010D0000895CF93DF9300D0CDB7DEB769831A822E
:1010E00041E050E0BE016F5F7F4F0E9426080F90E5
:1010F0000F90DF91CF910895CF93DF93EC01FB0127
:1011000044815581608171810E942608811103C04C
:10111000CE010E942107CE01DF91CF910895CF9398
:10112000DF93EC016115710569F0FB01019000206E
:10113000E9F7AF0141505109461B570B0E942608A1
:10114000811103C0CE010E942107CE01DF91CF9112
:101150000895FC0124813581232B31F421E06115B0
:101160007105A1F0FB0108C0FC018081918161152E
:10117000710531F421E0FC018081882339F005C03C
:101180000E94580C21E0892B09F020E0822F08955D
:101190000F931F93CF93DF93EB0141155105E9F0B6
:1011A0002097D9F0FC016481758126173707A0F4D8
:1011B000621B730B8A01015011096017710708F453
:1011C0008B01FC0160817181620F731FA801CE0148
:1011D0000E94680CC00FD11F1882DF91CF911F9120
:1011E0000F910895AF92BF92CF92DF92EF92FF924C
:1011F0000F931F93CF93DF937C01DC01CD90DC90A4
:101200001197C114D10409F441C01496CD91DC9119
:1012100015972097D9F156018501BFEFAB1ABB0A8C
:10122000F8018081992787FD90950E94470C892BB2
:1012300099F72197CC0DDD1D8881992787FD909521
:101240000E94470C892B91F4AE014F5F5F4F401B0A
:10125000510BD70115965C934E931497C016D10687
:1012600050F4B801C6010E944F0C05C0C017D10749
:1012700058F32197E1CFD701ED91FC911197149686
:101280008D919C911597E80FF91F1082DF91CF91F6
:101290001F910F91FF90EF90DF90CF90BF90AF9094
:1012A0000895FC0180819181009711F00C94200C2D
:1012B00060E070E0CB0108951F920F920FB60F927D
:1012C00011242F933F938F939F93AF93BF9380915C
:1012D000C1039091C203A091C303B091C4033091A4
:1012E000C00323E0230F2D3720F40196A11DB11D6B
:1012F00005C026E8230F0296A11DB11D2093C0034F
:101300008093C1039093C203A093C303B093C4031B
:101310008091C5039091C603A091C703B091C80303
:101320000196A11DB11D8093C5039093C603A093A0
:10133000C703B093C803BF91AF919F918F913F9125
:101340002F910F900FBE0F901F9018952FB7F89404
:101350006091C1037091C2038091C3039091C40353
:101360002FBF0895789484B5826084BD84B5816070
:1013700084BD85B5826085BD85B5816085BDEEE69D
:10138000F0E0808181608083E1E8F0E0108280817C
:1013900082608083808181608083E0E8F0E08081EA
:1013A00081608083E1EBF0E0808184608083E0EB0A
:1013B000F0E0808181608083EAE7F0E080818460F2
:1013C000808380818260808380818160808380814E
:1013D000806880831092C1000895A1E21A2EAA1B92
:1013E000BB1BFD010DC0AA1FBB1FEE1FFF1FA217D5
:1013F000B307E407F50720F0A21BB30BE40BF50BD2
:10140000661F771F881F991F1A9469F7609570955A
:10141000809590959B01AC01BD01CF0108950E947C
:10142000200AA59F900DB49F900DA49F800D911D43
:1014300011240895EE0FFF1F0590F491E02D0994FB
:10144000A29FB001B39FC001A39F700D811D112405
:10145000911DB29F700D811D1124911D0895CF9390
:10146000DF938230910510F482E090E0E091CB03AD
:10147000F091CC0320E030E0A0E0B0E0309739F10B
:101480004081518148175907B8F04817590771F43E
:1014900082819381109729F013969C938E931297D3
:1014A0002CC09093CC038093CB0327C0211531052A
:1014B00031F04217530718F0A901DB0101C0EF0119
:1014C0009A01BD01DF010280F381E02DD7CF211504
:1014D0003105F9F0281B390B2430310580F48A815D
:1014E0009B816115710521F0FB019383828304C008
:1014F0009093CC038093CB03FE01329644C0FE014F
:10150000E20FF31F8193919322503109398328838D
:101510003AC02091C9033091CA03232B41F4209192
:101520000201309103013093CA032093C903209133
:101530000001309101012115310541F42DB73EB76D
:101540004091040150910501241B350BE091C90322
:10155000F091CA03E217F307A0F42E1B3F0B2817E4
:10156000390778F0AC014E5F5F4F2417350748F01C
:101570004E0F5F1F5093CA034093C9038193919309
:1015800002C0E0E0F0E0CF01DF91CF910895CF936A
:10159000DF93009709F487C0FC013297138212820F
:1015A000C091CB03D091CC03209781F4208131816D
:1015B000280F391F8091C9039091CA03821793079E
:1015C00079F5F093CA03E093C9036DC0DE0120E012
:1015D00030E0AE17BF0750F412964D915C9113970F
:1015E0009D014115510509F1DA01F3CFB383A283BF
:1015F00040815181840F951F8A179B0771F48D914B
:101600009C911197840F951F029691838083129667
:101610008D919C911397938382832115310529F431
:10162000F093CC03E093CB033EC0D9011396FC9317
:10163000EE9312974D915D91A40FB51FEA17FB072A
:1016400079F480819181840F951F0296D9011196BA
:101650009C938E938281938113969C938E93129781
:10166000E0E0F0E08A819B81009719F0FE01EC0137
:10167000F9CFCE01029628813981820F931F2091E4
:10168000C9033091CA032817390769F4309729F440
:101690001092CC031092CB0302C013821282D0931B
:1016A000CA03C093C903DF91CF910895A0E0B0E0D1
:1016B000ECE5FBE00C94D30CEC01CB01209719F482
:1016C0000E942F0AB8C0FE01E60FF71F9E012250AC
:1016D0003109E217F30708F4ACC0D9010D911C9150
:1016E000119706171707B8F00530110508F49FC0C9
:1016F000A801445051094617570708F498C00250F2
:101700001109061B170B019311936D937C93CF0165
:101710000E94C70A8CC05B01A01AB10A4E01800E5C
:10172000911EA091CB03B091CC03612C712C60E091
:1017300070E0109709F449C0A815B905C9F5ED90F6
:10174000FC901197670142E0C40ED11CCA14DB045F
:1017500078F147018A189B08640142E0C40ED11C4D
:101760001296BC9012971396AC91B5E0CB16D104AB
:1017700040F0B282A38391828082D9018D939C93A1
:1017800009C00E5F1F4F0E0D1F1DF901118300834D
:10179000EB2DFA2F6115710531F0DB011396FC93E7
:1017A000EE93129744C0F093CC03E093CB033FC079
:1017B0006D917C9111976616770608F43B01BD0187
:1017C00012960D90BC91A02DB4CF6091C903709179
:1017D000CA0368157905E9F468167906D0F44091D2
:1017E0000001509101014115510541F44DB75EB71B
:1017F0006091040170910501461B570BE417F50732
:10180000C0F4F093CA03E093C903F9019183808384
:101810000EC00E942F0A7C01009759F0A801BE015A
:101820000E944F0CCE010E94C70AC70104C0CE011E
:1018300002C080E090E0CDB7DEB7EEE00C94EF0C94
:101840001F93FC0199278827BC01E894119110325D
:10185000E9F3193010F01E30C8F31B3251F01D327D
:1018600049F4689406C00E948D0C610F711D811DA2
:10187000911D119110531A30B0F33EF4909580955C
:10188000709561957F4F8F4F9F4F1F9108959111D4
:1018900073C0803219F089508550D0F70895FB014C
:1018A000DC0102C001900D9241505040D8F70895DC
:1018B000FB01DC018D91019080190110D9F3990B86
:1018C0000895FB01DC0101900D920020E1F70895DD
:1018D000FB01DC014150504048F001900D92002086
:1018E000C9F701C01D9241505040E0F708954532BC
:1018F000510520F4423010F00C94820CFB01108250
:10190000CB010895BB274A3031F4992322F4BDE27C
:10191000909581959F4F0C94A30C592F482F372FEA
:10192000262F660F771F881F991F660F771F881F46
:10193000991F620F731F841F951F660F771F881FE3
:10194000991F0895BB27FB015527AA27880F991FC8
:10195000AA1FA41710F0A41B83955051B9F7A05DDE
:10196000AA3308F0A95DA193009779F7B111B1935B
:101970001192CB010C94BF0C992788270895DC01A4
:10198000FC01672F71917723E1F7329704C07C91B6
:101990006D9370836291AE17BF07C8F308952F92BD
:1019A0003F924F925F926F927F928F929F92AF92EF
:1019B000BF92CF92DF92EF92FF920F931F93CF933C
:1019C000DF93CDB7DEB7CA1BDB0B0FB6F894DEBFD3
:1019D0000FBECDBF09942A88398848885F846E84F9
:1019E0007D848C849B84AA84B984C884DF80EE8043
:1019F000FD800C811B81AA81B981CE0FD11D0FB64C
:101A0000F894DEBF0FBECDBFED01089510E0CCEB22
:101A1000D0E004C0FE010E941C0A2296CE3BD107F2
:061A2000C9F7F894FFCFA6
:101A26000000CD038000436170747572696E672093
:101A360073657269616C206F7574707574206F6E52
:101A46002050726F5472696E6B657400546865201D
:101A560076616C7565206F6620626567696E536591
:101A660071206973207472756520696E206C6F6FC2
:101A7600702E2E2E005468652076616C7565206F79
:101A86006620626567696E536571206973206661B9
:101A96006C736520696E206C6F6F702E2E2E004958
:101AA600206D61646520697420696E746F205258D8
:101AB60048616E646C657220696E746572727570C9
:101AC600742E2E2E0054686520726561642073742E
:101AD60072696E672077617320004C4544004C455F
:101AE6004420737472696E6720666F756E64210A8E
:101AF6000055534552494E464F0055534552494E9F
:101B0600464F20737472696E6720666F756E642126
:101B16000A00494E49544C45445345515300494ED9
:101B260049544C45445345515320737472696E674A
:101B360020666F756E64210A0049276D20696E2044
:101B4600746865206D65746820666F756E642070B4
:101B56006F7274696F6E210A005468652073746130
:101B660074652077696C6C206265206368616E67B6
:101B7600656420746F200054686520757365726E05
:101B8600616D6520697320002C2000546865206E05
:101B9600756D626572206973200054686520626500
:101BA60067696E536571732077617320736574205E
:101BB600746F207472756520616E64207468652088
:101BC60073746174652077696C6C20626520636844
:101BD600616E67656420746F2000546865206265D5
:101BE60067696E536571732077617320736574201E
:101BF600746F2066616C736520616E64207468651D
:101C06002073746174652077696C6C20626520634B
:101C160068616E67656420746F200000000000DB59
:101C26000357055D0376036803B9030D0A006E6169
:0A1C36006E00696E66006F766600AE
:00000001FF
