:100000000C9468000C9490000C9490000C94900058
:100010000C9490000C9490000C9490000C94900020
:100020000C9490000C9490000C9490000C94900010
:100030000C9490000C9490000C9490000C94900000
:100040000C94190B0C9490000C94870D0C94B90D22
:100050000C9490000C9490000C9490000C949000E0
:100060000C9490000C9490001704F003F503FA032D
:10007000FF03040409040E04120400000008000237
:10008000010000030407000000000000000001025E
:100090000408102040800102040810200102040816
:1000A00010200404040404040404020202020202F4
:1000B00003030303030300000000250028002B00B6
:1000C00000000000240027002A00B101E90DC3014F
:1000D00011241FBECFEFD8E0DEBFCDBF11E0A0E0FE
:1000E000B1E0E4E1F4E202C005900D92AC3AB10750
:1000F000D9F722E0ACEAB1E001C01D92A137B20706
:10010000E1F710E0CEECD0E004C02297FE010E949F
:100110006610CA3CD107C9F70E942D0E0C94FD1140
:100120000C940000AF92BF92CF92DF92EF92FF92B9
:100130000F931F93CF93DF93CDB7DEB7C154D1098F
:100140000FB6F894DEBF0FBECDBF26E040E052EC04
:1001500061E070E080ED91E00E94250D6AE071E0C1
:1001600080ED91E00E94800E8091090161E470E0D1
:10017000992787FD90950E9484105C019093C0019F
:100180008093BF01C0900801DD24C7FCD0946CE0CF
:1001900070E0C6010E948410FC01A0910601B0919C
:1001A000070121E02083A18380E391E09383828390
:1001B00048EC50E060E070E04483558366837783C9
:1001C00088E59BE191878087228782E0F82EF3867D
:1001D00094E0E92EE486A5878BE391E097878687F4
:1001E000408B518B628B738B88EF9AE2958B848B5B
:1001F000168A8CE2878BF08EA18F86E491E0938F34
:10020000828F00EA1FE020E030E0048F158F268FF8
:10021000378F80EA9FE091A380A312A213A223E06C
:1002200024A3A5A321E531E037A326A340A751A726
:1002300062A773A795A784A7E6A6F7A67F0106E0A5
:1002400026E048E0BD01CE0101960E94E00881E46D
:10025000FE013196D50101900D928A95E1F7CE010C
:1002600001960E94DB088091BF019091C0010E941D
:100270006A090E9421028091BF019091C0010E94F1
:100280006A090E946B026091BF017091C0014091A8
:100290000901CE0101960E946D088DE0FE013196A4
:1002A000A2EBB1E001900D928A95E1F7CE010196A3
:1002B0000E9469088091AC019091AD019093B301C7
:1002C0008093B201CF5BDF4F0FB6F894DEBF0FBE55
:1002D000CDBFDF91CF911F910F91FF90EF90DF90F5
:1002E000CF90BF90AF9008950E94630BAB01BC010B
:1002F00082EB91E00E94BE08AC0160E070E04093A8
:10030000AE015093AF016093B0017093B10182EBE5
:1003100091E00E9483086CE571E080ED91E00E941D
:100320007A0E4091AE015091AF016091B001709191
:10033000B1012AE030E080ED91E00E940E0FE091E3
:10034000B201F091B30140815181628173812AE051
:1003500030E080ED91E00E940E0F80ED91E00C9472
:100360007C0E82EB91E00E945E088091090164E0BE
:1003700070E0992787FD90950E9484109093AD01BD
:100380008093AC01089582EB91E00C9469088EBDD6
:1003900000000DB407FEFDCF8EB5089508950E94AC
:1003A00096038CB58C7F8CBD8DB581608DBD8CB571
:1003B0008F7D8CBD8CB5837F8CBD0895CF93DF93EB
:1003C000EC0161E08A810E94D30B61E08B810E9485
:1003D000D30B4A8150E0FA01EE55FF4FE491F0E073
:1003E000EE0FFF1FEA54FF4FA591B491BD87AC8774
:1003F0002B8130E0F901EE55FF4F849190E0880F9A
:10040000991F8A549F4FFC01859194919F878E87F5
:10041000FA01E257FF4F44914A87F901E257FF4F33
:1004200024912B878C919A85909589238C93EE85C6
:10043000FF8590818B85809589238083DF91CF9183
:100440000895FC0122812F3F11F40C94CF010C94EC
:10045000DE01CF93DF93EC0160E08A810E94D30B31
:1004600060E08B81DF91CF910C94D30BCF93DF931E
:10047000EC018D819E81009711F00E9438118A81D4
:100480008F3F21F4DF91CF910C94CC03CE01DF910B
:10049000CF910C942902FC0199E09150D9F0A485E8
:1004A000B58582852C9167FF03C0282B2C9303C050
:1004B000809582238C93A685B7858C912385822B8A
:1004C0008C93A685B7852C918385809582238C9308
:1004D000660FE3CF0895BF92CF92DF92EF92FF9223
:1004E0000F931F93CF93DF93EC01ED80FE80E11417
:1004F000F10409F488C008811981BC808A818F3F8A
:1005000009F041C080E00E94C70180E00E94C7015D
:1005100080E00E94C7011EBC3FEF0DB407FEFDCF77
:100520003EBDF70123E08C81882331F080818B9DD3
:10053000C0011124892F01C080810DB407FEFDCFB9
:100540008EBD215031962111EECF83E0E80EF11CD3
:100550000150110911F70DB407FEFDCF8FEF0E9476
:10056000C7018FEF0E94C7018FEF0E94C7018FEF75
:10057000DF91CF911F910F91FF90EF90DF90CF907F
:10058000BF900C94C70174E0D72E60E0CE010E94AA
:100590004B02DA94D1F78C81882331F16FEFCE01D1
:1005A0000E944B026701E3E0CE0ED11CF70181915E
:1005B0007F018B9DC0011124692FCE010E944B0247
:1005C000EC14FD0499F70150110941F714E015C02E
:1005D000F70161917F01CE010E944B02EC14FD04F2
:1005E000B9F70150110991F36FEFCE010E944B0250
:1005F0006701F3E0CF0ED11CEBCF6FEFCE010E946D
:100600004B021150D1F7DF91CF911F910F91FF90C5
:10061000EF90DF90CF90BF900895FC013781208547
:1006200080819181AC01321307C04D5F5F4F5695B9
:1006300047955695479502C0440F551F480F591FBF
:1006400060E070E0858196810C94E5110F931F9313
:10065000CF93DF93EC018B018D819E81009711F088
:100660000E9438119F818885981307C0C80103969E
:10067000969587959695879503C0C801880F991F11
:10068000800F911F0E94A0109E838D83892B49F0BB
:1006900019830883CE01DF91CF911F910F910C94A4
:1006A0000D0319821882DF91CF911F910F91089548
:1006B0000F931F93FC0142832383148216821582B9
:1006C000802F8370878310E0C80195958795959555
:1006D00087958370808734E0159507953A95E1F703
:1006E00003700187CF011F910F910C942603FC0129
:1006F0008081918168177907C0F4DB01AA0FBB1FC5
:10070000A60FB71F858196818A0F9B1F5781DC0139
:10071000A50FB11D4C934085DC01A40FB11D3C9386
:100720003185FC01E30FF11D20830895CF93CFB7EE
:10073000F8948091C201811127C0ECEAF0E0849125
:10074000E8E9F0E09491E82FF0E0EE0FFF1FE054AD
:10075000FF4FA591B4918C91892321F461E08AE047
:100760000E940C0C61E08AE00E94D30B8CB5806182
:100770008CBD8CB580648CBD61E08DE00E94D30B94
:1007800061E08BE00E94D30B8091C2018F5F809368
:10079000C201CFBFCF9108959FB7F8948091C20155
:1007A000882319F081508093C2018091C201811188
:1007B00005C08CB58F7B8CBD1092C1019FBF089581
:1007C0000F931F93AB01B9010097C1F1452BB1F114
:1007D0000930110560F5F801EC5CFF4F0C946410D2
:1007E0002FEF3FEF4FEF50E025C020E030E04FEF1C
:1007F00050E020C020E03FEF40E050E01BC02FEF72
:1008000030E040E050E016C020E03FEF4FEF50E016
:1008100011C02FEF3FEF40E050E00CC02FEF30E071
:10082000A90108C020E035EA4FEF50E003C020E006
:1008300030E0A9011F910F910C9477031F910F9144
:1008400008958F929F92AF92BF92CF92DF92EF92D4
:10085000FF920F931F93CF93DF936C015B014A01CB
:10086000009789F16115710571F18CE0849F700129
:10087000859FF00C1124E60EF71EF701828193810B
:10088000892B09F1C0E0D0E0F701818190E0C81721
:10089000D90754F400E010E09E01A401B501C6019F
:1008A0000E94E0032196F0CFC601DF91CF911F9106
:1008B0000F91FF90EF90DF90CF90BF90AF909F90FF
:1008C0008F900C946B02DF91CF911F910F91FF904D
:1008D000EF90DF90CF90BF90AF909F908F90089552
:1008E000CF92DF92FF920F931F93CF93DF9300D0AD
:1008F00000D01F92CDB7DEB76C01CE01019625E086
:10090000DC011D922A95E9F79B01BC014FEF5FEFD7
:10091000F60101900020E9F73197EC19FD092E1737
:100920003F0718F58601020F131FD801FC90BCE2A7
:10093000FB1204C089010F5F1F4F0CC08F010150D3
:1009400011092017310749F4DE01A40FB51F1296D3
:10095000FC928F010E94C7110CC04F5F5F4FFB01DB
:10096000F192BF012F5F3F4FD3CF0FEF1FEF8FEFFC
:100970009FEF1093C6010093C5019093C40180932B
:10098000C3010F900F900F900F900F90DF91CF91B8
:100990001F910F91FF90DF90CF9008956F927F92FB
:1009A0008F929F92AF92BF92CF92DF92EF92FF927F
:1009B0000F931F93CF93DF936C015B014A013901C1
:1009C000009709F444C06115710509F440C08CE03A
:1009D000849FE001859FD00D1124C60FD71F8A8107
:1009E0009B81892BA1F11092C6011092C501E12CC7
:1009F000F12C898190E0E816F906C4F46091C501F4
:100A00007091C6018A819B810E9470040091C3018C
:100A10001091C4019701260D371DA401B501C6012F
:100A20000E94E0038FEFE81AF80AE3CFC601DF91D6
:100A3000CF911F910F91FF90EF90DF90CF90BF90DB
:100A4000AF909F908F907F906F900C946B02DF918E
:100A5000CF911F910F91FF90EF90DF90CF90BF90BB
:100A6000AF909F908F907F906F9008952F923F92BC
:100A70004F925F926F927F928F929F92AF92BF92AE
:100A8000CF92DF92EF92FF920F931F93CF93DF935A
:100A900000D000D000D0CDB7DEB73C012B011A0149
:100AA000F9018B8D9C8D9A838983AD8DBE8DBC831E
:100AB000AB838F8D98A19E838D8329A13AA1611468
:100AC000710409F490C16115710509F48CC180812C
:100AD000918197FF45C00196918380830023F9F0AF
:100AE0008FEF9FEFD7018D939C93D6011D921C929F
:100AF00081E090E0D5018D939C9382E090E0D40159
:100B00008D939C9383E090E0A981BA818D939C930F
:100B100084E090E0AB81BC818D939C9324C01092C3
:100B2000C6011092C5018CE0829DA001839D500DED
:100B30001124460F571F6D817E8180E090E0DA011D
:100B400011960C9110E0801791070CF0D1C08C0128
:100B500001501109DB010D931D93BD010196EFCFEB
:100B6000002309F4C5C08CE0829D8001839D100D97
:100B70001124040D151DD80111968C9190E0D70118
:100B80002D913C91281739072CF080819181019695
:100B900091838083D8011B968C9190E020813181D4
:100BA000821793070CF404C1F70160817181CB01B6
:100BB00001969183808320E030E0A901C3010E9467
:100BC0007703D6016D917C911197CB0101968D939E
:100BD0009C9320E030E04FEF50E0C3010E94770388
:100BE000F50160817181CB0101969183808320E0C2
:100BF00035EA4FEF50E0C3010E947703D4016D91B5
:100C00007C911197CB0101968D939C9320E03FEF4F
:100C10004FEF50E0C3010E947703E981FA816081C0
:100C20007181CB0101969183808320E03FEF40E00A
:100C300050E0C3010E947703AB81BC816D917C9130
:100C40001197CB0101968D939C932FEF30E040E0FC
:100C500050E0C3010E947703F801818190E0D70141
:100C60002D913C9111972817390714F01D921C9271
:100C7000F801818190E0D6012D913C9111972817C0
:100C8000390714F01D921C92F801818190E0D50182
:100C90002D913C9111972817390714F01D921C9241
:100CA000F801818190E0D4012D913C911197281792
:100CB000390714F01D921C92F801818190E0A981FE
:100CC000BA812D913C9111972817390714F01D9284
:100CD0001C92F801818190E0AB81BC812D913C9107
:100CE0001197281739070CF463C01D921C9260C03D
:100CF0008CE0829D7001839DF00C1124E40CF51CA6
:100D0000D70111968C9190E0AD81BE814D915C919F
:100D1000481759072CF08081918101969183808337
:100D2000D7011B968C9190E04081518184179507E3
:100D3000D4F11092C6011092C501CD80DE80A12CA5
:100D4000B12CF701818190E0A816B9068CF5460117
:100D5000F60180819181019691838083D70111965C
:100D60002C9130E08217930714F011821082609169
:100D7000C5017091C601F701828193810E947004C0
:100D8000F2E0CF0ED11C0091C3011091C401D40137
:100D90002D913C91A101B201C3010E94E003BFEF7C
:100DA000AB1ABB0ACECFA101B201C3010E9421043C
:100DB000C30126960FB6F894DEBF0FBECDBFDF91FC
:100DC000CF911F910F91FF90EF90DF90CF90BF9048
:100DD000AF909F908F907F906F905F904F903F90DB
:100DE0002F900C946B0226960FB6F894DEBF0FBEC0
:100DF000CDBFDF91CF911F910F91FF90EF90DF90CA
:100E0000CF90BF90AF909F908F907F906F905F90AA
:100E10004F903F902F900895AF92BF92CF92DF9264
:100E2000EF92FF920F931F93CF93DF936C018B018F
:100E30007A016115710539F11092C6011092C50150
:100E4000AA24AA94BB24BA94C0E0D0E0CE15DF0552
:100E5000B9F06091C5017091C601C8010E9470048B
:100E60008091C3019091C401892B41F06FE671E03C
:100E7000C6010E94EC11892B21F05E012196E6CF7C
:100E8000E501CE0102C08FEF9FEFDF91CF911F915F
:100E90000F91FF90EF90DF90CF90BF90AF900895AB
:100EA0002F923F924F925F926F927F928F929F927A
:100EB000AF92BF92CF92DF92EF92FF920F931F9368
:100EC000CF93DF9300D0CDB7DEB71C013B015A832F
:100ED00049832901F8010B8D1C8D009709F4D9C0B5
:100EE0006115710509F4D5C0D9018C918823A1F150
:100EF00020E030E0C1010E94CE04F20110828CE0BB
:100F000029813A81829F2001839F500C1124460C35
:100F1000571CD2011A968C9190E0F4019183808342
:100F2000D7011D921C92F201418150E062817381D0
:100F300084E791E00E940C07D5018D939C93F20108
:100F4000418150E0628173818FE691E00E940C073D
:100F5000D6018D939C939DC0D4018D919C91892B3A
:100F600009F480C02081D7018D919C911197222393
:100F700009F43FC001968D939C93D5018D919C916E
:100F8000119701968D939C93D6018D919C91119709
:100F900001968D939C938CE029813A81829FD001A8
:100FA000839FB00D1124A60FB71F11968C9190E06E
:100FB000D5012D913C91281739070CF44AC01082B5
:100FC000F40180819181019691838083D7018D9175
:100FD0009C91119701978D939C93F501808191814C
:100FE000019791838083D6018D919C9111970197F0
:100FF0002EC00197D7018D939C93D5018D919C9123
:10100000119701978D939C93D6018D919C91119787
:1010100001978D939C9397FF1CC081E08083F4011E
:1010200080819181019691838083D7018D919C91DC
:10103000119701968D939C93F50180819181019682
:1010400091838083D6018D919C91119701968D9308
:101050009C93F7012081318149815A81B301C101FB
:101060000E94CE04C1010F900F90DF91CF911F918C
:101070000F91FF90EF90DF90CF90BF90AF909F9037
:101080008F907F906F905F904F903F902F900C9437
:101090006B020F900F90DF91CF911F910F91FF90F6
:1010A000EF90DF90CF90BF90AF909F908F907F9008
:1010B0006F905F904F903F902F900895FC011182A8
:1010C000108212821482138211861286138614866D
:1010D0000895FC011482138208950F931F93FC015D
:1010E00011821082748363831582168217821086A0
:1010F0000FEF1FEF98010187128723873487428300
:101100001F910F910895EF92FF920F931F93CF932A
:10111000DF93EC010D811E812F813885400F511F17
:10112000621F731F4D835E836F837887E881F98127
:101130004083518362837383E12CF12C00E010E043
:101140008A81992787FD90950817190784F44D81A6
:101150005E816F8178858B819C818E0D9F1D0E94A1
:10116000A7090F5F1F4F81E4E80EF11CE9CFDF9163
:10117000CF911F910F91FF90EF9008950F931F93C0
:10118000FC0101851285238534850F3F1F4F2F4FAA
:101190003F4F21F441875287638774878185928509
:1011A0009A01281B390BC9014187528763877487CD
:1011B0001F910F910895FC01118A108A0C94360238
:1011C0008F929F92AF92BF92CF92DF92EF92FF9257
:1011D0000F93CF93DF93CDB7DEB762970FB6F89436
:1011E000DEBF0FBECDBF5C014B012A8B498B0E9435
:1011F000CE01F501118A108A128A81E0838B848BDB
:10120000158A168A178A108E8FEF9FEFDC01818F67
:10121000928FA38FB48F158E168E178E10A292A365
:1012200081A394A383A396A385A310A617A281E00C
:1012300090E092A781A782E090E094A783A783E043
:1012400090E096A785A764E070E070AB67A712AA4C
:1012500011AA94AB83AB16AA15AA10AE17AA12AEA8
:1012600011AE14AE13AE16AE15AE62E070E084E6B9
:1012700090E00E948410F501FF969183808306E040
:101280002A894989B401CE0101960E94580380E160
:10129000FE013196D50101900D928A95E1F7CE01BC
:1012A00001960E943602F501F18AE08AD0AEC7AA03
:1012B00062960FB6F894DEBF0FBECDBFDF91CF911F
:1012C0000F91FF90EF90DF90CF90BF90AF909F90E5
:1012D0008F9008950895FC0110AE17AA158A168AFA
:1012E000178A108E4FEF5FEFBA01418F528F638FD5
:1012F000748F158E168E178E10A2128A81E0838B42
:10130000848B12AE11AE14AE13AE8FEF9FEF92A38B
:1013100081A394A383A396A385A310A617A281E01B
:1013200090E092A781A782E090E094A783A783E052
:1013300090E096A785A784E090E090AB87A712AADB
:1013400011AA14AA13AA16AE15AE81E008954F9201
:101350005F926F927F928F929F92AF92BF92CF9245
:10136000DF92EF92FF920F931F93CF93DF93EC01E5
:101370008D8D9E8DAF8DB8A1481B590B6A0B7B0BD1
:101380004D8B5E8B6F8B788F2DA93EA9EFA9F8ADA1
:101390002E173F07F8F08A8981113AC16889798947
:1013A0009E0140E050E0CE010E942104CE010E9447
:1013B0006B0969E771E080ED91E00E947A0E6DA9FA
:1013C0007EA94AE050E080ED91E00E94F80E81E0B5
:1013D0008A8B1EC11A8A688879881CE0129FF001E6
:1013E000139FF00D1124E60DF71DC084D184E12C6C
:1013F000F12CC416D506E606F706D8F48C0D9D1D13
:10140000AE1DBF1D8D8F9E8FAF8FB8A32F5F3F4F37
:101410003EAB2DAB1D8A1E8A1F8A188E8FEF9FEF61
:10142000DC01898F9A8FAB8FBC8F9AA389A381E04F
:101430008B8B6D897E898F89988D0E94B40F20E0F7
:1014400030E048E453E40E94200F0E94880F9B0183
:10145000AC01A8ECB0E00E946A10098D1A8D2B8DAA
:101460003C8D0F3F4FEF14072407340729F0601716
:1014700071078207930731F021E02A8B698F7A8FF9
:101480008B8F9C8F6D8B7E8B8F8B988F4DA85EA8DA
:101490002CE0249D8001259D100D1124060D171DA3
:1014A000F80124813581468157810E944210672BC3
:1014B000682B692B09F0ACC08A89882309F4A8C07D
:1014C000F8018081823009F472C098F5882309F40C
:1014D00067C0813009F09BC0DF93CF931F921F92AA
:1014E000CE018F969F938F9302979F938F934E0178
:1014F0008BE2880E911C5E0199E2A90EB11C6E016F
:10150000E7E2CE0ED11C7E01F5E2EF0EF11C01E008
:101510009E012F5D3F4FA201B301CE010E9436050F
:101520008DB79EB708960FB6F8949EBF0FBE8DBFBD
:101530006EC0833009F444C0843009F068C0DF9382
:10154000CF93FE01FF9681818F9380818F93CE018F
:101550008F969F938F9302979F938F934E014BE2A9
:10156000840E911C5E0189E2A80EB11C6E0197E207
:10157000C90ED11C7E01E5E2EE0EF11C00E09E01D9
:101580002F5D3F4FA201B301CE010E9436058DB7FA
:101590009EB708960FB6F8949EBF0FBE8DBF37C09A
:1015A0009E01A201B301CE010E94210430C08E0130
:1015B00020E030E0A201B301CE010E94CE0427C09A
:1015C000DF93CF931F921F921F921F924E01FDE354
:1015D0008F0E911C5E0143E3A40EB11C6E0181E3EA
:1015E000C80ED11C7E0191E2E90EF11C8E010C5E49
:1015F0001F4F9E012D5E3F4FA201B301CE010E94FD
:1016000050070F900F900F900F900F900F901A8A25
:10161000DF91CF911F910F91FF90EF90DF90CF90CE
:10162000BF90AF909F908F907F906F905F904F9002
:1016300008951F920F920FB60F9211242F933F938C
:101640008F939F93AF93BF938091C8019091C901ED
:10165000A091CA01B091CB013091C70123E0230FC3
:101660002D3720F40196A11DB11D05C026E8230FDA
:101670000296A11DB11D2093C7018093C8019093CC
:10168000C901A093CA01B093CB018091CC01909184
:10169000CD01A091CE01B091CF010196A11DB11D48
:1016A0008093CC019093CD01A093CE01B093CF0154
:1016B000BF91AF919F918F913F912F910F900FBE4E
:1016C0000F901F9018952FB7F8946091C8017091F2
:1016D000C9018091CA019091CB012FBF08957894E0
:1016E00084B5826084BD84B5816084BD85B5826027
:1016F00085BD85B5816085BDEEE6F0E080818160C5
:101700008083E1E8F0E010828081826080838081C4
:1017100081608083E0E8F0E0808181608083E1EB9C
:10172000F0E0808184608083E0EBF0E08081816084
:101730008083EAE7F0E0808184608083808182603A
:101740008083808181608083808180688083109223
:10175000C1000895833081F028F4813099F08230FF
:10176000A1F008958730A9F08830B9F08430D1F421
:10177000809180008F7D03C0809180008F7780935F
:101780008000089584B58F7702C084B58F7D84BDB5
:1017900008958091B0008F7703C08091B0008F7D55
:1017A0008093B0000895CF93DF9390E0FC01E2575F
:1017B000FF4F2491FC01EE55FF4F8491882349F19E
:1017C00090E0880F991FFC01E054FF4FA591B49160
:1017D0008A549F4FFC01C591D4919FB7611108C0F5
:1017E000F8948C91209582238C93888182230AC05F
:1017F000623051F4F8948C91322F309583238C937E
:101800008881822B888304C0F8948C91822B8C93DE
:101810009FBFDF91CF9108950F931F93CF93DF93D5
:101820001F92CDB7DEB7282F30E0F901E658FF4F01
:101830008491F901E257FF4F1491F901EE55FF4FE2
:1018400004910023C9F0882321F069830E94AA0B28
:101850006981E02FF0E0EE0FFF1FEA54FF4FA591E2
:10186000B4919FB7F8948C91611103C010958123B6
:1018700001C0812B8C939FBF0F90DF91CF911F915F
:101880000F910895FC01818D228D90E0805C9F4F27
:10189000821B91098F7399270895FC01918D828D88
:1018A000981731F0828DE80FF11D858D90E0089535
:1018B0008FEF9FEF0895FC01918D828D981761F055
:1018C000828DDF01A80FB11D5D968C91928D9F5F77
:1018D0009F73928F90E008958FEF9FEF08958FEDA3
:1018E0009DE0892B49F080E090E0892B29F00E944F
:1018F000DF0D81110C9400000895FC01848DDF013F
:10190000A80FB11DA35ABF4F2C91848D90E0019672
:101910008F739927848FA689B7892C93A089B18961
:101920008C9180648C93938D848D981306C002886B
:10193000F389E02D80818F7D80830895CF93DF939D
:10194000EC01888D8823C9F0EA89FB89808185FDB7
:1019500005C0A889B9898C9186FD0FC00FB607FC18
:10196000F5CF808185FFF2CFA889B9898C9185FF59
:10197000EDCFCE010E947D0CE7CFDF91CF9108958E
:10198000CF92DF92FF920F931F93CF93DF931F921B
:10199000CDB7DEB76C0181E0D60158968C9358978D
:1019A0005B969C915B975C968C915C97981307C0B3
:1019B0005096ED91FC915197808185FD2EC0F601E6
:1019C000038D10E00F5F1F4F0F731127F02EF601EC
:1019D000848DF81211C00FB607FCF9CFD6015096CE
:1019E000ED91FC915197808185FFF1CFC60169830C
:1019F0000E947D0C6981EBCF838DE80FF11DE35AC6
:101A0000FF4F6083D6015B960C935B975296ED91E6
:101A1000FC915397808180620CC0D6015696ED915F
:101A2000FC91579760835096ED91FC91519780817E
:101A30008064808381E090E00F90DF91CF911F91CF
:101A40000F91FF90DF90CF900895BF92CF92DF92D9
:101A5000EF92FF92CF93DF93EC016A017B01B22EEC
:101A6000E889F98982E08083411581EE5807610594
:101A70007105A1F060E079E08DE390E0A7019601A7
:101A80000E9442102150310941095109569547954C
:101A900037952795211580E1380798F0E889F9896D
:101AA000108260E874E88EE190E0A70196010E9440
:101AB00042102150310941095109569547953795F2
:101AC0002795EC85FD853083EE85FF852083188E74
:101AD000EC89FD89B082EA89FB89808180618083FD
:101AE000EA89FB89808188608083EA89FB8980811B
:101AF00080688083EA89FB8980818F7D8083DF9184
:101B0000CF91FF90EF90DF90CF90BF9008951F92FC
:101B10000F920FB60F9211242F938F939F93EF93F1
:101B2000FF93E091E001F091E1018081E091E60115
:101B3000F091E70182FD12C090818091E9018F5FF1
:101B40008F732091EA01821751F0E091E901F0E0F2
:101B5000E053FE4F958F8093E90101C08081FF9192
:101B6000EF919F918F912F910F900FBE0F901F902B
:101B700018951F920F920FB60F9211242F933F9337
:101B80004F935F936F937F938F939F93AF93BF9385
:101B9000EF93FF9380ED91E00E947D0CFF91EF9118
:101BA000BF91AF919F918F917F916F915F914F9175
:101BB0003F912F910F900FBE0F901F90189580EDC1
:101BC00091E00E94420C21E0892B09F420E0822F51
:101BD00008951092D3011092D20188EE93E0A0E014
:101BE000B0E08093D4019093D501A093D601B09337
:101BF000D7018FE891E09093D1018093D00185ECDB
:101C000090E09093DD018093DC0184EC90E0909370
:101C1000DF018093DE0180EC90E09093E1018093FE
:101C2000E00181EC90E09093E3018093E20182EC8B
:101C300090E09093E5018093E40186EC90E090932E
:101C4000E7018093E6011092E9011092EA011092F7
:101C5000EB011092EC01089508950E946F0B0E9411
:101C60002C0E0E949200CFE6DCE00E9474012097C7
:101C7000E1F30E946F0CF9CFCF92DF92EF92FF92C7
:101C80000F931F93CF93DF937C016A01EB0100E078
:101C900010E00C151D0571F06991D701ED91FC91D3
:101CA0000190F081E02DC7010995892B19F00F5F94
:101CB0001F4FEFCFC801DF91CF911F910F91FF9080
:101CC000EF90DF90CF9008956115710581F0DB01F1
:101CD0000D900020E9F7AD0141505109461B570B0B
:101CE000DC01ED91FC910280F381E02D099480E00C
:101CF00090E008950C94640E6BE971E00C94640E0E
:101D00000F931F93CF93DF93EC010E94640E8C011D
:101D1000CE010E947C0E800F911FDF91CF911F9109
:101D20000F9108958F929F92AF92BF92CF92DF92C0
:101D3000EF92FF920F931F93CF93DF93CDB7DEB750
:101D4000A1970FB6F894DEBF0FBECDBF7C01C42EA5
:101D5000E52FCB01D22E19A221E02D1510F02AE09B
:101D6000D22E8E010F5D1F4F8D2C912CA12CB12CEA
:101D70006C2D7E2FA50194010E9442108C2DD29EC5
:101D800080191124015011098A3014F4805D01C0BA
:101D9000895CF8018083211531054105510521F049
:101DA000C22EE32FCA01E4CFB801C7010E94640E1E
:101DB000A1960FB6F894DEBF0FBECDBFDF91CF91D5
:101DC0001F910F91FF90EF90DF90CF90BF90AF9059
:101DD0009F908F9008952115310541F4DC01ED911C
:101DE000FC910190F081E02D642F09940C94920EE7
:101DF0000F931F93CF93DF93EC019A01AB0160E047
:101E000070E00E94EB0E8C01CE010E947C0E800FD0
:101E1000911FDF91CF911F910F9108950F931F9301
:101E2000CF93DF93EC010E94EB0E8C01CE010E9458
:101E30007C0E800F911FDF91CF911F910F9108951C
:101E40000CD0E6C0DED040F0D5D030F021F45F3FBA
:101E500019F0C7C0511110C1CAC0EBD098F3992333
:101E6000C9F35523B1F3951B550BBB27AA2762175E
:101E70007307840738F09F5F5F4F220F331F441FA3
:101E8000AA1FA9F333D00E2E3AF0E0E830D09150DB
:101E90005040E695001CCAF729D0FE2F27D0660FC8
:101EA000771F881FBB1F261737074807AB07B0E807
:101EB00009F0BB0B802DBF01FF2793585F4F2AF01D
:101EC0009E3F510568F08DC0D7C05F3FECF3983E50
:101ED000DCF3869577956795B795F7959F5FC9F77A
:101EE000880F911D9695879597F90895E1E0660F03
:101EF000771F881FBB1F621773078407BA0720F07C
:101F0000621B730B840BBA0BEE1F88F7E0950895E4
:101F100098D088F09F5790F0B92F9927B751A0F02B
:101F2000D1F0660F771F881F991F1AF0BA95C9F76D
:101F300012C0B13081F09FD0B1E008959CC0672FEE
:101F4000782F8827B85F39F0B93FCCF3869577951D
:101F50006795B395D9F73EF4909580957095619506
:101F60007F4F8F4F9F4F0895E89409C097FB3EF431
:101F700090958095709561957F4F8F4F9F4F9923D6
:101F8000A9F0F92F96E9BB279395F6958795779554
:101F90006795B795F111F8CFFAF4BB0F11F460FF14
:101FA0001BC06F5F7F4F8F4F9F4F16C0882311F06C
:101FB00096E911C0772321F09EE8872F762F05C080
:101FC000662371F096E8862F70E060E02AF09A951B
:101FD000660F771F881FDAF7880F9695879597F910
:101FE000089597F99F6780E870E060E008959FEF9B
:101FF00080EC089500240A941616170618060906A0
:10200000089500240A94121613061406050608956E
:10201000092E0394000C11F4882352F0BB0F40F4F6
:10202000BF2B11F460FF04C06F5F7F4F8F4F9F4F36
:10203000089557FD9058440F551F59F05F3F71F0B8
:102040004795880F97FB991F61F09F3F79F087951F
:102050000895121613061406551FF2CF4695F1DFA8
:1020600008C0161617061806991FF1CF8695710538
:10207000610508940895E894BB2766277727CB016C
:1020800097F90895A1E21A2EAA1BBB1BFD010DC0F2
:10209000AA1FBB1FEE1FFF1FA217B307E407F50718
:1020A00020F0A21BB30BE40BF50B661F771F881FF4
:1020B000991F1A9469F760957095809590959B018A
:1020C000AC01BD01CF010895EE0FFF1F0590F49103
:1020D000E02D09940E947510A59F900DB49F900D5E
:1020E000A49F800D911D11240895A29FB001B39F5C
:1020F000C001A39F700D811D1124911DB29F700D11
:10210000811D1124911D08950F931F93CF93DF9389
:10211000869F8001879F100D969F100D1124C80186
:102120000E94A010EC01009729F0A80160E070E087
:102130000E94E511CE01DF91CF911F910F9108957B
:10214000CF93DF938230910510F482E090E0E0912C
:102150006F02F091700220E030E0A0E0B0E0309734
:1021600039F14081518148175907B8F0481759078C
:1021700071F482819381109729F013969C938E932A
:1021800012972CC09093700280936F0227C0211584
:10219000310531F04217530718F0A901DB0101C0E6
:1021A000EF019A01BD01DF010280F381E02DD7CF5D
:1021B00021153105F9F0281B390B2430310580F445
:1021C0008A819B816115710521F0FB0193838283D4
:1021D00004C09093700280936F02FE01329644C057
:1021E000FE01E20FF31F819391932250310939834D
:1021F00028833AC020916D0230916E02232B41F466
:10220000209102013091030130936E0220936D0200
:1022100020910001309101012115310541F42DB7C4
:102220003EB74091040150910501241B350BE0910C
:102230006D02F0916E02E217F307A0F42E1B3F0B24
:102240002817390778F0AC014E5F5F4F2417350728
:1022500048F04E0F5F1F50936E0240936D028193C2
:10226000919302C0E0E0F0E0CF01DF91CF910895BB
:10227000CF93DF93009709F487C0FC013297138254
:102280001282C0916F02D0917002209781F4208158
:102290003181280F391F80916D0290916E02821753
:1022A000930779F5F0936E02E0936D026DC0DE0145
:1022B00020E030E0AE17BF0750F412964D915C91CC
:1022C00013979D014115510509F1DA01F3CFB3834D
:1022D000A28340815181840F951F8A179B0771F457
:1022E0008D919C911197840F951F02969183808305
:1022F00012968D919C9113979383828321153105BA
:1023000029F4F0937002E0936F023EC0D901139656
:10231000FC93EE9312974D915D91A40FB51FEA17B0
:10232000FB0779F480819181840F951F0296D90172
:1023300011969C938E938281938113969C938E9396
:102340001297E0E0F0E08A819B81009719F0FE018E
:10235000EC01F9CFCE01029628813981820F931FBB
:1023600020916D0230916E022817390769F4309779
:1023700029F41092700210926F0202C0138212822E
:10238000D0936E02C0936D02DF91CF910895FC014E
:1023900088279927E89421912032E9F3293010F019
:1023A0002E30C8F32B3241F02D3239F4689404C03A
:1023B0000E94F511820F911D219120532A30C0F304
:1023C0001EF4909581959F4F0895DC0101C06D9397
:1023D00041505040E0F70895FB01DC018D910190E0
:1023E00080190110D9F3990B08957AE0979F902DE9
:1023F000879F802D910D1124089510E0CEECD0E040
:1024000004C0FE010E9466102296C03DD107C9F7A4
:04241000F894FFCF6E
:10241400000071028000050004014361707475724C
:10242400696E672073657269616C206F757470756D
:1024340074206F6E2050726F5472696E6B657400F5
:10244400302C302C302C302C302000312C322C30DD
:102454002C322C312000302C342C302C342C3020D5
:1024640000302C302C312C322C302000456C617023
:102474007365642074696D65206973203A20005483
:1024840041494C0048454144002043757272656ED1
:102494007453657175656E6365200000000000C0AB
:1024A4000C3C0E420C5B0C4D0C9E0C0D0A006E6134
:0C24B4006E00696E66006F7666002E00F8
:00000001FF
