:100000000C9468000C9490000C9490000C94900058
:100010000C9490000C9490000C9490000C94900020
:100020000C9490000C9490000C9490000C94900010
:100030000C9490000C9490000C9490000C94900000
:100040000C94870A0C9490000C94F50C0C94270DDA
:100050000C9490000C9490000C9490000C949000E0
:100060000C9490000C9490002706000605060A06E2
:100070000F06140619061E062206000000080002DC
:10008000010000030407000000000000000001025E
:100090000408102040800102040810200102040816
:1000A00010200404040404040404020202020202F4
:1000B00003030303030300000000250028002B00B6
:1000C00000000000240027002A009C01570DAE010B
:1000D00011241FBECFEFD8E0DEBFCDBF11E0A0E0FE
:1000E000B1E0E2EDF3E202C005900D92A63BB1074C
:1000F000D9F722E0A6EBB1E001C01D92AB37B20701
:10010000E1F710E0CEECD0E004C02297FE010E949F
:100110004510CA3CD107C9F70E949B0D0C94DC1115
:100120000C940000AF92BF92CF92DF92EF92FF92B9
:100130000F93CF93DF93CDB7DEB7EF970FB6F89459
:10014000DEBF0FBECDBF26E040E052EC61E070E0C4
:100150008AED91E00E94930C6AE071E08AED91E0F3
:100160000E94F50D809109016FE370E0992787FDEA
:1001700090950E9463105C019093CA018093C9011D
:10018000C0900801DD24C7FCD0946CE070E0C6018B
:100190000E946310FC0130910601A09107011082BA
:1001A000318387E791E09383828348EE53E060E0F8
:1001B00070E0448355836683778388EE93E091876C
:1001C00080871286138683E08487358780E391E0F9
:1001D0009787868748EC50E060E070E0408B518B59
:1001E000628B738B88E893E1958B848B22E0268B5E
:1001F000278BB1E0B08F318F8BE391E0938F828FAB
:10020000448F558F668F778F88E59BE191A380A3FC
:10021000B2A323A37F0106E026E048E0632F7A2FF4
:10022000CE0101960E94F1078FE3FE013196D501C0
:1002300001900D928A95E1F7CE0101960E94EC079C
:100240008091C9019091CA010E9488080E940C0205
:100250008091C9019091CA010E9488080E945602AB
:100260006091C9017091CA0140910901CE010196C6
:100270000E947E078DE0FE013196ACEBB1E001906B
:100280000D928A95E1F7CE0101960E947A0780913E
:10029000B6019091B7019093BD018093BC01EF9698
:1002A0000FB6F894DEBF0FBECDBFDF91CF910F9197
:1002B000FF90EF90DF90CF90BF90AF9008950E9495
:1002C000D10AAB01BC018CEB91E00E94CF07AC01DD
:1002D00060E070E04093B8015093B9016093BA01B7
:1002E0007093BB018CEB91E00E94940766E471E08F
:1002F0008AED91E00E94E80D4091B8015091B9015A
:100300006091BA017091BB012AE030E08AED91E082
:100310000E94ED0EE091BC01F091BD014081518140
:10032000628173812AE030E08AED91E00E94ED0E57
:100330008AED91E00C94F10D8CEB91E00E946F0737
:100340008091090164E070E0992787FD90950E94F3
:1003500063109093B7018093B60108958CEB91E000
:100360000C947A078EBD00000DB407FEFDCF8EB54C
:10037000089508950E9481038CB58C7F8CBD8DB546
:1003800081608DBD8CB58F7D8CBD8CB5837F8CBD20
:100390000895CF93DF93EC0161E08A810E94410BC5
:1003A00061E08B810E94410B4A8150E0FA01EE55D9
:1003B000FF4FE491F0E0EE0FFF1FEA54FF4FA591CD
:1003C000B491BD87AC872B8130E0F901EE55FF4F2A
:1003D000849190E0880F991F8A549F4FFC0185916A
:1003E00094919F878E87FA01E257FF4F44914A8785
:1003F000F901E257FF4F24912B878C919A859095B4
:1004000089238C93EE85FF8590818B858095892348
:100410008083DF91CF910895FC0122812F3F11F459
:100420000C94BA010C94C901CF93DF93EC0160E006
:100430008A810E94410B60E08B81DF91CF910C9407
:10044000410BCF93DF93EC018D819E81009711F0DA
:100450000E9417118A818F3F21F4DF91CF910C9474
:10046000B703CE01DF91CF910C941402FC0199E007
:100470009150D9F0A485B58582852C9167FF03C082
:10048000282B2C9303C0809582238C93A685B78557
:100490008C912385822B8C93A685B7852C9183859F
:1004A000809582238C93660FE3CF0895BF92CF92FD
:1004B000DF92EF92FF920F931F93CF93DF93EC01A4
:1004C000ED80FE80E114F10409F488C008811981EF
:1004D000BC808A818F3F09F041C080E00E94B20158
:1004E00080E00E94B20180E00E94B2011EBC3FEF9A
:1004F0000DB407FEFDCF3EBDF70123E08C818823BC
:1005000031F080818B9DC0011124892F01C0808131
:100510000DB407FEFDCF8EBD215031962111EECFD7
:1005200083E0E80EF11C0150110911F70DB407FE2C
:10053000FDCF8FEF0E94B2018FEF0E94B2018FEFCB
:100540000E94B2018FEFDF91CF911F910F91FF9029
:10055000EF90DF90CF90BF900C94B20174E0D72E53
:1005600060E0CE010E943602DA94D1F78C818823B4
:1005700031F16FEFCE010E9436026701E3E0CE0E4B
:10058000D11CF70181917F018B9DC0011124692F3E
:10059000CE010E943602EC14FD0499F701501109B6
:1005A00041F714E015C0F70161917F01CE010E946F
:1005B0003602EC14FD04B9F70150110991F36FEF05
:1005C000CE010E9436026701F3E0CF0ED11CEBCFC3
:1005D0006FEFCE010E9436021150D1F7DF91CF911B
:1005E0001F910F91FF90EF90DF90CF90BF900895F3
:1005F000FC013781208580819181AC01321307C0D5
:100600004D5F5F4F569547955695479502C0440FED
:10061000551F480F591F60E070E0858196810C944A
:10062000C4110F931F93CF93DF93EC018B018D8146
:100630009E81009711F00E9417119F818885981361
:1006400007C0C8010396969587959695879503C030
:10065000C801880F991F800F911F0E947F109E83F1
:100660008D83892B49F019830883CE01DF91CF91C7
:100670001F910F910C94F80219821882DF91CF918B
:100680001F910F9108950F931F93FC0142832383C1
:10069000148216821582802F8370878310E0C80130
:1006A00095958795959587958370808734E0159506
:1006B00007953A95E1F703700187CF011F910F91DC
:1006C0000C941103FC018081918168177907C0F4B3
:1006D000DB01AA0FBB1FA60FB71F858196818A0F6A
:1006E0009B1F5781DC01A50FB11D4C934085DC0198
:1006F000A40FB11D3C933185FC01E30FF11D208354
:100700000895CF93CFB7F8948091CC01811127C081
:10071000ECEAF0E08491E8E9F0E09491E82FF0E071
:10072000EE0FFF1FE054FF4FA591B4918C918923E8
:1007300021F461E08AE00E947A0B61E08AE00E9485
:10074000410B8CB580618CBD8CB580648CBD61E043
:100750008DE00E94410B61E08BE00E94410B809193
:10076000CC018F5F8093CC01CFBFCF9108959FB70D
:10077000F8948091CC01882319F081508093CC01AA
:100780008091CC01811105C08CB58F7B8CBD1092FE
:10079000CB019FBF0895EF92FF920F931F93CF93CA
:1007A000DF937C01009751F16115710539F18CE0FF
:1007B000849F8001859F100D1124060F171FF801DB
:1007C00082819381892BD1F0C0E0D0E0F801818152
:1007D00090E0C817D9074CF420E030E0A901BE0131
:1007E000C7010E9462032196F1CFC701DF91CF912B
:1007F0001F910F91FF90EF900C945602DF91CF91D3
:100800001F910F91FF90EF9008952F923F924F927A
:100810005F926F927F928F929F92AF92BF92CF9290
:10082000DF92EF92FF920F931F93CF93DF93CDB799
:10083000DEB73C01F9014D885E882F88388C00971F
:1008400009F429C16115710509F425C180819181DF
:1008500097FF23C0019691838083002309F406C18A
:100860008FEF9FEFD7018D939C93D6011D921C9221
:1008700081E090E0D5018D939C9382E090E0D401DB
:100880008D939C9383E090E0D2018D939C9384E0C0
:1008900090E0D1018D939C9303C0002309F4E6C03E
:1008A0008CE0849F8001859F100D1124060F171F77
:1008B000D80111968C9190E0D7012D913C91119720
:1008C0002817390704F180819181019691838083F3
:1008D0001D921C9281E090E0D6018D939C9382E062
:1008E00090E0D5018D939C9383E090E0D4018D93AB
:1008F0009C9384E090E0D2018D939C9385E090E0FE
:10090000D1018D939C93D8011B968C9190E020810E
:100910003181821793070CF4A9C0F70160817181BE
:10092000CB0101969183808320E030E0A901C301CF
:100930000E946203D6016D917C911197CB010196C3
:100940008D939C9320E030E04FEF50E0C3010E9474
:100950006203F50160817181CB01019691838083EF
:1009600020E035EA4FEF50E0C3010E946203D4015A
:100970006D917C911197CB0101968D939C9320E012
:100980003FEF4FEF50E0C3010E946203F20160812C
:100990007181CB0101969183808320E03FEF40E09D
:1009A00050E0C3010E946203D1016D917C911197C7
:1009B000CB0101968D939C932FEF30E040E050E007
:1009C000C3010E946203F601608171816250710966
:1009D00020E030E0A901C3010E946203D801119612
:1009E0008C9190E0F701208131812817390714F0AC
:1009F00011821082D80111968C9190E0F60120812D
:100A000031812817390714F011821082D80111960C
:100A10008C9190E0F501208131812817390714F07D
:100A200011821082D80111968C9190E0F4012081FE
:100A300031812817390714F011821082D8011196DC
:100A40008C9190E0F201208131812817390714F050
:100A500011821082D80111968C9190E0F1012081D1
:100A600031812817390714F011821082C301DF91F8
:100A7000CF911F910F91FF90EF90DF90CF90BF909B
:100A8000AF909F908F907F906F905F904F903F902E
:100A90002F900C945602DF91CF911F910F91FF90F0
:100AA000EF90DF90CF90BF90AF909F908F907F900E
:100AB0006F905F904F903F902F900895CF92DF926C
:100AC000FF920F931F93CF93DF9300D000D01F921C
:100AD000CDB7DEB76C01CE01019625E0DC011D9299
:100AE0002A95E9F79B01BC014FEF5FEFF6010190FA
:100AF0000020E9F73197EC19FD092E173F0718F58B
:100B00008601020F131FD801FC90BCE2FB1204C047
:100B100089010F5F1F4F0CC08F0101501109201771
:100B2000310749F4DE01A40FB51F1296FC928F0124
:100B30000E94A6110CC04F5F5F4FFB01F192BF01F5
:100B40002F5F3F4FD3CF0FEF1FEF8FEF9FEF10932C
:100B5000D0010093CF019093CE018093CD010F90EF
:100B60000F900F900F900F90DF91CF911F910F91E9
:100B7000FF90DF90CF900895AF92BF92CF92DF9217
:100B8000EF92FF920F931F93CF93DF938C01590144
:100B9000009709F48DC06115710509F489C08CE0D6
:100BA000849F7001859FF00C1124E60EF71EF7015B
:100BB00082819381892B09F47BC01092D00110921D
:100BC000CF01E9016E01CA18DB08F701818190E0CD
:100BD000C816D9060CF05FC06091CF017091D001AA
:100BE000F701828193810E945E05E091CD01F09131
:100BF000CE01E930F10558F5EC5CFF4F0C94431041
:100C00002FEF3FEF4FEF50E025C020E030E04FEFF7
:100C100050E020C020E03FEF40E050E01BC02FEF4D
:100C200030E040E050E016C020E03FEF4FEF50E0F2
:100C300011C02FEF3FEF40E050E00CC02FEF30E04D
:100C4000A90108C020E035EA4FEF50E003C020E0E2
:100C500030E0A901BE01C8010E94620369E571E0AC
:100C60008AED91E00E94E80D4AE050E0B6018AED7D
:100C700091E00E94AA0E66E771E08AED91E00E9481
:100C8000E80D4AE050E060E070E08AED91E00E94FB
:100C9000B20E219697CFC801DF91CF911F910F918E
:100CA000FF90EF90DF90CF90BF90AF900C945602E2
:100CB000DF91CF911F910F91FF90EF90DF90CF9038
:100CC000BF90AF9008952F923F924F925F926F9294
:100CD0007F928F929F92AF92BF92CF92DF92EF92CC
:100CE000FF920F931F93CF93DF9300D000D000D0DB
:100CF000CDB7DEB71C013B012A013A832983F801F5
:100D00008B8D9C8D9C838B83AD8DBE8DBE83AD837F
:100D10000F8D18A12114310409F4C8C061157105A3
:100D200009F4C4C0D9018C91882319F120E030E086
:100D3000C1010E94BC05E981FA8110828CE0849D8A
:100D4000F001859DF00D1124E60DF71D828590E0E0
:100D5000D4018D939C93F70111821082EB81FC8169
:100D6000D501ED93FC93ED81FE81D601ED93FC93CB
:100D70009DC0D4018D919C91892B09F47CC0208168
:100D8000D7018D919C9111972223E9F101968D93C2
:100D90009C93D5018D919C91119701968D939C9375
:100DA000D6018D919C91119701968D939C938CE027
:100DB000849FD001859FB00D1124A60FB71F1196F7
:100DC0008C9190E0D5012D913C91281739070CF4B6
:100DD0004AC01082F40180819181019691838083C1
:100DE000D7018D919C91119701978D939C93F5015B
:100DF00080819181019791838083D6018D919C910F
:100E0000119701972EC00197D7018D939C93D5011F
:100E10008D919C91119701978D939C93D6018D9103
:100E20009C91119701978D939C9397FF1CC081E033
:100E30008083F40180819181019691838083D70121
:100E40008D919C91119701968D939C93F5018081D2
:100E50009181019691838083D6018D919C91119708
:100E600001968D939C93F70120813181A201B301FA
:100E7000C1010E94BC05C10126960FB6F894DEBFE1
:100E80000FBECDBFDF91CF911F910F91FF90EF90DB
:100E9000DF90CF90BF90AF909F908F907F906F909A
:100EA0005F904F903F902F900C94560226960FB66D
:100EB000F894DEBF0FBECDBFDF91CF911F910F9190
:100EC000FF90EF90DF90CF90BF90AF909F908F906A
:100ED0007F906F905F904F903F902F900895FC010E
:100EE0001182108212821482138211861286138656
:100EF00014860895FC011482138208950F931F93A2
:100F0000FC0111821082748363831582168217821A
:100F100010860FEF1FEF9801018712872387348710
:100F200042831F910F910895EF92FF920F931F93A9
:100F3000CF93DF93EC010D811E812F813885400F07
:100F4000511F621F731F4D835E836F837887E88113
:100F5000F9814083518362837383E12CF12C00E09B
:100F600010E08A81992787FD90950817190784F466
:100F70004D815E816F8178858B819C818E0D9F1D57
:100F80000E942C090F5F1F4F8FE3E80EF11CE9CF81
:100F9000DF91CF911F910F91FF90EF9008950F93E4
:100FA0001F93FC0101851285238534850F3F1F4F58
:100FB0002F4F3F4F21F44187528763877487818584
:100FC00092859A01281B390BC90141875287638793
:100FD00074871F910F910895FC01118A108A0C9457
:100FE0002102AF92BF92CF92DF92EF92FF920F93C6
:100FF000CF93DF93CDB7DEB764970FB6F894DEBF1B
:101000000FBECDBF5C012C8B4B8B698B7A8B0E9402
:10101000B901D50151961C921E92509752961C927E
:10102000529781E053968C93539754968C93F50185
:10103000158A168A178A108E8FEF9FEFDC01818F39
:10104000928FA38FB48FD501158E168E178E10A296
:1010500092A381A394A383A396A385A310A617A20A
:1010600081E090E092A781A782E090E094A783A717
:1010700083E090E096A785A7E4E0F0E0D096FC93AB
:10108000EE939F97D2961C921E92D197D4969C93E2
:101090008E93D397D6961C921E92D597D8961C9273
:1010A0001E92D797DA961C921E92D997DC961C92C4
:1010B0001E92DB97DE961C921E92DD9706E02C892D
:1010C0004B8969897A89CE0101960E94430380E1A8
:1010D000FE013196D50101900D928A95E1F7CE017E
:1010E00001960E942102F501F18AE08AD0AEC7AADA
:1010F00064960FB6F894DEBF0FBECDBFDF91CF91DF
:101100000F91FF90EF90DF90CF90BF90AF90089538
:101110000895BF92CF92DF92EF92FF920F931F93A9
:10112000CF93DF938C017B01DC01D5962D913C910F
:10113000D6974CE0429FC001439F900D11245096DA
:10114000ED91FC915197E80FF91F82819381892BD2
:10115000D9F11092D0011092CF01BB24BA94CC24C3
:10116000CA94C0E0D0E08CE0D82EF80125A936A9B9
:10117000D29EC001D39E900D11240088F189E02DEC
:10118000E80FF91F818190E0C817D907CCF460916E
:10119000CF017091D001828193810E945E05809180
:1011A000CD019091CE01892B49F069E771E0C7012B
:1011B0000E94CB11892B31F0BC2ECD2E2196D5CF9C
:1011C000CB2DDC2DCE0102C08FEF9FEFDF91CF91B1
:1011D0001F910F91FF90EF90DF90CF90BF900895F7
:1011E000FC0110AE17AA158A168A178A108E4FEFC7
:1011F0005FEFBA01418F528F638F748F158E168EF9
:10120000178E10A2128A81E0838B848B12AE11AEEE
:1012100014AE13AE8FEF9FEF92A381A394A383A389
:1012200096A385A310A617A281E090E092A781A7BC
:1012300082E090E094A783A783E090E096A785A73B
:1012400084E090E090AB87A712AA11AA14AA13AA6F
:1012500016AE15AE81E008954F925F926F927F9225
:101260008F929F92AF92BF92CF92DF92EF92FF92B6
:101270000F931F93CF93DF93EC018D8D9E8DAF8DD8
:10128000B8A1481B590B6A0B7B0B4D8B5E8B6F8B88
:10129000788F2DA93EA9EFA9F8AD2E173F07F8F0DA
:1012A0008A89811123C1688979899E0140E050E0D3
:1012B000CE010E94CB03CE010E94F0086EE771E0E0
:1012C0008AED91E00E94E80D6DA97EA94AE050E008
:1012D0008AED91E00E94D70E81E08A8B07C11A8ABD
:1012E000688879881CE0129FF001139FF00D11248B
:1012F000E60DF71DC084D184E12CF12CC416D5066F
:10130000E606F706B8F48C0D9D1DAE1DBF1D8D8F32
:101310009E8FAF8FB8A32F5F3F4F3EAB2DAB1D8A83
:101320001E8A1F8A188E8FEF9FEFDC01898F9A8F9C
:10133000AB8FBC8F6D897E898F89988D0E94930FAA
:1013400020E030E048E453E40E94FF0E0E94670F63
:101350009B01AC01A8ECB0E00E944910098D1A8DE8
:101360002B8D3C8D0F3F4FEF14072407340729F0D6
:10137000601771078207930731F021E02A8B698F8C
:101380007A8F8B8F9C8F6D8B7E8B8F8B988F4DA8D8
:101390005EA82CE0249D8001259D100D1124060DD2
:1013A000171DF80124813581468157810E94211043
:1013B000672B682B692B09F099C08A89882309F467
:1013C00095C0F8018081823009F448C000F5882377
:1013D000F1F1813009F089C0DF93CF93CE018F9670
:1013E0009F938F9302979F938F934E014BE2840EAE
:1013F000911C5E0189E2A80EB11C6E01E7E2CE0EDF
:10140000D11C7E01F5E2EF0EF11C01E060C08330DB
:1014100071F1843009F069C0DF93CF93CE018F96CC
:101420009F938F9302979F938F934E014BE2840E6D
:10143000911C5E0189E2A80EB11C6E01E7E2CE0E9E
:10144000D11C7E01F5E2EF0EF11C00E040C09E01D0
:10145000A201B301CE010E94CB0347C08E0120E060
:1014600030E0A201B301CE010E94BC053EC060E99C
:1014700071E0CE010E948908182F092F69E771E0F9
:10148000CE010E9489084DA95EA968897989DF93F8
:10149000CF939F938F930F931F934E01FDE38F0E76
:1014A000911C5E0123E3A20EB11C6E0181E3C80E04
:1014B000D11C7E01E1E2EE0EF11C8E010C5E1F4F8D
:1014C0009E012D5E3F4FCE010E94630608C09E0123
:1014D0002F5D3F4FA201B301CE010E9405040F9082
:1014E0000F900F900F900F900F901A8ADF91CF916D
:1014F0001F910F91FF90EF90DF90CF90BF90AF9032
:101500009F908F907F906F905F904F9008951F9263
:101510000F920FB60F9211242F933F938F939F93A7
:10152000AF93BF938091D2019091D301A091D40148
:10153000B091D5013091D10123E0230F2D3720F454
:101540000196A11DB11D05C026E8230F0296A11D1D
:10155000B11D2093D1018093D2019093D301A09328
:10156000D401B093D5018091D6019091D701A0917B
:10157000D801B091D9010196A11DB11D8093D6016A
:101580009093D701A093D801B093D901BF91AF91A7
:101590009F918F913F912F910F900FBE0F901F90B1
:1015A00018952FB7F8946091D2017091D301809172
:1015B000D4019091D5012FBF0895789484B58260AD
:1015C00084BD84B5816084BD85B5826085BD85B5E7
:1015D000816085BDEEE6F0E0808181608083E1E896
:1015E000F0E01082808182608083808181608083CE
:1015F000E0E8F0E0808181608083E1EBF0E08081D1
:1016000084608083E0EBF0E0808181608083EAE7A2
:10161000F0E080818460808380818260808380812B
:10162000816080838081806880831092C1000895EA
:10163000833081F028F4813099F08230A1F0089550
:101640008730A9F08830B9F08430D1F480918000DF
:101650008F7D03C0809180008F77809380000895F4
:1016600084B58F7702C084B58F7D84BD0895809145
:10167000B0008F7703C08091B0008F7D8093B00061
:101680000895CF93DF9390E0FC01E257FF4F249140
:10169000FC01EE55FF4F8491882349F190E0880FBB
:1016A000991FFC01E054FF4FA591B4918A549F4FBC
:1016B000FC01C591D4919FB7611108C0F8948C9139
:1016C000209582238C93888182230AC0623051F452
:1016D000F8948C91322F309583238C938881822BC0
:1016E000888304C0F8948C91822B8C939FBFDF91E8
:1016F000CF9108950F931F93CF93DF931F92CDB790
:10170000DEB7282F30E0F901E658FF4F8491F90148
:10171000E257FF4F1491F901EE55FF4F049100235A
:10172000C9F0882321F069830E94180B6981E02F9A
:10173000F0E0EE0FFF1FEA54FF4FA591B4919FB761
:10174000F8948C91611103C01095812301C0812B05
:101750008C939FBF0F90DF91CF911F910F910895B0
:10176000FC01818D228D90E0805C9F4F821B91094E
:101770008F7399270895FC01918D828D981731F010
:10178000828DE80FF11D858D90E008958FEF9FEF1A
:101790000895FC01918D828D981761F0828DDF0193
:1017A000A80FB11D5D968C91928D9F5F9F73928F54
:1017B00090E008958FEF9FEF08958DE49DE0892BD1
:1017C00049F080E090E0892B29F00E944D0D8111B5
:1017D0000C9400000895FC01848DDF01A80FB11D59
:1017E000A35ABF4F2C91848D90E001968F73992757
:1017F000848FA689B7892C93A089B1898C91806444
:101800008C93938D848D981306C00288F389E02D04
:1018100080818F7D80830895CF93DF93EC01888D45
:101820008823C9F0EA89FB89808185FD05C0A889E4
:10183000B9898C9186FD0FC00FB607FCF5CF80816A
:1018400085FFF2CFA889B9898C9185FFEDCFCE01B4
:101850000E94EB0BE7CFDF91CF910895CF92DF92FB
:10186000FF920F931F93CF93DF931F92CDB7DEB7F5
:101870006C0181E0D60158968C9358975B969C91A9
:101880005B975C968C915C97981307C05096ED918E
:10189000FC915197808185FD2EC0F601038D10E0EB
:1018A0000F5F1F4F0F731127F02EF601848DF81272
:1018B00011C00FB607FCF9CFD6015096ED91FC91FF
:1018C0005197808185FFF1CFC60169830E94EB0BA0
:1018D0006981EBCF838DE80FF11DE35AFF4F6083E1
:1018E000D6015B960C935B975296ED91FC915397C2
:1018F000808180620CC0D6015696ED91FC9157977D
:1019000060835096ED91FC91519780818064808333
:1019100081E090E00F90DF91CF911F910F91FF90A8
:10192000DF90CF900895BF92CF92DF92EF92FF9217
:10193000CF93DF93EC016A017B01B22EE889F9892C
:1019400082E08083411581EE580761057105A1F0A1
:1019500060E079E08DE390E0A70196010E942110FC
:1019600021503109410951095695479537952795D9
:10197000211580E1380798F0E889F989108260E83C
:1019800074E88EE190E0A70196010E942110215099
:101990003109410951095695479537952795EC85A9
:1019A000FD853083EE85FF852083188EEC89FD89C7
:1019B000B082EA89FB89808180618083EA89FB8922
:1019C000808188608083EA89FB8980818068808348
:1019D000EA89FB8980818F7D8083DF91CF91FF90A1
:1019E000EF90DF90CF90BF9008951F920F920FB6A7
:1019F0000F9211242F938F939F93EF93FF93E09176
:101A0000EA01F091EB018081E091F001F091F101A8
:101A100082FD12C090818091F3018F5F8F732091BE
:101A2000F401821751F0E091F301F0E0E652FE4F2D
:101A3000958F8093F30101C08081FF91EF919F9179
:101A40008F912F910F900FBE0F901F9018951F929E
:101A50000F920FB60F9211242F933F934F935F93E2
:101A60006F937F938F939F93AF93BF93EF93FF9366
:101A70008AED91E00E94EB0BFF91EF91BF91AF9146
:101A80009F918F917F916F915F914F913F912F9196
:101A90000F900FBE0F901F9018958AED91E00E9455
:101AA000B00B21E0892B09F420E0822F08951092D9
:101AB000DD011092DC0188EE93E0A0E0B0E08093BD
:101AC000DE019093DF01A093E001B093E10189E989
:101AD00091E09093DB018093DA0185EC90E09093A4
:101AE000E7018093E60184EC90E09093E901809314
:101AF000E80180EC90E09093EB018093EA0181ECA7
:101B000090E09093ED018093EC0182EC90E0909353
:101B1000EF018093EE0186EC90E09093F1018093C9
:101B2000F0011092F3011092F4011092F50110925D
:101B3000F601089508950E94DD0A0E949A0D0E9400
:101B40009200CDEDDBE00E945F012097E1F30E945F
:101B5000DD0BF9CFCF92DF92EF92FF920F931F939D
:101B6000CF93DF937C016A01EB0100E010E00C15DC
:101B70001D0571F06991D701ED91FC910190F08103
:101B8000E02DC7010995892B19F00F5F1F4FEFCF8B
:101B9000C801DF91CF911F910F91FF90EF90DF90DF
:101BA000CF9008956115710581F0DB010D90002043
:101BB000E9F7AD0141505109461B570BDC01ED918E
:101BC000FC910280F381E02D099480E090E008957B
:101BD0000C94D20DDC01ED91FC910190F081E02D8F
:101BE000099465EA71E00C94D20D0F931F93CF9383
:101BF000DF93EC010E94D20D8C01CE010E94F10D09
:101C0000800F911FDF91CF911F910F9108958F92B7
:101C10009F92AF92BF92CF92DF92EF92FF920F937B
:101C20001F93CF93DF93CDB7DEB7A1970FB6F8948C
:101C3000DEBF0FBECDBF7C01C42EE52FCB01D22E5F
:101C400019A221E02D1510F02AE0D22E8E010F5D91
:101C50001F4F8D2C912CA12CB12C6C2D7E2FA5010A
:101C600094010E9421108C2DD29E801911240150C4
:101C700011098A3014F4805D01C0895CF801808309
:101C8000211531054105510521F0C22EE32FCA016E
:101C9000E4CFB801C7010E94D20DA1960FB6F89407
:101CA000DEBF0FBECDBFDF91CF911F910F91FF908F
:101CB000EF90DF90CF90BF90AF909F908F9008955E
:101CC000CF92DF92EF92FF920F931F93CF93DF9308
:101CD000EC016A017B012115310579F4E881F98174
:101CE0000190F081E02D642FDF91CF911F910F9132
:101CF000FF90EF90DF90CF9009942A303105E9F4FE
:101D000077FF1AC06DE20E94EA0D8C014427552727
:101D1000BA014C195D096E097F092AE0CE010E94C3
:101D2000070E800F911FDF91CF911F910F91FF90B0
:101D3000EF90DF90CF9008952AE0B701A601CE0181
:101D4000DF91CF911F910F91FF90EF90DF90CF9097
:101D50000C94070E9A01AB01662757FD6095762F0C
:101D60000C94600E0F931F93CF93DF93EC019A01B5
:101D7000AB01662757FD6095762F0E94600E8C019F
:101D8000CE010E94F10D800F911FDF91CF911F9125
:101D90000F9108952115310541F4DC01ED91FC917D
:101DA0000190F081E02D642F09940C94070E0F939D
:101DB0001F93CF93DF93EC019A01AB0160E070E0D9
:101DC0000E94CA0E8C01CE010E94F10D800F911F5E
:101DD000DF91CF911F910F9108950F931F93CF9390
:101DE000DF93EC010E94CA0E8C01CE010E94F10D1E
:101DF000800F911FDF91CF911F910F9108950CD00B
:101E0000E6C0DED040F0D5D030F021F45F3F19F0CD
:101E1000C7C0511110C1CAC0EBD098F39923C9F3C0
:101E20005523B1F3951B550BBB27AA2762177307E0
:101E3000840738F09F5F5F4F220F331F441FAA1F94
:101E4000A9F333D00E2E3AF0E0E830D09150504054
:101E5000E695001CCAF729D0FE2F27D0660F771F02
:101E6000881FBB1F261737074807AB07B0E809F0E4
:101E7000BB0B802DBF01FF2793585F4F2AF09E3F79
:101E8000510568F08DC0D7C05F3FECF3983EDCF39E
:101E9000869577956795B795F7959F5FC9F7880FF2
:101EA000911D9695879597F90895E1E0660F771F44
:101EB000881FBB1F621773078407BA0720F0621BD5
:101EC000730B840BBA0BEE1F88F7E095089598D03A
:101ED00088F09F5790F0B92F9927B751A0F0D1F013
:101EE000660F771F881F991F1AF0BA95C9F712C09D
:101EF000B13081F09FD0B1E008959CC0672F782F5A
:101F00008827B85F39F0B93FCCF386957795679508
:101F1000B395D9F73EF490958095709561957F4F74
:101F20008F4F9F4F0895E89409C097FB3EF490951A
:101F30008095709561957F4F8F4F9F4F9923A9F0A2
:101F4000F92F96E9BB279395F69587957795679531
:101F5000B795F111F8CFFAF4BB0F11F460FF1BC075
:101F60006F5F7F4F8F4F9F4F16C0882311F096E908
:101F700011C0772321F09EE8872F762F05C06623B6
:101F800071F096E8862F70E060E02AF09A95660F6F
:101F9000771F881FDAF7880F9695879597F9089528
:101FA00097F99F6780E870E060E008959FEF80EC0C
:101FB000089500240A9416161706180609060895AF
:101FC00000240A9412161306140605060895092E15
:101FD0000394000C11F4882352F0BB0F40F4BF2B84
:101FE00011F460FF04C06F5F7F4F8F4F9F4F0895C4
:101FF00057FD9058440F551F59F05F3F71F04795BA
:10200000880F97FB991F61F09F3F79F0879508959E
:10201000121613061406551FF2CF4695F1DF08C0BD
:10202000161617061806991FF1CF869571056105DA
:1020300008940895E894BB2766277727CB0197F982
:102040000895A1E21A2EAA1BBB1BFD010DC0AA1FF9
:10205000BB1FEE1FFF1FA217B307E407F50720F011
:10206000A21BB30BE40BF50B661F771F881F991F8C
:102070001A9469F760957095809590959B01AC01D5
:10208000BD01CF010895EE0FFF1F0590F491E02DE3
:1020900009940E945410A59F900DB49F900DA49F89
:1020A000800D911D11240895A29FB001B39FC0011E
:1020B000A39F700D811D1124911DB29F700D811D74
:1020C0001124911D08950F931F93CF93DF93869F43
:1020D0008001879F100D969F100D1124C8010E944A
:1020E0007F10EC01009729F0A80160E070E00E94E9
:1020F000C411CE01DF91CF911F910F910895CF931D
:10210000DF938230910510F482E090E0E091790253
:10211000F0917A0220E030E0A0E0B0E0309739F1B1
:102120004081518148175907B8F04817590771F491
:1021300082819381109729F013969C938E93129726
:102140002CC090937A028093790227C02115310523
:1021500031F04217530718F0A901DB0101C0EF016C
:102160009A01BD01DF010280F381E02DD7CF211557
:102170003105F9F0281B390B2430310580F48A81B0
:102180009B816115710521F0FB019383828304C05B
:1021900090937A0280937902FE01329644C0FE0148
:1021A000E20FF31F819391932250310939832883E1
:1021B0003AC02091770230917802232B41F420918C
:1021C000020130910301309378022093770220912D
:1021D0000001309101012115310541F42DB73EB7C1
:1021E0004091040150910501241B350BE0917702C9
:1021F000F0917802E217F307A0F42E1B3F0B28178B
:10220000390778F0AC014E5F5F4F2417350748F06F
:102210004E0F5F1F50937802409377028193919302
:1022200002C0E0E0F0E0CF01DF91CF910895CF93BD
:10223000DF93009709F487C0FC0132971382128262
:10224000C0917902D0917A02209781F42081318166
:10225000280F391F80917702909178028217930797
:1022600079F5F0937802E09377026DC0DE0120E00B
:1022700030E0AE17BF0750F412964D915C91139762
:102280009D014115510509F1DA01F3CFB383A28312
:1022900040815181840F951F8A179B0771F48D919E
:1022A0009C911197840F951F0296918380831296BB
:1022B0008D919C911397938382832115310529F485
:1022C000F0937A02E09379023EC0D9011396FC9311
:1022D000EE9312974D915D91A40FB51FEA17FB077E
:1022E00079F480819181840F951F0296D90111960E
:1022F0009C938E938281938113969C938E931297D5
:10230000E0E0F0E08A819B81009719F0FE01EC018A
:10231000F9CFCE01029628813981820F931F209137
:102320007702309178022817390769F4309729F439
:1023300010927A021092790202C013821282D09314
:102340007802C0937702DF91CF910895FC0188272E
:102350009927E89421912032E9F3293010F02E30AA
:10236000C8F32B3241F02D3239F4689404C00E9436
:10237000D411820F911D219120532A30C0F31EF4F5
:10238000909581959F4F0895DC0101C06D93415058
:102390005040E0F70895FB01DC018D910190801918
:1023A0000110D9F3990B08957AE0979F902D879F9C
:1023B000802D910D1124089510E0CEECD0E004C0E2
:1023C000FE010E9445102296C03DD107C9F7F8943E
:0223D000FFCF3D
:1023D20000007B0280000500030143617074757286
:1023E200696E672073657269616C206F75747075B0
:1023F20074206F6E2050726F5472696E6B65740038
:10240200302C302C312C322C302000332C332C3316
:102412002C332C332000456C617073656420746921
:102422006D65206973203A2000506978656C2065DB
:102432006C656D20616E6420636F6C6F72206571D4
:1024420075616C3A20002C20005441494C00204315
:10245200757272656E7453657175656E6365200081
:102462004845414400000000002E0CAA0DB00BC9E3
:102472000BBB0B0C0C0D0A006E616E00696E6600E0
:062482006F7666002E00DB
:00000001FF
